:020000040000FA
:1000000090200020190200002102000023020000BD
:100010002502000027020000290200000000000065
:100020000000000000000000000000002B020000A3
:100030002D020000000000002F020000310200002D
:1000400033020000330200003302000033020000DC
:10005000330200003302000061020000330200009E
:1000600033020000ED0500003302000033020000FF
:1000700033020000330200003302000033020000AC
:1000800033020000050300003302000033020000C9
:10009000330200003302000033020000330200008C
:1000A000330200003302000033020000330200007C
:1000B00033020000330200000000000000000000D6
:1000C000330200003302000033020000330200005C
:1000D0003302000033020000330200000000000081
:1000E0000000000000000000000000000000000010
:1000F0000000000000000000000000000000000000
:1001000000000000000000000000000000000000EF
:1001100000000000000000000000000000000000DF
:1001200000000000000000000000000000000000CF
:1001300000000000000000000000000000000000BF
:1001400000000000000000000000000000000000AF
:10015000000000000000000000000000000000009F
:10016000000000000000000000000000000000008F
:10017000000000000000000000000000000000007F
:10018000000000000000000000000000000000006F
:10019000000000000000000000000000000000005F
:1001A000000000000000000000000000000000004F
:1001B000000000000000000000000000000000003F
:1001C000000000000000000000000000000000002F
:1001D000000000000000000000000000000000001F
:1001E000000000000000000000000000000000000F
:1001F00000000000000000000000000000000000FF
:10020000DFF810D000F01AF800480047810800001D
:10021000AFF3008090200020064880470648004742
:10022000FEE7FEE7FEE7FEE7FEE7FEE7FEE7FEE7A6
:10023000FEE7FEE71503000001020000064C074D33
:1002400006E0E06840F0010394E8070098471034A6
:10025000AC42F6D3FFF7D8FFB40C0000D40C00007A
:100260002DE9F8430025DFF894804FF480760124CF
:100270002F460095304600F085FB38B1D8F80403CE
:10028000204203D0304600F073FB2543361D640046
:100290007F1CB6B2082FEDD34FF4BE74204600F099
:1002A00071FB48B1204600F063FB45F000456A460B
:1002B0000121002000F03AFB15F0FF0F16D00126B7
:1002C00000242E420ED008EB8401D1F81005D1F89D
:1002D0001015C0F304200A4AC1F3014152F824204A
:1002E00002B190477600641C082CEAD3002D02DA94
:1002F000684600F00FFCBDE8F88300000060004095
:100300002800002002490248091F096800680847C0
:100310001C000020F0B5A449A4484FF080540B689D
:10032000D4F830210078D4F83411551CC0F30310F0
:1003300006D0944601270026BCF1060F03D00AE040
:1003400003F0FF0CF6E7B4F82453DFF864C2C5F3FA
:100350000425CCF80050DDB2062D06D1032804D1C7
:10036000DFF854C2934DCCF87450551C04D0944619
:10037000BCF1060F03D00AE003F0FF0CF8E7D4F855
:100380004452DFF838C2C5F34235CCF80050DDB234
:10039000062D08D1032806D1894DD5F800C02CF0D0
:1003A000807CC5F800C0551C04D09446BCF1060FF3
:1003B00003D00BE003F0FF0CF8E74FF08045C5F8E1
:1003C0000C61C5F810617D4D2D1F2E60DDB2062D2C
:1003D00008D1032806D1DFF8E4C103250CF1640C31
:1003E000CCF80050DDB2062D10D103280ED1DFF875
:1003F000D4C10525CCF80050724D78352F60714D71
:1004000008352E600CF104063F253560551C04D0DC
:1004100016460D46062E03D05BE0DEB20546F9E730
:10042000ED1E012D55D9684D2D68684E3560664D1D
:100430002D1D2D68361D3560634D08352D68361D20
:100440003560614D0C352D68361D35605E4D1035BB
:100450002D68361D35605C4D14352D68361D3560B0
:10046000594D18352D68594E20363560564D1C357E
:100470002D68361D3560544D20352D68361D35608C
:10048000514D24352D68361D35604F4D28352D686A
:10049000361D35604C4D2C352D68361D35604A4D66
:1004A00030352D68494E40363560474D34352D681E
:1004B000361D3560444D38352D68361D3560424D4A
:1004C0003C352D68361D35603F4D40352D68361D55
:1004D0003560551C03D01646062E02D007E0DEB26A
:1004E000FAE7D4F858523A4E05F04F053560551CDE
:1004F00003D01346062B02D008E0DBB2FAE73548FA
:100500000368DB0702D06FF001030360062A07D1FE
:10051000C91E022904D93048016841F48061016094
:1005200027487438016841F470010160BFF34F8FB0
:10053000BFF36F8FD4E94C104FF01022062907D17A
:10054000C01E032804D9D2F808021C491C310860D7
:10055000D2F80002002803DBD2F8040200281FDAD8
:10056000012000F0CBFA1521C2F800121B480368E5
:10057000002BFCD0C2F8041201680029FCD0002036
:1005800000F0BCFABFF34F8F0D48F0380168144AF1
:1005900001F4E06111430160BFF34F8F00BFFDE73D
:1005A000114910480860F0BDE00F00F0E80F00F0BE
:1005B000403501400DF0ADBA00C007403C05004099
:1005C000FCED00E0105600400404001020C500407F
:1005D000E40E0040000400403C17004000E40140ED
:1005E0000400FA050090D003240000202DE9F04714
:1005F000104E042700244FF4A0784FF4803900BF38
:1006000008EB840509FA04F0715961B1D6F80413B6
:10061000014208D02946304600F0BCF90648D0E92E
:10062000002128469047641CE4B2BC42E8D3BDE8F0
:10063000F0870000009000408400002002E008C81D
:10064000121F08C1002AFAD170477047002001E04C
:1006500001C1121F002AFBD1704700F0E3F84FF4EC
:100660007A74204600F02EF9002000F0B9F801203D
:1006700000F0B6F8F5E70EB500210091CDE90110C4
:100680006A4644F20100FFF7E8FF0EBDB0F5A07F17
:1006900007D10449487808B9022008708868496879
:1006A000084770470C0000201CB50C490C4AD1E9E2
:1006B0000201CDE9000100208DF801008DF8020053
:1006C00004208DF800006946044800F0AFF90028C6
:1006D00002D1044A012111701CBD0000A40C0000CD
:1006E0008D0600000C0000202DE9F8439846914645
:1006F0000F00054605D0012D05D035B10720BDE816
:10070000F8830E20FBE7012601E04FF48076154CBC
:10071000207810B1032802D006E00820EFE700F0AF
:1007200025F808B1FFF7A7FF2078022802D10E486C
:1007300000F036F96570C4E9017801200090334675
:100740004A460021084800F05BF920780228064854
:1007500005D000F047F9032020700020CFE700F01B
:10076000C9F9F8E70C000020A40C000010B5054CF6
:100770002078032804D1044800F0B8F90220207042
:10078000002010BD0C000020A40C00002DE9FC414D
:100790000646C0074FF000050ED0104F002401227E
:1007A000385D009500231146019500F09BF8641C0C
:1007B000042CF4D300F036F8B0070DD5074E002412
:1007C000361D0022305D032300951146019500F08F
:1007D00089F8641C042CF4D3BDE8FC81960C00005D
:1007E00007490B5C4FF0A041D1F804250120984047
:1007F00020EA0203C1F808351040C1F80C05704723
:10080000960C00000249085C012100F0A5B8000028
:10081000960C00000249085C002100F09DB8000021
:10082000960C000010B500242046FFF7EBFF641C77
:10083000042CF9D310BD00000249084490F930009F
:10084000704700002800002010B50C46FFF7C8FFD5
:10085000094A282050600A20906000234CF2503250
:1008600006492046FFF740FF002803D0BDE81040AE
:10087000FFF701BF10BD000000000020FD0B0000CD
:10088000FFF712FF08B1FFF7F6FE0120FFF77EFF2A
:100890000020FFF7BFFF0120FFF7BCFF4FF47A7085
:1008A00000F010F8002000F097F920BF40BF20BFF3
:1008B000FBE7C20800F007030120895C984008406C
:1008C000704700002DE9F041040007D0044E4FF4BA
:1008D0007A47751C3846A847641EFAD1BDE8F081F6
:1008E000900C000070B541EA4201DDE904564FF07A
:1008F000A04441EA830141EA052104EB800041EA7A
:100900000641C0F8001770BD4FF0A04202EB800016
:10091000D0F8002722F44032C0F80027D0F8002792
:1009200042EA0141C0F800177047000038B5094B92
:1009300044181B6800936B4608E000BF53F8201072
:10094000D1F8205520C2C1F82055401C8442F5D86A
:1009500038BD0000A00C000001224FF0A0438240EF
:1009600011B1C3F808257047C3F80C257047000083
:10097000034908B50844002101600068009008BDE3
:100980000060004002494058012800D00020704714
:100990000060004008B5002242504058009008BD59
:1009A00000680121C16070472DE9F04106460D46FF
:1009B0004FF4803400681746AC404BB14FF4A0713F
:1009C00001EB8501FFF7E6FF3068C0F8044301E062
:1009D000C0F80843306800EB8500C0F84075BDE8FA
:1009E000F0810000016801220A600079034A00EBEF
:1009F000400002EB80000221017270478400002059
:100A0000F0B40468049E40F20115D4F800728D40E1
:100A1000AF43C4F800720468D4F800521D43C4F810
:100A200000523346F0BCFFF7BFBF00002DE9F04194
:100A300004460E4600792C4900EB400001EB80078C
:100A4000387A10B10820BDE8F0813A60706800255E
:100A50004FF4A078786006E008EB85012068FFF786
:100A600099FF6D1CEDB26079A842F5D82068F17845
:100A700040F3073000284FEA411104DB00F1E02089
:100A800080F8001405E000F00F0000F1E02080F88D
:100A9000141D2068012140F30730002809DB00F015
:100AA0001F0201FA02F24009800000F1E020C0F8C4
:100AB000002120687278D0F8043562F30103C0F891
:100AC00004352068B278D0F8083562F30103C0F825
:100AD000083520683278D0F8103562F30303C0F887
:100AE000103539720020AEE7840000200068012133
:100AF0004160704700680121016070470349086048
:100B0000034801680029FCD07047000004E501405B
:100B100000E401402DE9F05F2A4F06464FF0A04A5D
:100B20004FF0010B0024381990F95010491C3CD0AB
:100B300090F85000314620F0C0052846FFF7B9FE76
:100B400020B3204600F040F881460AEB8500D0F83B
:100B50000007C0F30148B8F1020F18D0022128465F
:100B6000FFF7D2FE0BFA05F1CAF820152846FFF769
:100B700063FE57F820204AB14846B9F1030F11D05F
:100B8000B8F1020F05D0B8F1030F07D00DE0032133
:100B9000E5E74846B9F1010F04D006E04846B9F14F
:100BA000020F02D1014628469047641C042CBAD398
:100BB000324601210020FFF7B9FE30680028B1D18C
:100BC000BDE8F09F280000200249084490F850003A
:100BD000800970472800002007490870087820B174
:100BE000012805D00878FFF746BD0021084601E03E
:100BF00001210846FFF728BE00000020234810B559
:100C000002780A211AB1012A1DD0007815E0426845
:100C1000521E426015D08268521E826003D18160EC
:100C20000020FFF7DDFD00234CF25032AFF233011C
:100C30001846FFF759FD002827D0BDE81040FFF700
:100C40001ABD01201DE04268521E426009D0826830
:100C5000521E826019D18160BDE810400120FFF76B
:100C6000BFBD0020FFF7D6FD0120FFF7D3FDFFF742
:100C70007DFD08B1FFF7FFFC4FF47A70FFF722FE0D
:100C80000020BDE81040FFF7A7BF10BD0000002006
:100C90000338FDD87047111213140D0E0F10000009
:100CA000000000500090004000040000000000061A
:100CB00000000000D40C000000000020280000000C
:100CC0003C060000FC0C000028000020682000000A
:100CD0004C060000000000000000000000000000C2
:100CE0000000000000000000000000000000000004
:0C0CF00000000000000000000090D00395
:0400000500000201F4
:00000001FF
