:020000040000FA
:10000000382D0020950300009D0300009F03000091
:10001000A1030000A3030000A503000000000000EE
:10002000000000000000000000000000A703000026
:10003000A903000000000000AB030000AD030000B6
:10004000AF030000AF030000D90C00004D09000011
:100050005D090000AF030000F1060000A5070000E5
:10006000AF030000890C00009D0C0000AF030000EE
:10007000AF030000AF030000AF030000AF030000B8
:10008000AF03000095070000AF030000AF030000BE
:10009000AF030000AF030000AF030000AF03000098
:1000A000AF030000AF030000B10C0000C50C00005E
:1000B000AF030000AF0300000000000000000000DC
:1000C000AF030000AF030000AF030000AF03000068
:1000D000AF030000AF030000AF030000000000000A
:1000E0000000000000000000000000000000000010
:1000F0000000000000000000000000000000000000
:1001000000000000000000000000000000000000EF
:1001100000000000000000000000000000000000DF
:1001200000000000000000000000000000000000CF
:1001300000000000000000000000000000000000BF
:1001400000000000000000000000000000000000AF
:10015000000000000000000000000000000000009F
:10016000000000000000000000000000000000008F
:10017000000000000000000000000000000000007F
:10018000000000000000000000000000000000006F
:10019000000000000000000000000000000000005F
:1001A000000000000000000000000000000000004F
:1001B000000000000000000000000000000000003F
:1001C000000000000000000000000000000000002F
:1001D000000000000000000000000000000000001F
:1001E000000000000000000000000000000000000F
:1001F00000000000000000000000000000000000FF
:1002000000F002F800F045F80AA090E8000C8244E3
:100210008344AAF10107DA4501D100F03AF8AFF2C0
:10022000090EBAE80F0013F0010F18BFFB1A43F0D4
:10023000010318474C3E00006C3E0000103A24BFFA
:1002400078C878C1FAD8520724BF30C830C144BF3B
:1002500004680C607047000000230024002500267D
:10026000103A28BF78C1FBD8520728BF30C148BF19
:100270000B6070471FB503F0F5FD00F0ADF9040009
:100280000020002103F0D8FD401C60601FBD10B5A8
:1002900010BD00F0E9F91146FFF7ECFF01F0FAFAA2
:1002A00000F007FA03B4FFF7F2FF03BC00F00AFA0C
:1002B00030B4044654E8000F0D4644E80053002BC8
:1002C000F8D1156030BC704730B4044654E8000FD4
:1002D00040EA010544E80053002BF7D1156030BC1B
:1002E000704730B4044654E8000F00EA010544E8C2
:1002F0000053002BF7D1156030BC704730B4044672
:1003000054E8000F80EA010544E80053002BF7D1C0
:10031000156030BC704730B4044654E8000F00EB61
:10032000010544E80053002BF7D1156030BC70473D
:1003300030B4044654E8000FA0EB010544E8005334
:10034000002BF7D1156030BC704770B404464FF0F5
:10035000000054E8006F0D68AE4207BF44E8002378
:10036000012044E800630E60002B1CBF0020F0E772
:1003700070BC704730B4044654E8000F88422CBF6C
:10038000451A054644E80053002BF5D1156030BCF2
:10039000704700000948804709480047FEE7FEE72C
:1003A000FEE7FEE7FEE7FEE7FEE7FEE7FEE7FEE725
:1003B00004480549054A064B70470000B109000092
:1003C00001020000380D0020382D0020381D0020CB
:1003D000381D002010B500F0FFF8001D10BD00BF53
:1003E000593A0000B2F120030AD5C2F1200320FAE5
:1003F00002F001FA03F321FA02F140EA0300704728
:1004000021FA03F04FF00001704700F06CBF40EAA2
:100410000103024630B59B0710D14FF0013400E0D4
:1004200008C208C91D1B9D4315EAC41FF8D013F06C
:10043000FF0102F8011B0DD01B0AF8E711F8013B80
:10044000002B02F8013B05D011F8013B002B02F80C
:10045000013BF3D130BD10B5431C02E010F8011B85
:1004600071B18107FAD14FF0013202C88C1A8C4366
:1004700014EAC211F9D0C01A0A0603D0C01E10BD7A
:10048000C01A10BD0A0401D0801E10BD0902FCD0A4
:10049000401E10BD032A40F2308010F0030C00F023
:1004A000158011F8013BBCF1020F624498BF11F8AE
:1004B00001CB00F8013B38BF11F8013BA2F1040267
:1004C00098BF00F801CB38BF00F8013B11F00303DF
:1004D00000F02580083AC0F0088051F8043B083A43
:1004E00051F804CBA0E80810F5E7121D5CBF51F8E5
:1004F000043B40F8043BAFF30080D20724BF11F85F
:10050000013B11F801CB48BF11F8012B24BF00F8C3
:10051000013B00F801CB48BF00F8012B704710B534
:10052000203AC0F00B80B1E81850203AA0E81850EB
:10053000B1E81850A0E81850BFF4F5AF5FEA027CAC
:1005400024BFB1E81850A0E8185044BF18C918C01B
:10055000BDE810405FEA827C24BF51F8043B40F8BC
:10056000043B08BF7047D20728BF31F8023B48BFA1
:1005700011F8012B28BF20F8023B48BF00F8012BDF
:1005800070474FF0000200B5134694469646203956
:1005900022BFA0E80C50A0E80C50B1F12001BFF43C
:1005A000F7AF090728BFA0E80C5048BF0CC05DF8A2
:1005B00004EB890028BF40F8042B08BF704748BFF0
:1005C00020F8022B11F0804F18BF00F8012B704764
:1005D000704770477047000000487047F80C0020D3
:1005E00000487047D80C00204FF0013C50F8042B15
:1005F00051F8043B9A4221D1A2EB0C03934313EA36
:10060000CC1317D150F8042B51F8043B9A4215D162
:10061000A2EB0C03934313EACC130BD150F8042B39
:1006200051F8043B9A4209D1A2EB0C03934313EA1D
:10063000CC13DBD04FF00000704700BFD01A01BAD6
:10064000B1FA81F101F0180122FA01F0CB40C1F1B9
:100650002001DBB2C0B2C01A2CFA01F3D11A9143C7
:1006600011EAC311E6D170477546FFF7B9FFAE46F0
:1006700005006946534620F00700854618B020B5AE
:10068000FFF796FEBDE820404FF000064FF0000750
:100690004FF000084FF0000B21F00701AC46ACE82A
:1006A000C009ACE8C009ACE8C009ACE8C0098D4697
:1006B000704710B50446AFF300802046BDE81040F7
:1006C000FFF7F0BD01491820ABBEFEE7260002008F
:1006D0007047000010B502F00FFF00F0D1FD034895
:1006E0000088BDE8104002F063BF0000AC000020AD
:1006F0002DE9F8430025DFF894804FF4807601243B
:100700002F460095304601F067FC38B1D8F8040355
:10071000204203D0304601F055FC2543361D6400CD
:100720007F1CB6B2082FEDD34FF4BE74204601F003
:1007300053FC48B1204601F045FC45F000456A46AF
:100740000121002001F0FAFB15F0FF0F16D0012661
:1007500000242E420ED008EB8401D1F81005D1F808
:100760001015C0F304200A4AC1F3014152F82420B5
:1007700002B190477600641C082CEAD3002D02DAFF
:10078000684602F069FDBDE8F883000000600040A3
:10079000CC00002002490248091F09680068084788
:1007A000440000202DE9FE434FF48278404601F0DA
:1007B000A3FF4C4F00254C4C012600B3404601F0EE
:1007C000A3FF94F82E0010B194F82F10D1B18DF83A
:1007D0000050616801912189ADF80810E26832B1DA
:1007E000218B618362602181E56010B102E0257494
:1007F00000E03E6021686846884784F82F5094F8EE
:100800002E0060B34FF48077384601F075FF30B3A7
:10081000384601F079FF628B94F82D108A420AD98C
:10082000A2EB010080B260832289A2EB0000626823
:1008300002EB400005E007D1E06828B184F82F60A2
:10084000658301F051FF04E08A4202D184F82F60F1
:100850006583404601F058FF2248001D06604FF4B2
:100860008877384601F048FF48B1384601F04CFF20
:10087000257402208DF800002168684688474FF4EF
:100880008A77384601F038FF28B1384601F03CFF3E
:100890002574BDE8FE834FF000484FF48C796769FA
:1008A0001DE000BFB7FA87F028FA00F109EB8005D8
:1008B0008F43284601F020FF88B1284601F024FF2D
:1008C000A5F58C75E8088DF8040045F38000401C00
:1008D0008DF800608DF80500216868468847002F74
:1008E000E0D1D6E700700040DC01002000F0FAB94A
:1008F00070B50E46144900EB400001EBC0051446EC
:10090000E86A183520B101280FD0022805D113E07C
:10091000284600F01BFAA04201D2002411E0224632
:100920003146284600F057FA0BE0284600F00EFA50
:10093000A042F4D20446F2E73146284600F01EFAFF
:100940000446204670BD00002C08002001490248E2
:1009500002F046BF5801002000300040F8B54FF0CB
:1009600040200446114E4FF48C7101F0EEFE002839
:100970001AD00025C4F81851D4F818010090F07F5F
:100980003446FF2806D0A17F11B101F0EDFA01E055
:1009900001F011FB65772572D4E9002101B004F163
:1009A0000800BDE8F0401047F8BD00000C02002030
:1009B000F0B5A449A4484FF080540B68D4F8302116
:1009C0000078D4F83411551CC0F3031006D09446B7
:1009D00001270026BCF1060F03D00AE003F0FF0C4C
:1009E000F6E7B4F82453DFF864C2C5F30425CCF865
:1009F0000050DDB2062D06D1032804D1DFF854C221
:100A0000934DCCF87450551C04D09446BCF1060F9D
:100A100003D00AE003F0FF0CF8E7D4F84452DFF803
:100A200038C2C5F34235CCF80050DDB2062D08D1EE
:100A3000032806D1894DD5F800C02CF0807CC5F87C
:100A400000C0551C04D09446BCF1060F03D00BE047
:100A500003F0FF0CF8E74FF08045C5F80C61C5F8CE
:100A600010617D4D2D1F2E60DDB2062D08D10328AB
:100A700006D1DFF8E4C103250CF1640CCCF800507A
:100A8000DDB2062D10D103280ED1DFF8D4C1052523
:100A9000CCF80050724D78352F60714D08352E60BE
:100AA0000CF104063F253560551C04D016460D4652
:100AB000062E03D05BE0DEB20546F9E7ED1E012D00
:100AC00055D9684D2D68684E3560664D2D1D2D68D1
:100AD000361D3560634D08352D68361D3560614D16
:100AE0000C352D68361D35605E4D10352D68361D70
:100AF00035605C4D14352D68361D3560594D1835FF
:100B00002D68594E20363560564D1C352D68361DE2
:100B10003560544D20352D68361D3560514D2435D6
:100B20002D68361D35604F4D28352D68361D3560D2
:100B30004C4D2C352D68361D35604A4D30352D68AD
:100B4000494E40363560474D34352D68361D356089
:100B5000444D38352D68361D3560424D3C352D6885
:100B6000361D35603F4D40352D68361D3560551CAE
:100B700003D01646062E02D007E0DEB2FAE7D4F81C
:100B800058523A4E05F04F053560551C03D01346B8
:100B9000062B02D008E0DBB2FAE735480368DB0732
:100BA00002D06FF001030360062A07D1C91E022993
:100BB00004D93048016841F48061016027487438E5
:100BC000016841F470010160BFF34F8FBFF36F8F75
:100BD000D4E94C104FF01022062907D1C01E03287B
:100BE00004D9D2F808021C491C310860D2F800026E
:100BF000002803DBD2F8040200281FDA012002F0EB
:100C0000F9FA1521C2F800121B480368002BFCD02A
:100C1000C2F8041201680029FCD0002002F0EAFAB0
:100C2000BFF34F8F0D48F0380168144A01F4E061BA
:100C300011430160BFF34F8F00BFFDE7114910481A
:100C40000860F0BDE00F00F0E80F00F04035014013
:100C50000DF0ADBA00C007403C050040FCED00E0DF
:100C6000105600400404001020C50040E40E00406F
:100C7000000400403C17004000E401400400FA0575
:100C80000090D003C800002004220249024800F06E
:100C900083BD00002801002000900040042202498A
:100CA000024800F079BD00003401002000A000409F
:100CB00006220249024800F06FBD000040010020FA
:100CC00000A0014006220249024800F065BD000074
:100CD0004C01002000B001400148006800470000BE
:100CE0000C00002010B5124C02202061606111A0A0
:100CF000A06104F17800E0614FF4007020620020F0
:100D0000A06260620BA1A164E06204F51E71E1645F
:100D10001021A065C4E91410E06509A1E01DFFF7EA
:100D200076FB08A12046FFF772FB2020A07110BDC2
:100D30002C0800205465726D696E616C0000000023
:100D40005254540053454747455200000269C16858
:100D50008A4203D88068401A104400E0501A401EAE
:100D60007047002809DB00F01F0201219140400973
:100D7000800000F1E020C0F8801270472DE9F047B4
:100D8000C4681746894606464FF000083069A042FD
:100D900001D9051B02E0B168201A0D1AB0686D1E5A
:100DA000001BA84200D80546BD4200D33D467068EE
:100DB0002A4620444946FFF76DFBB0687F1B2C4450
:100DC000A844A944A04200D10024F460002FDDD142
:100DD0004046BDE8F0872DE9F04104468846D4E955
:100DE0000207C51BE168606816460844B54206D98B
:100DF0004146FFF74FFBB819E060BDE8F0812A4695
:100E00004146FFF747FB761B08EB05013246606859
:100E1000FFF740FBE660F0E710B572B601F04AFB61
:100E200001F0A8F90028FBD111481249401AC40862
:100E3000012000EB044010A101F0B4FA1148006851
:100E4000C00700D000BE022000EB04400EA101F05C
:100E5000A9FABFF34F8F0B48E43801680E4A01F43A
:100E6000E06111430160BFF34F8F00BFFDE7000059
:100E700028420000C0410000466174616C20657228
:100E8000726F7200F0ED00E053797374656D20723B
:100E900065736574000000000400FA050EB50021BA
:100EA0000091CDE901106A4644F20100FFF7B4FF5A
:100EB0000EBD10B58268C368934203D000F000FAFB
:100EC000002010BD052010BD29B112B1531E1342E0
:100ED00003D0092070470E207047016083800021F5
:100EE0008160C1600846704710B58268C3689A1A6D
:100EF00083889A4203D800F0EDF9002010BD042049
:100F000010BD0000F0B5244E89B01F460D00044608
:100F100072603FD0A888296882B22048FFF7D4FFCA
:100F2000002835D1A889A96882B21C481030FFF783
:100F3000CBFF00282CD1202219496846FFF7EFFA91
:100F400060690690207C00B101208DF814008DF8B6
:100F50001C70607C00B10E208DF81500E0680290D6
:100F6000A068039020680190606800900A480D4ACC
:100F70006946083000F0E4FD002809D1B07020680F
:100F8000401C05D004490122491CC81D00F00CFE7C
:100F900009B0F0BD0720FBE720000020540200202C
:100FA000CC3E0000DD39000010B501461048FFF7C7
:100FB0009BFF040019D10F480F4A0178515C19B109
:100FC000001D02F009F902E00C3001F0DFFF60B90A
:100FD000084907480839FFF76CFF30B90549012275
:100FE0000839044800F0F0FD0446204610BD00001A
:100FF00064020020280000200000002000F002B859
:1010000000F008B872B602480168491C01607047D8
:101010001400002003490868401E086000D162B631
:1010200070470000140000202DE9F04106460868D2
:101030000C46411C4FF0A0474FF0010506D005FAC1
:1010400000F1C7F80815206800F049FF6068411CEE
:1010500002D0002100F028FF3168A069C1F8240502
:10106000607D217D32680843C2F86C05D4E9001226
:101070003068C0F80C15C0F81425207D012815D162
:10108000A068411C02D0002100F00EFFE068411C66
:1010900005D08540C7F80855E06800F020FFD4E986
:1010A00002123068C0F80825C0F81015BDE8F081BC
:1010B0002DE9F041064608680C46411C4FF0A04758
:1010C0004FF0010506D005FA00F1C7F808152068B1
:1010D00000F00FFF6068411C02D0002100F0EDFE1F
:1010E0003168A069C1F82405607D227D3168104314
:1010F000C1F86C05D4E900123068C0F81425C0F8B6
:101100000C15207D012815D1A068411C02D00021BA
:1011100000F0D3FEE068411C05D08540C7F80855B3
:10112000E06800F0E6FED4E902123068C0F8082555
:10113000C0F81015BDE8F0812DE9F0470546861C82
:1011400091460F464FF0010A0020FFF757FF1B4C56
:1011500004F21C4860683860D4E90101184F401A55
:101160003968081A0EE00121404600F025FC00F025
:101170003FFB0146404600F01FFCD4E90101401A44
:101180003968081A401C8642EDD8B9F1000F03D027
:10119000052065F3891002E0062065F39F50616821
:1011A0003A68114004EB8101C860606830446060B7
:1011B0000020FFF725FF5046BDE8F0870C04002013
:1011C0005800002070B50D4604460A2902D10D21B1
:1011D000FFF7F8FFA0682268411CA1601554D4E90C
:1011E0000101814204D32046BDE8704000F009BDF2
:1011F00070BD0000044881684068814201D101202F
:1012000070470020704700000C04002005494FF093
:10121000FF32082841F8202002D3084480F84820F3
:1012200070470000CC000020F0B54FF0FF3512B140
:101230000023082601E008230C260C4C05E000BF23
:1012400054F823707F1C04D05B1CB342F8D32846AB
:10125000F0BD26185DB286F8305044F82310002AFD
:10126000F5D1E11881F84800F1E70000CC0000203A
:101270000249084490F9300070470000CC0000207B
:10128000034803490088891E40BA0880704700005F
:10129000AE0000200149002008707047B200002015
:1012A00010B50021024800F092FB80F3100010BD41
:1012B000280800200149012008707047B400002070
:1012C000826883881A4003689A5C0A708168491CA6
:1012D00081607047C26883881A4003689954C16866
:1012E000491CC160704710B50446C0B2FFF75CFEF0
:1012F000204610BD10B501F0BBF901F0CDF902494F
:101300000120086010BD000078050040014901205F
:1013100008707047B2000020FFF7CCBF10B502F094
:1013200085F908480849401AC008032101EB00402C
:1013300006A101F037F800BF00F01CFF0028FBD128
:1013400010BD000028420000C04100004144373178
:10135000373120696E697420537563636573730058
:1013600010B5172000F08AF81D2000F087F8C8207B
:1013700001F01EFA1E2000F081F8C82001F018FAD2
:101380001F2000F07BF8C82001F012FA0748084936
:10139000401AC008032101EB004006A101F002F849
:1013A00000F0E8FE0028FBD110BD0000284200003C
:1013B000C041000041443832333220696E697420E4
:1013C000537563636573730010B5192000F056F808
:1013D000122000F053F8112000F050F800210F20E7
:1013E00000F074FD0021BDE810400E2000F06EBD3D
:1013F00010B500F0FBF8FFF7E7FF00F099F800F0F8
:1014000073F800F025F8142000F046FB074808495F
:10141000401AC008032101EB004006A100F0C2FF02
:1014200000F0A8FE0028FBD110BD000028420000FB
:10143000C0410000696E69745065726970686572B8
:10144000616C7320436F6D706C657465640000009F
:1014500010B501F073FA08B1FFF720FDBDE81040A8
:1014600000F02AB810B50446012100F084FD4FF0C9
:10147000A0410120A040C1F80C0510BD10B50446E4
:10148000012100F078FD4FF0A0410120A040C1F8FB
:10149000080510BD2DE9F0414FF4FA74054EE7013F
:1014A000751C3846A847641EFAD1BDE8F0411820E3
:1014B000FFF7E4BF703F000008B50948094A6946D4
:1014C0008068009003208DF801000D2001F0D0F914
:1014D00008B1FFF7E3FC01210D2001F079F908BD07
:1014E000883F00000D1300001FB5104A0023D2E909
:1014F0000401D269CDE900010D208DF802000C2015
:101500008DF800004FF080500392029000208DF87B
:101510000C0002208DF804001A466946034800F0CA
:10152000CBFA002801D0FFF7B9FC1FBD383F0000FF
:1015300010B54FF48041002000F090FF08B1FFF794
:10154000ADFCBDE8104000F007BE000010B5FFF78D
:1015500007FFFFF7E3FE08480849401AC0080321C7
:1015600001EB004006A100F01DFF00BF00F002FEED
:101570000028FBD110BD000028420000C04100003F
:10158000696E697453656E736F727320436F6D700B
:101590006C657465640000000EB51149114AD1E90B
:1015A0000201CDE9010101A90D4801F053FB08B189
:1015B000FFF774FC0A480068D0F810050021C2B299
:1015C0000948FEF70FFF0246012001460090022362
:1015D000034801F029FB024801F018FB0EBD000092
:1015E000783F00001913000000C4090000B58BB05B
:1015F00018220C496846FEF792FF0B4806900B49EB
:101600004FF48070CDE9070109900723084A06A925
:101610006846FFF777FC002801D0FFF73FFC0BB0CE
:1016200000BD0000583F0000B40A0020B40B0020A9
:10163000C93900002DE9FC5F0E008346DDE90C4747
:10164000C6F1000098469246814600D4084601251E
:1016500003E000BF90FBFAF06D1C5045FADAA84594
:1016600000D9454624B1002E01DB780700D5641E61
:10167000B80702D5B8F1000F0AD0F80708D13CB17D
:10168000A54205D220215846641EFFF79BFDF6E7D0
:10169000002E02DA4E462D2102E0780703D52B21D9
:1016A0005846FFF78FFD07F0030002280BD1B8F171
:1016B000000F08D13CB1A54205D230215846641E26
:1016C000FFF780FDF6E7CDE9004743465246314635
:1016D000584602F025FBBDE8FC9F000070B50D46A2
:1016E000044600684FF4887101F05BF84FF4907184
:1016F000206801F056F84FF49271206801F051F81B
:101700004FF4A271206801F04CF84FF4AC712068DE
:1017100001F047F820681249C0F8041320686907EF
:1017200040F30730090E002804DB00F1E02080F8C8
:10173000001405E000F00F0000F1E02080F8141D17
:10174000206840F30730002809DB00F01F02012168
:1017500091404009800000F1E020C0F8001170BD08
:1017600010034200024600201268530713D502F00E
:101770000300012802D002280CD105E0C2F3831037
:101780000B68801C184404E00223086803EB9252A3
:1017900010440860012070472DE9F0411746884643
:1017A0000646002417E000BF4FF4A07000EB84054C
:1017B0004FF480307159A04059B1D6F8041301425A
:1017C00007D02946304600F0C5FFD8E90021284659
:1017D0009047641CE4B2BC42E6D3BDE8F08100004F
:1017E0000148007870470000B200002070470000F8
:1017F0002DE9FF410026244800F0DBF82248001FB5
:10180000074600F0D6F8214C2149A06800900D68E9
:1018100000E000986946284004EB80000C30FFF798
:10182000A1FF0028F5D101AA009901EA050304EB04
:101830008303491CDB6842F82030401C00910228D9
:10184000F2D3019800F0030001280BD0022810D138
:101850000198032101EB90500099BDF80A6001EB5B
:10186000900005E00198BDF80A60C0F383100844B9
:101870000090384600F09AF808B10098A06004B0D3
:101880003046BDE8F0810000240800200C04002050
:10189000580000204FF47A7000F0FEF8FFF7FAFDD0
:1018A000FFF728FDFFF7A4FDFFF750FEFFF774FEDA
:1018B0000B480C49401AC008032101EB00400AA163
:1018C00000F070FD00F056FC0028FBD1FFF788FF08
:1018D00018B1FEF7FFFEFFF7DDFC01F089FDF5E72B
:1018E00028420000C0410000696E697420414C4CE0
:1018F00020436F6D706C6574656400002DE9F047DE
:10190000C5881E1DB6FBF5F78946B6FBF5F1044602
:1019100005FB176C407916686843DDF820A0F718BE
:10192000001F874200D9C61A166001E02468491ECC
:101930000029FBD1A5EB0C078846B74216D818E062
:1019400004EB0C00001D09EB0803BAF1000F3A4646
:1019500002D00146184600E01946FEF79BFD2468B8
:10196000F61B4FF0000CB844B54201D9374600E0F1
:101970002F46002EE4D1BDE8F087000030B50246C6
:1019800051B100F07FFD0021074C08E034F8213010
:101990001568AB4202D11160002030BD491C814264
:1019A000F4D3052030BD000000000000002100F04D
:1019B00009B8012100F010B808B56A46FEF7ABFC83
:1019C000009808BD08B56A46FEF78BFC08BD08B54F
:1019D0006A46FEF76DFC08BD08B56A46FEF774FC62
:1019E000009808BD08B56A46FEF7A2FC009808BD3D
:1019F00070B5044600252846FFF700FB21686268A1
:101A0000086890420ED9401E08600178238AE26877
:101A100001FB0325227A2168101AC0B20A7982429A
:101A200000D208710020FFF7EBFA284670BD70B5B0
:101A300005460C460020FFF7E1FAE868298A201ADB
:101A4000B0FBF1F12A681068431C13600170BDE817
:101A500070400020FFF7D4BA10B530B1017A426867
:101A60000368891AC9B21A6006E00E2010BD036827
:101A70001A68541C1C601170491EC9B2F7D2006864
:101A800000210171084610BDC20800F007030120C3
:101A9000895C9840084070472DE9F041040007D068
:101AA000044E4FF47A47751C3846A847641EFAD195
:101AB000BDE8F081703E00002DE9FF411C4603782F
:101AC000164D174E45F823200C3545F82340F0CE2F
:101AD0008DE8F0000C788DF800404C788DF80140CE
:101AE0008C788DF80240CC788DF803400C798DF815
:101AF00005404C798DF806408C6802940C7B8DF87B
:101B00000C40497B8DF80D1002B1064A6946001D54
:101B100000F076FF04B0BDE8F08100003002002044
:101B2000883E0000553600001FB5001D069C8DE85C
:101B30001E000022694601F019F804B010BD000033
:101B4000F0B505460478154889B0164640F82420BB
:101B5000124A0869121DA2F1080742F82400487FC2
:101B6000385520226846FEF7DAFC04942878385C61
:101B700048B10EB10A4A00E000226946281D01F072
:101B80001DFA09B0F0BD0EB1064A00E00022694618
:101B900005F10C0001F0C6F8F3E700000400002096
:101BA000DD3B0000813A000030B40378054CE35C73
:101BB0001BB130BC001D01F037BA30BC0C3001F055
:101BC0001BB900000000002030B40378054CE35C32
:101BD0001BB130BC001D01F0A9BA30BC0C3001F0C3
:101BE00081B90000000000200FB408B50399002956
:101BF00004D004AA00926A4600F00FF801B05DF824
:101C000014FB10B582680446002A05D0D4E9040309
:101C1000216898470020A06010BD2DE9FC4791463F
:101C20000C00804676D014F8011B39B125290ED05E
:101C30004046FFF7C7FA20780028F4D198F80C0046
:101C4000002867D04046BDE8FC47FFF7DABF002018
:101C5000012221782B291BD02D2902D0302908D12F
:101C600002E040F0010001E040F00200641C002AA4
:101C7000EFD100252A290ED02178A1F130020A2ABD
:101C800011D205EB850201EB4205641C303DF1E702
:101C900040F00400EAE7D9F800100B1DC9F8003045
:101CA0000968641C0D44217800232E290BD114F8F7
:101CB000011FA1F130020A2A05D203EB830201EBD6
:101CC0004203303BF3E76C290DD068290BD069291A
:101CD00021D00BDC252918D0582931D063290ED00A
:101CE000642915D117E014F8011FECE7702969D0B9
:101CF000732932D075291BD0782909D120E0D9F871
:101D00000000011DC9F8001001784046FFF75AFA9B
:101D1000641C90E76CE0D9F800100A1DC9F8002097
:101D20000968CDE900500A224046FFF783FCEFE73F
:101D3000D9F800100A1DC9F8002009680A2206E037
:101D4000D9F800100A1DC9F8002009681022CDE951
:101D50000050404601F0E4FFDAE7D9F80010002710
:101D60000A1DC9F800200E68C00705D112E04046E0
:101D7000761C7F1CFFF726FA31780029F7D104E0A2
:101D8000202140466D1EFFF71DFABD42C0D9002D2F
:101D9000F6D1BDE74EB13046FEF75DFB074604E0E5
:101DA000202140466D1EFFF70DFABD4206D9002DD9
:101DB000F6D103E04046761CFFF704FA317800299B
:101DC000F8D1A5E7D9F80000011DC9F80010056891
:101DD00030214046FFF7F6F978214046FFF7F2F947
:101DE00008200021CDE90001034610222946B0E772
:101DF000BDE8FC8770B541EA4201DDE904564FF0C9
:101E0000A04441EA830141EA052104EB800041EA54
:101E10000641C0F8001770BD70B541EA4201DDE926
:101E200004564FF0A04441EA830141EA052104EB46
:101E3000800041EA0641C0F8001770BD70B541EA64
:101E40004201DDE904564FF0A04441EA830141EA32
:101E5000052104EB800041EA0641C0F8001770BD7F
:101E600070B541EA4201DDE904564FF0A04441EA71
:101E7000830141EA052104EB800041EA0641C0F8F4
:101E8000001770BD70B541EA4201DDE904564FF01C
:101E9000A04441EA830141EA052104EB800041EAC4
:101EA0000641C0F8001770BD1CB500220B46009219
:101EB00011460192FFF7B0FF1CBD1CB500220B4676
:101EC000009211460192FFF7B9FF1CBD1CB500221C
:101ED0000B46009211460192FFF7D4FF1CBD1CB5C2
:101EE000002100910B46012201911146FFF794FF5A
:101EF0001CBD1CB5002100910B4601220191114629
:101F0000FFF79CFF1CBD1CB5002100910B46012270
:101F100001911146FFF7A4FF1CBD4FF0A04202EB58
:101F20008000D0F8002722F44032C0F80027D0F813
:101F3000002742EA0141C0F80017704738B5094B45
:101F400044181B6800936B4608E000BF53F820104C
:101F5000D1F8205520C2C1F82055401C8442F5D844
:101F600038BD0000783E00004FF0A04201218140C2
:101F7000C2F80C1570471CB531B14FF0A0410122D9
:101F80008240C1F818251CBD002100910B460A466D
:101F90000191FFF777FF1CBD42094FF0000100D10E
:101FA000491E00F01F00012282400A4201D0012098
:101FB0007047002070474FF0A04201218140C2F8D5
:101FC00008157047034908B50844002101600068FE
:101FD000009008BD0060004002494058012800D030
:101FE000002070470060004030B5154A01460020CF
:101FF000D2F8104423460AE0DB681D79854205D1FA
:10200000401C0A28F6DB4FF0FF3030BD1B68002B68
:10201000F2D1431CF9D0CB681871D2F8103443B117
:10202000DB68CC681B682360D2F81024D26811608A
:1020300030BDC2F81014C96800220A6030BD00002B
:102040000C0400207047FEF751BC704708B5034AE6
:1020500000924023024A00F005F808BDDD3500007B
:1020600074020020F0B595B01C4615460E46084691
:102070001A9F00F0D7FA182109A8FEF782FA0E97E6
:10208000CDE909540023082203A9304600F0DFFA05
:1020900005980690BDF81000ADF81C00BDF81200C0
:1020A000ADF81E0000208DF821000399082501F0ED
:1020B0000300012802D0022816D02FE0C1F3C2008D
:1020C000C1F383178C0A8DF82000BA002B460FA9A4
:1020D000304600F0BCFA09A8009006AB3A460FA9BA
:1020E000204600F0FBF919E0C1F3C2008C0D8DF819
:1020F0002000082C01D2274600E008272B463A464C
:102100000FA9304600F0A3FA3D44E41B09AB06AA30
:1021100039460FA800F04AF9002CEAD1304600F009
:1021200087FA15B0F0BD00000A4A012902EBC00091
:1021300007D0022907D0032907D0042907D000209F
:10214000704702207047042070470079704740793B
:1021500070470000C041000010B5FFF774FF042174
:102160000348FFF741FF02490120C968487110BDCB
:10217000B04100002DE9FF47FFF73CF818B10020FF
:1021800004B0BDE8F0877D4C0020C4F81804BFF30C
:102190004F8F7B49A06800900D684FF000082840E1
:1021A00004EB80000CE000BFD4F8180470B961683B
:1021B0000098814201D8A160E1E7284004EB80004B
:1021C0000C306946FFF7CEFA0028EDD1002001AAB5
:1021D000009901EA050304EB8303491CDB6842F81C
:1021E0002030401C00910228F2D3019800F0030136
:1021F000022902D001294DD0A5E0810D5022894647
:10220000B2EB905F00D850210E4666F39F500190CC
:1022100008315C4800F0BDF9070077D000F002FA01
:102220004346082201A9384600F019FA009908F13E
:10223000080A2940681A8000001D864223D94F4DA4
:102240000C3530B1C2B204EB8101301A90460C312A
:1022500004E02946F2B2002590462846C6B253460D
:10226000384600F0FCF90AEB08032DB13246294646
:102270004FEA070000F0F3F9009909F1030001EBC0
:102280009000009039E004EB810153463246384615
:102290000C31EFE7C0F38311062900D3062161F367
:1022A00089100190C0F38310801C8100354800F034
:1022B00070F9070047D000F0B5F94346082201A99C
:1022C000384600F0CCF908F1080800260FE0009825
:1022D000434600EA0501401C04EB81010090042202
:1022E00038460C3100F0BBF908F10408761C01985F
:1022F000C0F38310B042EAD847B1D4F81054D4F8F0
:10230000180478B1384600F093F931E01BE0E86832
:102310004079012804D12A68284639461268904736
:10232000E8680568002DF2D1384600F081F90020F8
:10233000FEF764FED4F8180408B90098A0600020E5
:10234000FEF75EFE14E0D4F8104405E02168204654
:1023500089688847E0680468002CF7D10A480B496F
:10236000401AC008022101EB004009A100F01AF850
:10237000FEF740FF80F0010002E700000C0400209F
:10238000580000203042000028420000C0410000F8
:102390004261636B656E647320666C757368656417
:1023A0000000000000231A4601F0CEB92DE9F047E5
:1023B0000E4680461C469246082940D894F80C9058
:1023C000002020731946104600F0C6FF0025B542D4
:1023D00006D218F805201BA12046FFF705FC03E0F4
:1023E0001AA12046FFF700FC6D1C082DEFD318A1A1
:1023F0002046FFF7F9FB0025B54212D218F8057008
:102400007E2F08D8FDF7E6FF0068C05D10F03E0F94
:1024100001D03A4600E02E220EA12046FFF7E4FB51
:1024200003E00DA12046FFF7DFFB6D1C082DE3D371
:1024300001222146504600F071FF84F80C90BDE85F
:10244000F087000020253032780000002020200096
:102450007C0000002563000020000000064910B544
:1024600000200870054800F0E1F8002803D1044876
:1024700000F02CF9002010BD0C04002030420000B8
:10248000083F000002480349401AC0087047000096
:1024900030420000C041000013B56846FFF76EFAF5
:1024A00008B100201CBD0248009950F831001CBD45
:1024B000C041000070B508480125D0F810440570EF
:1024C00007E0E06845712168204649688847E06870
:1024D0000468002CF5D170BD0C0400202DE9FF47E5
:1024E00081460C9D00200C462F7B2873984616468B
:1024F0002946184600F030FF072E42D2DFE806F0EA
:1025000004090F161F2A360049462846FFF76CFBC0
:1025100037E0494628462268FFF766FB31E0D4E9F8
:10252000002349462846FFF75FFB2AE0A068009099
:10253000D4E9002349462846FFF756FB21E0D4E9B9
:102540000201CDE90001D4E9002349462846FFF7FE
:102550004BFB16E004F1080007C88DE80700D4E93A
:10256000002349462846FFF73FFB0AE004F1080034
:102570000FC88DE80F00D4E9002349462846FFF72D
:1025800033FB00222946404600F0C8FE2F73BDE809
:10259000FF872DE9F041058A80462D1F4819C01C90
:1025A000B0FBF5F0C6B24046FFF722FA041E19D080
:1025B0000020207101206071E58000272546761EED
:1025C000C4F800800BE04046FFF712FA60B1617971
:1025D000491C6171286005467F1CC0F80080B74225
:1025E000F1D32046BDE8F081204600F002F800203B
:1025F000F8E72DE9F041457901466B1E002201E024
:102600000968521C9A42FBD30F680146002605E078
:1026100038460C68FFF70BFA2146761CAE42F7D31A
:10262000BDE8F0810121001DFFF7C6B9FFF714BA1C
:1026300010B504460121001DFFF7D4F910F0FF0F7B
:1026400004D12046BDE81040FFF7D3BF10BD1CB534
:1026500001920122009201AAFFF750F91CBD1CB59E
:1026600001920022009201AAFFF748F91CBD000068
:10267000064910B500204870091D0860BFF35F8F40
:102680000349044800F04AF8002010BD180000205B
:10269000C03E00004802002010B50020FEF7AEFC4E
:1026A000F1EE100A20F09F00E1EE100ABFF35F8FF9
:1026B00005494020C1F880020020FEF7A1FC20BFA0
:1026C00040BF20BF10BD000004E000E08268002190
:1026D000916082681161826851618268D16082680C
:1026E0005160806801607047024A1060101D0160EF
:1026F000704700002C76004002494058002800D066
:102700000120704700700040034908B508440022CA
:1027100002600068009008BD007000400160096818
:102720004160AFF3008010B5D0E9002153689942B1
:1027300001D1002104E0D1E90034A34202D01946BE
:10274000816010BD08314160F0E74058002800D09A
:102750000120704708B5002242504058009008BD43
:102760004058002800D00120704708B50022425090
:102770004058009008BD4058002800D00120704704
:1027800008B5002242504058009008BDD0F804031C
:10279000084000D0012070474058002800D0012098
:1027A000704708B5002242504058009008BD000014
:1027B000002802D00149800108477047213F0000EE
:1027C000002802D00149800108477047313F0000CE
:1027D0002DE9F0410E46054600F026FD002828466A
:1027E00019D0FEF745FD083800F090FD032802D00F
:1027F00001280ED007E04FF0A040D0F81005E840C7
:1028000010F0010F05D003212846BDE8F041FFF785
:1028100084BB0221F8E700F013FD002822D02846EF
:10282000FEF726FD04464FF4807000EB84000E4F47
:1028300081B207EB8400D0F8102542F00102C0F805
:1028400010250846FFF7BEFB002E0BD02846FEF7EA
:102850000FFD064951F82000002803D00120A040B8
:10286000C7F80403BDE8F08100600040CC00002000
:102870002DE9FC41DFF8B880044608EB040000278E
:1028800090F930001346C0170E46401C01D00827AF
:102890004AE0B0781946C0F340022046FEF7C4FC77
:1028A0000546401C3FD0B078410717D4C0070AD076
:1028B0004FF0A04000EB8400D0F8001721F0020197
:1028C000C0F8001707E000217378204600910A46FF
:1028D0000191FFF78FFA204600F098FCB07880074E
:1028E00018D51448317800EB8500D0F81025124B2C
:1028F0001A40C0F810254FF4F8524FF4403302EA62
:10290000042203EA01410A43D0F810150A43C0F833
:10291000102509E008EB0500327810F8481F41EA5D
:102920008211017000E004273846BDE8FC810000F8
:10293000CC00002000600040FFE0FCFF70B5194DA6
:1029400095F8580008B1082070BD0024661E204686
:10295000FFF722FB10B1281980F83060641CE4B244
:10296000202CF4D300242046FEF750FC641CE4B273
:102970000C2CF8D300200D4968650B4CC02081F861
:10298000000401264020891FC1F800014FF4BE70E9
:10299000FFF718FBA004C4F8040385F85860002072
:1029A00070BD0000CC0000200060004006E000E0A8
:1029B0000121B1EB507F01D1012070470020704709
:1029C0000121B1EB507F01D10120704700207047F9
:1029D00070B50D4600F082FD04000FD00020FEF718
:1029E0000DFB207920B10020FEF70AFB112070BDFD
:1029F0000120256020710020FEF702FB002070BD41
:102A00002DE9FC470C46154601798046554A01EBF5
:102A1000C10002EB80069946307F10B10820BDE866
:102A2000FC87514AD8F80000074652F82110FFF7FA
:102A3000CFFF08B11120F2E7C6E90059207B012839
:102A4000207802D8FFF790FA01E0FFF7B4FA4FF0D0
:102A5000000ACDF800A0CDF804A0207853465246D5
:102A60000121FFF7FDF960784FF0FF35FF2806D010
:102A70008146FFF779FA4846FFF745FA00E0A94694
:102A8000A078FF2809D0002205460123CDF800A038
:102A90001146CDF804A0FFF7E3F9A07886F82000EE
:102AA000E078F077E078FF280BD0217911B1FFF7BB
:102AB0005BFA01E0FFF77FFAE078FFF724FA20796C
:102AC000B0772178C7F80815C7F80C95C7F81055E6
:102AD000A068C7F82405217B607B00B10120012993
:102AE00004D0022905D0032908D105E040F00200F6
:102AF00004E040F0040001E040F00600C7F854058F
:102B0000A079C7F8C0050720C7F800053068012282
:102B100018B3D8F80000617940F3073000284FEA75
:102B2000411104DB00F1E02080F8001405E000F022
:102B30000F0000F1E02080F8141DD8F8000040F3E9
:102B40000730002809DB00F01F0102FA01F14009FB
:102B5000800000F1E020C0F80011504686F81DA06A
:102B600032775CE70C020020843E00002DE9F04142
:102B700005460F460079154900EBC00001EB8004C3
:102B80001646607F10B11120BDE8F081206820B1A9
:102B900016F0140F01D10120607797E80F0004F1BF
:102BA0000C0888E80F00E07FFF2806D0A17F11B154
:102BB000FFF701FA01E0FFF7D7F933463A4621461D
:102BC0002868BDE8F04100F061BD00000C02002063
:102BD0002DE9F04106460D464FF480340068174653
:102BE000AC404BB14FF4A07101EB8501FFF7B2FD92
:102BF0003068C0F8044301E0C0F80843306800EBD7
:102C00008500C0F84075BDE8F08100000168012230
:102C10000A600079034A00EB400002EB80000221C9
:102C20000172704728010020F0B40468049E40F24D
:102C30000115D4F800728D40AF43C4F800720468E7
:102C4000D4F800521D43C4F800523346F0BCFFF7DD
:102C5000BFBF00002DE9F04104460E4600792C4923
:102C600000EB400001EB8007387A10B10820BDE886
:102C7000F0813A60706800254FF4A078786006E033
:102C800008EB85012068FFF765FD6D1CEDB26079EA
:102C9000A842F5D82068F17840F3073000284FEAC1
:102CA000411104DB00F1E02080F8001405E000F0A1
:102CB0000F0000F1E02080F8141D2068012140F38E
:102CC0000730002809DB00F01F0201FA02F2400978
:102CD000800000F1E020C0F8002120687278D0F870
:102CE000043562F30103C0F804352068B278D0F8E7
:102CF000083562F30103C0F8083520683278D0F84F
:102D0000103562F30303C0F8103539720020AEE7C6
:102D1000280100200149024800F0CABEB00100208D
:102D2000002000402DE9F0410546007916460F4687
:102D300000EB40012D4A01EBC00102EB810494F845
:102D40002A1011B10820BDE8F081294951F820105E
:102D50002868FFF73DFE08B11120F4E73946284600
:102D6000FEF7A6F966603869206030004FF0010672
:102D70002FD03F7F4FF48E712868FFF701FD4FF48D
:102D8000A2712868FFF7FCFC28681A49C0F80413F0
:102D900028684FEA471140F30730002804DB00F1B0
:102DA000E02080F8001405E000F00F0000F1E020C2
:102DB00080F8141D286840F30730002809DB00F074
:102DC0001F0106FA01F14009800000F1E020C0F87F
:102DD000001128680421C0F800150020A061E061FE
:102DE00084F8290044F8140FA675ACE7B001002060
:102DF000803E0000800002002DE9F05F054600796A
:102E00004FF4017600EB400303EBC000344B03EBBF
:102E100080040020636813B12B68C3F80863A369BA
:102E20004FF000096BB1E06938B1606810B12868F3
:102E3000C0F804631120BDE8F09FE2610120216128
:102E400005E0C4F82490A261E160C4F81C9094F8F5
:102E50002910014302D1284600F099FB6068002840
:102E6000286803D0C0F804630020E4E74FF4A2769A
:102E70003146FFF785FCB2464FF4927B59462868ED
:102E8000FFF779FC06464FF484712868FFF773FC5E
:102E9000804651462868FFF76EFC074648EA07005F
:102EA0003043EBD056EA070007D12146286800F0EE
:102EB0003FFBA169606A8142E0D8C4F818900EB166
:102EC0000320B8E70FB10F20B5E794F829100120CF
:102ED0000029296801D00860C6E74860C4E70000FF
:102EE000B00100202DE9F05F054600790B4600EBAC
:102EF000400101EBC000244901EB8004284600F0AA
:102F000045F810B11120BDE8F09F62614FF0000953
:102F1000C4F82090A36084F828904FF48E784E4631
:102F200041462868FFF72CFC28684FF0010AC0F8DA
:102F300008A02146286800F01DFD606808BBD5F890
:102F400000B067690FE000BF94F8280008B10F26B1
:102F500015E041465846FFF70EFC0028F4D0214604
:102F6000584600F007FD206AB842F2D35746414662
:102F70002868FFF700FC0028F9D02868C760C4F86B
:102F800014903046BFE70000B0010020007900EB4C
:102F9000400101EBC000044901EB800040690028BA
:102FA00000D0012070470000B00100200149024814
:102FB00000F02CBE8C010020002000402DE9F041E3
:102FC0000546164600790F46154A00EBC00102EB94
:102FD000810494F8201011B10820BDE8F081114956
:102FE00051F820102868FFF7F3FC08B11120F4E72E
:102FF00039462846FEF718F86660386920601EB129
:10300000397F2846FEF76AFB28680821C0F80015BA
:103010000020A061E0616061012184F82010DCE7FC
:103020008C0100207C3E00002DE9F05F0446007911
:103030000E4600EBC001DFF8F0A017460AEB810551
:103040003046FFF7B5FCB0B168684FF000084FF4A8
:10305000047910B12168C1F80893A8694FF0000BFA
:1030600080B1E86948B1686810B12068C0F804937D
:103070001120BDE8F09F1020FBE7EF614FF0010841
:103080002E6102E0EE60C5E9067B00254FF48871F1
:103090002068FFF786FB4FF4A2712068FFF781FBE1
:1030A0002068C0F83465C0F838752068B8F1000FA2
:1030B00012D0D0F8001241F02001C0F8001220799F
:1030C000D04600EBC0010AEB8100406838B12068AF
:1030D000C0F804932846CCE701210160EFE74FF4E4
:1030E000887A4FF4A27951462068FFF755FB0746CE
:1030F00049462068FFF750FB06464FF4927120685E
:10310000FFF74AFB014647EA06000843EBD0227965
:1031100002EBC20308EB8302C2F818B001B1032529
:10312000002ED7D00F25D5E78C0100202DE9F047E0
:1031300004460E460079274900EBC00001EB8005EC
:1031400017463046FFF734FC30B1204600F044F813
:1031500020B11120BDE8F0871020FBE76F61AE6061
:103160004FF490774FF0000839462068FFF719FBBD
:103170004FF4AC7631462068FFF713FB2068AA684D
:103180006969C0F84425C0F8481520684FF0010966
:10319000C0F808906868D0B9BA4651462068FFF771
:1031A000FBFA074631462068FFF7F6FA0743F4D0EA
:1031B00010B14FF00F0808E02068C0F80C903146BD
:1031C0002068FFF7E9FA0028F9D00020686140463E
:1031D000C0E700008C0100200079054900EBC00029
:1031E00001EB80004069002800D0012070470000FA
:1031F0008C01002003490860034801680029FCD0C5
:103200007047000004E5014000E4014010B50549A5
:10321000C20800F00703885C01249C4020438854C6
:1032200010BD0000200100200449084490F930003E
:10323000082801DB0120704700207047CC000020E7
:103240000449084490F93000082801D20120704751
:1032500000207047CC0000202DE9F05F2A4F064681
:103260004FF0A04A4FF0010B0024381990F950108C
:10327000491C3CD090F85000314620F0C00528464B
:10328000FEF702FC20B3204600F040F881460AEB2E
:103290008500D0F80007C0F30148B8F1020F18D03C
:1032A00002212846FEF739FE0BFA05F1CAF820156F
:1032B0002846FDF7DDFF57F820204AB14846B9F10E
:1032C000030F11D0B8F1020F05D0B8F1030F07D0EA
:1032D0000DE00321E5E74846B9F1010F04D006E00F
:1032E0004846B9F1020F02D1014628469047641CB6
:1032F000042CBAD3324601210020FEF71FFE3068AD
:103300000028B1D1BDE8F09FCC000020024908445C
:1033100090F8500080097047CC00002010B50C4692
:10332000017A052908D0407A38B1084808A1026816
:103330002046FEF759FC00E01AB106A12046FEF730
:1033400053FC2046BDE81040FEF75BBC880000201F
:10335000257300000D0A000038B5C3880D460446E9
:1033600033B114A0009015A216A12846FEF73CFC2C
:10337000217A05291CD0607A48B1A088FEF7D4FED6
:10338000164951F8202016A12846FEF72DFCA088EA
:103390000021FFF781F803461049207A143951F8CB
:1033A000202001B02846BDE830400EA1FEF71CBC2D
:1033B00038BD00001B5B306D000000001B5B313B23
:1033C00033316D0025734C6F67732064726F7070BA
:1033D0006564202825642925730D0A0088000020D3
:1033E000257300003C25733E2025733A2000000021
:1033F0002DE9F047364E3078002867D03549FE2059
:10340000FDF703F833492D20FCF7FFFF002406F1F8
:103410000A0500BF35F814002E49000AFCF7F5FF35
:1034200015F814002B49FCF7F0FF641C052CF1DBA8
:103430000025274F75702C4617F10C07254937F8E2
:103440001400000AFCF7E1FF17F814002149FCF70B
:10345000DCFF641C032CF1DBB046F570DFF87890DC
:10346000002606EB4601002409EB4107194937F80D
:103470001400000AFCF7C9FF17F814001549FCF7FF
:10348000C4FF641C032CF1DB761C042EE9DB88F8F6
:10349000055098F806004446042800D3A5710D494C
:1034A000A079FCF7B2FF0C4EA0790C3E094936F822
:1034B0001000000AFCF7A9FFA079064916F81000D1
:1034C000FCF7A3FFA079401CA0712570BDE8F08730
:1034D000B40000203C000020C00C002003498842BA
:1034E00001D10348704700207047000000200040D1
:1034F0000C00002000F006B803210148FFF7FABFD6
:10350000AE00002008B5084B00221A70C9B203466D
:10351000009111460548FEF707FB002803D0BDE8DF
:103520000840FDF7BBBC08BDB1000020383F0000DB
:1035300070B5054688690C4600284FF4847128460A
:103540000AD0FFF71DF9D5F81805626AE1688854BA
:10355000606A401C606270BDFFF712F9D5F818056B
:1035600070BD1FB501238DF80030CDE90121D0E9F0
:103570000012684690471FBD1FB501238DF800302B
:10358000CDE90121D0E90012684690471FBD10B572
:10359000044600684FF49271FFF7F2F84FF484711B
:1035A0002068FFF7EDF820680121016010BD0000E0
:1035B000084A5178052905D31089074B401C108112
:1035C000588003E0034B0A3323F81100491C517063
:1035D00070470000B4000020B40C00202DE9F04139
:1035E0001400884618D000250E4F032608EB05016D
:1035F00022460020FDF77CF90544241A40B93878AA
:10360000002809D008494FF47A408847761E05D033
:1036100001203870002CE9D1BDE8F081002038701D
:10362000FAE700004C000020013F000010B5132015
:10363000FDF724FF1320FDF715FF0120FFF7C0F869
:103640001320FDF71BFFBDE810404FF47A70FFF721
:10365000B7B8000000B585B00A4601788DF80010B3
:1036600041680191017A8DF80810C1680391007CCE
:103670008DF81000044850F822100C3850F8222021
:103680006846904705B000BD3C0200202DE9F84394
:10369000044610681E4615460F464FF0000810B14C
:1036A000FFF78EF9F8B1A86810B1FFF789F9D0B12A
:1036B000D5E90001C4F84405C4F84815D5E902016C
:1036C000C4F83405C4F838154FF48C754046C4F876
:1036D0001881D4F818110091F2074FF0010107D0BA
:1036E000C4F8501506E087F81D801020BDE8F88367
:1036F000C4F85005B20702D5C4F8401501E0C4F87B
:103700004005300700D42161386848B146F3800095
:10371000401C4FF0400014D0C4F804030020E5E73B
:1037200029462046FFF711F80028F9D0F87FFF2836
:10373000F4D0B97F11B1FEF717FCEFE7FEF73BFCC1
:10374000ECE7C4F80803E9E72DE9F84F07462248FB
:103750009146884605681E46012269461846FDF7CF
:10376000EBFCDFF878A060B3009800210446801CD1
:103770000AE000BF00EA050259F821C00AEB820204
:10378000401C491CC2F80CC0B142F3D34FEA1749A0
:10379000FDF786FD611C29400AEB810149EA0042E0
:1037A0002C40CA600AEB8401C86867F3C50066F361
:1037B000891068F39F2020F00300401C20F00400D3
:1037C000C8609AF8000001E0FEF7D4FC0028FBD1A5
:1037D000FEF70CF8BDE8F88F580000200C0400201C
:1037E0002DE9F04F0C464FF4927887B005464146DC
:1037F000FEF7B6FF4FF0020B01274FF4827640B17F
:1038000041462846FEF7B1FF31462846FEF7A8FF9D
:10381000E8B14FF482712846FEF7A2FF010004F1DF
:103820000C00DFF84C91EA4645F307364FF00008EC
:10383000069048D04FF482712846FEF796FF94F820
:103840002000400624D494F82E00C8B120E0A068DF
:10385000C5F80803C4F808B0A068C5F804034FF41D
:10386000B0712846FEF77CFF18B1D5F8000280053C
:1038700001D42F626F6184F82E7007B0BDE8F08F1D
:103880002146284600F0A6FA80F0010084F82E00B8
:1038900094F8200040073ED414220AF1040006994F
:1038A000FCF73DFE4FF4B0712846FEF75EFF4FF483
:1038B000AE712846FEF759FF94F8300008B394F82B
:1038C0002E00F0B927E04FF4A4712846FEF74DFF13
:1038D000207B68B14FF40070C5F80002801CA06026
:1038E000C5F80893A068C5F80403AF602F62C4E769
:1038F00014220AF104000699FCF711FE94F8300036
:1039000048B90020C5F80002C4F80880C5F808933B
:103910003046FDF726FAD5F8C404C5F8C40481077B
:1039200002D58DF8007011E0410702D58DF800B086
:103930000CE0C00701D0032003E094F82E0018B17A
:1039400004208DF8000001E08DF8008094F830002C
:1039500008B984F82F8094F82000400703D594F824
:103960002E00002889D0D4E900216846904784E7DA
:1039700002029C0170B50C4605464FF48E71FEF7AD
:10398000FFFE216AA068415C206A401C2062C5F8E5
:103990001C1570BD1FB500228DF8002002918168B2
:1039A00001914261D0E90012684690471FBD1FB5E2
:1039B00000228DF800200291816801914261D0E9D6
:1039C0000012684690471FBD0178022901D00129E5
:1039D00002D14068FDF762BA704700007CB50178FB
:1039E000254DA1B301290BD002291DD18DF800105E
:1039F000C068691C01900122C81DFEF7D5F830E0AF
:103A0000017A59B1406801781C48FDF76DFA1B4CEA
:103A1000012650B18DF8006001900DE01649012299
:103A2000491CC81DFEF7C0F87CBDA068E168814252
:103A300005D000208DF80000696868468847A068B6
:103A4000E168081AA1888842E8D9AE707CBDFFE71A
:103A50000A4809491030FDF72CFA30B103208DF8DF
:103A60000000696868468847F0E70349012201F1D0
:103A70000800FEF7A9F8E9E7200000205402002022
:103A80001FB50A4601788DF8001041680191017A4E
:103A90008DF80810C0680390044850F82210001FE9
:103AA00050F82220684690471FBD00000800002003
:103AB0002DE9FF470C4605464FF40071FEF766FE00
:103AC00001274FF40178002618B34FF49279494644
:103AD0002846FEF750FEE0B149462846FEF750FE64
:103AE000C5F8088394F8290000B96F6002208DF8AA
:103AF0000000D5F88004C5F880040390A069029006
:103B0000E0680190A661E661D4E90012684690473A
:103B100028E004212846FEF739FE18B34FF48471DB
:103B20002846FEF728FEE8B121462846FFF700FDAB
:103B3000616AA069884215D1E06938B1E268616ABA
:103B4000A0612069E6616662E06008E094F82900FF
:103B500000B96F60C5F80883A661E268616A204613
:103B6000FFF70AFD4FF48E7841462846FEF703FE24
:103B700080B16069216A814202D294F8280028B39A
:103B800041462846FEF7FCFD606918B16169204690
:103B9000FFF70DFF4FF4A27841462846FEF7EBFDF4
:103BA000002818D041462846FEF7EAFD94F829007F
:103BB00000B12F60A06900280DD0A661E268616A9B
:103BC00004B02046BDE8F047FFF7D6BC21462846A2
:103BD000FFF7D0FEDEE7BDE8FF8700001FB50A460D
:103BE00001788DF8001041680191017A8DF8081074
:103BF000C0680390044850F82210001F50F822209B
:103C0000684690471FBD0000080000202DE9FF41D5
:103C10000C464FF4927705463946FEF7BDFD002667
:103C2000B8B139462846FEF7BCFD02208DF80000E9
:103C3000D5F88004C5F880040390D5F83C050290BF
:103C4000E0680190A661E661D4E9001268469047F9
:103C500023E04FF4887739462846FEF79DFDE0B112
:103C600039462846FEF79DFDD5F83C15A0698842E7
:103C700013D1E06960B1E268D5F8000220F02000BD
:103C8000C5F80002E069A0612069E661E06001E03A
:103C9000A661E2682046FFF764FC4FF4A27739463C
:103CA0002846FEF779FD68B139462846FEF779FDCA
:103CB000A06938B1A661E661D5F83C152046E268F6
:103CC000FFF74FFC4FF4907631462846FEF764FD2F
:103CD00060B131462846FEF764FD0120E860606966
:103CE00020B1D5F84C152046FFF754FE4FF4AC76C2
:103CF00031462846FEF750FD00280ED031462846B2
:103D0000FEF74FFD6069002807D0D5F84C1504B0C8
:103D10002046BDE8F041FFF73DBEBDE8FF81000051
:103D20002DE9F05F8346DDE90A4A994690460D4643
:103D30000846012703E000BFB0FBF8F07F1C4045B8
:103D4000FAD2B94500D94F465FEACA7012D18CB198
:103D50005FEA8A7002D5B9F1000F01D0202607E092
:103D6000302605E031465846641EFDF72BFA0CB1AB
:103D7000A742F7D35FF00106B9F1010F02D9A9F10B
:103D8000010903E0B5FBF6F0404502D306FB08F657
:103D9000F2E7DFF83C9000BFB5FBF6F000FB1655EC
:103DA00019F800105846FDF70DFAB6FBF8F6002E8C
:103DB000F2D15FEACA7009D0002C07D0A74205D221
:103DC00020215846641EFDF7FDF9F5E7BDE8F09F98
:103DD000983E000010B50B7B0122E3B1012B1DD0F2
:103DE000022B0FD0032B24D18B685B0304D5D0F8B2
:103DF0004C350C69A34216D18B685B0319D4D0F8FB
:103E00004C3506E0D0F84C350C69A3420BD1D0F804
:103E10003C35496905E0D0F84C3501E0D0F83C3537
:103E200009698B4205D00022C0F800250621C0F8A0
:103E30000015104610BD000010B500290AD0087802
:103E4000002807D005487844FCF7CEFB002801D0B5
:103E5000002010BD0248784410BD00005A02000046
:103E6000520200004FF04070E1EE100A704700006F
:103E70000338FDD87047000000000050AD2F00004F
:103E8000152D00005D090000FFFFFFFF0006FF0089
:103E90000000004000000000303132333435363746
:103EA000383941424344454600000000000000000C
:103EB0000000000000000000000000000000000002
:103EC000A83E0000C03E000004000000FFFFFFFF0E
:103ED000FFFFFFFFFFFFFFFFFFFFFFFF00000000EE
:103EE000000000000000D601060100004D20000087
:103EF0004B200000452000000000000000000000F2
:103F00000338FDD870470000740300207F000000D4
:103F1000F40300200000000000000000000000008A
:103F20000338FDD8704700000000000000000000CA
:103F30000338FDD870470000010000000040004039
:103F40000000000001000000FFFFFFFF06FF00006F
:103F50000000004000000000080000000600000013
:103F600000000000000000000000000000E0D70199
:103F70000338FDD8704700000090004000040000A6
:103F8000040003060000000002000200020002001C
:103F9000020002007761726E696E67006465627587
:103FA000670000001B5B313B33306D001B5B306DE5
:103FB000000000001B5B313B33316D001B5B313B6C
:103FC00033326D001B5B313B33336D001B5B313B88
:103FD00033346D001B5B313B33356D001B5B313B74
:103FE00033366D001B5B313B33376D00696E666F96
:103FF000000000006572726F720000004750494F68
:10400000544500005050490054494D4552000000AD
:104010005457494D000000005541525445000000DE
:104020005541525400000000505253005341414446
:10403000430000005350494D000000007077725F4C
:104040006D676D74000000006170705F627574745C
:104050006F6E0000736F72746C69737400000000FF
:104060006170705F74696D65720000007274745FD6
:104070006C6F675F6261636B656E64006170700096
:104080004442000000000020CC0000003C02000080
:1040900010430000CC0000206C2C000058020000EF
:1040A0001001000043000000F8FFFFFF0040404007
:1040B00040404040404041414141414040404040FB
:1040C00040404040404040404040404040050202A7
:1040D0000202020202020202020202020220202066
:1040E00020202020202020020202020202029090C2
:1040F00090909090101010101010101010101010C0
:104100001010101010101010020202020202888813
:10411000888888880808080808080808080808081F
:104120000808080808080808020202024000000007
:10413000000000000000000000000000000000007F
:10414000000000000000000000000000000000006F
:10415000000000000000000000000000000000005F
:10416000000000000000000000000000000000004F
:10417000000000000000000000000000000000003F
:10418000000000000000000000000000000000002F
:10419000000000000000000000000000000000001F
:1041A000000000000000000000000000000000000F
:1041B000EC3E0000000000006C40000050000020B9
:1041C000FC3F000000000000044000000000000070
:1041D0000840000000000000104000000000000047
:1041E0001840000000000000204000000000000017
:1041F00028400000000000002C40000000000000EB
:1042000034400000000000003C40000000000000BE
:104210004840000000000000544000000000000082
:1042200060400000000000007C400000000003032C
:10423000640000205C00002064000020B402002024
:104240001800000000000000000000000000000056
:10425000000000000000000000000000000000005E
:10426000000000000000000000000000000000004E
:10427000002000400000000000200040000000007E
:10428000000000000000000000000000000000002E
:104290000000000000000000FF000000FF00000020
:1042A000000000000000000000000000000000000E
:1042B000000000000000000000000000F43F0000CB
:1042C000943F0000EC3F00009C3F0000AC3F00002A
:1042D000A43F0000B43F0000BC3F0000C43F00000A
:1042E000CC3F0000D43F0000DC3F0000E43F000072
:1042F00000000000000000000100000000000000BD
:104300000000000000000000000000000090D0034A
:0400000500000201F4
:00000001FF
