:020000040000FA
:10000000402A0020950300009D0300009F0300008C
:10001000A1030000A3030000A503000000000000EE
:10002000000000000000000000000000A703000026
:10003000A903000000000000AB030000AD030000B6
:10004000AF030000AF030000E90C00005D090000F1
:100050006D090000AF0300004D0700001508000007
:10006000AF030000990C0000AD0C0000AF030000CE
:10007000AF030000AF030000AF030000AF030000B8
:10008000AF03000005080000AF030000AF0300004D
:10009000AF030000AF030000AF030000AF03000098
:1000A000AF030000AF030000C10C0000D50C00003E
:1000B000AF030000AF0300000000000000000000DC
:1000C000AF030000AF030000AF030000AF03000068
:1000D000AF030000AF030000AF030000000000000A
:1000E0000000000000000000000000000000000010
:1000F0000000000000000000000000000000000000
:1001000000000000000000000000000000000000EF
:1001100000000000000000000000000000000000DF
:1001200000000000000000000000000000000000CF
:1001300000000000000000000000000000000000BF
:1001400000000000000000000000000000000000AF
:10015000000000000000000000000000000000009F
:10016000000000000000000000000000000000008F
:10017000000000000000000000000000000000007F
:10018000000000000000000000000000000000006F
:10019000000000000000000000000000000000005F
:1001A000000000000000000000000000000000004F
:1001B000000000000000000000000000000000003F
:1001C000000000000000000000000000000000002F
:1001D000000000000000000000000000000000001F
:1001E000000000000000000000000000000000000F
:1001F00000000000000000000000000000000000FF
:1002000000F002F800F045F80AA090E8000C8244E3
:100210008344AAF10107DA4501D100F03AF8AFF2C0
:10022000090EBAE80F0013F0010F18BFFB1A43F0D4
:1002300001031847FC4000001C410000103A24BF95
:1002400078C878C1FAD8520724BF30C830C144BF3B
:1002500004680C607047000000230024002500267D
:10026000103A28BF78C1FBD8520728BF30C148BF19
:100270000B6070471FB503F04FFF00F095F90400C5
:100280000020002103F032FF401C60601FBD10B54C
:1002900010BD00F0FFF91146FFF7ECFF01F00CFA7A
:1002A00000F031FA03B4FFF7F2FF03BC00F034FAB8
:1002B00030B4044654E8000F0D4644E80053002BC8
:1002C000F8D1156030BC704730B4044654E8000FD4
:1002D00040EA010544E80053002BF7D1156030BC1B
:1002E000704730B4044654E8000F00EA010544E8C2
:1002F0000053002BF7D1156030BC704730B4044672
:1003000054E8000F80EA010544E80053002BF7D1C0
:10031000156030BC704730B4044654E8000F00EB61
:10032000010544E80053002BF7D1156030BC70473D
:1003300030B4044654E8000FA0EB010544E8005334
:10034000002BF7D1156030BC704770B404464FF0F5
:10035000000054E8006F0D68AE4207BF44E8002378
:10036000012044E800630E60002B1CBF0020F0E772
:1003700070BC704730B4044654E8000F88422CBF6C
:10038000451A054644E80053002BF5D1156030BCF2
:10039000704700000948804709480047FEE7FEE72C
:1003A000FEE7FEE7FEE7FEE7FEE7FEE7FEE7FEE725
:1003B00004480549054A064B70470000C109000082
:1003C00001020000400A0020402A0020401A0020BC
:1003D000401A002010B500F0E7F8001D10BD00BF66
:1003E0000D3D0000B2F120030AD5C2F1200320FA2E
:1003F00002F001FA03F321FA02F140EA0300704728
:1004000021FA03F04FF00001704700000FB40449D7
:1004100010B503AA029800F0CBF810BC5DF814FBED
:100420004C00002000F0EBBE10B5431C02E010F8B9
:10043000011B71B18107FAD14FF0013202C88C1A49
:100440008C4314EAC211F9D0C01A0A0603D0C01EA8
:1004500010BDC01A10BD0A0401D0801E10BD0902D3
:10046000FCD0401E10BD032A40F2308010F0030C77
:1004700000F0158011F8013BBCF1020F624498BFF7
:1004800011F801CB00F8013B38BF11F8013BA2F194
:10049000040298BF00F801CB38BF00F8013B11F00F
:1004A000030300F02580083AC0F0088051F8043BAF
:1004B000083A51F804CBA0E80810F5E7121D5CBF1C
:1004C00051F8043B40F8043BAFF30080D20724BF4F
:1004D00011F8013B11F801CB48BF11F8012B24BFE3
:1004E00000F8013B00F801CB48BF00F8012B704732
:1004F00010B5203AC0F00B80B1E81850203AA0E8BF
:100500001850B1E81850A0E81850BFF4F5AF5FEAF2
:10051000027C24BFB1E81850A0E8185044BF18C9A5
:1005200018C0BDE810405FEA827C24BF51F8043B4C
:1005300040F8043B08BF7047D20728BF31F8023BA0
:1005400048BF11F8012B28BF20F8023B48BF00F834
:10055000012B70474FF0000200B5134694469646B3
:10056000203922BFA0E80C50A0E80C50B1F12001C6
:10057000BFF4F7AF090728BFA0E80C5048BF0CC074
:100580005DF804EB890028BF40F8042B08BF7047D2
:1005900048BF20F8022B11F0804F18BF00F8012B44
:1005A000704770477047704700487047FC0900204B
:1005B000074B70B50D467B4400F015F804462846FD
:1005C00000F024F810B14FF0FF3070BD204670BD30
:1005D000450C000000487047DC09002001694A1CF6
:1005E00002610878704700B58FB0CDE90131002174
:1005F000059105497944CDE903101146684600F09C
:100600006EF80FB000BD0000E5FFFFFF007B00F0BB
:10061000800070474FF0013C50F8042B51F8043B28
:100620009A4221D1A2EB0C03934313EACC1317D1C6
:1006300050F8042B51F8043B9A4215D1A2EB0C035D
:10064000934313EACC130BD150F8042B51F8043B1D
:100650009A4209D1A2EB0C03934313EACC13DBD0EB
:100660004FF00000704700BFD01A01BAB1FA81F113
:1006700001F0180122FA01F0CB40C1F12001DBB2F8
:10068000C0B2C01A2CFA01F3D11A914311EAC31176
:10069000E6D170477546FFF79DFFAE4605006946F7
:1006A000534620F00700854618B020B5FFF780FEBE
:1006B000BDE820404FF000064FF000074FF0000863
:1006C0004FF0000B21F00701AC46ACE8C009ACE8E4
:1006D000C009ACE8C009ACE8C0098D4670472DE9F7
:1006E000F04106460024D6E90170F56880463046A0
:1006F00003E04146B847641C3046A8470028F8D1BB
:100700002046BDE8F08110B50446AFF300802046D6
:10071000BDE81040FFF7C6BD01491820ABBEFEE79B
:10072000260002007047000010B502F04FFE00F0F6
:1007300023FD0548B0F90420B0F90210B0F900001B
:10074000BDE8104002F092BED00000202DE9F84331
:100750000025DFF894804FF4807601242F46009521
:10076000304601F0FDFA38B1D8F80403204203D036
:10077000304601F0EBFA2543361D64007F1CB6B20B
:10078000082FEDD34FF4BE74204601F0E9FA48B1CA
:10079000204601F0DBFA45F000456A4601210020C1
:1007A00001F088FA15F0FF0F16D0012600242E4222
:1007B0000ED008EB8401D1F81005D1F81015C0F364
:1007C00004200A4AC1F3014152F8242002B19047A3
:1007D0007600641C082CEAD3002D02DA684602F089
:1007E00081FCBDE8F88300000060004008010020A3
:1007F0000078002802D102490120087070470000EB
:10080000DC00002002490248091F09680068084707
:10081000540000202DE9FE434FF48278404601F059
:10082000E1FD4C4F00254C4C012600B3404601F041
:10083000E1FD94F82E0010B194F82F10D1B18DF88D
:100840000050616801912189ADF80810E26832B169
:10085000218B618362602181E56010B102E0257423
:1008600000E03E6021686846884784F82F5094F87D
:100870002E0060B34FF48077384601F0B3FD30B3FB
:10088000384601F0B7FD628B94F82D108A420AD9E0
:10089000A2EB010080B260832289A2EB00006268B3
:1008A00002EB400005E007D1E06828B184F82F6032
:1008B000658301F08FFD04E08A4202D184F82F6045
:1008C0006583404601F096FD2248001D06604FF406
:1008D0008877384601F086FD48B1384601F08AFD38
:1008E000257402208DF800002168684688474FF47F
:1008F0008A77384601F076FD28B1384601F07AFD56
:100900002574BDE8FE834FF000484FF48C79676989
:100910001DE000BFB7FA87F028FA00F109EB800567
:100920008F43284601F05EFD88B1284601F062FD44
:10093000A5F58C75E8088DF8040045F38000401C8F
:100940008DF800608DF80500216868468847002F03
:10095000E0D1D6E7007000401802002001490248AB
:1009600002F0C6BE9401002000300040F8B54FF000
:1009700040200446114E4FF48C7101F05CFD0028BC
:100980001AD00025C4F81851D4F818010090F07F4F
:100990003446FF2806D0A17F11B101F0A1F901E092
:1009A00001F0CCF965772572D4E9002101B004F19A
:1009B0000800BDE8F0401047F8BD000048020020E4
:1009C000F0B5A449A4484FF080540B68D4F8302106
:1009D0000078D4F83411551CC0F3031006D09446A7
:1009E00001270026BCF1060F03D00AE003F0FF0C3C
:1009F000F6E7B4F82453DFF864C2C5F30425CCF855
:100A00000050DDB2062D06D1032804D1DFF854C210
:100A1000934DCCF87450551C04D09446BCF1060F8D
:100A200003D00AE003F0FF0CF8E7D4F84452DFF8F3
:100A300038C2C5F34235CCF80050DDB2062D08D1DE
:100A4000032806D1894DD5F800C02CF0807CC5F86C
:100A500000C0551C04D09446BCF1060F03D00BE037
:100A600003F0FF0CF8E74FF08045C5F80C61C5F8BE
:100A700010617D4D2D1F2E60DDB2062D08D103289B
:100A800006D1DFF8E4C103250CF1640CCCF800506A
:100A9000DDB2062D10D103280ED1DFF8D4C1052513
:100AA000CCF80050724D78352F60714D08352E60AE
:100AB0000CF104063F253560551C04D016460D4642
:100AC000062E03D05BE0DEB20546F9E7ED1E012DF0
:100AD00055D9684D2D68684E3560664D2D1D2D68C1
:100AE000361D3560634D08352D68361D3560614D06
:100AF0000C352D68361D35605E4D10352D68361D60
:100B000035605C4D14352D68361D3560594D1835EE
:100B10002D68594E20363560564D1C352D68361DD2
:100B20003560544D20352D68361D3560514D2435C6
:100B30002D68361D35604F4D28352D68361D3560C2
:100B40004C4D2C352D68361D35604A4D30352D689D
:100B5000494E40363560474D34352D68361D356079
:100B6000444D38352D68361D3560424D3C352D6875
:100B7000361D35603F4D40352D68361D3560551C9E
:100B800003D01646062E02D007E0DEB2FAE7D4F80C
:100B900058523A4E05F04F053560551C03D01346A8
:100BA000062B02D008E0DBB2FAE735480368DB0722
:100BB00002D06FF001030360062A07D1C91E022983
:100BC00004D93048016841F48061016027487438D5
:100BD000016841F470010160BFF34F8FBFF36F8F65
:100BE000D4E94C104FF01022062907D1C01E03286B
:100BF00004D9D2F808021C491C310860D2F800025E
:100C0000002803DBD2F8040200281FDA012002F0DA
:100C100037FA1521C2F800121B480368002BFCD0DC
:100C2000C2F8041201680029FCD0002002F028FA62
:100C3000BFF34F8F0D48F0380168144A01F4E061AA
:100C400011430160BFF34F8F00BFFDE7114910480A
:100C50000860F0BDE00F00F0E80F00F04035014003
:100C60000DF0ADBA00C007403C050040FCED00E0CF
:100C7000105600400404001020C50040E40E00405F
:100C8000000400403C17004000E401400400FA0565
:100C90000090D0030401002004220249024800F021
:100CA0008DBC000064010020009000400422024935
:100CB000024800F083BC00007001002000A000404A
:100CC00006220249024800F079BC00007C010020A5
:100CD00000A0014006220249024800F06FBC00005B
:100CE0008801002000B00140014800680047000072
:100CF0001C000020002809DB00F01F0201219140A8
:100D00004009800000F1E020C0F880127047000028
:100D100010B572B601F054FA01F0C6F80028FBD104
:100D200011481249401AC408012000EB044010A1E8
:100D300001F0D2F911480068C00700D000BE0220BF
:100D400000EB04400EA101F0C7F9BFF34F8F0B4831
:100D5000E43801680E4A01F4E06111430160BFF319
:100D60004F8F00BFFDE70000D84400007044000032
:100D7000466174616C206572726F7200F0ED00E084
:100D800053797374656D207265736574000000009B
:100D90000400FA050EB500210091CDE901106A4664
:100DA00044F20100FFF7B4FF0EBD10B58268C368BE
:100DB000934203D000F010FA002010BD052010BDB2
:100DC00029B112B1531E134203D0092070470E20DF
:100DD00070470160838000218160C16008467047D0
:100DE00010B58268C3689A1A83889A4203D800F0C3
:100DF000FDF9002010BD042010BD0000F0B5244E08
:100E000089B01F460D00044672603FD0A88829684B
:100E100082B22048FFF7D4FF002835D1A889A968FD
:100E200082B21C481030FFF7CBFF00282CD12022C3
:100E300019496846FFF75CFB60690690207C00B1A9
:100E400001208DF814008DF81C70607C00B10E201C
:100E50008DF81500E0680290A0680390206801906A
:100E6000606800900A480D4A6946083000F024FD89
:100E7000002809D1B0702068401C05D00449012227
:100E8000491CC81D00F04CFD09B0F0BD0720FBE770
:100E900030000020780200209C410000853B0000CB
:100EA00010B501461048FFF79BFF040019D10F4809
:100EB0000F4A0178515C19B1001D02F04FF802E0B1
:100EC0000C3001F0C5FE60B9084907480839FFF742
:100ED0006CFF30B9054901220839044800F030FDA3
:100EE0000446204610BD0000880200203800002083
:100EF0001000002000F002B800F008B872B60248F6
:100F00000168491C016070472400002003490868FB
:100F1000401E086000D162B6704700002400002027
:100F20002DE9F041064608680C46411C4FF0A047E9
:100F30004FF0010506D005FA00F1C7F80815206842
:100F400000F092FE6068411C02D0002100F07AFEA1
:100F50003168A069C1F82405607D217D32680843AD
:100F6000C2F86C05D4E900123068C0F80C15C0F85E
:100F70001425207D012815D1A068411C02D0002134
:100F800000F060FEE068411C05D08540C7F80855B8
:100F9000E06800F069FED4E902123068C0F8082564
:100FA000C0F81015BDE8F0812DE9F041064608684B
:100FB0000C46411C4FF0A0474FF0010506D005FA42
:100FC00000F1C7F80815206800F058FE6068411C61
:100FD00002D0002100F03FFE3168A069C1F824056D
:100FE000607D227D31681043C1F86C05D4E90012A0
:100FF0003068C0F81425C0F80C15207D012815D1E3
:10100000A068411C02D0002100F025FEE068411CD0
:1010100005D08540C7F80855E06800F02FFED4E9F8
:1010200002123068C0F80825C0F81015BDE8F0813C
:101030002DE9F0470546861C91460F464FF0010A00
:101040000020FFF757FF1B4C04F21C486068386013
:10105000D4E90101184F401A3968081A0EE001213D
:10106000404600F0A9FB00F0D5FA0146404600F0EA
:10107000A3FBD4E90101401A3968081A401C8642D2
:10108000EDD8B9F1000F03D0052065F3891002E017
:10109000062065F39F5061683A68114004EB8101B6
:1010A000C8606068304460600020FFF725FF50464C
:1010B000BDE8F087980300207C00002070B50D4645
:1010C00004460A2902D10D21FFF7F8FFA068226823
:1010D000411CA1601554D4E90101814204D320468A
:1010E000BDE8704000F049BC70BD00000448816854
:1010F0004068814201D10120704700207047000004
:101100009803002005494FF0FF32082841F82020BD
:1011100002D3084480F848207047000008010020EE
:10112000F0B54FF0FF3512B10023082601E0082387
:101130000C260C4C05E000BF54F823707F1C04D033
:101140005B1CB342F8D32846F0BD26185DB286F882
:10115000305044F82310002AF5D1E11881F84800F6
:10116000F1E70000080100200249084490F930002E
:10117000704700000801002010B50B4A4FF40044EE
:10118000901FB2F900100180B2F902304380B2F929
:1011900004208280A14200DB0180A34200DB438067
:1011A000A24200DB828010BDD60000200149002051
:1011B00048707047F000002010B50021024800F090
:1011C00006FB80F3100010BDB40700200149012088
:1011D00008707047F2000020826883881A40036814
:1011E0009A5C0A708168491C81607047C268838874
:1011F0001A4003689954C168491CC160704710B512
:101200000446C0B2FFF74CFE204610BD10B501F0F9
:10121000B3F801F0C5F802490120086010BD0000D4
:10122000780500400149012048707047F000002017
:10123000FFF7CCBF70B502F08DF902244FF47A7538
:10124000284601F033F9641EFAD102F077F9C8207C
:1012500001F02CF902F042F9C82001F027F902F060
:1012600049F9C82001F022F902F050F9C82001F034
:101270001DF902F057F9C82001F018F9BDE87040D7
:1012800002F06AB81FB5094B0FCB8DE80F000023A1
:10129000074A6946074800F0E7FA08B1FFF77AFD08
:1012A0000448001D01F0CCFA1FBD0000F841000009
:1012B000F1070000E000002010B500210D2000F033
:1012C00016FD00210E2000F012FD00210F2000F07D
:1012D0000EFD0021102000F00AFD0121112000F078
:1012E00006FD0121122000F002FD0121132000F073
:1012F000FEFC0121BDE81040142000F0F8BC000005
:101300002DE9F041FFF7D8FF00F082F8FFF7BAFFB0
:1013100000F01EF8064E14254FF47A47741C384628
:10132000A0476D1EFAD1BDE8F04102A0FFF76EB8EC
:1013300030410000696E6974506572697068657249
:10134000616C7320436F6D706C657465640A000096
:1013500010B501F069F908B1FFF71CFDBDE81040B8
:10136000AFF3008008B50948094A6946C068009093
:1013700003208DF801000C2001F0F0F808B1FFF710
:1013800009FD01210C2001F099F808BD3042000050
:101390002512000010B5FFF74DFFBDE8104001A079
:1013A000FFF734B8696E697453656E736F7273209A
:1013B000436F6D706C657465640A00000EB5114969
:1013C000114AD1E90201CDE9010101A90D4801F05D
:1013D000D7F908B1FFF7DEFC0A480068D0F810051D
:1013E0000021C2B20948FEF7FDFF02460120014676
:1013F00000900223034801F0ADF9024801F09CF986
:101400000EBD0000204200003112000000E2040086
:1014100000B58BB018220C496846FFF769F80B48F5
:1014200006900B494FF48070CDE90701099007231E
:10143000084A06A96846FFF7E1FC002801D0FFF73B
:10144000A9FC0BB000BD000008420000B807002056
:10145000B8080020713B00002DE9FC5F0E008346B8
:10146000DDE90C47C6F1000098469246814600D45B
:101470000846012503E000BF90FBFAF06D1C5045C3
:10148000FADAA84500D9454624B1002E01DB7807D9
:1014900000D5641EB80702D5B8F1000F0AD0F807CE
:1014A00008D13CB1A54205D220215846641EFFF761
:1014B00005FEF6E7002E02DA4E462D2102E07807FF
:1014C00003D52B215846FFF7F9FD07F0030002284A
:1014D0000BD1B8F1000F08D13CB1A54205D23021A3
:1014E0005846641EFFF7EAFDF6E7CDE9004743469C
:1014F00052463146584602F015FDBDE8FC9F0000FB
:1015000070B50D46044600684FF4887100F0BFFFC7
:101510004FF49071206800F0BAFF4FF49271206888
:1015200000F0B5FF4FF4A271206800F0B0FF4FF457
:10153000AC71206800F0ABFF20681249C0F80413BA
:101540002068690740F30730090E002804DB00F12A
:10155000E02080F8001405E000F00F0000F1E0202A
:1015600080F8141D206840F30730002809DB00F0E4
:101570001F02012191404009800000F1E020C0F8E5
:10158000001170BD1003420002460020126853078C
:1015900013D502F00300012802D002280CD105E087
:1015A000C2F383100B68801C184404E0022308680F
:1015B00003EB925210440860012070472DE9F0417E
:1015C000174688460646002417E000BF4FF4A07077
:1015D00000EB84054FF480307159A04059B1D6F822
:1015E0000413014207D02946304600F029FFD8E90C
:1015F000002128469047641CE4B2BC42E6D3BDE813
:10160000F08100000148407870470000F0000020A1
:10161000704700002DE9FF410026244800F0C9F87A
:101620002248001F074600F0C4F8214C2149A06859
:1016300000900D6800E000986946284004EB8000A7
:101640000C30FFF7A1FF0028F5D101AA009901EAAB
:10165000050304EB8303491CDB6842F82030401C7F
:1016600000910228F2D3019800F0030001280BD06A
:10167000022810D10198032101EB90500099BDF888
:101680000A6001EB900005E00198BDF80A60C0F324
:10169000831008440090384600F088F808B100989C
:1016A000A06004B03046BDE8F0810000B007002023
:1016B000980300207C000020FFF722FEFFF76AFE5F
:1016C000FFF7A4FDFFF77AFE07A0FEF79FFE00BF1D
:1016D00001F0D4FDFFF796FF0028F9D0FFF724F8BA
:1016E000FFF764FDF4E70000696E697420414C4C1B
:1016F00020436F6D706C657465640A002DE9F047D6
:10170000C5881E1DB6FBF5F78946B6FBF5F1044604
:1017100005FB176C407916686843DDF820A0F718C0
:10172000001F874200D9C61A166001E02468491ECE
:101730000029FBD1A5EB0C078846B74216D818E064
:1017400004EB0C00001D09EB0803BAF1000F3A4648
:1017500002D00146184600E01946FEF784FE2468D0
:10176000F61B4FF0000CB844B54201D9374600E0F3
:101770002F46002EE4D1BDE8F087000030B50246C8
:1017800051B100F005FD0021074C08E034F821308C
:101790001568AB4202D11160002030BD491C814266
:1017A000F4D3052030BD000000000000002100F04F
:1017B00009B8012100F010B808B56A46FEF7ABFD84
:1017C000009808BD08B56A46FEF78BFD08BD08B550
:1017D0006A46FEF76DFD08BD08B56A46FEF774FD62
:1017E000009808BD08B56A46FEF7A2FD009808BD3E
:1017F00070B5044600252846FFF77CFB2168626827
:10180000086890420ED9401E08600178238AE26879
:1018100001FB0325227A2168101AC0B20A7982429C
:1018200000D208710020FFF767FB284670BD70B535
:1018300005460C460020FFF75DFBE868298A201A60
:10184000B0FBF1F12A681068431C13600170BDE819
:1018500070400020FFF750BBC20800F007030120D2
:10186000895C9840084070472DE9F04106460478AD
:101870000B4815460F4640F82420083040F8243025
:10188000487B10B1084601F0BDFE0DB1054A00E0ED
:10189000002223463946301DBDE8F04100F0E2BF8A
:1018A00000000020B136000038B5001D049C0094F3
:1018B00001F062F838BD0000F0B50546047815481F
:1018C00089B0164640F82420124A0869121DA2F178
:1018D000080742F82400487F385520226846FEF762
:1018E00007FE04942878385C48B10EB10A4A00E03B
:1018F00000226946281D01F023FA09B0F0BD0EB19F
:10190000064A00E00022694605F10C0001F06CF87F
:10191000F3E7000014000020E13D0000293C000036
:1019200030B40378054CE35C1BB130BC001D01F002
:101930003DBA30BC0C3001F0C1B8000010000020EE
:1019400030B40378054CE35C1BB130BC001D01F0E2
:10195000AFBA30BC0C3001F027B9000010000020F5
:101960000FB408B50399002904D004AA00926A466E
:1019700000F00FF801B05DF814FB10B58268044662
:10198000002A05D0D4E90403216898470020A0600C
:1019900010BD2DE9FC4791460C00804676D014F826
:1019A000011B39B125290ED04046FFF787FB20786F
:1019B0000028F4D198F80C00002867D04046BDE814
:1019C000FC47FFF7DABF0020012221782B291BD02A
:1019D0002D2902D0302908D102E040F0010001E0B9
:1019E00040F00200641C002AEFD100252A290ED005
:1019F0002178A1F130020A2A11D205EB850201EB10
:101A00004205641C303DF1E740F00400EAE7D9F8F4
:101A100000100B1DC9F800300968641C0D442178C2
:101A200000232E290BD114F8011FA1F130020A2A3C
:101A300005D203EB830201EB4203303BF3E76C2951
:101A40000DD068290BD0692921D00BDC252918D0AD
:101A5000582931D063290ED0642915D117E014F824
:101A6000011FECE7702969D0732932D075291BD08A
:101A7000782909D120E0D9F80000011DC9F800102B
:101A800001784046FFF71AFB641C90E76CE0D9F838
:101A900000100A1DC9F800200968CDE900500A228B
:101AA0004046FFF7D9FCEFE7D9F800100A1DC9F846
:101AB000002009680A2206E0D9F800100A1DC9F8BA
:101AC000002009681022CDE90050404602F02AFAB1
:101AD000DAE7D9F8001000270A1DC9F800200E68BF
:101AE000C00705D112E04046761C7F1CFFF7E6FADE
:101AF00031780029F7D104E0202140466D1EFFF720
:101B0000DDFABD42C0D9002DF6D1BDE74EB1304659
:101B1000FEF78AFC074604E0202140466D1EFFF7D1
:101B2000CDFABD4206D9002DF6D103E04046761C21
:101B3000FFF7C4FA31780029F8D1A5E7D9F80000F9
:101B4000011DC9F80010056830214046FFF7B6FABC
:101B500078214046FFF7B2FA08200021CDE90001C4
:101B6000034610222946B0E7BDE8FC8770B541EA7C
:101B70004201DDE904564FF0A04441EA830141EA05
:101B8000052104EB800041EA0641C0F8001770BD52
:101B900070B541EA4201DDE904564FF0A04441EA44
:101BA000830141EA052104EB800041EA0641C0F8C7
:101BB000001770BD70B541EA4201DDE904564FF0EF
:101BC000A04441EA830141EA052104EB800041EA97
:101BD0000641C0F8001770BD70B541EA4201DDE969
:101BE00004564FF0A04441EA830141EA052104EB89
:101BF000800041EA0641C0F8001770BD70B541EAA7
:101C00004201DDE904564FF0A04441EA830141EA74
:101C1000052104EB800041EA0641C0F8001770BDC1
:101C20001CB5002100910B4601220191FFF7C2FF74
:101C30001CBD1CB5002100910B4601220191FFF74C
:101C4000CBFF1CBD1CB500220B4600921146019231
:101C5000FFF7B0FF1CBD1CB500220B4600921146D9
:101C60000192FFF7B9FF1CBD1CB5002100910B4686
:101C7000012201911146FFF79DFF1CBD1CB50021FB
:101C800000910B46012201911146FFF7A5FF1CBDF3
:101C90004FF0A04202EB8000D0F8002722F440323F
:101CA000C0F80027D0F8002742EA0141C0F8001729
:101CB0007047000038B5094B44181B6800936B4609
:101CC00008E000BF53F82010D1F8205520C2C1F819
:101CD0002055401C8442F5D838BD00003841000032
:101CE0004FF0A04201218140C2F80C1570471CB58D
:101CF00031B14FF0A04101228240C1F818251CBD2E
:101D0000002100910B460A460191FFF777FF1CBDA9
:101D100042094FF0000100D1491E00F01F000122CE
:101D200082400A4201D001207047002070474FF0E6
:101D3000A04201218140C2F8081570474FF0A0422F
:101D400001218140C2F8081570470000034908B519
:101D50000844002101600068009008BD0060004058
:101D600002494058012800D0002070470060004020
:101D7000F0B595B01C4615460E4608461A9F00F071
:101D8000D7FA182109A8FEF7E5FB0E97CDE909540B
:101D90000023082203A9304600F0DDFA05980690DA
:101DA000BDF81000ADF81C00BDF81200ADF81E0023
:101DB00000208DF821000399082501F00300012877
:101DC00002D0022816D02FE0C1F3C200C1F383175E
:101DD0008C0A8DF82000BA002B460FA9304600F07F
:101DE000BAFA09A8009006AB3A460FA9204600F0BF
:101DF000FBF919E0C1F3C2008C0D8DF82000082C0E
:101E000001D2274600E008272B463A460FA9304664
:101E100000F0A1FA3D44E41B09AB06AA39460FA81D
:101E200000F05EF9002CEAD1304600F085FA15B0DA
:101E3000F0BD7047084810B50178084A515C19B1E7
:101E4000001D01F099F802E00C3000F011FFBDE830
:101E50001040002001F006BF6000002010000020AC
:101E600008B5034A00924023024AFFF781FF08BDEC
:101E70009D340000980200200A4A012902EBC000AC
:101E800007D0022907D0032907D0042907D0002052
:101E900070470220704704207047007970474079EE
:101EA00070470000704400002DE9FF47FFF71EF95E
:101EB00018B1002004B0BDE8F0877D4C0020C4F8C4
:101EC0001804BFF34F8F7B49A06800900D684FF056
:101ED0000008284004EB80000CE000BFD4F8180490
:101EE00070B961680098814201D8A160E1E728409B
:101EF00004EB80000C306946FFF746FB0028EDD16B
:101F0000002001AA009901EA050304EB8303491CA0
:101F1000DB6842F82030401C00910228F2D301987F
:101F200000F00301022902D001294DD0A5E0810D66
:101F300050228946B2EB905F00D850210E4666F3DE
:101F40009F50019008315C4800F0A9F9070077D054
:101F500000F0EEF94346082201A9384600F003FAE2
:101F6000009908F1080A2940681A8000001D86427D
:101F700023D94F4D0C3530B1C2B204EB8101301A78
:101F800090460C3104E02946F2B2002590462846DE
:101F9000C6B25346384600F0E6F90AEB08032DB105
:101FA000324629464FEA070000F0DDF9009909F1B1
:101FB000030001EB9000009039E004EB81015346EF
:101FC000324638460C31EFE7C0F38311062900D3BF
:101FD000062161F389100190C0F38310801C8100F9
:101FE000354800F05CF9070047D000F0A1F94346FE
:101FF000082201A9384600F0B6F908F108080026C1
:102000000FE00098434600EA0501401C04EB810103
:102010000090042238460C3100F0A5F908F10408BC
:10202000761C0198C0F38310B042EAD847B1D4F8C7
:102030001054D4F8180478B1384600F07DF931E036
:102040001BE0E8684079012804D12A68284639460F
:1020500012689047E8680568002DF2D1384600F014
:102060006BF90020FEF746FFD4F8180408B9009871
:10207000A0600020FEF740FF14E0D4F8104405E013
:102080002168204689688847E0680468002CF7D1F9
:102090000A480B49401AC008022101EB004009A17F
:1020A00000F01AF8FFF722F880F0010002E70000C4
:1020B000980300207C000020E0440000D844000089
:1020C000704400004261636B656E647320666C75DA
:1020D000736865640000000000231A4601F046BAE8
:1020E0002DE9F0470E4680461C469246082940D806
:1020F00094F80C90002020731946104601F072F8F5
:102100000025B54206D218F805201BA12046FFF78E
:1021100027FC03E01AA12046FFF722FC6D1C082DC6
:10212000EFD318A12046FFF71BFC0025B54212D2C1
:1021300018F805707E2F08D8FEF74CF90068C05DCE
:1021400010F03E0F01D03A4600E02E220EA12046AC
:10215000FFF706FC03E00DA12046FFF701FC6D1C14
:10216000082DE3D301222146504601F01DF884F8E2
:102170000C90BDE8F0870000202530327800000088
:10218000202020007C0000002563000020000000CB
:1021900002480349401AC00870470000E0440000AC
:1021A0007044000013B56846FFF7E8FA08B1002054
:1021B0001CBD0248009950F831001CBD704400005D
:1021C00070B508480125D0F81044057007E0E068B4
:1021D00045712168204649688847E0680468002CFA
:1021E000F5D170BD980300202DE9FF4781460C9D75
:1021F00000200C462F7B2873984616462946184621
:1022000000F0F0FF072E42D2DFE806F004090F16B7
:102210001F2A360049462846FFF7A2FB37E0494609
:1022200028462268FFF79CFB31E0D4E900234946A9
:102230002846FFF795FB2AE0A0680090D4E9002328
:1022400049462846FFF78CFB21E0D4E90201CDE99D
:102250000001D4E9002349462846FFF781FB16E038
:1022600004F1080007C88DE80700D4E900234946B7
:102270002846FFF775FB0AE004F108000FC88DE857
:102280000F00D4E9002349462846FFF769FB0022E6
:102290002946404600F088FF2F73BDE8FF872DE9EF
:1022A000F041058A80462D1F4819C01CB0FBF5F08F
:1022B000C6B24046FFF79CFA041E19D000202071D8
:1022C00001206071E58000272546761EC4F8008055
:1022D0000BE04046FFF78CFA60B16179491C6171EF
:1022E000286005467F1CC0F80080B742F1D3204625
:1022F000BDE8F081204600F002F80020F8E72DE963
:10230000F041457901466B1E002201E00968521C2C
:102310009A42FBD30F680146002605E038460C6858
:10232000FFF785FA2146761CAE42F7D3BDE8F0816F
:102330000121001DFFF740BA10B504460121001D20
:10234000FFF750FA10F0FF0F04D12046BDE810400F
:10235000FFF7D5BF10BD1CB501920122009201AA62
:10236000FFF7CCF91CBD1CB501920022009201AA16
:10237000FFF7C4F91CBD0000064910B500204870E5
:10238000091D0860BFF35F8F0349044800F03CF863
:10239000002010BD28000020904100006C020020A9
:1023A00010B50020FEF7A6FDF1EE100A20F09F0008
:1023B000E1EE100ABFF35F8F05494020C1F88002AB
:1023C0000020FEF799FD20BF40BF20BF10BD0000D8
:1023D00004E000E0024A1060101D01607047000038
:1023E0002C76004002494058002800D00120704758
:1023F00000700040034908B50844002202600068EC
:10240000009008BD00700040016009684160AFF3B2
:10241000008010B5D0E900215368994201D1002114
:1024200004E0D1E90034A34202D01946816010BD16
:1024300008314160F0E74058002800D00120704783
:1024400008B5002242504058009008BD405800286E
:1024500000D00120704708B500224250405800903B
:1024600008BD4058002800D00120704708B5002260
:1024700042504058009008BDD0F80403084000D0F6
:10248000012070474058002800D00120704708B54F
:10249000002242504058009008BD0000002802D0A1
:1024A000014980010847704741410000002802D0DF
:1024B0000149800108477047F14100002DE9F041D2
:1024C0000E46054600F0F6FD0028284619D0FEF716
:1024D0004BFE083800F060FE032802D001280ED021
:1024E00007E04FF0A040D0F81005E84010F0010FD1
:1024F00005D003212846BDE8F041FFF7C9BB022102
:10250000F8E700F0E3FD002822D02846FEF72CFE75
:1025100004464FF4807000EB84000E4F81B207EB4D
:102520008400D0F8102542F00102C0F810250846BA
:10253000FFF70CFC002E0BD02846FEF715FE0649CF
:1025400051F82000002803D00120A040C7F8040360
:10255000BDE8F08100600040080100202DE9FC4149
:10256000DFF8B880044608EB0400002790F930003B
:102570001346C0170E46401C01D008274AE0B07829
:102580001946C0F340022046FEF7CAFD0546401C2E
:102590003FD0B078410717D4C0070AD04FF0A04011
:1025A00000EB8400D0F8001721F00201C0F80017FA
:1025B00007E000217378204600910A460191FFF759
:1025C000D5FA204600F068FDB078800718D5144889
:1025D000317800EB8500D0F81025124B1A40C0F876
:1025E00010254FF4F8524FF4403302EA042203EA74
:1025F00001410A43D0F810150A43C0F8102509E03C
:1026000008EB0500327810F8481F41EA821101708A
:1026100000E004273846BDE8FC81000008010020E6
:1026200000600040FFE0FCFF70B5194D95F85800C0
:1026300008B1082070BD0024661E2046FFF768FB25
:1026400010B1281980F83060641CE4B2202CF4D357
:1026500000242046FEF756FD641CE4B20C2CF8D38F
:1026600000200D4968650B4CC02081F8000401264C
:102670004020891FC1F800014FF4BE70FFF766FBD0
:10268000A004C4F8040385F85860002070BD000061
:10269000080100200060004006E000E00121B1EBED
:1026A000507F01D101207047002070470121B1EB1C
:1026B000507F01D1012070470020704770B50D4652
:1026C00000F078FE04000FD00020FEF713FC207904
:1026D00020B10020FEF710FC112070BD0120256004
:1026E00020710020FEF708FC002070BD10B500F03E
:1026F00061FE002802D000210160017110BD2DE9AA
:10270000F04106460D464FF4803400681746AC4051
:102710004BB14FF4A07101EB8501FFF791FE3068DA
:10272000C0F8044301E0C0F80843306800EB8500BE
:10273000C0F84075BDE8F081016801220A600079A7
:10274000034A00EB400002EB800002210172704757
:1027500064010020F0B40468049E40F20115D4F82E
:1027600000728D40AF43C4F800720468D4F8005280
:102770001D43C4F800523346F0BCFFF7C0BF000051
:102780002DE9F04104460E4600792C4900EB40004B
:1027900001EB8007387A10B10820BDE8F0813A607B
:1027A000706800254FF4A078786006E008EB85019A
:1027B0002068FFF745FE6D1CEDB26079A842F5D8A0
:1027C0002068F17840F3073000284FEA411104DB1C
:1027D00000F1E02080F8001405E000F00F0000F1A7
:1027E000E02080F8141D2068012140F30730002804
:1027F00009DB00F01F0201FA02F24009800000F13B
:10280000E020C0F8002120687278D0F8043562F327
:102810000103C0F804352068B278D0F8083562F3B7
:102820000103C0F8083520683278D0F8103562F31B
:102830000303C0F8103539720020AEE764010020B0
:102840000179006801EB810202EBC101044A02EB4D
:1028500081010622C0F80025022081F82D00704772
:10286000940100202DE9FC410646007917460D46EB
:1028700000EB8001324A01EBC00102EB8104984673
:1028800094F82D1011B10820BDE8FC812D4951F8B4
:1028900020103068FFF712FF08B11120F4E7C4E9F7
:1028A00000780027A76084F8307084F82F70687B68
:1028B00084F832004FF00608CDE9008703233A463A
:1028C00039462868FFF764F9CDE900870022032321
:1028D00011466868FFF75CF9D5E900123068C0F866
:1028E0000815C0F80C25A968C0F824152068012235
:1028F00008B3306840F30731287B00294FEA4010C5
:1029000004DB01F1E02181F8000405E001F00F0192
:1029100001F1E02181F8140D306840F30730002800
:1029200009DB00F01F0102FA01F14009800000F10B
:10293000E020C0F8001184F82D200020A4E700005A
:102940009401002048410000F0B585B015460E46C0
:1029500007461C46142207496846FDF7C9FD8DF855
:1029600001600022694638460395019400F020F882
:1029700005B0F0BD4C4100002DE9F04186B00E4697
:1029800080461C461546142168460C9FFDF7E2FD63
:102990008DF80160039501940FB1202200E0002220
:1029A0006946404600F004F806B0BDE8F08100003A
:1029B00030B40379006803EB830404EBC303054CD4
:1029C00004EB830413460A460146204630BC00F05F
:1029D00059BF0000940100200149024801F06AB982
:1029E000EC010020002000402DE9F041054600796F
:1029F00016460F4600EB40012D4A01EBC00102EBE9
:102A0000810494F82A1011B10820BDE8F081294909
:102A100051F820102868FFF751FE08B11120F4E7A3
:102A200039462846FEF7C0FA6660386920603000F3
:102A30004FF001062FD03F7F4FF48E712868FFF7CB
:102A400015FD4FF4A2712868FFF710FD28681A4998
:102A5000C0F8041328684FEA471140F307300028F4
:102A600004DB00F1E02080F8001405E000F00F0026
:102A700000F1E02080F8141D286840F3073000289A
:102A800009DB00F01F0106FA01F14009800000F1A6
:102A9000E020C0F8001128680421C0F800150020CB
:102AA000A061E06184F8290044F8140FA675ACE732
:102AB000EC01002064410000800002002DE9F05F7D
:102AC000054600794FF4017600EB400303EBC000AC
:102AD000344B03EB80040020636813B12B68C3F808
:102AE0000863A3694FF000096BB1E06938B1606811
:102AF00010B12868C0F804631120BDE8F09FE261BE
:102B00000120216105E0C4F82490A261E160C4F8CD
:102B10001C9094F82910014302D1284600F095FC3E
:102B200060680028286803D0C0F804630020E4E748
:102B30004FF4A2763146FFF799FCB2464FF4927BF0
:102B400059462868FFF78DFC06464FF484712868C3
:102B5000FFF787FC804651462868FFF782FC07464E
:102B600048EA07003043EBD056EA070007D1214678
:102B7000286800F03BFCA169606A8142E0D8C4F893
:102B800018900EB10320B8E70FB10F20B5E794F805
:102B9000291001200029296801D00860C6E7486093
:102BA000C4E70000EC0100202DE9F05F0546007944
:102BB0000B4600EB400101EBC000244901EB80040F
:102BC000284600F045F810B11120BDE8F09F626181
:102BD0004FF00009C4F82090A36084F828904FF4C7
:102BE0008E784E4641462868FFF740FC28684FF033
:102BF000010AC0F808A02146286800F08FFF60682D
:102C000008BBD5F800B067690FE000BF94F8280052
:102C100008B10F2615E041465846FFF722FC002870
:102C2000F4D02146584600F079FF206AB842F2D32A
:102C3000574641462868FFF714FC0028F9D0286859
:102C4000C760C4F814903046BFE70000EC010020D4
:102C5000007900EB400101EBC000044901EB80006A
:102C60004069002800D0012070470000EC010020DE
:102C70002DE9F047044600794FF0000900EB4001D0
:102C800001EBC000284901EB80072068C0F80095DF
:102C90007868B0B120682549C0F80813206840F36F
:102CA000073000280DDB00F01F0201219140400990
:102CB000800000F1E020C0F88011BFF34F8FBFF318
:102CC0006F8F2068D0F80C25D0F81485D0F80865EF
:102CD000D0F810554FF0FF31C0F81415C0F80C159E
:102CE0002068C0F80815C0F81015501C02D0104616
:102CF000FEF79FFFB8F1FF3F02D04046FEF799FF75
:102D0000681C02D02846FEF794FF701C02D03046A3
:102D1000FEF78FFF2068FFF7E9FC87F82A90C7F8D5
:102D20000490BDE8F0870000EC010020840202005E
:102D30000149024801F06CB8C801002000200040A1
:102D40002DE9F0410546164600790F46154A00EB7D
:102D5000C00102EB810494F8201011B10820BDE8F5
:102D6000F081114951F820102868FFF7A7FC08B13D
:102D70001120F4E739462846FEF7D2F86660386934
:102D800020601EB1397F2846FEF7BAFB286808216B
:102D9000C0F800150020A061E0616061012184F8A5
:102DA0002010DCE7C8010020604100002DE9F05F41
:102DB000044600790E4600EBC001DFF8F0A017468C
:102DC0000AEB81053046FFF771FCB0B168684FF03F
:102DD00000084FF4047910B12168C1F80893A8697C
:102DE0004FF0000B80B1E86948B1686810B1206805
:102DF000C0F804931120BDE8F09F1020FBE7EF61BD
:102E00004FF001082E6102E0EE60C5E9067B002567
:102E10004FF488712068FFF73AFB4FF4A2712068E5
:102E2000FFF735FB2068C0F83465C0F838752068B6
:102E3000B8F1000F12D0D0F8001241F02001C0F814
:102E400000122079D04600EBC0010AEB81004068F7
:102E500038B12068C0F804932846CCE7012101600E
:102E6000EFE74FF4887A4FF4A27951462068FFF7D4
:102E700009FB074649462068FFF704FB06464FF466
:102E800092712068FFF7FEFA014647EA0600084300
:102E9000EBD0227902EBC20308EB8302C2F818B030
:102EA00001B10325002ED7D00F25D5E7C80100209A
:102EB0002DE9F04704460E460079274900EBC00093
:102EC00001EB800517463046FFF7F0FB30B1204696
:102ED00000F044F820B11120BDE8F0871020FBE796
:102EE0006F61AE604FF490774FF00008394620686C
:102EF000FFF7CDFA4FF4AC7631462068FFF7C7FAFA
:102F00002068AA686969C0F84425C0F84815206897
:102F10004FF00109C0F808906868D0B9BA46514628
:102F20002068FFF7AFFA074631462068FFF7AAFA94
:102F30000743F4D010B14FF00F0808E02068C0F844
:102F40000C9031462068FFF79DFA0028F9D0002048
:102F500068614046C0E70000C801002000790549CB
:102F600000EBC00001EB80004069002800D0012088
:102F700070470000C80100202DE9F047064600799F
:102F80003D4900EBC00001EB80053468686801270B
:102F9000A8B13A49C4F80813306840F30730002854
:102FA0000DDB00F01F0107FA01F14009800000F17C
:102FB000E020C0F88011BFF34F8FBFF36F8FD4F8BC
:102FC000000220F02000C4F80002A8694FF4A278A3
:102FD00020B141462046FFF75AFA67604FF4AC79BA
:102FE00049462046FFF753FAE760474649462046E0
:102FF000FFF748FA0028F9D0A86928B139462046D9
:10300000FFF740FA0028F1D04FF0000AC4F800A5FD
:103010003068D0F80C25D0F81495D0F80885D0F891
:1030200010754FF0FF31C0F80C15C0F8141530685A
:10303000C0F80815C0F81015501C02D01046FEF755
:10304000EFFDB9F1FF3F02D04846FEF7E9FD781CDD
:1030500002D03846FEF7E4FDB8F1FF3F02D040460B
:10306000FEF7DEFD2046FFF741FB85F820A0C5F8FE
:1030700004A0BDE8F0870000C80100201003420052
:1030800003490860034801680029FCD0704700002C
:1030900004E5014000E4014010B50549C20800F014
:1030A0000703885C01249C402043885410BD000025
:1030B0005C0100200449084490F93000082801DB35
:1030C000012070470020704708010020044908448F
:1030D00090F93000082801D2012070470020704785
:1030E000080100202DE9F05F2A4F06464FF0A04A64
:1030F0004FF0010B0024381990F95010491C3CD0B6
:1031000090F85000314620F0C0052846FEF7A4FB99
:1031100020B3204600F040F881460AEB8500D0F845
:103120000007C0F30148B8F1020F18D00221284669
:10313000FEF7AEFD0BFA05F1CAF820152846FEF79A
:1031400013F857F820204AB14846B9F1030F11D0BF
:10315000B8F1020F05D0B8F1030F07D00DE003213D
:10316000E5E74846B9F1010F04D006E04846B9F159
:10317000020F02D1014628469047641C042CBAD3A2
:10318000324601210020FEF795FD30680028B1D1BC
:10319000BDE8F09F080100200249084490F8500063
:1031A000800970470801002010B50C46017A0529F6
:1031B00008D0407A38B1084808A102682046FEF7D6
:1031C000CFFB00E01AB106A12046FEF7C9FB20465E
:1031D000BDE81040FEF7D1BBAC0000202573000015
:1031E0000D0A000038B5C3880D46044633B114A05B
:1031F000009015A216A12846FEF7B2FB217A0529F8
:103200001CD0607A48B1A088FEF736FE164951F806
:10321000202016A12846FEF7A3FBA0880021FEF778
:10322000C1FF03461049207A143951F8202001B01B
:103230002846BDE830400EA1FEF792BB38BD000025
:103240001B5B306D000000001B5B313B33316D00B8
:1032500025734C6F67732064726F707065642028EB
:1032600025642925730D0A00AC0000202573000099
:103270003C25733E2025733A200000002DE9F041E3
:10328000324C207800285FD04FF0A040D0F80415D1
:103290004FF400328A43C0F8082501F40031C0F829
:1032A0000C152B49FE20FDF7BDF829492D20FDF70F
:1032B000B9F8002526490120FDF7B4F8244901207A
:1032C000FDF7B0F86D1C052DF4DB00261F4F66706E
:1032D00035460C371E4937F81500000AFDF7A2F8ED
:1032E00017F815001A49FDF79DF86D1C032DF1DB49
:1032F000E6700027002516490120FDF793F81449D0
:103300000120FDF78FF86D1C032DF4DB7F1C042FCB
:10331000F0DB6671A079042800D3A6710C49A0796E
:10332000FDF780F80B4DA079094935F81000000A27
:10333000FDF778F8A079064915F81000FDF772F846
:10334000A079401CA0712670BDE8F081F200002039
:103350004C000020B80900200EB50AA002AB00689E
:10336000019001200246009001A9192000F05EFEA4
:1033700018B1FDF70FFD04A000E008A0FDF746F826
:103380000EBD000016000000424D41343536206964
:103390006E6974204661696C0A000000424D413438
:1033A000353620696E697420537563636573730ADB
:1033B000000000000349884201D103487047002003
:1033C00070470000002000401C00002008B505A048
:1033D000062300680090044A0121684600F01AFEA6
:1033E00008BD000012000000D600002070B50546A0
:1033F00088690C4600284FF4847128460AD0FFF7EC
:1034000035F8D5F81805626AE1688854606A401C8E
:10341000606270BDFFF72AF8D5F8180570BD1FB5BA
:1034200001238DF80030CDE90121D0E90012684672
:1034300090471FBD1FB501238DF80030CDE9012154
:10344000D0E90012684690471FBD10B504460068D9
:103450004FF49271FFF70AF84FF484712068FFF778
:1034600005F820680121016010BD000030B5094B4E
:10347000DC7834B198780849401CC0B29870488113
:1034800004E0044D0C3528806980AA80641CDC703F
:1034900030BD0000F2000020B809002070B50D4CCE
:1034A0000020D2B22070201D0B4D0378EB5C1BB1C5
:1034B000001DFFF7FDFC02E00C30FFF775FB08B1C3
:1034C000FDF768FC6078002802D021780029FAD046
:1034D00070BD00005C0000201000002008B54020F6
:1034E0008DF80000A8208DF801000221684600F048
:1034F00073FD08BD08B541208DF8000000208DF84F
:1035000001000221684600F067FD08BD08B554209F
:103510008DF8000008208DF801000221684600F0B7
:103520005BFD08BD08B558208DF8000040208DF8DF
:1035300001000221684600F04FFD08BD08B57D205E
:103540008DF8000004208DF801000221684600F08B
:1035500043FD08BD08B57E208DF80000B6208DF82B
:1035600001000221684600F037FD08BD2DE9F84F43
:10357000074622489146884605681E46012269464C
:103580001846FDF755FDDFF878A060B300980021DC
:103590000446801C0AE000BF00EA050259F821C079
:1035A0000AEB8202401C491CC2F80CC0B142F3D3A2
:1035B0004FEA1749FDF700FE611C29400AEB810123
:1035C00049EA00422C40CA600AEB8401C86867F3EC
:1035D000C50066F3891068F39F2020F00300401CAB
:1035E00020F00400C8609AF8000001E0FEF75CFCDF
:1035F0000028FBD1FEF70CF8BDE8F88F7C00002016
:10360000980300202DE9F041044640F20C60216847
:10361000890001F1A041C1F800076168890001F14A
:10362000A041C1F800072068FEF781FB6068FEF743
:103630007EFB216840F20D60890001F1A041C1F8D4
:1036400000076168890001F1A041C1F8000704206A
:10365000FEF724FF00274FF0A04601252179D6F878
:103660001005C84010F0010F02D0002F1DD010E04F
:10367000217805FA01F0C6F80C050420FEF70EFFCC
:103680002068FEF754FB0420FEF708FF7F1C092F7B
:10369000E4DB20798540C6F80C550420FEF7FEFED9
:1036A0006068BDE8F041FEF742BBBDE8F081000074
:1036B0001FB50A4601788DF8001001798DF80410C5
:1036C00041798DF80510017A8DF80610017B8DF88F
:1036D00007100169029140690390044850F82210D4
:1036E000083850F82220684690471FBD0800002087
:1036F0002DE9F04F0C464FF4927887B005464146CD
:10370000FEF7A4FE4FF0020B01274FF4827640B182
:1037100041462846FEF79FFE31462846FEF796FEB4
:10372000E8B14FF482712846FEF790FE010004F1E3
:103730000C00DFF84C91EA4645F307364FF00008DD
:10374000069048D04FF482712846FEF784FE94F824
:103750002000400624D494F82E00C8B120E0A068D0
:10376000C5F80803C4F808B0A068C5F804034FF40E
:10377000B0712846FEF76AFE18B1D5F80002800540
:1037800001D42F626F6184F82E7007B0BDE8F08F0E
:103790002146284600F078FC80F0010084F82E00D5
:1037A00094F8200040073ED414220AF10400069940
:1037B000FCF79EFE4FF4B0712846FEF74CFE4FF426
:1037C000AE712846FEF747FE94F8300008B394F82F
:1037D0002E00F0B927E04FF4A4712846FEF73BFE17
:1037E000207B68B14FF40070C5F80002801CA06017
:1037F000C5F80893A068C5F80403AF602F62C4E75A
:1038000014220AF104000699FCF772FE94F83000C5
:1038100048B90020C5F80002C4F80880C5F808932C
:103820003046FDF767FAD5F8C404C5F8C40481072B
:1038300002D58DF8007011E0410702D58DF800B077
:103840000CE0C00701D0032003E094F82E0018B16B
:1038500004208DF8000001E08DF8008094F830001D
:1038600008B984F82F8094F82000400703D594F815
:103870002E00002889D0D4E900216846904784E7CB
:1038800002029C012DE9F05F4FF00009054680F827
:103890002E901F4616460C464FF0080BCA46D068BD
:1038A000FEF7FCFE00287DD09B48C4F8080395F87D
:1038B0002F0028B1A868C4F804031120BDE8F09FC8
:1038C000780703D4F80601D4012000E0002085F831
:1038D0002F001422314605F10C00FCF709FEC7F356
:1038E000001085F830002F627078C4F888054FF416
:1038F00082712046FEF7AFFD4FF492712046FEF72D
:10390000AAFD4FF4B0712046FEF7A5FD4FF4A47157
:103910002046FEF7A0FDF8074FF0010801D0404611
:1039200000E05046C4F85005B80701D5404600E015
:103930005046C4F840053078A8B3012875D0022855
:1039400050D003281DD04FF00709380704D4307831
:10395000032801D044F80B80286800287FD078071E
:1039600001D5C5F808A0780603D4A86840F0020085
:10397000A860A86840F40070A860A868C4F80403B0
:10398000C7E03069FEF78AFE60B14FF48070C4F87A
:1039900000027168F068C4F84405C4F848154FF493
:1039A000A87101E031E032E02046FEF754FDC4F892
:1039B0002080C4F8088000BF4FF4A8712046FEF7AD
:1039C00045FD0028F8D04FF4A8712046FEF743FDCE
:1039D0003169B068C4F84415C4F848054FF4802034
:1039E000A860B2E7F1687068C4F84415C4F84805E7
:1039F0003069FEF753FE40B13169B068C4F8341540
:103A0000C4F838054FF4845012E0102056E7F168EE
:103A10007068C4F84415C4F84805B80606D54FF4D4
:103A20008070C4F80002800205E009E04FF40070E5
:103A3000C4F800020220A860C4F8208085E70EE0E8
:103A4000F1687068C4F83415C4F838054FF4805034
:103A5000C4F800020220A8604FF0000BECE700263B
:103A60004FF4A47B59462046FEF7F0FC00B1012636
:103A70004FF482712046FEF7E9FC28B14FF48271C1
:103A80002046FEF7E8FC01264FF492712046FEF72F
:103A9000DDFCE8B14FF492712046FEF7DCFC4FF4F8
:103AA000B0712046FEF7D2FCD4F8001242420A4020
:103AB000920504D4C4F82080C4F81480002638B1DC
:103AC000C80505D559462046FEF7C5FC0026C9E7BE
:103AD000002EC7D0D4F8C404C4F8C40485F82FA0BD
:103AE00070B10321C20701D04FF40241820701D512
:103AF00048F20121400701D548F20221894608E039
:103B0000780606D42946204600F0BEFA08B94FF0E0
:103B100003094846D2E6000002029C0170B50C463B
:103B200005464FF48E71FEF7A1FC216AA068415C46
:103B3000206A401C2062C5F81C1570BD1FB500220C
:103B40008DF800200291816801914261D0E9001254
:103B5000684690471FBD1FB500228DF800200291D6
:103B6000816801914261D0E90012684690471FBD0B
:103B70000178022901D0012902D14068FDF70AB974
:103B8000704700007CB50178254DA1B301290BD009
:103B900002291DD18DF80010C068691C0190012216
:103BA000C81DFDF7BDFE30E0017A59B140680178CB
:103BB0001C48FDF715F91B4C012650B18DF800602B
:103BC00001900DE016490122491CC81DFDF7A8FE11
:103BD0007CBDA068E168814205D000208DF800001E
:103BE000696868468847A068E168081AA188884221
:103BF000E8D9AE707CBDFFE70A4809491030FDF7EF
:103C0000D4F830B103208DF8000069686846884711
:103C1000F0E70349012201F10800FDF791FEE9E711
:103C200030000020780200201FB50A4601788DF888
:103C3000001041680191017A8DF80810C068039066
:103C4000044850F82210001F50F822206846904780
:103C50001FBD0000180000200149012008707047B6
:103C60005C00002010B588B0044620220E4968464A
:103C7000FCF73EFC06200090C01F019002900390CC
:103C80004FF0EB7006900CB1084A00E00022694644
:103C90000748FDF711FE08B1FDF77CF80448001F46
:103CA000447008B010BD0000C8410000593C00003D
:103CB000600000202DE9FF470C4605464FF40071D7
:103CC000FEF7DAFB01274FF40178002618B34FF412
:103CD000927949462846FEF7C4FBE0B1494628469A
:103CE000FEF7C4FBC5F8088394F8290000B96F609B
:103CF00002208DF80000D5F88004C5F880040390F8
:103D0000A0690290E0680190A661E661D4E9001222
:103D10006846904728E004212846FEF7ADFB18B31B
:103D20004FF484712846FEF79CFBE8B121462846F3
:103D3000FFF75CFB616AA069884215D1E06938B180
:103D4000E268616AA0612069E6616662E06008E09D
:103D500094F8290000B96F60C5F80883A661E2688D
:103D6000616A2046FFF766FB4FF48E78414628468D
:103D7000FEF777FB80B16069216A814202D294F834
:103D8000280028B341462846FEF770FB606918B149
:103D900061692046FFF7DFFE4FF4A27841462846CE
:103DA000FEF75FFB002818D041462846FEF75EFB71
:103DB00094F8290000B12F60A06900280DD0A661F9
:103DC000E268616A04B02046BDE8F047FFF732BB05
:103DD00021462846FFF7A2FEDEE7BDE8FF87000088
:103DE0001FB50A4601788DF8001041680191017AEB
:103DF0008DF80810C0680390044850F82210001F86
:103E000050F82220684690471FBD0000180000208F
:103E10002DE9FF410C464FF4927705463946FEF7EF
:103E200031FB0026B8B139462846FEF730FB0220A8
:103E30008DF80000D5F88004C5F880040390D5F80B
:103E40003C050290E0680190A661E661D4E90012A9
:103E50006846904723E04FF4887739462846FEF7B6
:103E600011FBE0B139462846FEF711FBD5F83C15A9
:103E7000A069884213D1E06960B1E268D5F8000218
:103E800020F02000C5F80002E069A0612069E66129
:103E9000E06001E0A661E2682046FFF7C0FA4FF457
:103EA000A27739462846FEF7EDFA68B1394628462A
:103EB000FEF7EDFAA06938B1A661E661D5F83C15C8
:103EC0002046E268FFF7ABFA4FF490763146284679
:103ED000FEF7D8FA60B131462846FEF7D8FA01203D
:103EE000E860606920B1D5F84C152046FFF726FE42
:103EF0004FF4AC7631462846FEF7C4FA00280ED0BF
:103F000031462846FEF7C3FA6069002807D0D5F885
:103F10004C1504B02046BDE8F041FFF70FBEBDE8E8
:103F2000FF8100002DE9F05F8346DDE90A4A9946EA
:103F300090460D460846012703E000BFB0FBF8F0AD
:103F40007F1C4045FAD2B94500D94F465FEACA7096
:103F500012D18CB15FEA8A7002D5B9F1000F01D09D
:103F6000202607E0302605E031465846641EFDF75E
:103F7000A5F80CB1A742F7D35FF00106B9F1010F24
:103F800002D9A9F1010903E0B5FBF6F0404502D3DF
:103F900006FB08F6F2E7DFF83C9000BFB5FBF6F051
:103FA00000FB165519F800105846FDF787F8B6FBC8
:103FB000F8F6002EF2D15FEACA7009D0002C07D0C3
:103FC000A74205D220215846641EFDF777F8F5E791
:103FD000BDE8F09F68410000CAB20146192000F018
:103FE00001B8000038B50A4D00232B70012300935F
:103FF00013460A460146281DFDF756FC041E01D053
:10400000FCF7C8FE28780028FCD0204638BD000008
:10401000DC00002008B5DBB20093C9B213460A46A3
:104020000146192000F002F808BD00002DE9F84310
:10403000144D0027DDF82090984606462F70012089
:1040400013460A4600903146281DFDF72DFC041E3C
:1040500001D0FCF79FFE28780028FCD074B92F709F
:1040600008483146083042464B46FEF76DFC041EB8
:1040700001D0FCF78FFE28780028FCD02046BDE850
:10408000F8830000DC00002010B50B7B0122E3B1B7
:10409000012B1DD0022B0FD0032B24D18B685B0387
:1040A00004D5D0F84C350C69A34216D18B685B035C
:1040B00019D4D0F84C3506E0D0F84C350C69A34241
:1040C0000BD1D0F83C35496905E0D0F84C3501E01A
:1040D000D0F83C3509698B4205D00022C0F8002594
:1040E0000621C0F80015104610BD000010B50029CB
:1040F0000AD00878002807D005487844FCF78AFAE7
:10410000002801D0002010BD0248784410BD0000F6
:10411000560200004E0200004FF04070E1EE100A1F
:1041200070470000000000000000000000000000D8
:104130000338FDD870470000000000500000000068
:104140000338FDD8704700005D0900000100000041
:10415000000000000000000000000000000000005F
:10416000312D0000D9290000303132333435363753
:104170003839414243444546000000000000000039
:10418000000000000000000000000000000000002F
:10419000784100009041000004000000FFFFFFFF95
:1041A000FFFFFFFFFFFFFFFFFFFFFFFF000000001B
:1041B000000000000000D60106010000611E0000A2
:1041C000351E0000331E0000FFFFFFFFFFFFFFFF53
:1041D000FFFFFFFFFFFFFFFF0000000000000000E7
:1041E0000000D601060100000000000000000000F1
:1041F0000338FDD8704700001B0000001A000000C3
:104200000000680602000000080000000600000030
:1042100000000000000000000000000000E0D701E6
:1042200000900040000400000400030600000000AD
:10423000020002000200020002000200020002006E
:104240007761726E696E6700646562756700000071
:104250001B5B313B33306D001B5B306D0000000099
:104260001B5B313B33316D001B5B313B33326D00E7
:104270001B5B313B33336D001B5B313B33346D00D3
:104280001B5B313B33356D001B5B313B33366D00BF
:104290001B5B313B33376D00696E666F00000000B9
:1042A0006572726F720000004750494F544500001C
:1042B0005050490054494D45520000005457494D53
:1042C0000000000055415254450000005541525431
:1042D000000000005052530053414144430000008D
:1042E0005350494D000000007077725F6D676D7428
:1042F000000000006170705F627574746F6E000082
:10430000736F72746C697374000000006170705F89
:1043100074696D6572000000756172745F6C6F671F
:104320005F6261636B656E64000000006170700025
:10433000F444000000000020080100003C020000DE
:10434000FC45000008010020382900005802000048
:104350001001000043000000F8FFFFFF0040404054
:104360004040404040404141414141404040404048
:1043700040404040404040404040404040050202F4
:1043800002020202020202020202020202202020B3
:10439000202020202020200202020202020290900F
:1043A000909090901010101010101010101010100D
:1043B0001010101010101010020202020202888861
:1043C000888888880808080808080808080808086D
:1043D0000808080808080808020202024000000055
:1043E00000000000000000000000000000000000CD
:1043F00000000000000000000000000000000000BD
:1044000000000000000000000000000000000000AC
:10441000000000000000000000000000000000009C
:10442000000000000000000000000000000000008C
:10443000000000000000000000000000000000007C
:10444000000000000000000000000000000000006C
:10445000000000000000000000000000000000005C
:10446000BC41000000000000184300007400002060
:10447000A842000000000000B04200000000000060
:10448000B442000000000000BC4200000000000038
:10449000C442000000000000CC4200000000000008
:1044A000D442000000000000D842000000000000DC
:1044B000E042000000000000E842000000000000B0
:1044C000F442000000000000004300000000000073
:1044D0000C430000000000002C4300000000030318
:1044E000880000208000002088000020D8020020E2
:1044F00018000000000000000000000000000000A4
:1045000000000000000000000000000000000000AB
:10451000000000000000000000000000000000009B
:10452000000000000000000000000000000000008B
:1045300000200040000000000020004000000000BB
:10454000000000000000000000000000000000006B
:1045500000000000000000000020004000000000FB
:10456000002000400000000000000000FF000000EC
:10457000FF0000000000000000000000000000003C
:10458000000000000000000000000000000000002B
:10459000A042000040420000984200004842000053
:1045A0005842000050420000604200006842000093
:1045B0007042000078420000804200008842000003
:1045C0009042000000000000000000000000000019
:1045D000000000000000000000300040000000006B
:1045E00001000000000001000000000000000000C9
:0C45F00000000000000000000090D0035C
:0400000500000201F4
:00000001FF
