:020000040000FA
:10000000682A0020950300009D0300009F03000064
:10001000A1030000A3030000A503000000000000EE
:10002000000000000000000000000000A703000026
:10003000A903000000000000AB030000AD030000B6
:10004000AF030000AF030000190D00008D09000090
:100050009D090000AF030000A9060000E5070000AD
:10006000AF030000C90C0000DD0C0000AF0300006E
:10007000AF030000AF030000AF030000AF030000B8
:10008000AF030000D5070000AF030000AF0300007E
:10009000AF030000AF030000AF030000AF03000098
:1000A000AF030000AF030000F10C0000050D0000DD
:1000B000AF030000AF0300000000000000000000DC
:1000C000AF030000AF030000AF030000AF03000068
:1000D000AF030000AF030000AF030000000000000A
:1000E0000000000000000000000000000000000010
:1000F0000000000000000000000000000000000000
:1001000000000000000000000000000000000000EF
:1001100000000000000000000000000000000000DF
:1001200000000000000000000000000000000000CF
:1001300000000000000000000000000000000000BF
:1001400000000000000000000000000000000000AF
:10015000000000000000000000000000000000009F
:10016000000000000000000000000000000000008F
:10017000000000000000000000000000000000007F
:10018000000000000000000000000000000000006F
:10019000000000000000000000000000000000005F
:1001A000000000000000000000000000000000004F
:1001B000000000000000000000000000000000003F
:1001C000000000000000000000000000000000002F
:1001D000000000000000000000000000000000001F
:1001E000000000000000000000000000000000000F
:1001F00000000000000000000000000000000000FF
:1002000000F002F800F045F80AA090E8000C8244E3
:100210008344AAF10107DA4501D100F03AF8AFF2C0
:10022000090EBAE80F0013F0010F18BFFB1A43F0D4
:1002300001031847DC280000FC280000103A24BF06
:1002400078C878C1FAD8520724BF30C830C144BF3B
:1002500004680C607047000000230024002500267D
:10026000103A28BF78C1FBD8520728BF30C148BF19
:100270000B6070471FB502F07FFB00F097F9040098
:100280000020002102F062FB401C60601FBD10B521
:1002900010BD00F0D3F91146FFF7ECFF01F07AF83A
:1002A00000F0F1F903B4FFF7F2FF03BC00F0F4F93A
:1002B00030B4044654E8000F0D4644E80053002BC8
:1002C000F8D1156030BC704730B4044654E8000FD4
:1002D00040EA010544E80053002BF7D1156030BC1B
:1002E000704730B4044654E8000F00EA010544E8C2
:1002F0000053002BF7D1156030BC704730B4044672
:1003000054E8000F80EA010544E80053002BF7D1C0
:10031000156030BC704730B4044654E8000F00EB61
:10032000010544E80053002BF7D1156030BC70473D
:1003300030B4044654E8000FA0EB010544E8005334
:10034000002BF7D1156030BC704770B404464FF0F5
:10035000000054E8006F0D68AE4207BF44E8002378
:10036000012044E800630E60002B1CBF0020F0E772
:1003700070BC704730B4044654E8000F88422CBF6C
:10038000451A054644E80053002BF5D1156030BCF2
:10039000704700000948804709480047FEE7FEE72C
:1003A000FEE7FEE7FEE7FEE7FEE7FEE7FEE7FEE725
:1003B00004480549054A064B70470000F109000052
:1003C00001020000680A0020682A0020681A002044
:1003D000681A002010B500F0E9F8001D10BD00BF3C
:1003E0006D25000040EA0103024630B59B0710D19D
:1003F0004FF0013400E008C208C91D1B9D4315EAF7
:10040000C41FF8D013F0FF0102F8011B0DD01B0A26
:10041000F8E711F8013B002B02F8013B05D011F879
:10042000013B002B02F8013BF3D130BD10B5431C5A
:1004300002E010F8011B71B18107FAD14FF00132CF
:1004400002C88C1A8C4314EAC211F9D0C01A0A06E9
:1004500003D0C01E10BDC01A10BD0A0401D0801EFA
:1004600010BD0902FCD0401E10BD032A40F23080AE
:1004700010F0030C00F0158011F8013BBCF1020FE5
:10048000624498BF11F801CB00F8013B38BF11F866
:10049000013BA2F1040298BF00F801CB38BF00F87D
:1004A000013B11F0030300F02580083AC0F00880FA
:1004B00051F8043B083A51F804CBA0E80810F5E7DE
:1004C000121D5CBF51F8043B40F8043BAFF30080C1
:1004D000D20724BF11F8013B11F801CB48BF11F836
:1004E000012B24BF00F8013B00F801CB48BF00F806
:1004F000012B704710B5203AC0F00B80B1E81850BE
:10050000203AA0E81850B1E81850A0E81850BFF4FD
:10051000F5AF5FEA027C24BFB1E81850A0E818509C
:1005200044BF18C918C0BDE810405FEA827C24BFF0
:1005300051F8043B40F8043B08BF7047D20728BF7E
:1005400031F8023B48BF11F8012B28BF20F8023BCD
:1005500048BF00F8012B70474FF0000200B513466A
:1005600094469646203922BFA0E80C50A0E80C50D3
:10057000B1F12001BFF4F7AF090728BFA0E80C5084
:1005800048BF0CC05DF804EB890028BF40F8042B7D
:1005900008BF704748BF20F8022B11F0804F18BFEA
:1005A00000F8012B7047704770477047004870474C
:1005B000240A002000487047040A00204FF0013C44
:1005C00050F8042B51F8043B9A4221D1A2EB0C03C2
:1005D000934313EACC1317D150F8042B51F8043B82
:1005E0009A4215D1A2EB0C03934313EACC130BD11F
:1005F00050F8042B51F8043B9A4209D1A2EB0C03AA
:10060000934313EACC13DBD04FF00000704700BFD8
:10061000D01A01BAB1FA81F101F0180122FA01F001
:10062000CB40C1F12001DBB2C0B2C01A2CFA01F3F9
:10063000D11A914311EAC311E6D170477546FFF70D
:10064000B9FFAE4605006946534620F007008546CF
:1006500018B020B5FFF7ACFEBDE820404FF0000613
:100660004FF000074FF000084FF0000B21F007019A
:10067000AC46ACE8C009ACE8C009ACE8C009ACE8DD
:10068000C0098D46704710B50446AFF30080204680
:10069000BDE81040FFF706BE01491820ABBEFEE7DB
:1006A00026000200704700002DE9F8430025DFF81E
:1006B00094804FF4807601242F460095304601F057
:1006C0000FF938B1D8F80403204203D0304601F0C6
:1006D000FDF82543361D64007F1CB6B2082FEDD30C
:1006E0004FF4BE74204601F0FBF848B1204601F0FB
:1006F000EDF845F000456A460121002001F0B4F80C
:1007000015F0FF0F16D0012600242E420ED008EB64
:100710008401D1F81005D1F81015C0F304200A4A5D
:10072000C1F3014152F8242002B190477600641CC5
:10073000082CEAD3002D02DA684601F0C5FDBDE8B9
:10074000F8830000006000408C00002038B50C20C9
:1007500000F0CAFC124A03230121501E02F09EF849
:100760000C2000F0CDFC0E480F49401E02780D48C9
:10077000401AC108032000EB01440CA1204601F0FF
:1007800099FA0748817800914378027820460BA1B6
:1007900001F097FA01F072F90028FBD138BD000092
:1007A00081000020B82C0000502C000077722044FB
:1007B000617461203A20307825780000726420440A
:1007C0006174613A2030782578203078257820309F
:1007D0007825780002490248091F0968006808471F
:1007E000180000202DE9FE434FF48278404601F0C6
:1007F00017FC4C4F00254C4C012600B3404601F03D
:1008000017FC94F82E0010B194F82F10D1B18DF888
:100810000050616801912189ADF80810E26832B199
:10082000218B618362602181E56010B102E0257453
:1008300000E03E6021686846884784F82F5094F8AD
:100840002E0060B34FF48077384601F0E9FB30B3F7
:10085000384601F0EDFB628B94F82D108A420AD9DC
:10086000A2EB010080B260832289A2EB00006268E3
:1008700002EB400005E007D1E06828B184F82F6062
:10088000658301F0C5FB04E08A4202D184F82F6041
:100890006583404601F0CCFB2248001D06604FF402
:1008A0008877384601F0BCFB48B1384601F0C0FB00
:1008B000257402208DF800002168684688474FF4AF
:1008C0008A77384601F0ACFB28B1384601F0B0FB1E
:1008D0002574BDE8FE834FF000484FF48C796769BA
:1008E0001DE000BFB7FA87F028FA00F109EB800598
:1008F0008F43284601F094FB88B1284601F098FB0D
:10090000A5F58C75E8088DF8040045F38000401CBF
:100910008DF800608DF80500216868468847002F33
:10092000E0D1D6E7007000404C01002000F0FAB999
:1009300070B50E46144900EB400001EBC0051446AB
:10094000E86A183520B101280FD0022805D113E03C
:10095000284600F01BFAA04201D2002411E02246F2
:100960003146284600F057FA0BE0284600F00EFA10
:10097000A042F4D20446F2E73146284600F01EFABF
:100980000446204670BD00007C0700200149024853
:1009900001F060BE1801002000300040F8B54FF0B3
:1009A00040200446114E4FF48C7101F062FB002888
:1009B0001AD00025C4F81851D4F818010090F07F1F
:1009C0003446FF2806D0A17F11B100F063FF01E09B
:1009D00000F075FF65772572D4E9002101B004F1BC
:1009E0000800BDE8F0401047F8BD00007C01002081
:1009F000F0B5A449A4484FF080540B68D4F83021D6
:100A00000078D4F83411551CC0F3031006D0944676
:100A100001270026BCF1060F03D00AE003F0FF0C0B
:100A2000F6E7B4F82453DFF864C2C5F30425CCF824
:100A30000050DDB2062D06D1032804D1DFF854C2E0
:100A4000934DCCF87450551C04D09446BCF1060F5D
:100A500003D00AE003F0FF0CF8E7D4F84452DFF8C3
:100A600038C2C5F34235CCF80050DDB2062D08D1AE
:100A7000032806D1894DD5F800C02CF0807CC5F83C
:100A800000C0551C04D09446BCF1060F03D00BE007
:100A900003F0FF0CF8E74FF08045C5F80C61C5F88E
:100AA00010617D4D2D1F2E60DDB2062D08D103286B
:100AB00006D1DFF8E4C103250CF1640CCCF800503A
:100AC000DDB2062D10D103280ED1DFF8D4C10525E3
:100AD000CCF80050724D78352F60714D08352E607E
:100AE0000CF104063F253560551C04D016460D4612
:100AF000062E03D05BE0DEB20546F9E7ED1E012DC0
:100B000055D9684D2D68684E3560664D2D1D2D6890
:100B1000361D3560634D08352D68361D3560614DD5
:100B20000C352D68361D35605E4D10352D68361D2F
:100B300035605C4D14352D68361D3560594D1835BE
:100B40002D68594E20363560564D1C352D68361DA2
:100B50003560544D20352D68361D3560514D243596
:100B60002D68361D35604F4D28352D68361D356092
:100B70004C4D2C352D68361D35604A4D30352D686D
:100B8000494E40363560474D34352D68361D356049
:100B9000444D38352D68361D3560424D3C352D6845
:100BA000361D35603F4D40352D68361D3560551C6E
:100BB00003D01646062E02D007E0DEB2FAE7D4F8DC
:100BC00058523A4E05F04F053560551C03D0134678
:100BD000062B02D008E0DBB2FAE735480368DB07F2
:100BE00002D06FF001030360062A07D1C91E022953
:100BF00004D93048016841F48061016027487438A5
:100C0000016841F470010160BFF34F8FBFF36F8F34
:100C1000D4E94C104FF01022062907D1C01E03283A
:100C200004D9D2F808021C491C310860D2F800022D
:100C3000002803DBD2F8040200281FDA012001F0AB
:100C400037FB1521C2F800121B480368002BFCD0AB
:100C5000C2F8041201680029FCD0002001F028FB32
:100C6000BFF34F8F0D48F0380168144A01F4E0617A
:100C700011430160BFF34F8F00BFFDE711491048DA
:100C80000860F0BDE00F00F0E80F00F040350140D3
:100C90000DF0ADBA00C007403C050040FCED00E09F
:100CA000105600400404001020C50040E40E00402F
:100CB000000400403C17004000E401400400FA0535
:100CC0000090D0038800002004220249024800F06E
:100CD000EBBA0000E8000020009000400422024926
:100CE000024800F0E1BA0000F400002000A000403B
:100CF00006220249024800F0D7BA00000001002095
:100D000000A0014006220249024800F0CDBA0000CE
:100D10000C01002000B001400148006800470000BD
:100D20000000002010B5124C02202061606111A06B
:100D3000A06104F17800E0614FF4007020620020AF
:100D4000A06260620BA1A164E06204F51E71E1641F
:100D50001021A065C4E91410E06509A1E01DFFF7AA
:100D600041FB08A12046FFF73DFB2020A07110BDEC
:100D70007C0700205465726D696E616C0000000094
:100D80005254540053454747455200000269C16818
:100D90008A4203D88068401A104400E0501A401E6E
:100DA0007047002809DB00F01F0201219140400933
:100DB000800000F1E020C0F8801270472DE9F04774
:100DC000C4681746894606464FF000083069A042BD
:100DD00001D9051B02E0B168201A0D1AB0686D1E1A
:100DE000001BA84200D80546BD4200D33D467068AE
:100DF0002A4620444946FFF738FBB0687F1B2C4445
:100E0000A844A944A04200D10024F460002FDDD101
:100E10004046BDE8F0872DE9F04104468846D4E914
:100E20000207C51BE168606816460844B54206D94A
:100E30004146FFF71AFBB819E060BDE8F0812A4689
:100E40004146FFF712FB761B08EB0501324660684E
:100E5000FFF70BFBE660F0E710B572B600F0BEFFDF
:100E600000F00CFE0028FBD111481249401AC408BA
:100E7000012000EB044010A100F018FF11480068A9
:100E8000C00700D000BE022000EB04400EA100F01D
:100E90000DFFBFF34F8F0B48E43801680E4A01F491
:100EA000E06111430160BFF34F8F00BFFDE7000019
:100EB000B82C0000502C0000466174616C206572F3
:100EC000726F7200F0ED00E053797374656D2072FB
:100ED00065736574000000000400FA050EB500217A
:100EE0000091CDE901106A4644F20100FFF7B4FF1A
:100EF0000EBD00F003B800F009B8000072B6024859
:100F00000168491C01607047080000200349086817
:100F1000401E086000D162B6704700000800002043
:100F20002DE9F0470546861C91460F464FF0010A11
:100F30000020FFF7DEFF1B4C04F21C48606838609D
:100F4000D4E90101184F401A3968081A0EE001214E
:100F5000404600F0A3FA00F0CBF90146404600F00D
:100F60009DFAD4E90101401A3968081A401C8642EA
:100F7000EDD8B9F1000F03D0052065F3891002E028
:100F8000062065F39F5061683A68114004EB8101C7
:100F9000C8606068304460600020FFF7ACFF5046D6
:100FA000BDE8F0875C0300202C00002070B50D46E2
:100FB00004460A2902D10D21FFF7F8FFA068226834
:100FC000411CA1601554D4E90101814204D320469B
:100FD000BDE8704000F022BB70BD0000044881688D
:100FE0004068814201D10120704700207047000015
:100FF0005C0300200249084490F93000704700006B
:101000008C00002010B50021024800F052FA80F355
:10101000100010BD7807002010B500F0BDFF00F0F3
:10102000CFFF02490120086010BD00007805004094
:1010300010B500210D2000F034FC00210E2000F03E
:1010400030FC00210F2000F02CFC0021102000F0CB
:1010500028FC0121112000F024FC0121122000F0C5
:1010600020FC0121132000F01CFC0121142000F0C1
:1010700018FCBDE810400C2000F042B82DE9F0410A
:10108000FFF7D6FF00F070F800F046F80C4E14257C
:101090004FF47A47741C3846A0476D1EFAD10948B0
:1010A0000949401AC008032101EB004007A100F0E4
:1010B000FDFD00BF00F0E2FC0028FBD1BDE8F0819F
:1010C00090290000B82C0000502C0000696E697453
:1010D0005065726970686572616C7320436F6D70E2
:1010E0006C6574656400000010B50446012100F0D1
:1010F000D8FB4FF0A0410120A040C1F80C0510BD65
:1011000010B50446012100F0CCFB4FF0A0410120B6
:10111000A040C1F8080510BD1FB5124A0023D2E94E
:101120000401D269CDE900011C208DF802001D20C8
:101130008DF801001A208DF800004FF080500392C6
:10114000029000208DF80C0002208DF804001A4651
:101150006946044800F012FA002801D0FFF7BEFEED
:101160001FBD0000042A000010B54FF4804100208C
:1011700000F008FE08B1FFF7B1FEBDE8104000F036
:101180006FBC000010B50C20FFF7BAFF07480849F4
:10119000401AC008032101EB004006A100F086FDC3
:1011A00000F06CFC0028FBD110BD0000B82C000042
:1011B000502C0000696E697453656E736F727320F2
:1011C000436F6D706C657465640000002DE9FC5F11
:1011D0000E008346DDE90C47C6F1000098469246B2
:1011E000814600D40846012503E000BF90FBFAF0D9
:1011F0006D1C5045FADAA84500D9454624B1002EA9
:1012000001DB780700D5641EB80702D5B8F1000FDE
:101210000AD0F80708D13CB1A54205D22021584692
:10122000641EFFF7C3FEF6E7002E02DA4E462D21BC
:1012300002E0780703D52B215846FFF7B7FE07F0E9
:10124000030002280BD1B8F1000F08D13CB1A54230
:1012500005D230215846641EFFF7A8FEF6E7CDE917
:101260000047434652463146584601F0BDFABDE8B4
:10127000FC9F024600201268530713D502F00300BA
:10128000012802D002280CD105E0C2F383100B68BC
:10129000801C184404E00223086803EB92521044B7
:1012A00008600120704700002DE9F041174688468C
:1012B0000646002417E000BF4FF4A07000EB840541
:1012C0004FF480307159A04059B1D6F8041301424F
:1012D00007D02946304600F0D1FED8E90021284643
:1012E0009047641CE4B2BC42E6D3BDE8F08170478D
:1012F0002DE9FF410026244800F0CDF82248001FC8
:10130000074600F0C8F8214C2149A06800900D68FC
:1013100000E000986946284004EB80000C30FFF79D
:10132000A8FF0028F5D101AA009901EA050304EB02
:101330008303491CDB6842F82030401C00910228DE
:10134000F2D3019800F0030001280BD0022810D13D
:101350000198032101EB90500099BDF80A6001EB60
:10136000900005E00198BDF80A60C0F383100844BE
:101370000090384600F08CF808B10098A06004B0E6
:101380003046BDE8F0810000740700205C030020B7
:101390002C000020FFF740FEFFF770FEFFF7F2FE83
:1013A00008480949401AC008032101EB004007A181
:1013B00000F07CFC00F062FB0028FBD1FFF7C6F9CF
:1013C000FCE70000B82C0000502C0000696E697426
:1013D00020414C4C20436F6D706C65746564000057
:1013E0002DE9F047C5881E1DB6FBF5F78946B6FB0B
:1013F000F5F1044605FB176C407916686843DDF883
:1014000020A0F718001F874200D9C61A166001E015
:101410002468491E0029FBD1A5EB0C078846B7427A
:1014200016D818E004EB0C00001D09EB0803BAF114
:10143000000F3A4602D00146184600E01946FFF771
:1014400014F82468F61B4FF0000CB844B54201D9DB
:10145000374600E02F46002EE4D1BDE8F0870000BB
:1014600030B5024651B100F0A1FC0021074C08E064
:1014700034F821301568AB4202D11160002030BD34
:10148000491C8142F4D3052030BD0000000000005B
:10149000002100F009B8012100F010B808B56A4633
:1014A000FEF739FF009808BD08B56A46FEF719FF38
:1014B00008BD08B56A46FEF7FBFE08BD08B56A46DA
:1014C000FEF702FF009808BD08B56A46FEF730FF38
:1014D000009808BD70B5044600252846FFF709FDB1
:1014E00021686268086890420ED9401E0860017841
:1014F000238AE26801FB0325227A2168101AC0B210
:101500000A79824200D208710020FFF7F4FC2846D5
:1015100070BD70B505460C460020FFF7EAFCE86890
:10152000298A201AB0FBF1F12A681068431C136065
:101530000170BDE870400020FFF7DDBC10B530B190
:10154000017A42680368891AC9B21A6006E00E205F
:1015500010BD03681A68541C1C601170491EC9B282
:10156000F7D2006800210171084610BDC20800F0E2
:1015700007030120895C9840084070472DE9FF412E
:101580001C460378164D174E45F823200C3545F8B8
:101590002340F0CE8DE8F0000C788DF800404C78B8
:1015A0008DF801408C788DF80240CC788DF803409E
:1015B0000C798DF805404C798DF806408C680294C2
:1015C0000C7B8DF80C40497B8DF80D1002B1064A5A
:1015D0006946001D00F084FD04B0BDE8F081000004
:1015E000A0010020A0290000C92400001FB5001D93
:1015F000069C8DE81E000022694600F027FE04B01C
:1016000010BD0FB408B50399002904D004AA0092B4
:101610006A4600F00FF801B05DF814FB10B582685F
:101620000446002A05D0D4E9040321689847002025
:10163000A06010BD2DE9FC4791460C00804676D095
:1016400014F8011B39B125290ED04046FFF7AEFC36
:1016500020780028F4D198F80C00002867D0404684
:10166000BDE8FC47FFF7DABF0020012221782B29D3
:101670001BD02D2902D0302908D102E040F0010012
:1016800001E040F00200641C002AEFD100252A2965
:101690000ED02178A1F130020A2A11D205EB850281
:1016A00001EB4205641C303DF1E740F00400EAE73D
:1016B000D9F800100B1DC9F800300968641C0D44EE
:1016C000217800232E290BD114F8011FA1F130023B
:1016D0000A2A05D203EB830201EB4203303BF3E716
:1016E0006C290DD068290BD0692921D00BDC252964
:1016F00018D0582931D063290ED0642915D117E0AC
:1017000014F8011FECE7702969D0732932D07529CC
:101710001BD0782909D120E0D9F80000011DC9F8B3
:10172000001001784046FFF741FC641C90E76CE034
:10173000D9F800100A1DC9F800200968CDE9005049
:101740000A224046FFF742FDEFE7D9F800100A1DD4
:10175000C9F8002009680A2206E0D9F800100A1D1D
:10176000C9F8002009681022CDE90050404601F078
:101770003BF8DAE7D9F8001000270A1DC9F8002065
:101780000E68C00705D112E04046761C7F1CFFF7AB
:101790000DFC31780029F7D104E0202140466D1E70
:1017A000FFF704FCBD42C0D9002DF6D1BDE74EB114
:1017B0003046FEF73BFE074604E0202140466D1E02
:1017C000FFF7F4FBBD4206D9002DF6D103E04046F9
:1017D000761CFFF7EBFB31780029F8D1A5E7D9F8A3
:1017E0000000011DC9F80010056830214046FFF7D0
:1017F000DDFB78214046FFF7D9FB08200021CDE929
:101800000001034610222946B0E7BDE8FC8770B509
:1018100041EA4201DDE904564FF0A04441EA830168
:1018200041EA052104EB800041EA0641C0F80017B7
:1018300070BD1CB5002100910B460122019111469B
:10184000FFF7E5FF1CBD4FF0A04202EB8000D0F88F
:10185000002722F44032C0F80027D0F8002742EADF
:101860000141C0F80017704738B5094B44181B6890
:1018700000936B4608E000BF53F82010D1F82055C4
:1018800020C2C1F82055401C8442F5D838BD000064
:10189000982900004FF0A04201218140C2F80C15A8
:1018A00070474FF0A04221B101218140C2F81815C4
:1018B000704702EB80000021C0F8001770474FF01E
:1018C000A04201218140C2F808157047034908B5BC
:1018D0000844002101600068009008BD00600040DD
:1018E00002494058012800D00020704700600040A5
:1018F00030B5154A01460020D2F8104423460AE0CC
:10190000DB681D79854205D1401C0A28F6DB4FF0C3
:10191000FF3030BD1B68002BF2D1431CF9D0CB68DF
:101920001871D2F8103443B1DB68CC681B682360AF
:10193000D2F81024D268116030BDC2F81014C96802
:1019400000220A6030BD00005C0300207047FEF7F3
:10195000EDBF704708B5034A00924023024A00F0E9
:1019600005F808BD79240000C4010020F0B595B049
:101970001C4615460E4608461A9F00F0E7FA182145
:1019800009A8FEF7E9FD0E97CDE9095400230822C6
:1019900003A9304600F0EFFA05980690BDF8100054
:1019A000ADF81C00BDF81200ADF81E0000208DF847
:1019B00021000399082501F00300012802D0022824
:1019C00016D02FE0C1F3C200C1F383178C0A8DF843
:1019D0002000BA002B460FA9304600F0CCFA09A827
:1019E000009006AB3A460FA9204600F00BFA19E02A
:1019F000C1F3C2008C0D8DF82000082C01D22746BF
:101A000000E008272B463A460FA9304600F0B3FA0B
:101A10003D44E41B09AB06AA39460FA800F05AF969
:101A2000002CEAD1304600F097FA15B0F0BD000066
:101A30000A4A012902EBC00007D0022907D0032976
:101A400007D0042907D000207047022070470420E7
:101A5000704700797047407970470000502C0000B3
:101A600010B5FFF774FF04210348FFF741FF024957
:101A70000120C968487110BD402C00002DE9FF47C6
:101A8000FFF7ACFA18B1002004B0BDE8F0877D4C38
:101A90000020C4F81804BFF34F8F7B49A068009062
:101AA0000D684FF00008284004EB80000CE000BFF8
:101AB000D4F8180470B961680098814201D8A16017
:101AC000E1E7284004EB80000C306946FFF7D1FBCA
:101AD0000028EDD1002001AA009901EA050304EBDA
:101AE0008303491CDB6842F82030401C0091022827
:101AF000F2D3019800F00301022902D001294DD050
:101B0000A5E0810D50228946B2EB905F00D85021AC
:101B10000E4666F39F50019008315C4800F0CDF905
:101B2000070077D000F012FA4346082201A9384690
:101B300000F029FA009908F1080A2940681A800083
:101B4000001D864223D94F4D0C3530B1C2B204EB93
:101B50008101301A90460C3104E02946F2B200258A
:101B600090462846C6B25346384600F00CFA0AEBB7
:101B700008032DB1324629464FEA070000F003FA68
:101B8000009909F1030001EB9000009039E004EBAB
:101B900081015346324638460C31EFE7C0F38311DA
:101BA000062900D3062161F389100190C0F3831048
:101BB000801C8100354800F080F9070047D000F014
:101BC000C5F94346082201A9384600F0DCF908F1BE
:101BD000080800260FE00098434600EA0501401C73
:101BE00004EB81010090042238460C3100F0CBF95F
:101BF00008F10408761C0198C0F38310B042EAD8BB
:101C000047B1D4F81054D4F8180478B1384600F02D
:101C1000A3F931E01BE0E8684079012804D12A6883
:101C20002846394612689047E8680568002DF2D1C9
:101C3000384600F091F90020FFF75BF9D4F818045A
:101C400008B90098A0600020FFF755F914E0D4F817
:101C5000104405E02168204689688847E0680468E8
:101C6000002CF7D10A480B49401AC008022101EBA9
:101C7000004009A100F01AF8FFF7B0F980F0010068
:101C800002E700005C0300202C000020C02C0000B4
:101C9000B82C0000502C00004261636B656E6473C9
:101CA00020666C75736865640000000000231A46A6
:101CB00000F084BC08B5012300926A4600F07EFC67
:101CC00008BD3EB5069C8DE81C0003236A4600F063
:101CD00075FC3EBD2DE9F0470E4680461C469246F7
:101CE000082940D894F80C9000202073194610461B
:101CF00000F06AFB0025B54206D218F805201BA1AA
:101D00002046FFF77EFC03E01AA12046FFF779FC8E
:101D10006D1C082DEFD318A12046FFF772FC00259B
:101D2000B54212D218F805707E2F08D8FEF752FB84
:101D30000068C05D10F03E0F01D03A4600E02E2250
:101D40000EA12046FFF75DFC03E00DA12046FFF742
:101D500058FC6D1C082DE3D301222146504600F0AB
:101D600015FB84F80C90BDE8F08700002025303288
:101D700078000000202020007C0000002563000087
:101D800020000000064910B500200870054800F04A
:101D9000E1F8002803D1044800F02CF9002010BD20
:101DA0005C030020C02C0000F82900000248034911
:101DB000401AC00870470000C02C0000502C0000E2
:101DC00013B56846FFF74CFB08B100201CBD024864
:101DD000009950F831001CBD502C000070B5084827
:101DE0000125D0F81044057007E0E06845712168CE
:101DF000204649688847E0680468002CF5D170BD2A
:101E00005C0300202DE9FF4781460C9D00200C4615
:101E10002F7B2873984616462946184600F0D4FAB8
:101E2000072E42D2DFE806F004090F161F2A3600FB
:101E300049462846FFF7E5FB37E049462846226831
:101E4000FFF7DFFB31E0D4E9002349462846FFF7DE
:101E5000D8FB2AE0A0680090D4E900234946284630
:101E6000FFF7CFFB21E0D4E90201CDE90001D4E97D
:101E7000002349462846FFF7C4FB16E004F108009A
:101E800007C88DE80700D4E9002349462846FFF734
:101E9000B8FB0AE004F108000FC88DE80F00D4E990
:101EA000002349462846FFF7ACFB0022294640465E
:101EB00000F06CFA2F73BDE8FF872DE9F041058A29
:101EC00080462D1F4819C01CB0FBF5F0C6B2404635
:101ED000FFF700FB041E19D0002020710120607163
:101EE000E58000272546761EC4F800800BE04046BA
:101EF000FFF7F0FA60B16179491C6171286005460D
:101F00007F1CC0F80080B742F1D32046BDE8F081C5
:101F1000204600F002F80020F8E72DE9F04145796D
:101F200001466B1E002201E00968521C9A42FBD355
:101F30000F680146002605E038460C68FFF7E9FA0D
:101F40002146761CAE42F7D3BDE8F0810121001D89
:101F5000FFF7A4BAFFF7F2BA10B504460121001D3D
:101F6000FFF7B2FA10F0FF0F04D12046BDE8104091
:101F7000FFF7D3BF10BD1CB501920122009201AA48
:101F8000FFF72EFA1CBD1CB501920022009201AA97
:101F9000FFF726FA1CBD0000064910B50020487066
:101FA000091D0860BFF35F8F0349044800F04AF839
:101FB000002010BD0C000020D8290000B80100202E
:101FC00010B50020FEF795FFF1EE100A20F09F00FB
:101FD000E1EE100ABFF35F8F05494020C1F880028F
:101FE0000020FEF788FF20BF40BF20BF10BD0000CB
:101FF00004E000E0826800219160826811618268DB
:1020000051618268D1608268516080680160704768
:10201000024A1060101D0160704700002C760040DD
:1020200002494058002800D001207047007000404D
:10203000034908B50844002202600068009008BD0A
:1020400000700040016009684160AFF3008010B586
:10205000D0E900215368994201D1002104E0D1E97F
:102060000034A34202D01946816010BD083141609E
:10207000F0E74058002800D00120704708B5002242
:1020800042504058009008BD4058002800D0012020
:10209000704708B5002242504058009008BD012109
:1020A000B1EB507F01D1012070470020704770B51F
:1020B0000D4600F0D5F904000FD00020FEF719FFFF
:1020C000207920B10020FEF716FF112070BD0120FD
:1020D000256020710020FEF70EFF002070BD00007B
:1020E0002DE9FC470C46154601798046554A01EB1F
:1020F000C10002EB80069946307F10B10820BDE890
:10210000FC87514AD8F80000074652F82110FFF723
:10211000CEFF08B11120F2E7C6E90059207B012863
:10212000207802D8FFF7B6FB01E0FFF7C8FB4FF0BD
:10213000000ACDF800A0CDF804A0207853465246FE
:102140000121FFF764FB60784FF0FF35FF2806D0D0
:102150008146FFF79FFB4846FFF76BFB00E0A9466F
:10216000A078FF2809D0002205460123CDF800A061
:102170001146CDF804A0FFF74AFBA07886F82000AE
:10218000E078F077E078FF280BD0217911B1FFF7E4
:1021900081FB01E0FFF793FBE078FFF74AFB207932
:1021A000B0772178C7F80815C7F80C95C7F810550F
:1021B000A068C7F82405217B607B00B101200129BC
:1021C00004D0022905D0032908D105E040F002001F
:1021D00004E040F0040001E040F00600C7F85405B8
:1021E000A079C7F8C0050720C7F8000530680122AC
:1021F00018B3D8F80000617940F3073000284FEA9F
:10220000411104DB00F1E02080F8001405E000F04B
:102210000F0000F1E02080F8141DD8F8000040F312
:102220000730002809DB00F01F0102FA01F1400924
:10223000800000F1E020C0F80011504686F81DA093
:1022400032775CE77C0100209C2900002DE9F041F9
:1022500005460F460079154900EBC00001EB8004EC
:102260001646607F10B11120BDE8F081206820B1D2
:1022700016F0140F01D10120607797E80F0004F1E8
:102280000C0888E80F00E07FFF2806D0A17F11B17D
:10229000FFF715FB01E0FFF7FDFA33463A4621460A
:1022A0002868BDE8F04100F02BB900007C01002057
:1022B00003490860034801680029FCD0704700000A
:1022C00004E5014000E401402DE9F05F2A4F064695
:1022D0004FF0A04A4FF0010B0024381990F950102C
:1022E000491C3CD090F85000314620F0C0052846EB
:1022F000FFF73CF920B3204600F040F881460AEB96
:102300008500D0F80007C0F30148B8F1020F18D0DB
:1023100002212846FFF797FA0BFA05F1CAF82015B3
:102320002846FEF767FE57F820204AB14846B9F123
:10233000030F11D0B8F1020F05D0B8F1030F07D089
:102340000DE00321E5E74846B9F1010F04D006E0AE
:102350004846B9F1020F02D1014628469047641C55
:10236000042CBAD3324601210020FFF77DFA3068F1
:102370000028B1D1BDE8F09F8C000020024908443C
:1023800090F85000800970478C00002010B50C4672
:10239000017A052908D0407A38B1084808A10268B6
:1023A0002046FFF72EF900E01AB106A12046FFF7FC
:1023B00028F92046BDE81040FFF730B95C00002046
:1023C000257300000D0A000038B5C3880D46044689
:1023D00033B114A0009015A216A12846FFF711F9F9
:1023E000217A05291CD0607A48B1A088FFF720FB2C
:1023F000164951F8202016A12846FFF702F9A088B7
:102400000021FFF7DDFC03461049207A143951F80A
:10241000202001B02846BDE830400EA1FFF7F1B8FA
:1024200038BD00001B5B306D000000001B5B313BC2
:1024300033316D0025734C6F67732064726F707059
:102440006564202825642925730D0A005C0000209E
:10245000257300003C25733E2025733A20000000C0
:102460000349884201D103487047002070470000AB
:1024700000200040000000202DE9F04114008846B3
:1024800018D000250E4F032608EB05012246002038
:10249000FEF74EFA0544241A40B93878002809D0CE
:1024A00008494FF47A408847761E05D001203870DD
:1024B000002CE9D1BDE8F08100203870FAE7000077
:1024C00020000020F129000000B585B00A460178FF
:1024D0008DF8001041680191017A8DF80810C168EB
:1024E0000391007C8DF81000044850F822100C383D
:1024F00050F822206846904705B000BDAC0100208E
:102500002DE9F843044610681E4615460F464FF065
:10251000000810B1FFF7C3FDF8B1A86810B1FFF7CC
:10252000BEFDD0B1D5E90001C4F84405C4F8481592
:10253000D5E90201C4F83405C4F838154FF48C7598
:102540004046C4F81881D4F818110091F2074FF0F2
:10255000010107D0C4F8501506E087F81D8010204F
:10256000BDE8F883C4F85005B20702D5C4F8401599
:1025700001E0C4F84005300700D42161386848B153
:1025800046F38000401C4FF0400014D0C4F8040310
:102590000020E5E729462046FFF76BFD0028F9D02B
:1025A000F87FFF28F4D0B97F11B1FFF773F9EFE797
:1025B000FFF785F9ECE7C4F80803E9E72DE9F84FE0
:1025C000074622489146884605681E46012269460C
:1025D0001846FEF7A5FCDFF878A060B3009800214C
:1025E0000446801C0AE000BF00EA050259F821C039
:1025F0000AEB8202401C491CC2F80CC0B142F3D362
:102600004FEA1749FEF7FEFC611C29400AEB8101E5
:1026100049EA00422C40CA600AEB8401C86867F3AB
:10262000C50066F3891068F39F2020F00300401C6A
:1026300020F00400C8609AF8000001E0FFF71EFADD
:102640000028FBD1FEF753FEBDE8F88F2C000020D8
:102650005C0300202DE9F04F0C464FF4927887B0D0
:1026600005464146FFF710FD4FF0020B01274FF4DE
:10267000827640B141462846FFF70BFD3146284699
:10268000FFF702FDE8B14FF482712846FFF7FCFC2A
:10269000010004F10C00DFF84C91EA4645F30736DF
:1026A0004FF00008069048D04FF482712846FFF79B
:1026B000F0FC94F82000400624D494F82E00C8B111
:1026C00020E0A068C5F80803C4F808B0A068C5F801
:1026D00004034FF4B0712846FFF7D6FC18B1D5F8C3
:1026E0000002800501D42F626F6184F82E7007B05C
:1026F000BDE8F08F2146284600F0F6F880F0010092
:1027000084F82E0094F8200040073ED414220AF1E9
:1027100004000699FDF7EEFE4FF4B0712846FFF76E
:10272000B8FC4FF4AE712846FFF7B3FC94F83000C4
:1027300008B394F82E00F0B927E04FF4A4712846AE
:10274000FFF7A7FC207B68B14FF40070C5F80002CA
:10275000801CA060C5F80893A068C5F80403AF60AA
:102760002F62C4E714220AF104000699FDF7C2FEA5
:1027700094F8300048B90020C5F80002C4F8088079
:10278000C5F808933046FEF70CFBD5F8C404C5F82D
:10279000C404810702D58DF8007011E0410702D50D
:1027A0008DF800B00CE0C00701D0032003E094F8DE
:1027B0002E0018B104208DF8000001E08DF8008093
:1027C00094F8300008B984F82F8094F8200040076E
:1027D00003D594F82E00002889D0D4E9002168465A
:1027E000904784E702029C012DE9F05F8346DDE912
:1027F0000A4A994690460D460846012703E000BF65
:10280000B0FBF8F07F1C4045FAD2B94500D94F46DD
:102810005FEACA7012D18CB15FEA8A7002D5B9F151
:10282000000F01D0202607E0302605E0314658464B
:10283000641EFEF7BBFB0CB1A742F7D35FF00106A5
:10284000B9F1010F02D9A9F1010903E0B5FBF6F0D6
:10285000404502D306FB08F6F2E7DFF83C9000BFE4
:10286000B5FBF6F000FB165519F800105846FEF7B8
:102870009DFBB6FBF8F6002EF2D15FEACA7009D0D4
:10288000002C07D0A74205D220215846641EFEF72F
:102890008DFBF5E7BDE8F09FB0290000AFF30080A5
:1028A00038B51C460E4B154600221A700092CAB26B
:1028B000014600230B48FEF799FE08B1FEF70EFB18
:1028C000E0B2002200902B4611460648FEF78EFE2D
:1028D000002803D0BDE83840FEF700BB38BD00003B
:1028E00084000020042A000010B50B7B0122E3B114
:1028F000012B1DD0022B0FD0032B24D18B685B033F
:1029000004D5D0F84C350C69A34216D18B685B0313
:1029100019D4D0F84C3506E0D0F84C350C69A342F8
:102920000BD1D0F83C35496905E0D0F84C3501E0D1
:10293000D0F83C3509698B4205D00022C0F800254B
:102940000621C0F80015104610BD000010B5002982
:102950000AD00878002807D005487844FDF72EFEF5
:10296000002801D0002010BD0248784410BD0000AE
:10297000D6010000CE0100004FF04070E1EE100AD9
:102980007047000000000000000000000000000090
:102990000338FDD870470000000000509D0900007A
:1029A000FFFFFFFF0006FF000000004000000000E6
:1029B0003031323334353637383941424344454675
:1029C0000000000000000000000000000000000007
:1029D0000000000000000000C0290000D82900000D
:1029E0000400000055190000531900004D190000A3
:1029F0000338FDD870470000C40200207F000000AB
:102A000044030020010000000040004000000000DE
:102A100001000000FFFFFFFF06FF00000000004074
:102A2000000000007761726E696E67006465627510
:102A3000670000001B5B313B33306D001B5B306D6A
:102A4000000000001B5B313B33316D001B5B313BF1
:102A500033326D001B5B313B33336D001B5B313B0D
:102A600033346D001B5B313B33356D001B5B313BF9
:102A700033366D001B5B313B33376D00696E666F1B
:102A8000000000006572726F720000004750494FED
:102A9000544500005050490054494D455200000033
:102AA0005457494D00000000554152544500000064
:102AB00055415254000000005052530053414144CC
:102AC000430000005350494D000000007077725FD2
:102AD0006D676D74000000006170705F62757474E2
:102AE0006F6E0000736F72746C6973740000000085
:102AF0006170705F74696D65720000007274745F5C
:102B00006C6F675F6261636B656E6400617070001B
:102B1000D42C0000000000208C0000003C020000CB
:102B2000602D00008C000020DC290000580200000D
:102B30001001000043000000F8FFFFFF004040408C
:102B40004040404040404141414141404040404080
:102B5000404040404040404040404040400502022C
:102B600002020202020202020202020202202020EB
:102B70002020202020202002020202020202909047
:102B80009090909010101010101010101010101045
:102B90001010101010101010020202020202888899
:102BA00088888888080808080808080808080808A5
:102BB000080808080808080802020202400000008D
:102BC0000000000000000000000000000000000005
:102BD00000000000000000000000000000000000F5
:102BE00000000000000000000000000000000000E5
:102BF00000000000000000000000000000000000D5
:102C000000000000000000000000000000000000C4
:102C100000000000000000000000000000000000B4
:102C200000000000000000000000000000000000A4
:102C30000000000000000000000000000000000094
:102C4000E429000000000000FC2A0000240000200D
:102C50008C2A000000000000942A00000000000000
:102C6000982A000000000000A02A000000000000D8
:102C7000A82A000000000000B02A000000000000A8
:102C8000B82A000000000000BC2A0000000000007C
:102C9000C42A000000000000CC2A00000000000050
:102CA000D82A000000000000E42A00000000000014
:102CB000F02A0000000000000C2B000000000303BD
:102CC00038000020300000203800002004020020DE
:102CD00018000000000000000000000000000000DC
:102CE00000000000000000000000000000000000E4
:102CF000000000000000000000000000FF000000D5
:102D0000FF000000000000000000000000000000C4
:102D100000000000000000000000000000000000B3
:102D2000842A0000242A00007C2A00002C2A0000AB
:102D30003C2A0000342A0000442A00004C2A0000EB
:102D4000542A00005C2A0000642A00006C2A00005B
:102D5000742A00001F000000000000000090D00353
:0400000500000201F4
:00000001FF
