:020000040000FA
:10000000402A0020950300009D0300009F0300008C
:10001000A1030000A3030000A503000000000000EE
:10002000000000000000000000000000A703000026
:10003000A903000000000000AB030000AD030000B6
:10004000AF030000AF0300001D0D00009109000088
:10005000A1090000AF03000081070000490800006B
:10006000AF030000CD0C0000E10C0000AF03000066
:10007000AF030000AF030000AF030000AF030000B8
:10008000AF03000039080000AF030000AF03000019
:10009000AF030000AF030000AF030000AF03000098
:1000A000AF030000AF030000F50C0000090D0000D5
:1000B000AF030000AF0300000000000000000000DC
:1000C000AF030000AF030000AF030000AF03000068
:1000D000AF030000AF030000AF030000000000000A
:1000E0000000000000000000000000000000000010
:1000F0000000000000000000000000000000000000
:1001000000000000000000000000000000000000EF
:1001100000000000000000000000000000000000DF
:1001200000000000000000000000000000000000CF
:1001300000000000000000000000000000000000BF
:1001400000000000000000000000000000000000AF
:10015000000000000000000000000000000000009F
:10016000000000000000000000000000000000008F
:10017000000000000000000000000000000000007F
:10018000000000000000000000000000000000006F
:10019000000000000000000000000000000000005F
:1001A000000000000000000000000000000000004F
:1001B000000000000000000000000000000000003F
:1001C000000000000000000000000000000000002F
:1001D000000000000000000000000000000000001F
:1001E000000000000000000000000000000000000F
:1001F00000000000000000000000000000000000FF
:1002000000F002F800F045F80AA090E8000C8244E3
:100210008344AAF10107DA4501D100F03AF8AFF2C0
:10022000090EBAE80F0013F0010F18BFFB1A43F0D4
:10023000010318473C4100005C410000103A24BF14
:1002400078C878C1FAD8520724BF30C830C144BF3B
:1002500004680C607047000000230024002500267D
:10026000103A28BF78C1FBD8520728BF30C148BF19
:100270000B6070471FB503F071FF00F095F90400A3
:100280000020002103F054FF401C60601FBD10B52A
:1002900010BD00F0FFF91146FFF7ECFF01F026FA60
:1002A00000F031FA03B4FFF7F2FF03BC00F034FAB8
:1002B00030B4044654E8000F0D4644E80053002BC8
:1002C000F8D1156030BC704730B4044654E8000FD4
:1002D00040EA010544E80053002BF7D1156030BC1B
:1002E000704730B4044654E8000F00EA010544E8C2
:1002F0000053002BF7D1156030BC704730B4044672
:1003000054E8000F80EA010544E80053002BF7D1C0
:10031000156030BC704730B4044654E8000F00EB61
:10032000010544E80053002BF7D1156030BC70473D
:1003300030B4044654E8000FA0EB010544E8005334
:10034000002BF7D1156030BC704770B404464FF0F5
:10035000000054E8006F0D68AE4207BF44E8002378
:10036000012044E800630E60002B1CBF0020F0E772
:1003700070BC704730B4044654E8000F88422CBF6C
:10038000451A054644E80053002BF5D1156030BCF2
:10039000704700000948804709480047FEE7FEE72C
:1003A000FEE7FEE7FEE7FEE7FEE7FEE7FEE7FEE725
:1003B00004480549054A064B70470000F50900004E
:1003C00001020000400A0020402A0020401A0020BC
:1003D000401A002010B500F0E7F8001D10BD00BF66
:1003E000513D0000B2F120030AD5C2F1200320FAEA
:1003F00002F001FA03F321FA02F140EA0300704728
:1004000021FA03F04FF00001704700000FB40449D7
:1004100010B503AA029800F0CBF810BC5DF814FBED
:100420004C00002000F005BF10B5431C02E010F89E
:10043000011B71B18107FAD14FF0013202C88C1A49
:100440008C4314EAC211F9D0C01A0A0603D0C01EA8
:1004500010BDC01A10BD0A0401D0801E10BD0902D3
:10046000FCD0401E10BD032A40F2308010F0030C77
:1004700000F0158011F8013BBCF1020F624498BFF7
:1004800011F801CB00F8013B38BF11F8013BA2F194
:10049000040298BF00F801CB38BF00F8013B11F00F
:1004A000030300F02580083AC0F0088051F8043BAF
:1004B000083A51F804CBA0E80810F5E7121D5CBF1C
:1004C00051F8043B40F8043BAFF30080D20724BF4F
:1004D00011F8013B11F801CB48BF11F8012B24BFE3
:1004E00000F8013B00F801CB48BF00F8012B704732
:1004F00010B5203AC0F00B80B1E81850203AA0E8BF
:100500001850B1E81850A0E81850BFF4F5AF5FEAF2
:10051000027C24BFB1E81850A0E8185044BF18C9A5
:1005200018C0BDE810405FEA827C24BF51F8043B4C
:1005300040F8043B08BF7047D20728BF31F8023BA0
:1005400048BF11F8012B28BF20F8023B48BF00F834
:10055000012B70474FF0000200B5134694469646B3
:10056000203922BFA0E80C50A0E80C50B1F12001C6
:10057000BFF4F7AF090728BFA0E80C5048BF0CC074
:100580005DF804EB890028BF40F8042B08BF7047D2
:1005900048BF20F8022B11F0804F18BF00F8012B44
:1005A000704770477047704700487047FC0900204B
:1005B000074B70B50D467B4400F015F804462846FD
:1005C00000F024F810B14FF0FF3070BD204670BD30
:1005D000790C000000487047DC09002001694A1CC2
:1005E00002610878704700B58FB0CDE90131002174
:1005F000059105497944CDE903101146684600F09C
:100600006EF80FB000BD0000E5FFFFFF007B00F0BB
:10061000800070474FF0013C50F8042B51F8043B28
:100620009A4221D1A2EB0C03934313EACC1317D1C6
:1006300050F8042B51F8043B9A4215D1A2EB0C035D
:10064000934313EACC130BD150F8042B51F8043B1D
:100650009A4209D1A2EB0C03934313EACC13DBD0EB
:100660004FF00000704700BFD01A01BAB1FA81F113
:1006700001F0180122FA01F0CB40C1F12001DBB2F8
:10068000C0B2C01A2CFA01F3D11A914311EAC31176
:10069000E6D170477546FFF79DFFAE4605006946F7
:1006A000534620F00700854618B020B5FFF780FEBE
:1006B000BDE820404FF000064FF000074FF0000863
:1006C0004FF0000B21F00701AC46ACE8C009ACE8E4
:1006D000C009ACE8C009ACE8C0098D4670472DE9F7
:1006E000F04106460024D6E90170F56880463046A0
:1006F00003E04146B847641C3046A8470028F8D1BB
:100700002046BDE8F08110B50446AFF300802046D6
:10071000BDE81040FFF7C6BD01491820ABBEFEE79B
:10072000260002007047000008B502F089FE00F0C4
:100730003DFD0C490D4AB1F9040000900A48B1F999
:100740000230801AC008032202EB0040B1F90020F9
:1007500007A101F0DFFC00BF01F0C0FB0028FBD1C6
:1007600008BD0000D000002018450000B044000083
:10077000583A256420593A2564205A3A25640000E5
:100780002DE9F8430025DFF894804FF480760124AA
:100790002F460095304601F0FDFA38B1D8F8040331
:1007A000204203D0304601F0EBFA2543361D6400A9
:1007B0007F1CB6B2082FEDD34FF4BE74204601F073
:1007C000E9FA48B1204601F0DBFA45F000456A46F7
:1007D0000121002001F088FA15F0FF0F16D0012644
:1007E00000242E420ED008EB8401D1F81005D1F878
:1007F0001015C0F304200A4AC1F3014152F8242025
:1008000002B190477600641C082CEAD3002D02DA6E
:10081000684602F08BFCBDE8F883000000600040F1
:10082000080100200078002802D102490120087048
:1008300070470000DC00002002490248091F0968D7
:1008400000680847540000202DE9FE434FF48278E9
:10085000404601F0EBFD4C4F00254C4C012600B307
:10086000404601F0EBFD94F82E0010B194F82F10E3
:10087000D1B18DF80050616801912189ADF808105F
:10088000E26832B1218B618362602181E56010B141
:1008900002E0257400E03E6021686846884784F8DD
:1008A0002F5094F82E0060B34FF48077384601F053
:1008B000BDFD30B3384601F0C1FD628B94F82D10B8
:1008C0008A420AD9A2EB010080B260832289A2EB9E
:1008D0000000626802EB400005E007D1E06828B143
:1008E00084F82F60658301F099FD04E08A4202D10B
:1008F00084F82F606583404601F0A0FD2248001D6A
:1009000006604FF48877384601F090FD48B13846CC
:1009100001F094FD257402208DF8000021686846DE
:1009200088474FF48A77384601F080FD28B1384671
:1009300001F084FD2574BDE8FE834FF000484FF4BC
:100940008C7967691DE000BFB7FA87F028FA00F1DB
:1009500009EB80058F43284601F068FD88B12846E1
:1009600001F06CFDA5F58C75E8088DF8040045F3E1
:100970008000401C8DF800608DF8050021686846F5
:100980008847002FE0D1D6E7007000401802002011
:100990000149024802F0CEBE940100200030004020
:1009A000F8B54FF040200446114E4FF48C7101F021
:1009B00066FD00281AD00025C4F81851D4F8180193
:1009C0000090F07F3446FF2806D0A17F11B101F0DE
:1009D000A1F901E001F0CCF965772572D4E9002195
:1009E00001B004F10800BDE8F0401047F8BD000078
:1009F00048020020F0B5A449A4484FF080540B6889
:100A0000D4F830210078D4F83411551CC0F3031009
:100A100006D0944601270026BCF1060F03D00AE059
:100A200003F0FF0CF6E7B4F82453DFF864C2C5F313
:100A30000425CCF80050DDB2062D06D1032804D1E0
:100A4000DFF854C2934DCCF87450551C04D0944632
:100A5000BCF1060F03D00AE003F0FF0CF8E7D4F86E
:100A60004452DFF838C2C5F34235CCF80050DDB24D
:100A7000062D08D1032806D1894DD5F800C02CF0E9
:100A8000807CC5F800C0551C04D09446BCF1060F0C
:100A900003D00BE003F0FF0CF8E74FF08045C5F8FA
:100AA0000C61C5F810617D4D2D1F2E60DDB2062D45
:100AB00008D1032806D1DFF8E4C103250CF1640C4A
:100AC000CCF80050DDB2062D10D103280ED1DFF88E
:100AD000D4C10525CCF80050724D78352F60714D8A
:100AE00008352E600CF104063F253560551C04D0F6
:100AF00016460D46062E03D05BE0DEB20546F9E74A
:100B0000ED1E012D55D9684D2D68684E3560664D36
:100B10002D1D2D68361D3560634D08352D68361D39
:100B20003560614D0C352D68361D35605E4D1035D4
:100B30002D68361D35605C4D14352D68361D3560C9
:100B4000594D18352D68594E20363560564D1C3597
:100B50002D68361D3560544D20352D68361D3560A5
:100B6000514D24352D68361D35604F4D28352D6883
:100B7000361D35604C4D2C352D68361D35604A4D7F
:100B800030352D68494E40363560474D34352D6837
:100B9000361D3560444D38352D68361D3560424D63
:100BA0003C352D68361D35603F4D40352D68361D6E
:100BB0003560551C03D01646062E02D007E0DEB283
:100BC000FAE7D4F858523A4E05F04F053560551CF7
:100BD00003D01346062B02D008E0DBB2FAE7354813
:100BE0000368DB0702D06FF001030360062A07D118
:100BF000C91E022904D93048016841F480610160AE
:100C000027487438016841F470010160BFF34F8FC9
:100C1000BFF36F8FD4E94C104FF01022062907D193
:100C2000C01E032804D9D2F808021C491C310860F0
:100C3000D2F80002002803DBD2F8040200281FDAF1
:100C4000012002F041FA1521C2F800121B48036886
:100C5000002BFCD0C2F8041201680029FCD000204F
:100C600002F032FABFF34F8F0D48F0380168144A92
:100C700001F4E06111430160BFF34F8F00BFFDE756
:100C8000114910480860F0BDE00F00F0E80F00F0D7
:100C9000403501400DF0ADBA00C007403C050040B2
:100CA000FCED00E0105600400404001020C5004098
:100CB000E40E0040000400403C17004000E4014006
:100CC0000400FA050090D003040100200422024928
:100CD000024800F08DBC000064010020009000403C
:100CE00004220249024800F083BC00007001002089
:100CF00000A0004006220249024800F079BC000032
:100D00007C01002000A0014006220249024800F0B8
:100D10006FBC00008801002000B00140014800685D
:100D2000004700001C000020002809DB00F01F0223
:100D3000012191404009800000F1E020C0F88012BC
:100D40007047000010B572B601F05EFA01F0C6F807
:100D50000028FBD111481249401AC408012000EBB9
:100D6000044010A101F0D2F911480068C00700D07A
:100D700000BE022000EB04400EA101F0C7F9BFF352
:100D80004F8F0B48E43801680E4A01F4E0611143CB
:100D90000160BFF34F8F00BFFDE700001845000062
:100DA000B0440000466174616C206572726F72001D
:100DB000F0ED00E053797374656D207265736574AE
:100DC000000000000400FA050EB500210091CDE9F5
:100DD00001106A4644F20100FFF7B4FF0EBD10B5E2
:100DE0008268C368934203D000F010FA002010BD5F
:100DF000052010BD29B112B1531E134203D00920A2
:100E000070470E2070470160838000218160C160BF
:100E10000846704710B58268C3689A1A83889A4258
:100E200003D800F0FDF9002010BD042010BD000023
:100E3000F0B5244E89B01F460D00044672603FD0C5
:100E4000A888296882B22048FFF7D4FF002835D14E
:100E5000A889A96882B21C481030FFF7CBFF002890
:100E60002CD1202219496846FFF742FB60690690A1
:100E7000207C00B101208DF814008DF81C70607C7E
:100E800000B10E208DF81500E0680290A068039074
:100E900020680190606800900A480D4A6946083051
:100EA00000F024FD002809D1B0702068401C05D056
:100EB00004490122491CC81D00F04CFD09B0F0BDD9
:100EC0000720FBE73000002078020020DC41000012
:100ED000C93B000010B501461048FFF79BFF040016
:100EE00019D10F480F4A0178515C19B1001D02F069
:100EF00059F802E00C3001F0CFFE60B9084907480C
:100F00000839FFF76CFF30B9054901220839044858
:100F100000F030FD0446204610BD0000880200208D
:100F2000380000201000002000F002B800F008B8DF
:100F300072B602480168491C016070472400002015
:100F400003490868401E086000D162B6704700007F
:100F5000240000202DE9F041064608680C46411C9B
:100F60004FF0A0474FF0010506D005FA00F1C7F891
:100F70000815206800F092FE6068411C02D0002134
:100F800000F07AFE3168A069C1F82405607D217DFA
:100F900032680843C2F86C05D4E900123068C0F822
:100FA0000C15C0F81425207D012815D1A068411C1E
:100FB00002D0002100F060FEE068411C05D08540B1
:100FC000C7F80855E06800F069FED4E902123068FD
:100FD000C0F80825C0F81015BDE8F0812DE9F041F2
:100FE000064608680C46411C4FF0A0474FF001052B
:100FF00006D005FA00F1C7F80815206800F058FE81
:101000006068411C02D0002100F03FFE3168A069F9
:10101000C1F82405607D227D31681043C1F86C055C
:10102000D4E900123068C0F81425C0F80C15207DF2
:10103000012815D1A068411C02D0002100F025FE36
:10104000E068411C05D08540C7F80855E06800F00D
:101050002FFED4E902123068C0F80825C0F8101538
:10106000BDE8F0812DE9F0470546861C91460F4604
:101070004FF0010A0020FFF757FF1B4C04F21C48F9
:1010800060683860D4E90101184F401A3968081ABD
:101090000EE00121404600F0A9FB00F0D5FA014620
:1010A000404600F0A3FBD4E90101401A3968081A50
:1010B000401C8642EDD8B9F1000F03D0052065F33E
:1010C000891002E0062065F39F5061683A6811407C
:1010D00004EB8101C8606068304460600020FFF765
:1010E00025FF5046BDE8F087980300207C000020D3
:1010F00070B50D4604460A2902D10D21FFF7F8FF0D
:10110000A0682268411CA1601554D4E90101814204
:1011100004D32046BDE8704000F049BC70BD00001B
:10112000044881684068814201D101207047002055
:10113000704700009803002005494FF0FF3208284F
:1011400041F8202002D3084480F84820704700006E
:1011500008010020F0B54FF0FF3512B1002308263A
:1011600001E008230C260C4C05E000BF54F8237066
:101170007F1C04D05B1CB342F8D32846F0BD261870
:101180005DB286F8305044F82310002AF5D1E118FA
:1011900081F84800F1E700000801002002490844F6
:1011A00090F93000704700000801002010B50B4A8C
:1011B0004FF40044901FB2F900100180B2F90230E0
:1011C0004380B2F904208280A14200DB0180A34267
:1011D00000DB4380A24200DB828010BDD6000020ED
:1011E0000149002048707047F000002010B5002130
:1011F000024800F006FB80F3100010BDB407002089
:101200000149012008707047F2000020826883883D
:101210001A4003689A5C0A708168491C81607047B3
:10122000C26883881A4003689954C168491CC16028
:10123000704710B50446C0B2FFF74CFE204610BD03
:1012400010B501F0BDF801F0CFF8024901200860A7
:1012500010BD00007805004001490120487070472A
:10126000F0000020FFF7CCBF70B502F095F9022422
:101270004FF47A75284601F03DF9641EFAD102F068
:101280007FF9C82001F036F902F04AF9C82001F0D0
:1012900031F902F051F9C82001F02CF902F058F9A7
:1012A000C82001F027F902F05FF9C82001F022F907
:1012B000BDE8704002F074B81FB5094B0FCB8DE844
:1012C0000F000023074A6946074800F0E7FA08B113
:1012D000FFF77AFD0448001D01F0D6FA1FBD00009B
:1012E0003842000025080000E000002010B5002171
:1012F0000D2000F016FD00210E2000F012FD00214F
:101300000F2000F00EFD0021102000F00AFD012149
:10131000112000F006FD0121122000F002FD012144
:10132000132000F0FEFC0121BDE81040142000F065
:10133000F8BC00002DE9F041FFF7D8FF00F082F87B
:10134000FFF7BAFF00F01EF8064E14254FF47A4757
:10135000741C3846A0476D1EFAD1BDE8F04102A0CA
:10136000FFF754B870410000696E69745065726986
:1013700070686572616C7320436F6D706C65746525
:10138000640A000010B501F073F908B1FFF71CFD05
:10139000BDE81040AFF3008008B50948094A694626
:1013A000C068009003208DF801000C2001F0FAF8CD
:1013B00008B1FFF709FD01210C2001F0A3F808BDD9
:1013C000704200005912000010B5FFF74DFFBDE854
:1013D000104001A0FFF71AB8696E697453656E7307
:1013E0006F727320436F6D706C657465640A0000E2
:1013F0000EB51149114AD1E90201CDE9010101A956
:101400000D4801F0E1F908B1FFF7DEFC0A48006879
:10141000D0F810050021C2B20948FEF7E3FF0246EA
:101420000120014600900223034801F0B7F9024869
:1014300001F0A6F90EBD0000604200006512000038
:1014400000E2040000B58BB018220C496846FFF793
:101450004FF80B4806900B494FF48070CDE9070117
:1014600009900723084A06A96846FFF7E1FC00280F
:1014700001D0FFF7A9FC0BB000BD000048420000FE
:10148000B8070020B8080020B53B00002DE9FC5F3C
:101490000E008346DDE90C47C6F1000098469246EF
:1014A000814600D40846012503E000BF90FBFAF016
:1014B0006D1C5045FADAA84500D9454624B1002EE6
:1014C00001DB780700D5641EB80702D5B8F1000F1C
:1014D0000AD0F80708D13CB1A54205D220215846D0
:1014E000641EFFF705FEF6E7002E02DA4E462D21B8
:1014F00002E0780703D52B215846FFF7F9FD07F0E6
:10150000030002280BD1B8F1000F08D13CB1A5426D
:1015100005D230215846641EFFF7EAFDF6E7CDE913
:101520000047434652463146584602F01DFDBDE88D
:10153000FC9F000070B50D46044600684FF48871AA
:1015400000F0C9FF4FF49071206800F0C4FF4FF421
:101550009271206800F0BFFF4FF4A271206800F084
:10156000BAFF4FF4AC71206800F0B5FF2068124953
:10157000C0F804132068690740F30730090E0028FB
:1015800004DB00F1E02080F8001405E000F00F001B
:1015900000F1E02080F8141D206840F30730002897
:1015A00009DB00F01F02012191404009800000F199
:1015B000E020C0F8001170BD100342000246002078
:1015C0001268530713D502F00300012802D0022845
:1015D0000CD105E0C2F383100B68801C184404E0B2
:1015E0000223086803EB9252104408600120704700
:1015F0002DE9F041174688460646002417E000BF53
:101600004FF4A07000EB84054FF480307159A04076
:1016100059B1D6F80413014207D02946304600F0EC
:1016200033FFD8E9002128469047641CE4B2BC424D
:10163000E6D3BDE8F0810000014840787047000023
:10164000F0000020704700002DE9FF4100262448EB
:1016500000F0C9F82248001F074600F0C4F8214CEA
:101660002149A06800900D6800E000986946284074
:1016700004EB80000C30FFF7A1FF0028F5D101AA90
:10168000009901EA050304EB8303491CDB6842F877
:101690002030401C00910228F2D3019800F0030092
:1016A00001280BD0022810D10198032101EB9050A2
:1016B0000099BDF80A6001EB900005E00198BDF8C3
:1016C0000A60C0F3831008440090384600F088F8A0
:1016D00008B10098A06004B03046BDE8F081000079
:1016E000B0070020980300207C000020FFF722FEB6
:1016F000FFF76AFEFFF7A4FDFFF77AFE07A0FEF7EB
:1017000085FE00BF01F0DEFDFFF796FF0028F9D04F
:10171000FFF70AF8FFF764FDF4E70000696E6974EB
:1017200020414C4C20436F6D706C657465640A00F9
:101730002DE9F047C5881E1DB6FBF5F78946B6FBB7
:10174000F5F1044605FB176C407916686843DDF82F
:1017500020A0F718001F874200D9C61A166001E0C2
:101760002468491E0029FBD1A5EB0C078846B74227
:1017700016D818E004EB0C00001D09EB0803BAF1C1
:10178000000F3A4602D00146184600E01946FEF71F
:101790006AFE2468F61B4FF0000CB844B54201D92C
:1017A000374600E02F46002EE4D1BDE8F087000068
:1017B00030B5024651B100F00FFD0021074C08E0A2
:1017C00034F821301568AB4202D11160002030BDE1
:1017D000491C8142F4D3052030BD00000000000008
:1017E000002100F009B8012100F010B808B56A46E0
:1017F000FEF791FD009808BD08B56A46FEF771FD39
:1018000008BD08B56A46FEF753FD08BD08B56A462F
:10181000FEF75AFD009808BD08B56A46FEF788FD38
:10182000009808BD70B5044600252846FFF77CFBEC
:1018300021686268086890420ED9401E08600178ED
:10184000238AE26801FB0325227A2168101AC0B2BC
:101850000A79824200D208710020FFF767FB284610
:1018600070BD70B505460C460020FFF75DFBE868CB
:10187000298A201AB0FBF1F12A681068431C136012
:101880000170BDE870400020FFF750BBC20800F0B7
:1018900007030120895C9840084070472DE9F0411A
:1018A000064604780B4815460F4640F824200830B9
:1018B00040F82430487B10B1084601F0C5FE0DB158
:1018C000054A00E0002223463946301DBDE8F041BC
:1018D00000F0ECBF00000020F536000038B5001D18
:1018E000049C009401F06CF838BD0000F0B505468A
:1018F0000478154889B0164640F82420124A086931
:10190000121DA2F1080742F82400487F3855202212
:101910006846FEF7EDFD04942878385C48B10EB1B6
:101920000A4A00E000226946281D01F02DFA09B09C
:10193000F0BD0EB1064A00E00022694605F10C0038
:1019400001F076F8F3E7000014000020253E0000C7
:101950006D3C000030B40378054CE35C1BB130BC37
:10196000001D01F047BA30BC0C3001F0CBB80000CC
:101970001000002030B40378054CE35C1BB130BC90
:10198000001D01F0B9BA30BC0C3001F031B90000D3
:10199000100000200FB408B50399002904D004AA50
:1019A00000926A4600F00FF801B05DF814FB10B524
:1019B00082680446002A05D0D4E9040321689847C8
:1019C0000020A06010BD2DE9FC4791460C00804628
:1019D00076D014F8011B39B125290ED04046FFF707
:1019E00087FB20780028F4D198F80C00002867D0F5
:1019F0004046BDE8FC47FFF7DABF0020012221780E
:101A00002B291BD02D2902D0302908D102E040F02B
:101A1000010001E040F00200641C002AEFD1002523
:101A20002A290ED02178A1F130020A2A11D205EB21
:101A3000850201EB4205641C303DF1E740F00400F3
:101A4000EAE7D9F800100B1DC9F800300968641CDA
:101A50000D44217800232E290BD114F8011FA1F188
:101A600030020A2A05D203EB830201EB4203303B2A
:101A7000F3E76C290DD068290BD0692921D00BDC44
:101A8000252918D0582931D063290ED0642915D1C1
:101A900017E014F8011FECE7702969D0732932D0E0
:101AA00075291BD0782909D120E0D9F80000011D43
:101AB000C9F8001001784046FFF71AFB641C90E754
:101AC0006CE0D9F800100A1DC9F800200968CDE9BA
:101AD00000500A224046FFF7D9FCEFE7D9F8001082
:101AE0000A1DC9F8002009680A2206E0D9F800108A
:101AF0000A1DC9F8002009681022CDE900504046AF
:101B000002F032FADAE7D9F8001000270A1DC9F806
:101B100000200E68C00705D112E04046761C7F1CED
:101B2000FFF7E6FA31780029F7D104E0202140469A
:101B30006D1EFFF7DDFABD42C0D9002DF6D1BDE71D
:101B40004EB13046FEF770FC074604E020214046C7
:101B50006D1EFFF7CDFABD4206D9002DF6D103E088
:101B60004046761CFFF7C4FA31780029F8D1A5E782
:101B7000D9F80000011DC9F8001005683021404661
:101B8000FFF7B6FA78214046FFF7B2FA08200021A5
:101B9000CDE90001034610222946B0E7BDE8FC87E5
:101BA00070B541EA4201DDE904564FF0A04441EA34
:101BB000830141EA052104EB800041EA0641C0F8B7
:101BC000001770BD70B541EA4201DDE904564FF0DF
:101BD000A04441EA830141EA052104EB800041EA87
:101BE0000641C0F8001770BD70B541EA4201DDE959
:101BF00004564FF0A04441EA830141EA052104EB79
:101C0000800041EA0641C0F8001770BD70B541EA96
:101C10004201DDE904564FF0A04441EA830141EA64
:101C2000052104EB800041EA0641C0F8001770BDB1
:101C300070B541EA4201DDE904564FF0A04441EAA3
:101C4000830141EA052104EB800041EA0641C0F826
:101C5000001770BD1CB5002100910B4601220191B7
:101C6000FFF7C2FF1CBD1CB5002100910B460122ED
:101C70000191FFF7CBFF1CBD1CB500220B46009263
:101C800011460192FFF7B0FF1CBD1CB500220B46A8
:101C9000009211460192FFF7B9FF1CBD1CB500214F
:101CA00000910B46012201911146FFF79DFF1CBDDB
:101CB0001CB5002100910B46012201911146FFF74E
:101CC000A5FF1CBD4FF0A04202EB8000D0F800271A
:101CD00022F44032C0F80027D0F8002742EA014140
:101CE000C0F800177047000038B5094B44181B684E
:101CF00000936B4608E000BF53F82010D1F8205540
:101D000020C2C1F82055401C8442F5D838BD0000DF
:101D1000784100004FF0A04201218140C2F80C152B
:101D200070471CB531B14FF0A04101228240C1F88B
:101D300018251CBD002100910B460A460191FFF7B2
:101D400077FF1CBD42094FF0000100D1491E00F091
:101D50001F00012282400A4201D00120704700206A
:101D600070474FF0A04201218140C2F8081570472A
:101D70004FF0A04201218140C2F8081570470000D1
:101D8000034908B50844002101600068009008BDBF
:101D90000060004002494058012800D000207047F0
:101DA00000600040F0B595B01C4615460E4608464A
:101DB0001A9F00F0E1FA182109A8FEF7CBFB0E9755
:101DC000CDE909540023082203A9304600F0E7FAC0
:101DD00005980690BDF81000ADF81C00BDF8120083
:101DE000ADF81E0000208DF821000399082501F0B0
:101DF0000300012802D0022816D02FE0C1F3C20050
:101E0000C1F383178C0A8DF82000BA002B460FA966
:101E1000304600F0C4FA09A8009006AB3A460FA974
:101E2000204600F005FA19E0C1F3C2008C0D8DF8D0
:101E30002000082C01D2274600E008272B463A460E
:101E40000FA9304600F0ABFA3D44E41B09AB06AAEB
:101E500039460FA800F068F9002CEAD1304600F0AE
:101E60008FFA15B0F0BD7047084810B50178084AE0
:101E7000515C19B1001D01F0A3F802E00C3000F034
:101E80001BFFBDE81040002001F00EBF60000020E5
:101E90001000002008B5034A00924023024AFFF7D1
:101EA00081FF08BDE1340000980200200A4A0129A0
:101EB00002EBC00007D0022907D0032907D004296C
:101EC00007D0002070470220704704207047007937
:101ED0007047407970470000B04400002DE9FF478B
:101EE000FFF71EF918B1002004B0BDE8F0877D4C63
:101EF0000020C4F81804BFF34F8F7B49A0680090FE
:101F00000D684FF00008284004EB80000CE000BF93
:101F1000D4F8180470B961680098814201D8A160B2
:101F2000E1E7284004EB80000C306946FFF746FBF0
:101F30000028EDD1002001AA009901EA050304EB75
:101F40008303491CDB6842F82030401C00910228C2
:101F5000F2D3019800F00301022902D001294DD0EB
:101F6000A5E0810D50228946B2EB905F00D8502148
:101F70000E4666F39F50019008315C4800F0B3F9BB
:101F8000070077D000F0F8F94346082201A9384647
:101F900000F00DFA009908F1080A2940681A80003B
:101FA000001D864223D94F4D0C3530B1C2B204EB2F
:101FB0008101301A90460C3104E02946F2B2002526
:101FC00090462846C6B25346384600F0F0F90AEB70
:101FD00008032DB1324629464FEA070000F0E7F921
:101FE000009909F1030001EB9000009039E004EB47
:101FF00081015346324638460C31EFE7C0F3831176
:10200000062900D3062161F389100190C0F38310E3
:10201000801C8100354800F066F9070047D000F0C9
:10202000ABF94346082201A9384600F0C0F908F18F
:10203000080800260FE00098434600EA0501401C0E
:1020400004EB81010090042238460C3100F0AFF916
:1020500008F10408761C0198C0F38310B042EAD856
:1020600047B1D4F81054D4F8180478B1384600F0C9
:1020700087F931E01BE0E8684079012804D12A683B
:102080002846394612689047E8680568002DF2D165
:10209000384600F075F90020FEF746FFD4F8180422
:1020A00008B90098A0600020FEF740FF14E0D4F8C3
:1020B000104405E02168204689688847E068046884
:1020C000002CF7D10A480B49401AC008022101EB45
:1020D000004009A100F01AF8FFF722F880F0010093
:1020E00002E70000980300207C000020204500004B
:1020F00018450000B04400004261636B656E647374
:1021000020666C75736865640000000000231A4641
:1021100001F04EBA3EB5069C8DE81C0003236A46CA
:1021200001F046FA3EBD00002DE9F0470E4680461C
:102130001C469246082940D894F80C900020207341
:102140001946104601F072F80025B54206D218F87B
:1021500005201BA12046FFF71DFC03E01AA1204625
:10216000FFF718FC6D1C082DEFD318A12046FFF7D0
:1021700011FC0025B54212D218F805707E2F08D840
:10218000FEF728F90068C05D10F03E0F01D03A4616
:1021900000E02E220EA12046FFF7FCFB03E00DA17C
:1021A0002046FFF7F7FB6D1C082DE3D301222146E3
:1021B000504601F01DF884F80C90BDE8F08700004F
:1021C0002025303278000000202020007C00000014
:1021D000256300002000000002480349401AC0089F
:1021E0007047000020450000B044000013B5684669
:1021F000FFF7DEFA08B100201CBD0248009950F834
:1022000031001CBDB044000070B508480125D0F86D
:102210001044057007E0E068457121682046496870
:102220008847E0680468002CF5D170BD9803002051
:102230002DE9FF4781460C9D00200C462F7B28731B
:10224000984616462946184600F0F0FF072E42D25F
:10225000DFE806F004090F161F2A36004946284613
:10226000FFF798FB37E0494628462268FFF792FBC4
:1022700031E0D4E9002349462846FFF78BFB2AE0EA
:10228000A0680090D4E9002349462846FFF782FB66
:1022900021E0D4E90201CDE90001D4E90023494657
:1022A0002846FFF777FB16E004F1080007C88DE821
:1022B0000700D4E9002349462846FFF76BFB0AE0F4
:1022C00004F108000FC88DE80F00D4E90023494647
:1022D0002846FFF75FFB00222946404600F088FFB2
:1022E0002F73BDE8FF872DE9F041058A80462D1F39
:1022F0004819C01CB0FBF5F0C6B24046FFF792FA91
:10230000041E19D00020207101206071E580002793
:102310002546761EC4F800800BE04046FFF782FA9F
:1023200060B16179491C6171286005467F1CC0F865
:102330000080B742F1D32046BDE8F081204600F08E
:1023400002F80020F8E72DE9F041457901466B1EBF
:10235000002201E00968521C9A42FBD30F68014633
:10236000002605E038460C68FFF77BFA2146761C0C
:10237000AE42F7D3BDE8F0810121001DFFF736BA68
:1023800010B504460121001DFFF746FA10F0FF0FBB
:1023900004D12046BDE81040FFF7D5BF10BD1CB5E5
:1023A00001920122009201AAFFF7C2F91CBD1CB5DF
:1023B00001920022009201AAFFF7BAF91CBD0000A9
:1023C000064910B500204870091D0860BFF35F8FF3
:1023D0000349044800F03CF8002010BD280000200C
:1023E000D04100006C02002010B50020FEF79CFDDB
:1023F000F1EE100A20F09F00E1EE100ABFF35F8FAC
:1024000005494020C1F880020020FEF78FFD20BF63
:1024100040BF20BF10BD000004E000E0024A106091
:10242000101D0160704700002C76004002494058A2
:10243000002800D00120704700700040034908B513
:102440000844002202600068009008BD007000404F
:10245000016009684160AFF3008010B5D0E9002148
:102460005368994201D1002104E0D1E90034A3422C
:1024700002D01946816010BD08314160F0E7405834
:10248000002800D00120704708B500224250405873
:10249000009008BD4058002800D00120704708B5C2
:1024A000002242504058009008BD4058002800D0FB
:1024B0000120704708B5002242504058009008BDE6
:1024C000D0F80403084000D001207047405800288D
:1024D00000D00120704708B50022425040580090BB
:1024E00008BD0000002802D001498001084770475C
:1024F00081410000002802D001498001084770474F
:10250000314200002DE9F0410E46054600F0F6FD8F
:102510000028284619D0FEF741FE083800F060FE7A
:10252000032802D001280ED007E04FF0A040D0F8D9
:102530001005E84010F0010F05D003212846BDE842
:10254000F041FFF7BFBB0221F8E700F0E3FD0028F0
:1025500022D02846FEF722FE04464FF4807000EB9E
:1025600084000E4F81B207EB8400D0F8102542F0B2
:102570000102C0F810250846FFF702FC002E0BD020
:102580002846FEF70BFE064951F82000002803D02C
:102590000120A040C7F80403BDE8F08100600040BE
:1025A000080100202DE9FC41DFF8B880044608EB63
:1025B0000400002790F930001346C0170E46401C57
:1025C00001D008274AE0B0781946C0F340022046FF
:1025D000FEF7C0FD0546401C3FD0B078410717D438
:1025E000C0070AD04FF0A04000EB8400D0F80017DD
:1025F00021F00201C0F8001707E00021737820469F
:1026000000910A460191FFF7CBFA204600F068FDE1
:10261000B078800718D51448317800EB8500D0F8E1
:102620001025124B1A40C0F810254FF4F8524FF401
:10263000403302EA042203EA01410A43D0F81015AC
:102640000A43C0F8102509E008EB0500327810F8BD
:10265000481F41EA8211017000E004273846BDE8B6
:10266000FC8100000801002000600040FFE0FCFF4A
:1026700070B5194D95F8580008B1082070BD0024B8
:10268000661E2046FFF75EFB10B1281980F8306007
:10269000641CE4B2202CF4D300242046FEF74CFD49
:1026A000641CE4B20C2CF8D300200D4968650B4C77
:1026B000C02081F8000401264020891FC1F80001D4
:1026C0004FF4BE70FFF75CFBA004C4F8040385F868
:1026D0005860002070BD000008010020006000402C
:1026E00006E000E00121B1EB507F01D101207047ED
:1026F000002070470121B1EB507F01D101207047CC
:102700000020704770B50D4600F08EFE04000FD01B
:102710000020FEF709FC207920B10020FEF706FC1E
:10272000112070BD0120256020710020FEF7FEFB06
:10273000002070BD10B500F077FE002802D0002107
:102740000160017110BD2DE9F04106460D464FF4C0
:10275000803400681746AC404BB14FF4A07101EBD8
:102760008501FFF791FE3068C0F8044301E0C0F82E
:102770000843306800EB8500C0F84075BDE8F08183
:10278000016801220A600079034A00EB400002EB75
:10279000800002210172704764010020F0B40468D7
:1027A000049E40F20115D4F800728D40AF43C4F886
:1027B00000720468D4F800521D43C4F80052334636
:1027C000F0BCFFF7C0BF00002DE9F04104460E4603
:1027D00000792C4900EB400001EB8007387A10B1FA
:1027E0000820BDE8F0813A60706800254FF4A078B9
:1027F000786006E008EB85012068FFF745FE6D1C58
:10280000EDB26079A842F5D82068F17840F307303E
:1028100000284FEA411104DB00F1E02080F80014A9
:1028200005E000F00F0000F1E02080F8141D2068A2
:10283000012140F30730002809DB00F01F0201FAF4
:1028400002F24009800000F1E020C0F80021206879
:102850007278D0F8043562F30103C0F804352068BB
:10286000B278D0F8083562F30103C0F80835206863
:102870003278D0F8103562F30303C0F8103539729E
:102880000020AEE7640100200179006801EB8102BD
:1028900002EBC101044A02EB81010622C0F80025C7
:1028A000022081F82D007047940100202DE9FC41A1
:1028B0000646007917460D4600EB8001324A01EBCF
:1028C000C00102EB8104984694F82D1011B1082044
:1028D000BDE8FC812D4951F820103068FFF712FF48
:1028E00008B11120F4E7C4E900780027A76084F854
:1028F000307084F82F70687B84F832004FF006083F
:10290000CDE9008703233A4639462868FFF75AF98C
:10291000CDE900870022032311466868FFF752F9CA
:10292000D5E900123068C0F80815C0F80C25A96870
:10293000C0F824152068012208B3306840F307313D
:10294000287B00294FEA401004DB01F1E02181F8E7
:10295000000405E001F00F0101F1E02181F8140D00
:10296000306840F30730002809DB00F01F0102FA4D
:1029700001F14009800000F1E020C0F8001184F866
:102980002D200020A4E700009401002088410000D1
:10299000F0B585B015460E4607461C461422074979
:1029A0006846FDF7A5FD8DF80160002269463846AE
:1029B0000395019400F020F805B0F0BD8C410000B3
:1029C0002DE9F04186B00E4680461C46154614217E
:1029D00068460C9FFDF7BEFD8DF8016003950194DC
:1029E0000FB1202200E000226946404600F004F8C2
:1029F00006B0BDE8F081000030B40379006803EB55
:102A0000830404EBC303054C04EB830413460A461A
:102A10000146204630BC00F057BF00009401002062
:102A20000149024801F068B9EC0100200020004093
:102A30002DE9F0410546007916460F4600EB4001AE
:102A40002D4A01EBC00102EB810494F82A1011B168
:102A50000820BDE8F081294951F820102868FFF7C7
:102A600051FE08B11120F4E739462846FEF7B6FAC0
:102A700066603869206030004FF001062FD03F7F3C
:102A80004FF48E712868FFF715FD4FF4A271286886
:102A9000FFF710FD28681A49C0F8041328684FEAA8
:102AA000471140F30730002804DB00F1E02080F8F4
:102AB000001405E000F00F0000F1E02080F8141D84
:102AC000286840F30730002809DB00F01F0106FAF0
:102AD00001F14009800000F1E020C0F800112868F1
:102AE0000421C0F800150020A061E06184F82900ED
:102AF00044F8140FA675ACE7EC010020A4410000D7
:102B0000800002002DE9F05F054600794FF4017660
:102B100000EB400303EBC000344B03EB80040020C8
:102B2000636813B12B68C3F80863A3694FF0000909
:102B30006BB1E06938B1606810B12868C0F804630F
:102B40001120BDE8F09FE2610120216105E0C4F899
:102B50002490A261E160C4F81C9094F8291001430C
:102B600002D1284600F0ABFC60680028286803D03A
:102B7000C0F804630020E4E74FF4A2763146FFF783
:102B800099FCB2464FF4927B59462868FFF78DFCBA
:102B900006464FF484712868FFF787FC804651464B
:102BA0002868FFF782FC074648EA07003043EBD06D
:102BB00056EA070007D12146286800F051FCA169B8
:102BC000606A8142E0D8C4F818900EB10320B8E7DB
:102BD0000FB10F20B5E794F82910012000292968CA
:102BE00001D00860C6E74860C4E70000EC0100209F
:102BF0002DE9F05F054600790B4600EB400101EB43
:102C0000C000244901EB8004284600F045F810B1CB
:102C10001120BDE8F09F62614FF00009C4F82090D8
:102C2000A36084F828904FF48E784E464146286879
:102C3000FFF740FC28684FF0010AC0F808A02146C1
:102C4000286800F08DFF606808BBD5F800B06769A0
:102C50000FE000BF94F8280008B10F2615E04146A8
:102C60005846FFF722FC0028F4D02146584600F0D1
:102C700077FF206AB842F2D3574641462868FFF7EB
:102C800014FC0028F9D02868C760C4F814903046B6
:102C9000BFE70000EC010020007900EB400101EBF0
:102CA000C000044901EB80004069002800D00120E9
:102CB00070470000EC0100202DE9F0470446007940
:102CC0004FF0000900EB400101EBC000284901EB87
:102CD00080072068C0F800957868B0B12068254961
:102CE000C0F80813206840F3073000280DDB00F01F
:102CF0001F02012191404009800000F1E020C0F84E
:102D00008011BFF34F8FBFF36F8F2068D0F80C2571
:102D1000D0F81485D0F80865D0F810554FF0FF3181
:102D2000C0F81415C0F80C152068C0F80815C0F8D4
:102D30001015501C02D01046FEF795FFB8F1FF3F6A
:102D400002D04046FEF78FFF681C02D02846FEF7EF
:102D50008AFF701C02D03046FEF785FF2068FFF71F
:102D6000E9FC87F82A90C7F80490BDE8F0870000D6
:102D7000EC010020840202000149024801F06AB817
:102D8000C8010020002000402DE9F041054616460C
:102D900000790F46154A00EBC00102EB810494F85C
:102DA000201011B10820BDE8F081114951F8201020
:102DB0002868FFF7A7FC08B11120F4E73946284638
:102DC000FEF7C8F86660386920601EB1397F284672
:102DD000FEF7B0FB28680821C0F800150020A061AC
:102DE000E0616061012184F82010DCE7C801002067
:102DF000A04100002DE9F05F044600790E4600EB8B
:102E0000C001DFF8F0A017460AEB81053046FFF756
:102E100071FCB0B168684FF000084FF4047910B14C
:102E20002168C1F80893A8694FF0000B80B1E869E8
:102E300048B1686810B12068C0F804931120BDE85B
:102E4000F09F1020FBE7EF614FF001082E6102E0D8
:102E5000EE60C5E9067B00254FF488712068FFF716
:102E60003AFB4FF4A2712068FFF735FB2068C0F8E9
:102E70003465C0F838752068B8F1000F12D0D0F86A
:102E8000001241F02001C0F800122079D04600EB7A
:102E9000C0010AEB8100406838B12068C0F8049393
:102EA0002846CCE701210160EFE74FF4887A4FF420
:102EB000A27951462068FFF709FB0746494620687A
:102EC000FFF704FB06464FF492712068FFF7FEFA05
:102ED000014647EA06000843EBD0227902EBC20321
:102EE00008EB8302C2F818B001B10325002ED7D039
:102EF0000F25D5E7C80100202DE9F04704460E460E
:102F00000079274900EBC00001EB800517463046E9
:102F1000FFF7F0FB30B1204600F044F820B111205B
:102F2000BDE8F0871020FBE76F61AE604FF490774B
:102F30004FF0000839462068FFF7CDFA4FF4AC7621
:102F400031462068FFF7C7FA2068AA686969C0F8A7
:102F50004425C0F8481520684FF00109C0F80890D2
:102F60006868D0B9BA4651462068FFF7AFFA0746FD
:102F700031462068FFF7AAFA0743F4D010B14FF0AA
:102F80000F0808E02068C0F80C9031462068FFF771
:102F90009DFA0028F9D0002068614046C0E7000093
:102FA000C80100200079054900EBC00001EB80005A
:102FB0004069002800D0012070470000C8010020AF
:102FC0002DE9F047064600793D4900EBC00001EBD2
:102FD0008005346868680127A8B13A49C4F8081325
:102FE000306840F3073000280DDB00F01F0107FABE
:102FF00001F14009800000F1E020C0F88011BFF32A
:103000004F8FBFF36F8FD4F8000220F02000C4F878
:103010000002A8694FF4A27820B141462046FFF78C
:103020005AFA67604FF4AC7949462046FFF753FAE5
:10303000E760474649462046FFF748FA0028F9D09E
:10304000A86928B139462046FFF740FA0028F1D098
:103050004FF0000AC4F800A53068D0F80C25D0F86D
:103060001495D0F80885D0F810754FF0FF31C0F8EE
:103070000C15C0F814153068C0F80815C0F8101504
:10308000501C02D01046FEF7E5FDB9F1FF3F02D01B
:103090004846FEF7DFFD781C02D03846FEF7DAFD21
:1030A000B8F1FF3F02D04046FEF7D4FD2046FFF7BF
:1030B00041FB85F820A0C5F804A0BDE8F08700001A
:1030C000C80100201003420003490860034801685A
:1030D0000029FCD07047000004E5014000E40140F5
:1030E00010B50549C20800F00703885C01249C4024
:1030F0002043885410BD00005C01002004490844AE
:1031000090F93000082801DB01207047002070474B
:10311000080100200449084490F93000082801D231
:103120000120704700207047080100202DE9F05F62
:103130002A4F06464FF0A04A4FF0010B00243819E1
:1031400090F95010491C3CD090F85000314620F0C6
:10315000C0052846FEF79AFB20B3204600F040F851
:1031600081460AEB8500D0F80007C0F30148B8F1AA
:10317000020F18D002212846FEF7A4FD0BFA05F134
:10318000CAF820152846FEF709F857F820204AB15A
:103190004846B9F1030F11D0B8F1020F05D0B8F1CC
:1031A000030F07D00DE00321E5E74846B9F1010F11
:1031B00004D006E04846B9F1020F02D10146284684
:1031C0009047641C042CBAD3324601210020FEF73C
:1031D0008BFD30680028B1D1BDE8F09F08010020C8
:1031E0000249084490F85000800970470801002007
:1031F00010B50C46017A052908D0407A38B1084844
:1032000008A102682046FEF7C5FB00E01AB106A13E
:103210002046FEF7BFFB2046BDE81040FEF7C7BBC7
:10322000AC000020257300000D0A000038B5C388EB
:103230000D46044633B114A0009015A216A12846ED
:10324000FEF7A8FB217A05291CD0607A48B1A08836
:10325000FEF72CFE164951F8202016A12846FEF74D
:1032600099FBA0880021FEF7C1FF03461049207A90
:10327000143951F8202001B02846BDE830400EA195
:10328000FEF788BB38BD00001B5B306D00000000FE
:103290001B5B313B33316D0025734C6F67732064CA
:1032A000726F70706564202825642925730D0A00EB
:1032B000AC000020257300003C25733E2025733AA6
:1032C000200000002DE9F041324C207800285FD02A
:1032D0004FF0A040D0F804154FF400328A43C0F8F4
:1032E000082501F40031C0F80C152B49FE20FDF72C
:1032F00099F829492D20FDF795F800252649012048
:10330000FDF790F824490120FDF78CF86D1C052D80
:10331000F4DB00261F4F667035460C371E4937F820
:103320001500000AFDF77EF817F815001A49FDF799
:1033300079F86D1C032DF1DBE67000270025164996
:103340000120FDF76FF814490120FDF76BF86D1CA3
:10335000032DF4DB7F1C042FF0DB6671A0790428B9
:1033600000D3A6710C49A079FDF75CF80B4DA0794C
:10337000094935F81000000AFDF754F8A07906490C
:1033800015F81000FDF74EF8A079401CA0712670CA
:10339000BDE8F081F20000204C000020B8090020B8
:1033A0003EB514A002AB00680190012002460090D7
:1033B00001A9192000F05CFE0F49104A891AC908BA
:1033C000032202EB014450B1FDF7FEFC20460CA1A4
:1033D000FEF79CFEFEF782FD0028FBD13EBD204695
:1033E0000CA1FEF793FE00BFFEF778FD0028FBD18D
:1033F0003EBD00001600000018450000B04400006B
:10340000424D4134353620696E6974204661696CDD
:1034100000000000424D4134353620696E69742049
:1034200053756363657373000349884201D1034890
:103430007047002070470000002000401C00002062
:1034400008B505A0062300680090044A01216846DB
:1034500000F002FE08BD000012000000D6000020AF
:1034600070B5054688690C4600284FF484712846DB
:103470000AD0FFF71FF8D5F81805626AE16888548A
:10348000606A401C606270BDFFF714F8D5F818053B
:1034900070BD1FB501238DF80030CDE90121D0E9C1
:1034A0000012684690471FBD1FB501238DF80030FC
:1034B000CDE90121D0E90012684690471FBD10B543
:1034C000044600684FF49271FEF7F4FF4FF48471E4
:1034D0002068FEF7EFFF20680121016010BD0000A9
:1034E00070B50D4C0020D2B22070201D0B4D03781A
:1034F000EB5C1BB1001DFFF7FFFC02E00C30FFF797
:1035000077FB08B1FDF760FC6078002802D02178D5
:103510000029FAD070BD00005C00002010000020DF
:1035200008B540208DF80000A8208DF80100022188
:10353000684600F073FD08BD08B541208DF8000015
:1035400000208DF801000221684600F067FD08BDEB
:1035500008B554208DF8000008208DF801000221E4
:10356000684600F05BFD08BD08B558208DF80000E6
:1035700040208DF801000221684600F04FFD08BD93
:1035800008B57D208DF8000004208DF8010002218F
:10359000684600F043FD08BD08B57E208DF80000A8
:1035A000B6208DF801000221684600F037FD08BD05
:1035B0002DE9F84F074622489146884605681E4681
:1035C000012269461846FDF74DFDDFF878A060B38B
:1035D000009800210446801C0AE000BF00EA0502B2
:1035E00059F821C00AEB8202401C491CC2F80CC0E9
:1035F000B142F3D34FEA1749FDF7F8FD611C2940AA
:103600000AEB810149EA00422C40CA600AEB8401BE
:10361000C86867F3C50066F3891068F39F2020F03F
:103620000300401C20F00400C8609AF8000001E08C
:10363000FEF754FC0028FBD1FEF704F8BDE8F88F34
:103640007C000020980300202DE9F041044640F260
:103650000C602168890001F1A041C1F80007616890
:10366000890001F1A041C1F800072068FEF779FB4D
:103670006068FEF776FB216840F20D60890001F179
:10368000A041C1F800076168890001F1A041C1F8BB
:1036900000070420FEF726FF00274FF0A046012573
:1036A0002179D6F81005C84010F0010F02D0002F84
:1036B0001DD010E0217805FA01F0C6F80C050420B1
:1036C000FEF710FF2068FEF74CFB0420FEF70AFF10
:1036D0007F1C092FE4DB20798540C6F80C550420B7
:1036E000FEF700FF6068BDE8F041FEF73ABBBDE8B9
:1036F000F08100001FB50A4601788DF800100179AD
:103700008DF8041041798DF80510017A8DF80610B6
:10371000017B8DF80710016902914069039004480C
:1037200050F82210083850F82220684690471FBDF4
:10373000080000202DE9F04F0C464FF4927887B036
:1037400005464146FEF7A6FE4FF0020B01274FF457
:10375000827640B141462846FEF7A1FE3146284612
:10376000FEF798FEE8B14FF482712846FEF792FE0C
:10377000010004F10C00DFF84C91EA4645F30736EE
:103780004FF00008069048D04FF482712846FEF7AB
:1037900086FE94F82000400624D494F82E00C8B188
:1037A00020E0A068C5F80803C4F808B0A068C5F810
:1037B00004034FF4B0712846FEF76CFE18B1D5F83B
:1037C0000002800501D42F626F6184F82E7007B06B
:1037D000BDE8F08F2146284600F078FC80F001001B
:1037E00084F82E0094F8200040073ED414220AF1F9
:1037F00004000699FCF77CFE4FF4B0712846FEF7F2
:103800004EFE4FF4AE712846FEF749FE94F83000A4
:1038100008B394F82E00F0B927E04FF4A4712846BD
:10382000FEF73DFE207B68B14FF40070C5F8000242
:10383000801CA060C5F80893A068C5F80403AF60B9
:103840002F62C4E714220AF104000699FCF750FE27
:1038500094F8300048B90020C5F80002C4F8088088
:10386000C5F808933046FDF75FFAD5F8C404C5F8EB
:10387000C404810702D58DF8007011E0410702D51C
:103880008DF800B00CE0C00701D0032003E094F8ED
:103890002E0018B104208DF8000001E08DF80080A2
:1038A00094F8300008B984F82F8094F8200040077D
:1038B00003D594F82E00002889D0D4E90021684669
:1038C000904784E702029C012DE9F05F4FF0000968
:1038D000054680F82E901F4616460C464FF0080B02
:1038E000CA46D068FEF7FEFE00287DD09B48C4F88B
:1038F000080395F82F0028B1A868C4F80403112024
:10390000BDE8F09F780703D4F80601D4012000E059
:10391000002085F82F001422314605F10C00FCF739
:10392000E7FDC7F3001085F830002F627078C4F807
:1039300088054FF482712046FEF7B1FD4FF4927175
:103940002046FEF7ACFD4FF4B0712046FEF7A7FD10
:103950004FF4A4712046FEF7A2FDF8074FF00108CE
:1039600001D0404600E05046C4F85005B80701D5E4
:10397000404600E05046C4F840053078A8B301281E
:1039800075D0022850D003281DD04FF00709380702
:1039900004D43078032801D044F80B80286800282C
:1039A0007FD0780701D5C5F808A0780603D4A868A9
:1039B00040F00200A860A86840F40070A860A86801
:1039C000C4F80403C7E03069FEF78CFE60B14FF421
:1039D0008070C4F800027168F068C4F84405C4F847
:1039E00048154FF4A87101E031E032E02046FEF7BF
:1039F00056FDC4F82080C4F8088000BF4FF4A871B9
:103A00002046FEF747FD0028F8D04FF4A871204665
:103A1000FEF745FD3169B068C4F84415C4F848059F
:103A20004FF48020A860B2E7F1687068C4F84415CC
:103A3000C4F848053069FEF755FE40B13169B068F9
:103A4000C4F83415C4F838054FF4845012E010203F
:103A500056E7F1687068C4F84415C4F84805B8061C
:103A600006D54FF48070C4F80002800205E009E03A
:103A70004FF40070C4F800020220A860C4F820804F
:103A800085E70EE0F1687068C4F83415C4F83805AD
:103A90004FF48050C4F800020220A8604FF0000BE1
:103AA000ECE700264FF4A47B59462046FEF7F2FCD3
:103AB00000B101264FF482712046FEF7EBFC28B1DD
:103AC0004FF482712046FEF7EAFC01264FF4927112
:103AD0002046FEF7DFFCE8B14FF492712046FEF776
:103AE000DEFC4FF4B0712046FEF7D4FCD4F800128F
:103AF00042420A40920504D4C4F82080C4F81480DD
:103B0000002638B1C80505D559462046FEF7C7FC42
:103B10000026C9E7002EC7D0D4F8C404C4F8C404F2
:103B200085F82FA070B10321C20701D04FF40241E4
:103B3000820701D548F20121400701D548F2022150
:103B4000894608E0780606D42946204600F0BEFAE9
:103B500008B94FF003094846D2E6000002029C0172
:103B600070B50C4605464FF48E71FEF7A3FC216A32
:103B7000A068415C206A401C2062C5F81C1570BD1D
:103B80001FB500228DF800200291816801914261E9
:103B9000D0E90012684690471FBD1FB500228DF87E
:103BA00000200291816801914261D0E900126846CB
:103BB00090471FBD0178022901D0012902D1406838
:103BC000FDF702B9704700007CB50178254DA1B31F
:103BD00001290BD002291DD18DF80010C068691C85
:103BE00001900122C81DFDF7B5FE30E0017A59B100
:103BF000406801781C48FDF70DF91B4C012650B1B7
:103C00008DF8006001900DE016490122491CC81D85
:103C1000FDF7A0FE7CBDA068E168814205D00020D0
:103C20008DF80000696868468847A068E168081A4E
:103C3000A1888842E8D9AE707CBDFFE70A480949EF
:103C40001030FDF7CCF830B103208DF80000696822
:103C500068468847F0E70349012201F10800FDF7B3
:103C600089FEE9E730000020780200201FB50A46EF
:103C700001788DF8001041680191017A8DF80810E3
:103C8000C0680390044850F82210001F50F822200A
:103C9000684690471FBD0000180000200149012020
:103CA000087070475C00002010B588B004462022E0
:103CB0000E496846FCF71CFC06200090C01F0190CE
:103CC000029003904FF0EB7006900CB1084A00E0B0
:103CD000002269460748FDF709FE08B1FDF774F8B0
:103CE0000448001F447008B010BD000008420000E6
:103CF0009D3C0000600000202DE9FF470C46054672
:103D00004FF40071FEF7DCFB01274FF40178002629
:103D100018B34FF4927949462846FEF7C6FBE0B146
:103D200049462846FEF7C6FBC5F8088394F82900E3
:103D300000B96F6002208DF80000D5F88004C5F846
:103D400080040390A0690290E0680190A661E6619A
:103D5000D4E900126846904728E004212846FEF77F
:103D6000AFFB18B34FF484712846FEF79EFBE8B111
:103D700021462846FFF774FB616AA069884215D185
:103D8000E06938B1E268616AA0612069E661666253
:103D9000E06008E094F8290000B96F60C5F8088376
:103DA000A661E268616A2046FFF77EFB4FF48E78D9
:103DB00041462846FEF779FB80B16069216A81425D
:103DC00002D294F8280028B341462846FEF772FB39
:103DD000606918B161692046FFF7DFFE4FF4A278F1
:103DE00041462846FEF761FB002818D04146284688
:103DF000FEF760FB94F8290000B12F60A06900284D
:103E00000DD0A661E268616A04B02046BDE8F047C3
:103E1000FFF74ABB21462846FFF7A2FEDEE7BDE8D2
:103E2000FF8700001FB50A4601788DF80010416831
:103E30000191017A8DF80810C0680390044850F889
:103E40002210001F50F82220684690471FBD000036
:103E5000180000202DE9FF410C464FF492770546EB
:103E60003946FEF733FB0026B8B139462846FEF73F
:103E700032FB02208DF80000D5F88004C5F88004DC
:103E80000390D5F83C050290E0680190A661E661D8
:103E9000D4E900126846904723E04FF4887739460A
:103EA0002846FEF713FBE0B139462846FEF713FB20
:103EB000D5F83C15A069884213D1E06960B1E26889
:103EC000D5F8000220F02000C5F80002E069A061EA
:103ED0002069E661E06001E0A661E2682046FFF744
:103EE000D8FA4FF4A27739462846FEF7EFFA68B1C0
:103EF00039462846FEF7EFFAA06938B1A661E661B7
:103F0000D5F83C152046E268FFF7C3FA4FF49076E7
:103F100031462846FEF7DAFA60B131462846FEF708
:103F2000DAFA0120E860606920B1D5F84C15204626
:103F3000FFF726FE4FF4AC7631462846FEF7C6FA68
:103F400000280ED031462846FEF7C5FA60690028E1
:103F500007D0D5F84C1504B02046BDE8F041FFF776
:103F60000FBEBDE8FF8100002DE9F05F8346DDE96B
:103F70000A4A994690460D460846012703E000BFCD
:103F8000B0FBF8F07F1C4045FAD2B94500D94F4646
:103F90005FEACA7012D18CB15FEA8A7002D5B9F1BA
:103FA000000F01D0202607E0302605E031465846B4
:103FB000641EFDF79DF80CB1A742F7D35FF0010630
:103FC000B9F1010F02D9A9F1010903E0B5FBF6F03F
:103FD000404502D306FB08F6F2E7DFF83C9000BF4D
:103FE000B5FBF6F000FB165519F800105846FDF722
:103FF0007FF8B6FBF8F6002EF2D15FEACA7009D05E
:10400000002C07D0A74205D220215846641EFDF798
:104010006FF8F5E7BDE8F09FA8410000CAB201467D
:10402000192000F001B8000038B50A4D00232B70AC
:104030000123009313460A460146281DFDF74EFC56
:10404000041E01D0FCF7C0FE28780028FCD02046D2
:1040500038BD0000DC00002008B5DBB20093C9B217
:1040600013460A460146192000F002F808BD000078
:104070002DE9F843144D0027DDF8209098460646B8
:104080002F70012013460A4600903146281DFDF787
:1040900025FC041E01D0FCF797FE28780028FCD0F0
:1040A00074B92F7008483146083042464B46FEF737
:1040B0006FFC041E01D0FCF787FE28780028FCD096
:1040C0002046BDE8F8830000DC00002010B50B7B23
:1040D0000122E3B1012B1DD0022B0FD0032B24D1E1
:1040E0008B685B0304D5D0F84C350C69A34216D11C
:1040F0008B685B0319D4D0F84C3506E0D0F84C350A
:104100000C69A3420BD1D0F83C35496905E0D0F8E1
:104110004C3501E0D0F83C3509698B4205D00022CE
:10412000C0F800250621C0F80015104610BD00009B
:1041300010B500290AD00878002807D0054878442F
:10414000FCF768FA002801D0002010BD024878442E
:1041500010BD0000520200004A0200004FF0407003
:10416000E1EE100A704700000000000000000000AF
:104170000338FDD870470000000000500000000028
:104180000338FDD8704700009109000001000000CD
:10419000000000000000000000000000000000001F
:1041A000792D0000212A0000303132333435363782
:1041B00038394142434445460000000000000000F9
:1041C00000000000000000000000000000000000EF
:1041D000B8410000D041000004000000FFFFFFFFD5
:1041E000FFFFFFFFFFFFFFFFFFFFFFFF00000000DB
:1041F000000000000000D60106010000951E00002E
:10420000691E0000671E0000FFFFFFFFFFFFFFFFAA
:10421000FFFFFFFFFFFFFFFF0000000000000000A6
:104220000000D601060100000000000000000000B0
:104230000338FDD8704700001B0000001A00000082
:1042400000006806020000000800000006000000F0
:1042500000000000000000000000000000E0D701A6
:10426000009000400004000004000306000000006D
:10427000020002000200020002000200020002002E
:104280007761726E696E6700646562756700000031
:104290001B5B313B33306D001B5B306D0000000059
:1042A0001B5B313B33316D001B5B313B33326D00A7
:1042B0001B5B313B33336D001B5B313B33346D0093
:1042C0001B5B313B33356D001B5B313B33366D007F
:1042D0001B5B313B33376D00696E666F0000000079
:1042E0006572726F720000004750494F54450000DC
:1042F0005050490054494D45520000005457494D13
:1043000000000000554152544500000055415254F0
:10431000000000005052530053414144430000004C
:104320005350494D000000007077725F6D676D74E7
:10433000000000006170705F627574746F6E000041
:10434000736F72746C697374000000006170705F49
:1043500074696D6572000000756172745F6C6F67DF
:104360005F6261636B656E640000000061707000E5
:104370003445000000000020080100003C0200005D
:104380003C460000080100203829000058020000C7
:104390001001000043000000F8FFFFFF0040404014
:1043A0004040404040404141414141404040404008
:1043B00040404040404040404040404040050202B4
:1043C0000202020202020202020202020220202073
:1043D00020202020202020020202020202029090CF
:1043E00090909090101010101010101010101010CD
:1043F0001010101010101010020202020202888821
:10440000888888880808080808080808080808082C
:104410000808080808080808020202024000000014
:10442000000000000000000000000000000000008C
:10443000000000000000000000000000000000007C
:10444000000000000000000000000000000000006C
:10445000000000000000000000000000000000005C
:10446000000000000000000000000000000000004C
:10447000000000000000000000000000000000003C
:10448000000000000000000000000000000000002C
:10449000000000000000000000000000000000001C
:1044A000FC410000000000005843000074000020A0
:1044B000E842000000000000F042000000000000A0
:1044C000F442000000000000FC4200000000000078
:1044D00004430000000000000C4300000000000046
:1044E000144300000000000018430000000000001A
:1044F00020430000000000002843000000000000EE
:1045000034430000000000004043000000000000B1
:104510004C430000000000006C4300000000030357
:10452000880000208000002088000020D8020020A1
:104530001800000000000000000000000000000063
:10454000000000000000000000000000000000006B
:10455000000000000000000000000000000000005B
:10456000000000000000000000000000000000004B
:10457000002000400000000000200040000000007B
:10458000000000000000000000000000000000002B
:1045900000000000000000000020004000000000BB
:1045A000002000400000000000000000FF000000AC
:1045B000FF000000000000000000000000000000FC
:1045C00000000000000000000000000000000000EB
:1045D000E042000080420000D84200008842000013
:1045E0009842000090420000A0420000A842000053
:1045F000B0420000B8420000C0420000C8420000C3
:10460000D042000000000000000000000000000098
:10461000000000000000000000300040000000002A
:104620000100000000000100000000000000000088
:0C46300000000000000000000090D0031B
:0400000500000201F4
:00000001FF
