:020000040000FA
:1000000048250020950300009D0300009F03000089
:10001000A1030000A3030000A503000000000000EE
:10002000000000000000000000000000A703000026
:10003000A903000000000000AB030000AD030000B6
:10004000AF030000AF030000E10B0000A9080000AF
:10005000AF030000AF0300006106000005070000C9
:10006000AF030000910B0000A50B0000AF030000E0
:10007000AF030000AF030000AF030000AF030000B8
:10008000AF030000AF030000AF030000AF030000A8
:10009000AF030000AF030000AF030000AF03000098
:1000A000AF030000AF030000B90B0000CD0B000050
:1000B000AF030000AF0300000000000000000000DC
:1000C000AF030000AF030000AF030000AF03000068
:1000D000AF030000AF030000AF030000000000000A
:1000E0000000000000000000000000000000000010
:1000F0000000000000000000000000000000000000
:1001000000000000000000000000000000000000EF
:1001100000000000000000000000000000000000DF
:1001200000000000000000000000000000000000CF
:1001300000000000000000000000000000000000BF
:1001400000000000000000000000000000000000AF
:10015000000000000000000000000000000000009F
:10016000000000000000000000000000000000008F
:10017000000000000000000000000000000000007F
:10018000000000000000000000000000000000006F
:10019000000000000000000000000000000000005F
:1001A000000000000000000000000000000000004F
:1001B000000000000000000000000000000000003F
:1001C000000000000000000000000000000000002F
:1001D000000000000000000000000000000000001F
:1001E000000000000000000000000000000000000F
:1001F00000000000000000000000000000000000FF
:1002000000F002F800F045F80AA090E8000C8244E3
:100210008344AAF10107DA4501D100F03AF8AFF2C0
:10022000090EBAE80F0013F0010F18BFFB1A43F0D4
:1002300001031847B4190000D4190000103A24BF74
:1002400078C878C1FAD8520724BF30C830C144BF3B
:1002500004680C607047000000230024002500267D
:10026000103A28BF78C1FBD8520728BF30C148BF19
:100270000B6070471FB501F02FFC00F073F904000C
:100280000020002101F012FC401C60601FBD10B571
:1002900010BD00F0AFF91146FFF7ECFF00F006FECD
:1002A00000F0CDF903B4FFF7F2FF03BC00F0D0F982
:1002B00030B4044654E8000F0D4644E80053002BC8
:1002C000F8D1156030BC704730B4044654E8000FD4
:1002D00040EA010544E80053002BF7D1156030BC1B
:1002E000704730B4044654E8000F00EA010544E8C2
:1002F0000053002BF7D1156030BC704730B4044672
:1003000054E8000F80EA010544E80053002BF7D1C0
:10031000156030BC704730B4044654E8000F00EB61
:10032000010544E80053002BF7D1156030BC70473D
:1003300030B4044654E8000FA0EB010544E8005334
:10034000002BF7D1156030BC704770B404464FF0F5
:10035000000054E8006F0D68AE4207BF44E8002378
:10036000012044E800630E60002B1CBF0020F0E772
:1003700070BC704730B4044654E8000F88422CBF6C
:10038000451A054644E80053002BF5D1156030BCF2
:10039000704700000948804709480047FEE7FEE72C
:1003A000FEE7FEE7FEE7FEE7FEE7FEE7FEE7FEE725
:1003B00004480549054A064B70470000B90800008B
:1003C00001020000480500204825002048150020B3
:1003D0004815002010B500F0C5F8001D10BD00BF85
:1003E000CD16000010B5431C02E010F8011B71B1DE
:1003F0008107FAD14FF0013202C88C1A8C4314EAFB
:10040000C211F9D0C01A0A0603D0C01E10BDC01A0E
:1004100010BD0A0401D0801E10BD0902FCD0401E90
:1004200010BD032A40F2308010F0030C00F015805C
:1004300011F8013BBCF1020F624498BF11F801CBE7
:1004400000F8013B38BF11F8013BA2F1040298BF4C
:1004500000F801CB38BF00F8013B11F0030300F0B6
:100460002580083AC0F0088051F8043B083A51F85A
:1004700004CBA0E80810F5E7121D5CBF51F8043B5F
:1004800040F8043BAFF30080D20724BF11F8013BD2
:1004900011F801CB48BF11F8012B24BF00F8013B34
:1004A00000F801CB48BF00F8012B704710B5203A87
:1004B000C0F00B80B1E81850203AA0E81850B1E81D
:1004C0001850A0E81850BFF4F5AF5FEA027C24BFD3
:1004D000B1E81850A0E8185044BF18C918C0BDE8CA
:1004E00010405FEA827C24BF51F8043B40F8043B93
:1004F00008BF7047D20728BF31F8023B48BF11F848
:10050000012B28BF20F8023B48BF00F8012B7047A1
:100510004FF0000200B5134694469646203922BF9C
:10052000A0E80C50A0E80C50B1F12001BFF4F7AFE7
:10053000090728BFA0E80C5048BF0CC05DF804EBC9
:10054000890028BF40F8042B08BF704748BF20F837
:10055000022B11F0804F18BF00F8012B7047704735
:1005600070477047004870470405002000487047F6
:10057000E40400204FF0013C50F8042B51F8043BF8
:100580009A4221D1A2EB0C03934313EACC1317D167
:1005900050F8042B51F8043B9A4215D1A2EB0C03FE
:1005A000934313EACC130BD150F8042B51F8043BBE
:1005B0009A4209D1A2EB0C03934313EACC13DBD08C
:1005C0004FF00000704700BFD01A01BAB1FA81F1B4
:1005D00001F0180122FA01F0CB40C1F12001DBB299
:1005E000C0B2C01A2CFA01F3D11A914311EAC31117
:1005F000E6D170477546FFF7B9FFAE46050069467C
:10060000534620F00700854618B020B5FFF7D0FE0E
:10061000BDE820404FF000064FF000074FF0000803
:100620004FF0000B21F00701AC46ACE8C009ACE884
:10063000C009ACE8C009ACE8C0098D46704710B5E8
:100640000446AFF300802046BDE81040FFF72ABE05
:1006500001491820ABBEFEE72600020070470000EB
:100660002DE9F8430025DFF894804FF480760124CB
:100670002F460095304600F007FE38B1D8F8040345
:10068000204203D0304600F0F5FD2543361D6400BE
:100690007F1CB6B2082FEDD34FF4BE74204600F095
:1006A000F3FD48B1204600F0E5FD45F000456A46FF
:1006B0000121002000F0BCFD15F0FF0F16D001262F
:1006C00000242E420ED008EB8401D1F81005D1F899
:1006D0001015C0F304200A4AC1F3014152F8242046
:1006E00002B190477600641C082CEAD3002D02DA90
:1006F000684600F091FFBDE8F8830000006000400C
:100700006C0000202DE9FE434FF48278404600F053
:1007100053FF4C4F00254C4C012600B3404600F0DF
:1007200053FF94F82E0010B194F82F10D1B18DF82A
:100730000050616801912189ADF80810E26832B17A
:10074000218B618362602181E56010B102E0257434
:1007500000E03E6021686846884784F82F5094F88E
:100760002E0060B34FF48077384600F025FF30B399
:10077000384600F029FF628B94F82D108A420AD97E
:10078000A2EB010080B260832289A2EB00006268C4
:1007900002EB400005E007D1E06828B184F82F6043
:1007A000658300F001FF04E08A4202D184F82F60E3
:1007B0006583404600F008FF2248001D06604FF4A4
:1007C0008877384600F0F8FE48B1384600F0FCFE65
:1007D000257402208DF800002168684688474FF490
:1007E0008A77384600F0E8FE28B1384600F0ECFE83
:1007F0002574BDE8FE834FF000484FF48C7967699B
:100800001DE000BFB7FA87F028FA00F109EB800578
:100810008F43284600F0D0FE88B1284600F0D4FE71
:10082000A5F58C75E8088DF8040045F38000401CA0
:100830008DF800608DF80500216868468847002F14
:10084000E0D1D6E7007000402C01002070B50E46C4
:10085000144900EB400001EBC0051446E86A183566
:1008600020B101280FD0022805D113E0284600F05E
:10087000BDF9A04201D2002411E0224631462846AB
:1008800000F0F9F90BE0284600F0B0F9A042F4D2EC
:100890000446F2E73146284600F0C0F904462046F7
:1008A00070BD00005C0200200149024800F0A8BFB2
:1008B000F800002000300040F0B5A449A4484FF0F3
:1008C00080540B68D4F830210078D4F83411551CCA
:1008D000C0F3031006D0944601270026BCF1060F92
:1008E00003D00AE003F0FF0CF6E7B4F82453DFF876
:1008F00064C2C5F30425CCF80050DDB2062D06D144
:10090000032804D1DFF854C2934DCCF87450551C21
:1009100004D09446BCF1060F03D00AE003F0FF0CAC
:10092000F8E7D4F84452DFF838C2C5F34235CCF8C2
:100930000050DDB2062D08D1032806D1894DD5F827
:1009400000C02CF0807CC5F800C0551C04D0944633
:10095000BCF1060F03D00BE003F0FF0CF8E74FF0FB
:100960008045C5F80C61C5F810617D4D2D1F2E60C6
:10097000DDB2062D08D1032806D1DFF8E4C1032536
:100980000CF1640CCCF80050DDB2062D10D1032818
:100990000ED1DFF8D4C10525CCF80050724D783562
:1009A0002F60714D08352E600CF104063F2535602F
:1009B000551C04D016460D46062E03D05BE0DEB271
:1009C0000546F9E7ED1E012D55D9684D2D68684E95
:1009D0003560664D2D1D2D68361D3560634D08351B
:1009E0002D68361D3560614D0C352D68361D35601E
:1009F0005E4D10352D68361D35605C4D14352D6803
:100A0000361D3560594D18352D68594E20363560E4
:100A1000564D1C352D68361D3560544D20352D68DA
:100A2000361D3560514D24352D68361D35604F4DCE
:100A300028352D68361D35604C4D2C352D68361DFA
:100A400035604A4D30352D68494E40363560474D4A
:100A500034352D68361D3560444D38352D68361DCA
:100A60003560424D3C352D68361D35603F4D403573
:100A70002D68361D3560551C03D01646062E02D053
:100A800007E0DEB2FAE7D4F858523A4E05F04F05C7
:100A90003560551C03D01346062B02D008E0DBB2AC
:100AA000FAE735480368DB0702D06FF00103036003
:100AB000062A07D1C91E022904D93048016841F429
:100AC0008061016027487438016841F47001016059
:100AD000BFF34F8FBFF36F8FD4E94C104FF010224C
:100AE000062907D1C01E032804D9D2F808021C49E0
:100AF0001C310860D2F80002002803DBD2F804029F
:100B000000281FDA012000F07BFD1521C2F8001239
:100B10001B480368002BFCD0C2F8041201680029AE
:100B2000FCD0002000F06CFDBFF34F8F0D48F03873
:100B30000168144A01F4E06111430160BFF34F8F73
:100B400000BFFDE7114910480860F0BDE00F00F05C
:100B5000E80F00F0403501400DF0ADBA00C007408D
:100B60003C050040FCED00E010560040040400107D
:100B700020C50040E40E0040000400403C17004047
:100B800000E401400400FA050090D0036800002052
:100B900004220249024800F065B90000C8000020A4
:100BA0000090004004220249024800F05BB90000B6
:100BB000D400002000A0004006220249024800F0B4
:100BC00051B90000E000002000A0014006220249C7
:100BD000024800F047B90000EC00002000B00140DE
:100BE0000148006800470000000000200269C16859
:100BF0008A4203D88068401A104400E0501A401E10
:100C00007047002809DB00F01F02012191404009D4
:100C1000800000F1E020C0F8801270472DE9F04715
:100C2000C4681746894606464FF000083069A0425E
:100C300001D9051B02E0B168201A0D1AB0686D1EBB
:100C4000001BA84200D80546BD4200D33D4670684F
:100C50002A4620444946FFF7E4FBB0687F1B2C443A
:100C6000A844A944A04200D10024F460002FDDD1A3
:100C70004046BDE8F0872DE9F04104468846D4E9B6
:100C80000207C51BE168606816460844B54206D9EC
:100C90004146FFF7C6FBB819E060BDE8F0812A467F
:100CA0004146FFF7BEFB761B08EB05013246606844
:100CB000FFF7B7FBE660F0E700F002B800F008B815
:100CC00072B602480168491C0160704708000020A4
:100CD00003490868401E086000D162B670470000F2
:100CE000080000202DE9FC410646C0074FF0000532
:100CF0000ED0104F00240122385D009500231146CC
:100D0000019500F072FA641C042CF4D300F02EF864
:100D1000B0070DD5074E0024361D0022305D032399
:100D200000951146019500F060FA641C042CF4D380
:100D3000BDE8FC81F61A000007490B5C4FF0A041AA
:100D4000D1F804250120984020EA0203C1F80835B3
:100D50001040C1F80C057047F61A00000249085C03
:100D6000012100F07BBA0000F61A000010B5002443
:100D70002046FFF7F3FF641C042CF9D310BD70B5B7
:100D80000D4604460A2902D10D21FFF7F8FFA0689D
:100D90002268411CA1601554D4E90101814204D3A9
:100DA0002046BDE8704000F027B970BD02490844F4
:100DB00090F93000704700006C0000202DE9FC5FC6
:100DC0000E008346DDE90C47C6F1000098469246C6
:100DD000814600D40846012503E000BF90FBFAF0ED
:100DE0006D1C5045FADAA84500D9454624B1002EBD
:100DF00001DB780700D5641EB80702D5B8F1000FF3
:100E00000AD0F80708D13CB1A54205D220215846A6
:100E1000641EFFF7B4FFF6E7002E02DA4E462D21DE
:100E200002E0780703D52B215846FFF7A8FF07F00B
:100E3000030002280BD1B8F1000F08D13CB1A54244
:100E400005D230215846641EFFF799FFF6E7CDE939
:100E50000047434652463146584600F09BFDBDE8E8
:100E6000FC9F00002DE9F041174688460646002405
:100E700017E000BF4FF4A07000EB84054FF4803002
:100E80007159A04059B1D6F80413014207D0294640
:100E9000304600F0A3FBD8E9002128469047641CA7
:100EA000E4B2BC42E6D3BDE8F08100000120FFF7C8
:100EB00019FF094C4FF4FA784FF47A470026304670
:100EC000FFF73AFF4546611C384688476D1EFAD148
:100ED000761C042EF3DBF1E7F01A00002DE9F04751
:100EE000C5881E1DB6FBF5F78946B6FBF5F104462D
:100EF00005FB176C407916686843DDF820A0F718E9
:100F0000001F874200D9C61A166001E02468491EF6
:100F10000029FBD1A5EB0C078846B74216D818E08C
:100F200004EB0C00001D09EB0803BAF1000F3A4670
:100F300002D00146184600E01946FFF772FA24680D
:100F4000F61B4FF0000CB844B54201D9374600E01B
:100F50002F46002EE4D1BDE8F087000030B50246F0
:100F600051B100F079FA0021074C08E034F8213043
:100F70001568AB4202D11160002030BD491C81428E
:100F8000F4D3052030BD00000000000008B56A461B
:100F9000FFF7C1F9009808BD08B56A46FFF7C8F920
:100FA000009808BD70B505460C460020FFF784FE8A
:100FB000E868298A201AB0FBF1F12A681068431CFE
:100FC00013600170BDE870400020FFF777BEC208D3
:100FD00000F007030120895C9840084070470FB477
:100FE00008B50399002904D004AA00926A4600F0CB
:100FF0000FF801B05DF814FB10B582680446002AB2
:1010000005D0D4E90403216898470020A06010BDF2
:101010002DE9FC4791460C00804676D014F8011B60
:1010200039B125290ED04046FFF7A9FE20780028C7
:10103000F4D198F80C00002867D04046BDE8FC4782
:10104000FFF7DABF0020012221782B291BD02D29A0
:1010500002D0302908D102E040F0010001E040F068
:101060000200641C002AEFD100252A290ED0217825
:10107000A1F130020A2A11D205EB850201EB4205EB
:10108000641C303DF1E740F00400EAE7D9F80010B5
:101090000B1DC9F800300968641C0D442178002339
:1010A0002E290BD114F8011FA1F130020A2A05D212
:1010B00003EB830201EB4203303BF3E76C290DD0D5
:1010C00068290BD0692921D00BDC252918D0582993
:1010D00031D063290ED0642915D117E014F8011F0F
:1010E000ECE7702969D0732932D075291BD0782993
:1010F00009D120E0D9F80000011DC9F800100178DD
:101100004046FFF73CFE641C90E76CE0D9F8001005
:101110000A1DC9F800200968CDE900500A2240469E
:10112000FFF74CFEEFE7D9F800100A1DC9F80020C0
:1011300009680A2206E0D9F800100A1DC9F8002043
:1011400009681022CDE90050404600F023FCDAE7A0
:10115000D9F8001000270A1DC9F800200E68C00742
:1011600005D112E04046761C7F1CFFF708FE31785F
:101170000029F7D104E0202140466D1EFFF7FFFD56
:10118000BD42C0D9002DF6D1BDE74EB13046FFF7C4
:1011900029F9074604E0202140466D1EFFF7EFFDC8
:1011A000BD4206D9002DF6D103E04046761CFFF77C
:1011B000E6FD31780029F8D1A5E7D9F80000011D36
:1011C000C9F80010056830214046FFF7D8FD7821A6
:1011D0004046FFF7D4FD08200021CDE90001034679
:1011E00010222946B0E7BDE8FC8770B541EA42010C
:1011F000DDE904564FF0A04441EA830141EA0521AC
:1012000004EB800041EA0641C0F8001770BD4FF0C2
:10121000A04202EB8000D0F8002722F44032C0F850
:101220000027D0F8002742EA0141C0F800177047B4
:1012300038B5094B44181B6800936B4608E000BFA3
:1012400053F82010D1F8205520C2C1F82055401C79
:101250008442F5D838BD0000001B000001224FF089
:10126000A043824011B1C3F808257047C3F80C258C
:1012700070470000034908B5084400210160006878
:10128000009008BD0060004002494058012800D08D
:1012900000207047006000407047704708B5034A5F
:1012A00000924023024A00F005F808BDB117000083
:1012B0005C010020F0B595B01C4615460E46084668
:1012C0001A9F00F055F9182109A8FFF721F90E9788
:1012D000CDE909540023082203A9304600F05BF948
:1012E00005980690BDF81000ADF81C00BDF812007E
:1012F000ADF81E0000208DF821000399082501F0AB
:101300000300012802D0022816D02FE0C1F3C2004A
:10131000C1F383178C0A8DF82000BA002B460FA961
:10132000304600F038F909A8009006AB3A460FA9FC
:10133000204600F0A9F819E0C1F3C2008C0D8DF829
:101340002000082C01D2274600E008272B463A4609
:101350000FA9304600F01FF93D44E41B09AB06AA73
:1013600039460FA800F020F8002CEAD1304600F0F2
:1013700003F915B0F0BD00000A4A012902EBC000D4
:1013800007D0022907D0032907D0042907D000205D
:1013900070470220704704207047007970474079F9
:1013A00070470000281D00002DE9F0470E468046DA
:1013B0001C469246082940D894F80C9000202073CF
:1013C0001946104600F0A8F90025B54206D218F8D3
:1013D00005201BA12046FFF702FE03E01AA12046CC
:1013E000FFF7FDFD6D1C082DEFD318A12046FFF778
:1013F000F6FD0025B54212D218F805707E2F08D8E8
:10140000FEF7E8FF0068C05D10F03E0F01D03A46DD
:1014100000E02E220EA12046FFF7E1FD03E00DA122
:101420002046FFF7DCFD6D1C082DE3D30122214689
:10143000504600F053F984F80C90BDE8F0870000A6
:101440002025303278000000202020007C000000A1
:10145000256300002000000002480349401AC0082C
:1014600070470000781D0000281D000013B5684675
:10147000FFF774FD08B100201CBD0248009950F828
:1014800031001CBD281D00002DE9FF4781460C9D41
:1014900000200C462F7B287398461646294618468E
:1014A00000F03AF9072E42D2DFE806F004090F16E1
:1014B0001F2A360049462846FFF791FD37E0494686
:1014C00028462268FFF78BFD31E0D4E90023494626
:1014D0002846FFF784FD2AE0A0680090D4E90023A5
:1014E00049462846FFF77BFD21E0D4E90201CDE91A
:1014F0000001D4E9002349462846FFF770FD16E0B5
:1015000004F1080007C88DE80700D4E90023494624
:101510002846FFF764FD0AE004F108000FC88DE8D3
:101520000F00D4E9002349462846FFF758FD002262
:101530002946404600F0D2F82F73BDE8FF872DE919
:10154000F041457901466B1E002201E00968521CFA
:101550009A42FBD30F680146002605E038460C6826
:10156000FFF720FD2146761CAE42F7D3BDE8F0819F
:101570000121001DFFF70ABD10B504460121001D21
:10158000FFF70AFD10F0FF0F04D12046BDE8104020
:10159000FFF7D5BF10BD1CB501920122009201AA30
:1015A000FFF79CFC1CBD0000024A1060101D01608A
:1015B000704700002C76004002494058002800D0B7
:1015C0000120704700700040034908B5084400221C
:1015D00002600068009008BD0070004008B500225D
:1015E00042504058009008BD4058002800D00120CB
:1015F000704708B5002242504058009008BD0000D6
:1016000003490860034801680029FCD070470000C6
:1016100004E5014000E401402DE9F05F2A4F064651
:101620004FF0A04A4FF0010B0024381990F95010E8
:10163000491C3CD090F85000314620F0C0052846A7
:10164000FFF7C5FC20B3204600F040F881460AEBC6
:101650008500D0F80007C0F30148B8F1020F18D098
:1016600002212846FFF7D3FD0BFA05F1CAF8201531
:101670002846FFF79BFB57F820204AB14846B9F1AE
:10168000030F11D0B8F1020F05D0B8F1030F07D046
:101690000DE00321E5E74846B9F1010F04D006E06B
:1016A0004846B9F1020F02D1014628469047641C12
:1016B000042CBAD3324601210020FFF7B9FD30686F
:1016C0000028B1D1BDE8F09F6C0000200249084419
:1016D00090F85000800970476C00002010B50C464F
:1016E000017A052908D0407A38B1084808A1026873
:1016F0002046FFF774FC00E01AB106A12046FFF770
:101700006EFC2046BDE81040FFF776BC4400002088
:10171000257300000D0A000038B5C3880D46044645
:1017200033B114A0009015A216A12846FFF757FC6C
:10173000217A05291CD0607A48B1A088FFF71CFEE9
:10174000164951F8202016A12846FFF748FCA0882A
:101750000021FFF78BFE03461049207A143951F817
:10176000202001B02846BDE830400EA1FFF737BC6D
:1017700038BD00001B5B306D000000001B5B313B7F
:1017800033316D0025734C6F67732064726F707016
:101790006564202825642925730D0A004400002073
:1017A000257300003C25733E2025733A200000007D
:1017B0002DE9F0411400884618D000250E4F03266D
:1017C00008EB050122460020FFF740F80544241AE3
:1017D00040B93878002809D008494FF47A40884742
:1017E000761E05D001203870002CE9D1BDE8F081CB
:1017F00000203870FAE700000C000020211B0000D8
:101800002DE9F04F0C464FF4927887B005464146DB
:10181000FFF7EAFE4FF0020B01274FF4827640B14A
:1018200041462846FFF7E5FE31462846FFF7DCFE35
:10183000E8B14FF482712846FFF7D6FE010004F1AB
:101840000C00DFF84C91EA4645F307364FF00008EC
:10185000069048D04FF482712846FFF7CAFE94F8EC
:101860002000400624D494F82E00C8B120E0A068DF
:10187000C5F80803C4F808B0A068C5F804034FF41D
:10188000B0712846FFF7B0FE18B1D5F80002800508
:1018900001D42F626F6184F82E7007B0BDE8F08F1D
:1018A0002146284600F0D0F880F0010084F82E0090
:1018B00094F8200040073ED414220AF1040006994F
:1018C000FEF7F4FD4FF4B0712846FFF792FE4FF497
:1018D000AE712846FFF78DFE94F8300008B394F8F7
:1018E0002E00F0B927E04FF4A4712846FFF781FEDF
:1018F000207B68B14FF40070C5F80002801CA06026
:10190000C5F80893A068C5F80403AF602F62C4E768
:1019100014220AF104000699FEF7C8FD94F830007D
:1019200048B90020C5F80002C4F80880C5F808933B
:101930003046FFF766F9D5F8C404C5F8C40481073A
:1019400002D58DF8007011E0410702D58DF800B086
:101950000CE0C00701D0032003E094F82E0018B17A
:1019600004208DF8000001E08DF8008094F830002C
:1019700008B984F82F8094F82000400703D594F824
:101980002E00002889D0D4E900216846904784E7DA
:1019900002029C012DE9F05F8346DDE90A4A99467F
:1019A00090460D460846012703E000BFB0FBF8F063
:1019B0007F1C4045FAD2B94500D94F465FEACA704C
:1019C00012D18CB15FEA8A7002D5B9F1000F01D053
:1019D000202607E0302605E031465846641EFFF712
:1019E000CEF90CB1A742F7D35FF00106B9F1010FB0
:1019F00002D9A9F1010903E0B5FBF6F0404502D395
:101A000006FB08F6F2E7DFF83C9000BFB5FBF6F006
:101A100000FB165519F800105846FFF7B0F9B6FB51
:101A2000F8F6002EF2D15FEACA7009D0002C07D078
:101A3000A74205D220215846641EFFF7A0F9F5E71A
:101A4000BDE8F09F041B000010B50B7B0122E3B141
:101A5000012B1DD0022B0FD0032B24D18B685B03ED
:101A600004D5D0F84C350C69A34216D18B685B03C2
:101A700019D4D0F84C3506E0D0F84C350C69A342A7
:101A80000BD1D0F83C35496905E0D0F84C3501E080
:101A9000D0F83C3509698B4205D00022C0F80025FA
:101AA0000621C0F80015104610BD000010B5002931
:101AB0000AD00878002807D005487844FEF75AFD78
:101AC000002801D0002010BD0248784410BD00005D
:101AD0004E010000460100004FF04070E1EE100A98
:101AE000704700000000000000000000000000003F
:101AF0000338FDD87047111213140D0E0F1000009B
:101B000000000050303132333435363738394142F5
:101B1000434445469D1200009B12000099120000AC
:101B20000338FDD8704700007761726E696E6700F8
:101B300064656275670000001B5B313B33306D00EC
:101B40001B5B306D000000001B5B313B33316D00CF
:101B50001B5B313B33326D001B5B313B33336D001C
:101B60001B5B313B33346D001B5B313B33356D0008
:101B70001B5B313B33366D001B5B313B33376D00F4
:101B8000696E666F000000006572726F720000007F
:101B90004750494F544500005050490054494D4565
:101BA000520000005457494D000000005541525466
:101BB00045000000554152540000000050525300AF
:101BC00053414144430000007077725F6D676D744C
:101BD000000000007274745F6C6F675F6261636B1A
:101BE000656E6400617070008C1D000000000020B4
:101BF0006C0000003C020000F81D00006C0000209A
:101C0000DC24000058020000100100004300000026
:101C1000F8FFFFFF0040404040404040404041410D
:101C200041414140404040404040404040404040B1
:101C3000404040404005020202020202020202024B
:101C40000202020202202020202020202020200248
:101C500002020202020290909090909010101010D8
:101C60001010101010101010101010101010101074
:101C70000202020202028888888888880808080808
:101C800008080808080808080808080808080808D4
:101C900002020202400000000000000000000000FC
:101CA0000000000000000000000000000000000034
:101CB0000000000000000000000000000000000024
:101CC0000000000000000000000000000000000014
:101CD0000000000000000000000000000000000004
:101CE00000000000000000000000000000000000F4
:101CF00000000000000000000000000000000000E4
:101D000000000000000000000000000000000000D3
:101D10000000000000000000141B00000000000094
:101D2000D41B000010000020901B000000000000E9
:101D3000981B0000000000009C1B00000000000039
:101D4000A41B000000000000AC1B0000000000000D
:101D5000B41B000000000000BC1B000000000000DD
:101D6000C01B000000000000C81B000000000000B5
:101D7000E41B0000000003032000002018000020E6
:101D8000200000209C01002018000000000000003E
:101D90000000000000000000000000000000000043
:101DA000FF00000000000000000000000000000034
:101DB0000000000000000000000000000000000023
:101DC000881B0000281B0000801B0000301B000047
:101DD000401B0000381B0000481B0000501B000087
:101DE000581B0000601B0000681B0000701B0000F7
:081DF000781B00000090D003F5
:0400000500000201F4
:00000001FF
