:020000040000FA
:10000000302D0020950300009D0300009F03000099
:10001000A1030000A3030000A503000000000000EE
:10002000000000000000000000000000A703000026
:10003000A903000000000000AB030000AD030000B6
:10004000AF030000AF030000CD0C00004109000029
:1000500051090000AF030000D1060000990700001D
:10006000AF0300007D0C0000910C0000AF03000006
:10007000AF030000AF030000AF030000AF030000B8
:10008000AF03000089070000AF030000AF030000CA
:10009000AF030000AF030000AF030000AF03000098
:1000A000AF030000AF030000A50C0000B90C000076
:1000B000AF030000AF0300000000000000000000DC
:1000C000AF030000AF030000AF030000AF03000068
:1000D000AF030000AF030000AF030000000000000A
:1000E0000000000000000000000000000000000010
:1000F0000000000000000000000000000000000000
:1001000000000000000000000000000000000000EF
:1001100000000000000000000000000000000000DF
:1001200000000000000000000000000000000000CF
:1001300000000000000000000000000000000000BF
:1001400000000000000000000000000000000000AF
:10015000000000000000000000000000000000009F
:10016000000000000000000000000000000000008F
:10017000000000000000000000000000000000007F
:10018000000000000000000000000000000000006F
:10019000000000000000000000000000000000005F
:1001A000000000000000000000000000000000004F
:1001B000000000000000000000000000000000003F
:1001C000000000000000000000000000000000002F
:1001D000000000000000000000000000000000001F
:1001E000000000000000000000000000000000000F
:1001F00000000000000000000000000000000000FF
:1002000000F002F800F045F80AA090E8000C8244E3
:100210008344AAF10107DA4501D100F03AF8AFF2C0
:10022000090EBAE80F0013F0010F18BFFB1A43F0D4
:1002300001031847443E0000643E0000103A24BF0A
:1002400078C878C1FAD8520724BF30C830C144BF3B
:1002500004680C607047000000230024002500267D
:10026000103A28BF78C1FBD8520728BF30C148BF19
:100270000B6070471FB503F0DDFD00F0ABF9040023
:100280000020002103F0C0FD401C60601FBD10B5C0
:1002900010BD00F0E7F91146FFF7ECFF01F064FA3A
:1002A00000F005FA03B4FFF7F2FF03BC00F008FA10
:1002B00030B4044654E8000F0D4644E80053002BC8
:1002C000F8D1156030BC704730B4044654E8000FD4
:1002D00040EA010544E80053002BF7D1156030BC1B
:1002E000704730B4044654E8000F00EA010544E8C2
:1002F0000053002BF7D1156030BC704730B4044672
:1003000054E8000F80EA010544E80053002BF7D1C0
:10031000156030BC704730B4044654E8000F00EB61
:10032000010544E80053002BF7D1156030BC70473D
:1003300030B4044654E8000FA0EB010544E8005334
:10034000002BF7D1156030BC704770B404464FF0F5
:10035000000054E8006F0D68AE4207BF44E8002378
:10036000012044E800630E60002B1CBF0020F0E772
:1003700070BC704730B4044654E8000F88422CBF6C
:10038000451A054644E80053002BF5D1156030BCF2
:10039000704700000948804709480047FEE7FEE72C
:1003A000FEE7FEE7FEE7FEE7FEE7FEE7FEE7FEE725
:1003B00004480549054A064B70470000A50900009E
:1003C00001020000300D0020302D0020301D0020E3
:1003D000301D002010B500F0FDF8001D10BD00BF5D
:1003E000293A0000B2F120030AD5C2F1200320FA15
:1003F00002F001FA03F321FA02F140EA0300704728
:1004000021FA03F04FF00001704740EA0103024671
:1004100030B59B0710D14FF0013400E008C208C985
:100420001D1B9D4315EAC41FF8D013F0FF0102F80D
:10043000011B0DD01B0AF8E711F8013B002B02F855
:10044000013B05D011F8013B002B02F8013BF3D131
:1004500030BD10B5431C02E010F8011B71B18107DB
:10046000FAD14FF0013202C88C1A8C4314EAC2113F
:10047000F9D0C01A0A0603D0C01E10BDC01A10BDA4
:100480000A0401D0801E10BD0902FCD0401E10BD20
:10049000032A40F2308010F0030C00F0158011F8B0
:1004A000013BBCF1020F624498BF11F801CB00F888
:1004B000013B38BF11F8013BA2F1040298BF00F8DC
:1004C00001CB38BF00F8013B11F0030300F0258099
:1004D000083AC0F0088051F8043B083A51F804CBC0
:1004E000A0E80810F5E7121D5CBF51F8043B40F886
:1004F000043BAFF30080D20724BF11F8013B11F891
:1005000001CB48BF11F8012B24BF00F8013B00F8D4
:1005100001CB48BF00F8012B704710B5203AC0F05E
:100520000B80B1E81850203AA0E81850B1E81850F4
:10053000A0E81850BFF4F5AF5FEA027C24BFB1E831
:100540001850A0E8185044BF18C918C0BDE81040A2
:100550005FEA827C24BF51F8043B40F8043B08BFAB
:100560007047D20728BF31F8023B48BF11F8012B72
:1005700028BF20F8023B48BF00F8012B70474FF01E
:10058000000200B5134694469646203922BFA0E8E3
:100590000C50A0E80C50B1F12001BFF4F7AF0907EF
:1005A00028BFA0E80C5048BF0CC05DF804EB8900E0
:1005B00028BF40F8042B08BF704748BF20F8022B23
:1005C00011F0804F18BF00F8012B7047704770473B
:1005D0007047000000487047EC0C0020004870474E
:1005E000CC0C00204FF0013C50F8042B51F8043B98
:1005F0009A4221D1A2EB0C03934313EACC1317D1F7
:1006000050F8042B51F8043B9A4215D1A2EB0C038D
:10061000934313EACC130BD150F8042B51F8043B4D
:100620009A4209D1A2EB0C03934313EACC13DBD01B
:100630004FF00000704700BFD01A01BAB1FA81F143
:1006400001F0180122FA01F0CB40C1F12001DBB228
:10065000C0B2C01A2CFA01F3D11A914311EAC311A6
:10066000E6D170477546FFF7B9FFAE46050069460B
:10067000534620F00700854618B020B5FFF798FED6
:10068000BDE820404FF000064FF000074FF0000893
:100690004FF0000B21F00701AC46ACE8C009ACE814
:1006A000C009ACE8C009ACE8C0098D46704710B578
:1006B0000446AFF300802046BDE81040FFF7F2BDCE
:1006C00001491820ABBEFEE726000200704700007B
:1006D0002DE9F8430025DFF894804FF4807601245B
:1006E0002F460095304601F0C9FB38B1D8F8040315
:1006F000204203D0304601F0B7FB2543361D64008D
:100700007F1CB6B2082FEDD34FF4BE74204601F023
:10071000B5FB48B1204601F0A7FB45F000456A460D
:100720000121002001F058FB15F0FF0F16D0012623
:1007300000242E420ED008EB8401D1F81005D1F828
:100740001015C0F304200A4AC1F3014152F82420D5
:1007500002B190477600641C082CEAD3002D02DA1F
:10076000684602F0A1FDBDE8F8830000006000408B
:10077000E40000200078002802D10249012008701E
:1007800070470000C400002002490248091F0968A0
:10079000006808475C0000202DE9FE434FF4827892
:1007A000404601F005FF4C4F00254C4C012600B39C
:1007B000404601F005FF94F82E0010B194F82F1078
:1007C000D1B18DF80050616801912189ADF8081010
:1007D000E26832B1218B618362602181E56010B1F2
:1007E00002E0257400E03E6021686846884784F88E
:1007F0002F5094F82E0060B34FF48077384601F004
:10080000D7FE30B3384601F0DBFE628B94F82D1032
:100810008A420AD9A2EB010080B260832289A2EB4E
:100820000000626802EB400005E007D1E06828B1F3
:1008300084F82F60658301F0A9FE04E08A4202D1AA
:1008400084F82F606583404601F0BAFE2248001DFF
:1008500006604FF48877384601F0AAFE48B1384662
:1008600001F0AEFE257402208DF800002168684674
:1008700088474FF48A77384601F09AFE28B1384607
:1008800001F09EFE2574BDE8FE834FF000484FF452
:100890008C7967691DE000BFB7FA87F028FA00F18C
:1008A00009EB80058F43284601F082FE88B1284677
:1008B00001F086FEA5F58C75E8088DF8040045F377
:1008C0008000401C8DF800608DF8050021686846A6
:1008D0008847002FE0D1D6E700700040F4010020E7
:1008E00000F0FAB970B50E46144900EB400001EB78
:1008F000C0051446E86A183520B101280FD0022837
:1009000005D113E0284600F01BFAA04201D20024D2
:1009100011E022463146284600F057FA0BE02846FF
:1009200000F00EFAA042F4D20446F2E7314628461F
:1009300000F01EFA0446204670BD00004408002066
:100940000149024802F034BF70010020003000402D
:10095000F8B54FF040200446114E4FF48C7101F071
:1009600050FE00281AD00025C4F81851D4F81801F8
:100970000090F07F3446FF2806D0A17F11B101F02E
:1009800041FA01E001F069FA65772572D4E90021A6
:1009900001B004F10800BDE8F0401047F8BD0000C8
:1009A00024020020F0B5A449A4484FF080540B68FD
:1009B000D4F830210078D4F83411551CC0F303105A
:1009C00006D0944601270026BCF1060F03D00AE0AA
:1009D00003F0FF0CF6E7B4F82453DFF864C2C5F364
:1009E0000425CCF80050DDB2062D06D1032804D131
:1009F000DFF854C2934DCCF87450551C04D0944683
:100A0000BCF1060F03D00AE003F0FF0CF8E7D4F8BE
:100A10004452DFF838C2C5F34235CCF80050DDB29D
:100A2000062D08D1032806D1894DD5F800C02CF039
:100A3000807CC5F800C0551C04D09446BCF1060F5C
:100A400003D00BE003F0FF0CF8E74FF08045C5F84A
:100A50000C61C5F810617D4D2D1F2E60DDB2062D95
:100A600008D1032806D1DFF8E4C103250CF1640C9A
:100A7000CCF80050DDB2062D10D103280ED1DFF8DE
:100A8000D4C10525CCF80050724D78352F60714DDA
:100A900008352E600CF104063F253560551C04D046
:100AA00016460D46062E03D05BE0DEB20546F9E79A
:100AB000ED1E012D55D9684D2D68684E3560664D87
:100AC0002D1D2D68361D3560634D08352D68361D8A
:100AD0003560614D0C352D68361D35605E4D103525
:100AE0002D68361D35605C4D14352D68361D35601A
:100AF000594D18352D68594E20363560564D1C35E8
:100B00002D68361D3560544D20352D68361D3560F5
:100B1000514D24352D68361D35604F4D28352D68D3
:100B2000361D35604C4D2C352D68361D35604A4DCF
:100B300030352D68494E40363560474D34352D6887
:100B4000361D3560444D38352D68361D3560424DB3
:100B50003C352D68361D35603F4D40352D68361DBE
:100B60003560551C03D01646062E02D007E0DEB2D3
:100B7000FAE7D4F858523A4E05F04F053560551C47
:100B800003D01346062B02D008E0DBB2FAE7354863
:100B90000368DB0702D06FF001030360062A07D168
:100BA000C91E022904D93048016841F480610160FE
:100BB00027487438016841F470010160BFF34F8F1A
:100BC000BFF36F8FD4E94C104FF01022062907D1E4
:100BD000C01E032804D9D2F808021C491C31086041
:100BE000D2F80002002803DBD2F8040200281FDA42
:100BF000012002F04DFB1521C2F800121B480368CA
:100C0000002BFCD0C2F8041201680029FCD000209F
:100C100002F03EFBBFF34F8F0D48F0380168144AD5
:100C200001F4E06111430160BFF34F8F00BFFDE7A6
:100C3000114910480860F0BDE00F00F0E80F00F027
:100C4000403501400DF0ADBA00C007403C05004002
:100C5000FCED00E0105600400404001020C50040E8
:100C6000E40E0040000400403C17004000E4014056
:100C70000400FA050090D003E0000020042202499D
:100C8000024800F0E7BC0000400100200090004056
:100C900004220249024800F0DDBC00004C010020A3
:100CA00000A0004006220249024800F0D3BC000028
:100CB0005801002000A0014006220249024800F02D
:100CC000C9BC00006401002000B001400148006878
:100CD000004700002800002010B5124C02202061BF
:100CE000606111A0A06104F17800E0614FF4007030
:100CF00020620020A06260620BA1A164E06204F5A2
:100D00001E71E1641021A065C4E91410E06509A119
:100D1000E01DFFF77AFB08A12046FFF776FB2020B5
:100D2000A07110BD440800205465726D696E616C3D
:100D300000000000525454005345474745520000FC
:100D40000269C1688A4203D88068401A104400E0F2
:100D5000501A401E7047002809DB00F01F020121D5
:100D600091404009800000F1E020C0F880127047F7
:100D70002DE9F047C4681746894606464FF000083B
:100D80003069A04201D9051B02E0B168201A0D1A92
:100D9000B0686D1E001BA84200D80546BD4200D3B6
:100DA0003D4670682A4620444946FFF771FBB0680B
:100DB0007F1B2C44A844A944A04200D10024F46025
:100DC000002FDDD14046BDE8F0872DE9F041044613
:100DD0008846D4E90207C51BE168606816460844E6
:100DE000B54206D94146FFF753FBB819E060BDE8AC
:100DF000F0812A464146FFF74BFB761B08EB0501C5
:100E000032466068FFF744FBE660F0E710B572B663
:100E100001F0A2FA01F000F90028FBD111481249B3
:100E2000401AC408012000EB044010A101F00CFAA4
:100E300011480068C00700D000BE022000EB04404B
:100E40000EA101F001FABFF34F8F0B48E43801689F
:100E50000E4A01F4E06111430160BFF34F8F00BF00
:100E6000FDE7000020420000B841000046617461C7
:100E70006C206572726F7200F0ED00E0537973744C
:100E8000656D207265736574000000000400FA054A
:100E90000EB500210091CDE901106A4644F201002F
:100EA000FFF7B4FF0EBD10B58268C368934203D04C
:100EB00000F0AEF9002010BD052010BD29B112B11F
:100EC000531E134203D0092070470E207047016063
:100ED000838000218160C1600846704710B5826838
:100EE000C3689A1A83889A4203D800F09BF90020BD
:100EF00010BD042010BD0000F0B5244E89B01F467F
:100F00000D00044672603FD0A888296882B220484C
:100F1000FFF7D4FF002835D1A889A96882B21C4800
:100F20001030FFF7CBFF00282CD12022194968464A
:100F3000FFF7F3FA60690690207C00B101208DF87C
:100F400014008DF81C70607C00B10E208DF8150027
:100F5000E0680290A06803902068019060680090AB
:100F60000A480D4A6946083000F052FD002809D1B0
:100F7000B0702068401C05D004490122491CC81DDE
:100F800000F07AFD09B0F0BD0720FBE73C0000202F
:100F90006C020020D03E0000AD39000000F002B825
:100FA00000F008B872B602480168491C0160704739
:100FB0003000002003490868401E086000D162B676
:100FC00070470000300000202DE9F0410646086817
:100FD0000C46411C4FF0A0474FF0010506D005FA22
:100FE00000F1C7F80815206800F0C6FE6068411CD3
:100FF00002D0002100F0AEFE3168A069C1F82405DE
:10100000607D217D32680843C2F86C05D4E9001286
:101010003068C0F80C15C0F81425207D012815D1C2
:10102000A068411C02D0002100F094FEE068411C41
:1010300005D08540C7F80855E06800F09DFED4E96A
:1010400002123068C0F80825C0F81015BDE8F0811C
:101050002DE9F041064608680C46411C4FF0A047B8
:101060004FF0010506D005FA00F1C7F80815206811
:1010700000F08CFE6068411C02D0002100F073FE7D
:101080003168A069C1F82405607D227D3168104374
:10109000C1F86C05D4E900123068C0F81425C0F816
:1010A0000C15207D012815D1A068411C02D000211B
:1010B00000F059FEE068411C05D08540C7F808558E
:1010C000E06800F063FED4E902123068C0F8082539
:1010D000C0F81015BDE8F08107490B5C4FF0A04146
:1010E000D1F804250120984020EA0203C1F8083510
:1010F0001040C1F80C057047463E00002DE9F0474E
:101100000546861C91460F464FF0010A0020FFF766
:1011100045FF1B4C04F21C4860683860D4E90101AB
:10112000184F401A3968081A0EE00121404600F0B5
:101130008BFB00F0C7FA0146404600F085FBD4E97E
:101140000101401A3968081A401C8642EDD8B9F1ED
:10115000000F03D0052065F3891002E0062065F337
:101160009F5061683A68114004EB8101C860606873
:10117000304460600020FFF713FF5046BDE8F08761
:10118000240400207000002070B50D4604460A2992
:1011900002D10D21FFF7F8FFA0682268411CA16071
:1011A0001554D4E90101814204D32046BDE87040C2
:1011B00000F08FBC70BD0000044881684068814227
:1011C00001D1012070470020704700002404002056
:1011D00005494FF0FF32082841F8202002D3084487
:1011E00080F8482070470000E400002002490844CD
:1011F00090F9300070470000E400002010B5002195
:10120000024800F02CFB80F3100010BD40080020C5
:10121000826883881A4003689A5C0A708168491C56
:1012200081607047C26883881A4003689954C16816
:10123000491CC1607047000010B501F06BF901F066
:101240007DF902490120086010BD000078050040CA
:1012500004480188491C89B20180052901D3002175
:1012600001807047DC000020704700000EB50F4A77
:1012700007CA8DE807000D480D49143801F064FBDA
:1012800008B1FFF705FE6946002001F007FB08B131
:10129000FFF7FEFD0121074801F0AEFA08B1FFF7A4
:1012A000F7FD02F035F902F025F90EBD703F0000A0
:1012B00059340000DA0000201FB5094B0FCB8DE830
:1012C0000F000023074A6946074800F081FB08B178
:1012D000FFF7DEFD0448001D01F0E6FC1FBD000025
:1012E000143F000075070000C800002010B5002161
:1012F0000D2000F08EFD00210E2000F08AFD00215F
:101300000F2000F086FD0021102000F082FD012159
:10131000112000F07EFD0121122000F07AFD012154
:10132000132000F076FD0121BDE81040142000F0EC
:1013300070BD000010B5FFF7D9FF00F0B5F800F060
:1013400059F8FFF7B9FF00F033F8FFF78FFF00F00F
:1013500025F8142000F0E8FA07480849401AC008A8
:10136000032101EB004006A100F06EFF00F054FEE7
:101370000028FBD110BD000020420000B841000051
:10138000696E69745065726970686572616C73200A
:10139000436F6D706C6574656400000010B501F0FA
:1013A0006BF9002803D0BDE81040FFF771BD10BDF8
:1013B0001FB50F4AD2E90401D269CDE900011C2012
:1013C0008DF802001A208DF800004FF08050029036
:1013D000002003928DF80C0003460246694604483B
:1013E00000F0BEFA002801D0FFF752FD1FBD00003B
:1013F000243F000010B54FF48041002000F080FF32
:1014000008B1FFF745FDBDE8104000F0F7BD000052
:1014100010B5322000F088FA07480849401AC00881
:10142000032101EB004006A100F00EFF00F0F4FDE7
:101430000028FBD110BD000020420000B841000090
:10144000696E697453656E736F727320436F6D704C
:101450006C657465640000000EB51149114AD1E94C
:101460000201CDE9010101A90D4801F0BDFB08B160
:10147000FFF70EFD0A480068D0F810050021C2B23F
:101480004FF47A40FEF7AEFF02460120014600907D
:101490000223034801F092FB014801F081FB0EBDDD
:1014A0007C3F00005112000000B58BB018220C499F
:1014B0006846FFF732F80B4806900B494FF48070EE
:1014C000CDE9070109900723084A06A96846FFF7F6
:1014D00013FD002801D0FFF7DBFC0BB000BD0000BE
:1014E000443F0000CC0A0020CC0B002099390000BA
:1014F0002DE9FC5F0E008346DDE90C47C6F10000D4
:1015000098469246814600D40846012503E000BF74
:1015100090FBFAF06D1C5045FADAA84500D9454613
:1015200024B1002E01DB780700D5641EB80702D570
:10153000B8F1000F0AD0F80708D13CB1A54205D296
:1015400020215846641EFFF71FFEF6E7002E02DA40
:101550004E462D2102E0780703D52B215846FFF790
:1015600013FE07F0030002280BD1B8F1000F08D1D9
:101570003CB1A54205D230215846641EFFF704FE57
:10158000F6E7CDE90047434652463146584602F059
:10159000AFFBBDE8FC9F000070B50D460446006837
:1015A0004FF4887101F059F84FF49071206801F000
:1015B00054F84FF49271206801F04FF84FF4A27183
:1015C000206801F04AF84FF4AC71206801F045F84A
:1015D00020681249C0F804132068690740F30730F7
:1015E000090E002804DB00F1E02080F8001405E07B
:1015F00000F00F0000F1E02080F8141D206840F397
:101600000730002809DB00F01F020121914040094A
:10161000800000F1E020C0F8001170BD100342000E
:10162000024600201268530713D502F00300012878
:1016300002D002280CD105E0C2F383100B68801C95
:10164000184404E00223086803EB92521044086037
:10165000012070472DE9F0411746884606460024D0
:1016600017E000BF4FF4A07000EB84054FF480300A
:101670007159A04059B1D6F80413014207D0294648
:10168000304600F0C3FFD8E9002128469047641C8B
:10169000E4B2BC42E6D3BDE8F08100000121814004
:1016A00003484068014201D0012070470020704784
:1016B0000400002001218140080300D00120704770
:1016C000704700002DE9FF410026244800F0B9F8DA
:1016D0002248001F074600F0B4F8214C2149A068B9
:1016E00000900D6800E000986946284004EB8000F7
:1016F0000C30FFF795FF0028F5D101AA009901EA07
:10170000050304EB8303491CDB6842F82030401CCE
:1017100000910228F2D3019800F0030001280BD0B9
:10172000022810D10198032101EB90500099BDF8D7
:101730000A6001EB900005E00198BDF80A60C0F373
:10174000831008440090384600F078F808B10098FB
:10175000A06004B03046BDE8F08100003C080020E5
:101760002404002070000020FFF766FDFFF7E2FD73
:10177000FFF74EFEFFF770FE00242046FFF7ACFC9B
:10178000642000F0D1F8641C042CF6DBF4E72DE9AA
:10179000F047C5881E1DB6FBF5F78946B6FBF5F187
:1017A000044605FB176C407916686843DDF820A0F5
:1017B000F718001F874200D9C61A166001E0246896
:1017C000491E0029FBD1A5EB0C078846B74216D865
:1017D00018E004EB0C00001D09EB0803BAF1000F40
:1017E0003A4602D00146184600E01946FEF750FE80
:1017F0002468F61B4FF0000CB844B54201D93746B7
:1018000000E02F46002EE4D1BDE8F08730B5024657
:1018100051B100F089FD0021074C08E034F8213077
:101820001568AB4202D11160002030BD491C8142D5
:10183000F4D3052030BD000000000000002100F0BE
:1018400009B8012100F010B808B56A46FEF763FD3B
:10185000009808BD08B56A46FEF743FD08BD08B507
:101860006A46FEF725FD08BD08B56A46FEF72CFD61
:10187000009808BD08B56A46FEF75AFD009808BDF5
:1018800070B5044600252846FFF788FB216862688A
:10189000086890420ED9401E08600178238AE268E9
:1018A00001FB0325227A2168101AC0B20A7982420C
:1018B00000D208710020FFF773FB284670BD70B599
:1018C00005460C460020FFF769FBE868298A201AC4
:1018D000B0FBF1F12A681068431C13600170BDE889
:1018E00070400020FFF75CBB10B530B1017A426850
:1018F0000368891AC9B21A6006E00E2010BD036899
:101900001A68541C1C601170491EC9B2F7D20068D5
:1019100000210171084610BDC20800F00703012034
:10192000895C9840084070472DE9F041040007D0D9
:10193000044E4FF47A47751C3846A847641EFAD106
:10194000BDE8F081403E00000448017809B18520DF
:101950007047012101700020704700000000002046
:101960002DE9FF411C460378164D174E45F82320FC
:101970000C3545F82340F0CE8DE8F0000C788DF85A
:1019800000404C788DF801408C788DF80240CC787E
:101990008DF803400C798DF805404C798DF80640A0
:1019A0008C6802940C7B8DF80C40497B8DF80D10EF
:1019B00002B1064A6946001D01F01EF804B0BDE8F8
:1019C000F0810000480200208C3E0000F535000048
:1019D0002DE9F041064604780B4815460F4640F8BD
:1019E0002420083040F82430487B10B1084601F02C
:1019F00069FE0DB1054A00E0002223463946301D3C
:101A0000BDE8F04101F062B90C0000207137000020
:101A1000F0B505460478154889B0164640F82420EC
:101A2000124A0869121DA2F1080742F82400487FF3
:101A3000385520226846FEF770FD04942878385CFB
:101A400048B10EB10A4A00E000226946281D01F0A3
:101A500003FB09B0F0BD0EB1064A00E00022694662
:101A600005F10C0001F0ACF9F3E7000020000020C4
:101A7000AD3B0000513A000030B40378054CE35C04
:101A80001BB130BC001D01F01DBB30BC0C3001F09F
:101A900001BA00001C00002030B40378054CE35C60
:101AA0001BB130BC001D01F08FBB30BC0C3001F00D
:101AB00067BA00001C0000200FB408B50399002984
:101AC00004D004AA00926A4600F00FF801B05DF855
:101AD00014FB10B582680446002A05D0D4E904033B
:101AE000216898470020A06010BD2DE9FC47914671
:101AF0000C00804676D014F8011B39B125290ED090
:101B00004046FFF741FB20780028F4D198F80C00FC
:101B1000002867D04046BDE8FC47FFF7DABF002049
:101B2000012221782B291BD02D2902D0302908D160
:101B300002E040F0010001E040F00200641C002AD5
:101B4000EFD100252A290ED02178A1F130020A2AEE
:101B500011D205EB850201EB4205641C303DF1E733
:101B600040F00400EAE7D9F800100B1DC9F8003076
:101B70000968641C0D44217800232E290BD114F828
:101B8000011FA1F130020A2A05D203EB830201EB07
:101B90004203303BF3E76C290DD068290BD069294B
:101BA00021D00BDC252918D0582931D063290ED03B
:101BB000642915D117E014F8011FECE7702969D0EA
:101BC000732932D075291BD0782909D120E0D9F8A2
:101BD0000000011DC9F8001001784046FFF7D4FA53
:101BE000641C90E76CE0D9F800100A1DC9F80020C9
:101BF0000968CDE900500A224046FFF779FCEFE77B
:101C0000D9F800100A1DC9F8002009680A2206E068
:101C1000D9F800100A1DC9F8002009681022CDE982
:101C20000050404602F064F8DAE7D9F800100027C7
:101C30000A1DC9F800200E68C00705D112E0404611
:101C4000761C7F1CFFF7A0FA31780029F7D104E059
:101C5000202140466D1EFFF797FABD42C0D9002DE6
:101C6000F6D1BDE74EB13046FEF7F3FB074604E080
:101C7000202140466D1EFFF787FABD4206D9002D90
:101C8000F6D103E04046761CFFF77EFA3178002952
:101C9000F8D1A5E7D9F80000011DC9F800100568C2
:101CA00030214046FFF770FA78214046FFF76CFA82
:101CB00008200021CDE90001034610222946B0E7A3
:101CC000BDE8FC8770B541EA4201DDE904564FF0FA
:101CD000A04441EA830141EA052104EB800041EA86
:101CE0000641C0F8001770BD70B541EA4201DDE958
:101CF00004564FF0A04441EA830141EA052104EB78
:101D0000800041EA0641C0F8001770BD70B541EA95
:101D10004201DDE904564FF0A04441EA830141EA63
:101D2000052104EB800041EA0641C0F8001770BDB0
:101D300070B541EA4201DDE904564FF0A04441EAA2
:101D4000830141EA052104EB800041EA0641C0F825
:101D5000001770BD1CB500220B460092114601927F
:101D6000FFF7C2FF1CBD1CB500220B4600921146B6
:101D70000192FFF7CBFF1CBD1CB5002100910B4663
:101D8000012201911146FFF7AFFF1CBD1CB50021D8
:101D900000910B46012201911146FFF7B7FF1CBDD0
:101DA0001CB5002100910B46012201911146FFF75D
:101DB000BFFF1CBD4FF0A04202EB8000D0F800270F
:101DC00022F44032C0F80027D0F8002742EA01414F
:101DD000C0F800177047000038B5094B44181B685D
:101DE00000936B4608E000BF53F82010D1F820554F
:101DF00020C2C1F82055401C8442F5D838BD0000EF
:101E0000503E00004FF0A04201218140C2F80C1565
:101E100070474FF0A04221B101218140C2F818154E
:101E2000704702EB80000021C0F80017704742099C
:101E30004FF0000100D1491E00F01F000122824036
:101E40000A4201D001207047002070474FF0A042A5
:101E500001218140C2F8081570474FF0A0420121CE
:101E60008140C2F808157047034908B508440021AD
:101E700001600068009008BD0060004002494058C1
:101E8000012800D0002070470060004030B5154A9E
:101E900001460020D2F8104423460AE0DB681D7991
:101EA000854205D1401C0A28F6DB4FF0FF3030BDDB
:101EB0001B68002BF2D1431CF9D0CB681871D2F803
:101EC000103443B1DB68CC681B682360D2F810245F
:101ED000D268116030BDC2F81014C96800220A60CF
:101EE00030BD0000240400207047FEF7F9BC7047A5
:101EF00008B5034A00924023024A00F005F808BDE5
:101F0000A53500008C020020F0B595B01C461546A2
:101F10000E4608461A9F00F0D7FA182109A8FEF7C6
:101F20002EFB0E97CDE909540023082203A9304661
:101F300000F0DFFA05980690BDF81000ADF81C001F
:101F4000BDF81200ADF81E0000208DF821000399A5
:101F5000082501F00300012802D0022816D02FE046
:101F6000C1F3C200C1F383178C0A8DF82000BA00B8
:101F70002B460FA9304600F0BCFA09A8009006AB2A
:101F80003A460FA9204600F0FBF919E0C1F3C20060
:101F90008C0D8DF82000082C01D2274600E0082780
:101FA0002B463A460FA9304600F0A3FA3D44E41B05
:101FB00009AB06AA39460FA800F04AF9002CEAD16D
:101FC000304600F087FA15B0F0BD00000A4A01293A
:101FD00002EBC00007D0022907D0032907D004294B
:101FE00007D0002070470220704704207047007916
:101FF0007047407970470000B841000010B5FFF706
:1020000074FF04210348FFF741FF02490120C9681A
:10201000487110BDA84100002DE9FF47FFF7CCF83B
:1020200018B1002004B0BDE8F0877D4C0020C4F852
:102030001804BFF34F8F7B49A06800900D684FF0E4
:102040000008284004EB80000CE000BFD4F818041E
:1020500070B961680098814201D8A160E1E7284029
:1020600004EB80000C306946FFF7DAFA0028EDD166
:10207000002001AA009901EA050304EB8303491C2F
:10208000DB6842F82030401C00910228F2D301980E
:1020900000F00301022902D001294DD0A5E0810DF5
:1020A00050228946B2EB905F00D850210E4666F36D
:1020B0009F50019008315C4800F0BDF9070077D0CF
:1020C00000F002FA4346082201A9384600F019FA46
:1020D000009908F1080A2940681A8000001D86420C
:1020E00023D94F4D0C3530B1C2B204EB8101301A07
:1020F00090460C3104E02946F2B20025904628466D
:10210000C6B25346384600F0FCF90AEB08032DB17D
:10211000324629464FEA070000F0F3F9009909F129
:10212000030001EB9000009039E004EB810153467D
:10213000324638460C31EFE7C0F38311062900D34D
:10214000062161F389100190C0F38310801C810087
:10215000354800F070F9070047D000F0B5F9434664
:10216000082201A9384600F0CCF908F10808002639
:102170000FE00098434600EA0501401C04EB810192
:102180000090042238460C3100F0BBF908F1040835
:10219000761C0198C0F38310B042EAD847B1D4F856
:1021A0001054D4F8180478B1384600F093F931E0AF
:1021B0001BE0E8684079012804D12A68284639469E
:1021C00012689047E8680568002DF2D1384600F0A3
:1021D00081F90020FEF7E2FED4F8180408B900984F
:1021E000A0600020FEF7DCFE14E0D4F8104405E007
:1021F0002168204689688847E0680468002CF7D188
:102200000A480B49401AC008022101EB004009A10D
:1022100000F01AF8FEF7D0FF80F0010002E700009E
:10222000240400207000002028420000204200000A
:10223000B84100004261636B656E647320666C7523
:10224000736865640000000000231A4601F0EEB9CF
:102250002DE9F0470E4680461C469246082940D894
:1022600094F80C90002020731946104601F09CF859
:102270000025B54206D218F805201BA12046FFF71D
:102280001BFC03E01AA12046FFF716FC6D1C082D6D
:10229000EFD318A12046FFF70FFC0025B54212D25C
:1022A00018F805707E2F08D8FEF794F80068C05D16
:1022B00010F03E0F01D03A4600E02E220EA120463B
:1022C000FFF7FAFB03E00DA12046FFF7F5FB6D1CBD
:1022D000082DE3D301222146504601F047F884F847
:1022E0000C90BDE8F0870000202530327800000017
:1022F000202020007C00000025630000200000005A
:10230000064910B500200870054800F0E1F80028E3
:1023100003D1044800F02CF9002010BD2404002053
:1023200028420000083F000002480349401AC00844
:102330007047000028420000B841000013B568460D
:10234000FFF764FA08B100201CBD0248009950F85C
:1023500031001CBDB841000070B508480125D0F817
:102360001044057007E0E06845712168204649681F
:102370008847E0680468002CF5D170BD2404002073
:102380002DE9FF4781460C9D00200C462F7B2873CA
:10239000984616462946184601F006F8072E42D2FE
:1023A000DFE806F004090F161F2A360049462846C2
:1023B000FFF782FB37E0494628462268FFF77CFB9F
:1023C00031E0D4E9002349462846FFF775FB2AE0AF
:1023D000A0680090D4E9002349462846FFF76CFB2B
:1023E00021E0D4E90201CDE90001D4E90023494606
:1023F0002846FFF761FB16E004F1080007C88DE8E6
:102400000700D4E9002349462846FFF755FB0AE0B8
:1024100004F108000FC88DE80F00D4E900234946F5
:102420002846FFF749FB00222946404600F09EFF60
:102430002F73BDE8FF872DE9F041058A80462D1FE7
:102440004819C01CB0FBF5F0C6B24046FFF718FAB9
:10245000041E19D00020207101206071E580002742
:102460002546761EC4F800800BE04046FFF708FAC8
:1024700060B16179491C6171286005467F1CC0F814
:102480000080B742F1D32046BDE8F081204600F03D
:1024900002F80020F8E72DE9F041457901466B1E6E
:1024A000002201E00968521C9A42FBD30F680146E2
:1024B000002605E038460C68FFF701FA2146761C35
:1024C000AE42F7D3BDE8F0810121001DFFF7BCB992
:1024D000FFF70ABA10B504460121001DFFF7CAF93B
:1024E00010F0FF0F04D12046BDE81040FFF7D3BF26
:1024F00010BD1CB501920122009201AAFFF747F915
:102500001CBD1CB501920022009201AAFFF73FF901
:102510001CBD0000064910B500204870091D086068
:10252000BFF35F8F0349044800F054F8002010BD4A
:1025300034000020C43E00006002002010B50020DE
:10254000FEF72CFDF1EE100A20F09F00E1EE100ADC
:10255000BFF35F8F05494020C1F880020020FEF7DD
:102560001FFD20BF40BF20BF10BD000004E000E001
:10257000826800219160826811618268516182687D
:10258000D16082685160806801607047024A1060C3
:10259000101D0160704700002C76004003010348C5
:1025A0001844C0F81425C0F810157047007000409A
:1025B00002494058002800D00120704700700040B8
:1025C000034908B50844002202600068009008BD75
:1025D00000700040016009684160AFF3008010B5F1
:1025E000D0E900215368994201D1002104E0D1E9EA
:1025F0000034A34202D01946816010BD0831416009
:10260000F0E74058002800D00120704708B50022AC
:1026100042504058009008BD4058002800D001208A
:10262000704708B5002242504058009008BD4058FD
:10263000002800D00120704708B5002242504058C1
:10264000009008BDD0F80403084000D00120704776
:102650004058002800D00120704708B500224250A1
:102660004058009008BD0000002802D001498001B8
:1026700008477047613E000070B5194D95F8580045
:1026800008B1082070BD0024661E2046FFF7CFFB6E
:1026900010B1281980F83060641CE4B2202CF4D307
:1026A00000242046FEF794FD641CE4B20C2CF8D301
:1026B00000200D4968650B4CC02081F800040126FC
:1026C0004020891FC1F800014FF4BE70FFF7CCFB1A
:1026D000A004C4F8040385F85860002070BD000011
:1026E000E40000200060004006E000E00121B1EBC2
:1026F000507F01D101207047002070472DE9F0473D
:102700000427144E814600244FF001080020FEF7F4
:1027100045FC08FA04F5354203D02046FEF7BEFF1B
:1027200058B10020FEF73CFC27B104F10104AE4390
:10273000E4B2EBD13846BDE8F087074908FA04F067
:1027400000274A681043486089F800403846FEF781
:1027500027FCEFE7FFFF0F00040000202DE9F04108
:1027600014460D00074612D08CB10026FEF7A2FFDA
:1027700078B13846FEF792FF68B1084800EBC70011
:10278000C0F81055C0F814453046BDE8F0810E2061
:10279000FBE70726F8E70826F6E7000000F001400F
:1027A00070B5044601260025A640FEF783FF18B148
:1027B0002046FEF773FF18B102480660284670BD38
:1027C0000825FBE704F5014070B50D4600F038FE22
:1027D00004000FD00020FEF7E1FB207920B100209B
:1027E000FEF7DEFB112070BD012025602071002066
:1027F000FEF7D6FB002070BD2DE9F041254C0646C2
:1028000012200D46C4F808032348017C022918D081
:10281000027C01464FF4807891F82E10012A12D0E4
:102820000222C4F8042301270774466005810022B0
:10283000C26021B3458390F82D103046FFF7A6FE05
:1028400025E0122002E0C2682AB10220C4F8040385
:102850001120BDE8F081C660058361B9474638465E
:10286000FFF7A6FE0028FAD03846FFF7A9FE294652
:102870003046FFF78BFE0220C4F8040307E0294628
:102880003046FFF783FE4046FFF79AFE27600020A0
:10289000DFE7000000700040F401002070B50C4636
:1028A00026490A7C0AB1112070BD2279244D0AB153
:1028B000012A01D100222A6001EB4002137F1BB9DB
:1028C00011F82D3F5B1C0B70E1791177217A51775C
:1028D00021786278302301F0030103EA02121143E8
:1028E000A2784FF4E06303EA02221143E2784FF446
:1028F000805303EA0232114322794FF4E02303EAC2
:102900000242114362794FF4801303EA02521143E9
:10291000A2791B0103EA02620A4B114303EB001286
:10292000C2F81815227AE179FFF738FE207908B14C
:10293000012801D101202860002070BDF401002091
:1029400000750040007000402DE9F0411F4C054625
:1029500094F82C0010B10820BDE8F08144F8101B59
:102960001B4928780860091D68780860E878A07716
:10297000012727770020207060776060154EE07790
:102980006FF00040C6F808034FF48270FFF718FE9E
:10299000B015FFF715FE4FF48A70FFF711FEA87807
:1029A0000D49400181F800048020C91FC1F80001D1
:1029B0000220C6F80403A07F10B10120C6F804036A
:1029C0000348F03807600020C6E70000F40100204B
:1029D000F07500400070004007E000E0044890F807
:1029E0002E0008B1002000E004200249084470478E
:1029F000F4010020007000402DE9FC470C4615460C
:102A000001798046554A01EBC10002EB80069946E8
:102A1000307F10B10820BDE8FC87514AD8F800008B
:102A2000074652F82110FFF7CFFE08B11120F2E758
:102A3000C6E90059207B0128207802D8FFF7E2F987
:102A400001E0FFF70AFA4FF0000ACDF800A0CDF838
:102A500004A02078534652460121FFF769F96078B7
:102A60004FF0FF35FF2806D08146FFF7CBF94846E7
:102A7000FFF796F900E0A946A078FF2809D00022C8
:102A800005460123CDF800A01146CDF804A0FFF7BC
:102A90004FF9A07886F82000E078F077E078FF28FA
:102AA0000BD0217911B1FFF7ADF901E0FFF7D5F9AE
:102AB000E078FFF775F92079B0772178C7F8081525
:102AC000C7F80C95C7F81055A068C7F82405217BF6
:102AD000607B00B10120012904D0022905D003291F
:102AE00008D105E040F0020004E040F0040001E0FD
:102AF00040F00600C7F85405A079C7F8C0050720C4
:102B0000C7F800053068012218B3D8F800006179D1
:102B100040F3073000284FEA411104DB00F1E020C8
:102B200080F8001405E000F00F0000F1E02080F8CC
:102B3000141DD8F8000040F30730002809DB00F02E
:102B40001F0102FA01F14009800000F1E020C0F805
:102B50000011504686F81DA032775CE72402002061
:102B6000883E00002DE9F04106460D464FF48034C2
:102B700000681746AC404BB14FF4A07101EB8501E2
:102B8000FFF744FD3068C0F8044301E0C0F8084393
:102B9000306800EB8500C0F84075BDE8F0810000AA
:102BA000016801220A600079034A00EB400002EB51
:102BB000800002210172704740010020F0B40468D7
:102BC000049E40F20115D4F800728D40AF43C4F862
:102BD00000720468D4F800521D43C4F80052334612
:102BE000F0BCFFF7BFBF00002DE9F04104460E46E0
:102BF00000792C4900EB400001EB8007387A10B1D6
:102C00000820BDE8F0813A60706800254FF4A07894
:102C1000786006E008EB85012068FFF7F7FC6D1C83
:102C2000EDB26079A842F5D82068F17840F307301A
:102C300000284FEA411104DB00F1E02080F8001485
:102C400005E000F00F0000F1E02080F8141D20687E
:102C5000012140F30730002809DB00F01F0201FAD0
:102C600002F24009800000F1E020C0F80021206855
:102C70007278D0F8043562F30103C0F80435206897
:102C8000B278D0F8083562F30103C0F8083520683F
:102C90003278D0F8103562F30303C0F8103539727A
:102CA0000020AEE7400100200179006801EB8102BD
:102CB00002EBC101044A02EB81010622C0F80025A3
:102CC000022081F82D007047700100202DE9FC41A1
:102CD0000646007917460D4600EB8001324A01EBAB
:102CE000C00102EB8104984694F82D1011B1082020
:102CF000BDE8FC812D4951F820103068FFF764FDD4
:102D000008B11120F4E7C4E900780027A76084F82F
:102D1000307084F82F70687B84F832004FF006081A
:102D2000CDE9008703233A4639462868FEF7CAFFF3
:102D3000CDE900870022032311466868FEF7C2FF31
:102D4000D5E900123068C0F80815C0F80C25A9684C
:102D5000C0F824152068012208B3306840F3073119
:102D6000287B00294FEA401004DB01F1E02181F8C3
:102D7000000405E001F00F0101F1E02181F8140DDC
:102D8000306840F30730002809DB00F01F0102FA29
:102D900001F14009800000F1E020C0F8001184F842
:102DA0002D200020A4E7000070010020683E0000F4
:102DB0000149024800F064BEC80100200020004024
:102DC0002DE9F0410546007916460F4600EB40011B
:102DD0002D4A01EBC00102EB810494F82A1011B1D5
:102DE0000820BDE8F081294951F820102868FFF734
:102DF000EBFC08B11120F4E739462846FEF728F924
:102E000066603869206030004FF001062FD03F7FA8
:102E10004FF48E712868FFF70FFC4FF4A2712868F9
:102E2000FFF70AFC28681A49C0F8041328684FEA1B
:102E3000471140F30730002804DB00F1E02080F860
:102E4000001405E000F00F0000F1E02080F8141DF0
:102E5000286840F30730002809DB00F01F0106FA5C
:102E600001F14009800000F1E020C0F8001128685D
:102E70000421C0F800150020A061E06184F8290059
:102E800044F8140FA675ACE7C8010020843E00008A
:102E9000800002002DE9F05F054600794FF40176CD
:102EA00000EB400303EBC000344B03EB8004002035
:102EB000636813B12B68C3F80863A3694FF0000976
:102EC0006BB1E06938B1606810B12868C0F804637C
:102ED0001120BDE8F09FE2610120216105E0C4F806
:102EE0002490A261E160C4F81C9094F82910014379
:102EF00002D1284600F0EEFA60680028286803D066
:102F0000C0F804630020E4E74FF4A2763146FFF7EF
:102F100093FBB2464FF4927B59462868FFF787FB34
:102F200006464FF484712868FFF781FB80465146BE
:102F30002868FFF77CFB074648EA07003043EBD0E0
:102F400056EA070007D12146286800F094FAA169E3
:102F5000606A8142E0D8C4F818900EB10320B8E747
:102F60000FB10F20B5E794F8291001200029296836
:102F700001D00860C6E74860C4E70000C80100202F
:102F80002DE9F05F054600790B4600EB400101EBAF
:102F9000C000244901EB8004284600F045F810B138
:102FA0001120BDE8F09F62614FF00009C4F8209045
:102FB000A36084F828904FF48E784E4641462868E6
:102FC000FFF73AFB28684FF0010AC0F808A0214635
:102FD000286800F0B7FC606808BBD5F800B06769E6
:102FE0000FE000BF94F8280008B10F2615E0414615
:102FF0005846FFF71CFB0028F4D02146584600F045
:10300000A1FC206AB842F2D3574641462868FFF730
:103010000EFB0028F9D02868C760C4F81490304629
:10302000BFE70000C8010020007900EB400101EB80
:10303000C000044901EB80004069002800D0012055
:1030400070470000C80100200149024800F0C6BDD9
:10305000A4010020002000402DE9F041054616465D
:1030600000790F46154A00EBC00102EB810494F889
:10307000201011B10820BDE8F081114951F820104D
:103080002868FFF7A1FB08B11120F4E7394628466C
:10309000FDF79AFF6660386920601EB1397F2846C7
:1030A000FEF77AFA28680821C0F800150020A06110
:1030B000E0616061012184F82010DCE7A4010020B8
:1030C000803E00002DE9F05F044600790E4600EBDB
:1030D000C001DFF8F0A017460AEB81053046FFF784
:1030E00005FBB0B168684FF000084FF4047910B1E7
:1030F0002168C1F80893A8694FF0000B80B1E86916
:1031000048B1686810B12068C0F804931120BDE888
:10311000F09F1020FBE7EF614FF001082E6102E005
:10312000EE60C5E9067B00254FF488712068FFF743
:1031300094FA4FF4A2712068FFF78FFA2068C0F864
:103140003465C0F838752068B8F1000F12D0D0F897
:10315000001241F02001C0F800122079D04600EBA7
:10316000C0010AEB8100406838B12068C0F80493C0
:103170002846CCE701210160EFE74FF4887A4FF44D
:10318000A27951462068FFF763FA0746494620684E
:10319000FFF75EFA06464FF492712068FFF758FA7F
:1031A000014647EA06000843EBD0227902EBC2034E
:1031B00008EB8302C2F818B001B10325002ED7D066
:1031C0000F25D5E7A40100202DE9F04704460E465F
:1031D0000079274900EBC00001EB80051746304617
:1031E000FFF784FA30B1204600F044F820B11120F6
:1031F000BDE8F0871020FBE76F61AE604FF4907779
:103200004FF0000839462068FFF727FA4FF4AC76F4
:1032100031462068FFF721FA2068AA686969C0F87A
:103220004425C0F8481520684FF00109C0F80890FF
:103230006868D0B9BA4651462068FFF709FA0746D0
:1032400031462068FFF704FA0743F4D010B14FF07D
:103250000F0808E02068C0F80C9031462068FFF79E
:10326000F7F90028F9D0002068614046C0E7000067
:10327000A40100200079054900EBC00001EB8000AB
:103280004069002800D0012070470000A401002000
:1032900003490860034801680029FCD0704700001A
:1032A00004E5014000E401402DE9F05F2A4F0646A5
:1032B0004FF0A04A4FF0010B0024381990F950103C
:1032C000491C3CD090F85000314620F0C0052846FB
:1032D000FEF722FB20B3204600F040F881460AEBBF
:1032E0008500D0F80007C0F30148B8F1020F18D0EC
:1032F00002212846FEF75EFD0BFA05F1CAF82015FB
:103300002846FDF773FF57F820204AB14846B9F127
:10331000030F11D0B8F1020F05D0B8F1030F07D099
:103320000DE00321E5E74846B9F1010F04D006E0BE
:103330004846B9F1020F02D1014628469047641C65
:10334000042CBAD3324601210020FEF745FD306837
:103350000028B1D1BDE8F09FE400002002490844F4
:1033600090F8500080097047E400002010B50C462A
:10337000017A052908D0407A38B1084808A10268C6
:103380002046FEF799FB00E01AB106A12046FEF7A1
:1033900093FB2046BDE81040FEF79BBBA000002039
:1033A000257300000D0A000038B5C3880D46044699
:1033B00033B114A0009015A216A12846FEF77CFB9D
:1033C000217A05291CD0607A48B1A088FEF7FEFD5D
:1033D000164951F8202016A12846FEF76DFBA0885B
:1033E0000021FEF7ABFF03461049207A143951F84B
:1033F000202001B02846BDE830400EA1FEF75CBB9E
:1034000038BD00001B5B306D000000001B5B313BD2
:1034100033316D0025734C6F67732064726F707069
:103420006564202825642925730D0A00A00000206A
:10343000257300003C25733E2025733A20000000D0
:103440000349884201D103487047002070470000BB
:10345000002000402800002010B50178002909D183
:1034600040680121FFF7C8F9002803D0BDE81040EB
:10347000FDF70EBD10BD70B5054688690C460028E5
:103480004FF4847128460AD0FFF7D6F8D5F818050E
:10349000626AE1688854606A401C606270BDFFF730
:1034A000CBF8D5F8180570BD1FB501238DF8003095
:1034B000CDE90121D0E90012684690471FBD1FB534
:1034C00001238DF80030CDE90121D0E900126846D2
:1034D00090471FBD10B5044600684FF49271FFF786
:1034E000ABF84FF484712068FFF7A6F8206801213B
:1034F000016010BD054810B50078FFF751F90028AC
:1035000003D0BDE81040FDF7C3BC10BDD8000020BB
:103510003EB5FEF719FA08B1FDF7BAFC1E491F4A7D
:10352000D1E90301CDE9010103208DF806001A4815
:1035300001A9001DFFF758FB08B1FDF7A9FC164CC7
:10354000241D2068D0F810050021C2B24FF47A4043
:10355000FCF748FF02460020009004230221204689
:10356000FFF72CFB2046FFF71BFB246804F5A4742F
:10357000FFF734FA05460A48FFF7C0F808B1FDF72F
:1035800087FC07482A4621460078FFF7E7F800281D
:1035900001D0FDF77DFC3EBD5C3F000069120000DC
:1035A000D80000202DE9F0411400884618D00025ED
:1035B0000E4F032608EB050122460020FDF792F985
:1035C0000544241A40B93878002809D008494FF436
:1035D0007A408847761E05D001203870002CE9D14A
:1035E000BDE8F08100203870FAE700006400002098
:1035F000013F000000B585B00A4601788DF8001043
:1036000041680191017A8DF80810C1680391007C2E
:103610008DF81000044850F822100C3850F8222081
:103620006846904705B000BD540200202DE9F84FD0
:10363000074622489146884605681E46012269468B
:103640001846FDF75BFDDFF878A060B30098002115
:103650000446801C0AE000BF00EA050259F821C0B8
:103660000AEB8202401C491CC2F80CC0B142F3D3E1
:103670004FEA1749FDF7C2FD611C29400AEB8101A1
:1036800049EA00422C40CA600AEB8401C86867F32B
:10369000C50066F3891068F39F2020F00300401CEA
:1036A00020F00400C8609AF8000001E0FEF7B4FCC6
:1036B0000028FBD1FEF704F8BDE8F88F7000002069
:1036C000240400202DE9F041044640F20C602168FA
:1036D000890001F1A041C1F800076168890001F18A
:1036E000A041C1F800072068FEF7B0FB6068FEF754
:1036F000ADFB216840F20D60890001F1A041C1F8E5
:1037000000076168890001F1A041C1F800070420A9
:10371000FEF7AAFF00274FF0A04601252179D6F831
:103720001005C84010F0010F02D0002F1DD010E08E
:10373000217805FA01F0C6F80C050420FEF794FF85
:103740002068FEF783FB0420FEF78EFF7F1C092F05
:10375000E4DB20798540C6F80C550420FEF784FF91
:103760006068BDE8F041FEF771BBBDE8F081000084
:103770001FB50A4601788DF8001001798DF8041004
:1037800041798DF80510017A8DF80610017B8DF8CE
:1037900007100169029140690390044850F8221013
:1037A000083850F82220684690471FBD14000020BA
:1037B0002DE9F04F0C464FF4927887B0054641460C
:1037C000FEF72AFF4FF0020B01274FF4827640B13B
:1037D00041462846FEF725FF31462846FEF71CFFE6
:1037E000E8B14FF482712846FEF716FF010004F19C
:1037F0000C00DFF84C91EA4645F307364FF000081D
:10380000069048D04FF482712846FEF70AFF94F8DC
:103810002000400624D494F82E00C8B120E0A0680F
:10382000C5F80803C4F808B0A068C5F804034FF44D
:10383000B0712846FEF7F0FE18B1D5F800028005F9
:1038400001D42F626F6184F82E7007B0BDE8F08F4D
:103850002146284600F0A6FA80F0010084F82E00E8
:1038600094F8200040073ED414220AF1040006997F
:10387000FCF753FE4FF4B0712846FEF7D2FE4FF42A
:10388000AE712846FEF7CDFE94F8300008B394F8E8
:103890002E00F0B927E04FF4A4712846FEF7C1FED0
:1038A000207B68B14FF40070C5F80002801CA06056
:1038B000C5F80893A068C5F80403AF602F62C4E799
:1038C00014220AF104000699FCF727FE94F8300050
:1038D00048B90020C5F80002C4F80880C5F808936C
:1038E0003046FDF738FAD5F8C404C5F8C40481079A
:1038F00002D58DF8007011E0410702D58DF800B0B7
:103900000CE0C00701D0032003E094F82E0018B1AA
:1039100004208DF8000001E08DF8008094F830005C
:1039200008B984F82F8094F82000400703D594F854
:103930002E00002889D0D4E900216846904784E70A
:1039400002029C0170B50C4605464FF48E71FEF7DD
:1039500073FE216AA068415C206A401C2062C5F8A1
:103960001C1570BD1FB500228DF8002002918168E2
:1039700001914261D0E90012684690471FBD1FB512
:1039800000228DF800200291816801914261D0E906
:103990000012684690471FBD0178022901D0012915
:1039A00002D14068FDF774BA704700007CB5017819
:1039B000254DA1B301290BD002291DD18DF800108E
:1039C000C068691C01900122C81DFEF755F830E05F
:1039D000017A59B1406801781C48FDF77FFA1B4C09
:1039E000012650B18DF8006001900DE016490122CA
:1039F000491CC81DFEF740F87CBDA068E168814203
:103A000005D000208DF80000696868468847A068E6
:103A1000E168081AA1888842E8D9AE707CBDFFE74A
:103A20000A4809491030FDF73EFA30B103208DF8FD
:103A30000000696868468847F0E70349012201F100
:103A40000800FEF729F8E9E73C0000206C0200209E
:103A50001FB50A4601788DF8001041680191017A7E
:103A60008DF80810C0680390044850F82210001F19
:103A700050F82220684690471FBD00002400002017
:103A80002DE9FF470C4605464FF40071FEF7DAFDBD
:103A900001274FF40178002618B34FF49279494674
:103AA0002846FEF7C4FDE0B149462846FEF7C4FDAE
:103AB000C5F8088394F8290000B96F6002208DF8DA
:103AC0000000D5F88004C5F880040390A069029036
:103AD000E0680190A661E661D4E90012684690476B
:103AE00028E004212846FEF7ADFD18B34FF4847199
:103AF0002846FEF79CFDE8B121462846FFF7BBFCAF
:103B0000616AA069884215D1E06938B1E268616AEA
:103B1000A0612069E6616662E06008E094F829002F
:103B200000B96F60C5F80883A661E268616A204643
:103B3000FFF7C5FC4FF48E7841462846FEF777FD27
:103B400080B16069216A814202D294F8280028B3CA
:103B500041462846FEF770FD606918B1616920464C
:103B6000FFF70DFF4FF4A27841462846FEF75FFDB0
:103B7000002818D041462846FEF75EFD94F829003B
:103B800000B12F60A06900280DD0A661E268616ACB
:103B900004B02046BDE8F047FFF791BC2146284617
:103BA000FFF7D0FEDEE7BDE8FF8700001FB50A463D
:103BB00001788DF8001041680191017A8DF80810A4
:103BC000C0680390044850F82210001F50F82220CB
:103BD000684690471FBD0000240000202DE9FF41EA
:103BE0000C464FF4927705463946FEF731FD002624
:103BF000B8B139462846FEF730FD02208DF80000A6
:103C0000D5F88004C5F880040390D5F83C050290EF
:103C1000E0680190A661E661D4E900126846904729
:103C200023E04FF4887739462846FEF711FDE0B1CE
:103C300039462846FEF711FDD5F83C15A0698842A3
:103C400013D1E06960B1E268D5F8000220F02000ED
:103C5000C5F80002E069A0612069E661E06001E06A
:103C6000A661E2682046FFF71FFC4FF4A2773946B1
:103C70002846FEF7EDFC68B139462846FEF7EDFC14
:103C8000A06938B1A661E661D5F83C152046E26826
:103C9000FFF70AFC4FF4907631462846FEF7D8FC31
:103CA00060B131462846FEF7D8FC0120E860606923
:103CB00020B1D5F84C152046FFF754FE4FF4AC76F2
:103CC00031462846FEF7C4FC00280ED0314628466F
:103CD000FEF7C3FC6069002807D0D5F84C1504B086
:103CE0002046BDE8F041FFF73DBEBDE8FF81000082
:103CF0002DE9F05F8346DDE90A4A994690460D4674
:103D00000846012703E000BFB0FBF8F07F1C4045E8
:103D1000FAD2B94500D94F465FEACA7012D18CB1C8
:103D20005FEA8A7002D5B9F1000F01D0202607E0C2
:103D3000302605E031465846641EFDF725FA0CB1E1
:103D4000A742F7D35FF00106B9F1010F02D9A9F13B
:103D5000010903E0B5FBF6F0404502D306FB08F687
:103D6000F2E7DFF83C9000BFB5FBF6F000FB16551C
:103D700019F800105846FDF707FAB6FBF8F6002EC2
:103D8000F2D15FEACA7009D0002C07D0A74205D251
:103D900020215846641EFDF7F7F9F5E7BDE8F09FCE
:103DA0009C3E000010B50B7B0122E3B1012B1DD01E
:103DB000022B0FD0032B24D18B685B0304D5D0F8E2
:103DC0004C350C69A34216D18B685B0319D4D0F82B
:103DD0004C3506E0D0F84C350C69A3420BD1D0F835
:103DE0003C35496905E0D0F84C3501E0D0F83C3568
:103DF00009698B4205D00022C0F800250621C0F8D1
:103E00000015104610BD000010B500290AD0087832
:103E1000002807D005487844FCF7E4FB002801D0CF
:103E2000002010BD0248784410BD0000820200004E
:103E30007A0200004FF04070E1EE100A7047000077
:103E40000338FDD87047111213140D0E0F10000027
:103E50000000005000000000000000000000000012
:103E60000338FDD870470000410900000100000040
:103E70000000000000000000000000000000000042
:103E800049300000B12D000051090000FFFFFFFF85
:103E90000006FF0000000040000000003031323317
:103EA0003435363738394142434445460000000036
:103EB0000000000000000000000000000000000002
:103EC00000000000AC3E0000C43E00000400000002
:103ED000FFFFFFFFFFFFFFFFFFFFFFFFFFFFFFFFF2
:103EE00000000000000000000000D60106010000F4
:103EF000F11E0000EF1E0000E91E0000000000009F
:103F00000338FDD8704700008C0300207F000000BC
:103F10000C0400201B0000001A00000000006806CE
:103F2000020000000100000000400040000000000E
:103F300001000000FFFFFFFF06FF0000000000403F
:103F40000000000008000000060000000000000063
:103F5000000000000000000000E0D70102000601A0
:103F600000A000400104000004000306000000005F
:103F7000000000000200000300000000009000406C
:103F80000004000004000306000000007761726E68
:103F9000696E670064656275670000001B5B313BFA
:103FA00033306D001B5B306D000000001B5B313B4C
:103FB00033316D001B5B313B33326D001B5B313B9A
:103FC00033336D001B5B313B33346D001B5B313B86
:103FD00033356D001B5B313B33366D001B5B313B72
:103FE00033376D00696E666F000000006572726F96
:103FF000720000004750494F54450000505049009E
:1040000054494D45520000005457494D00000000EE
:1040100055415254450000005541525400000000E3
:104020005052530053414144430000005350494D06
:10403000000000007077725F6D676D740000000013
:104040006170705F627574746F6E0000736F72746C
:104050006C697374000000006170705F74696D6555
:10406000720000007274745F6C6F675F6261636BF3
:10407000656E6400617070003C420000000000202A
:10408000E40000003C02000020430000E4000020A7
:104090004C2C0000580200001001000043000000FA
:1040A000F8FFFFFF00404040404040404040414159
:1040B00041414140404040404040404040404040FD
:1040C0004040404040050202020202020202020297
:1040D0000202020202202020202020202020200294
:1040E0000202020202029090909090901010101024
:1040F00010101010101010101010101010101010C0
:104100000202020202028888888888880808080853
:10411000080808080808080808080808080808081F
:104120000202020240000000000000000000000047
:10413000000000000000000000000000000000007F
:10414000000000000000000000000000000000006F
:10415000000000000000000000000000000000005F
:10416000000000000000000000000000000000004F
:10417000000000000000000000000000000000003F
:10418000000000000000000000000000000000002F
:10419000000000000000000000000000000000001F
:1041A0000000000000000000F03E000000000000E1
:1041B0006440000068000020F43F000000000000A0
:1041C000FC3F000000000000004000000000000074
:1041D0000840000000000000104000000000000047
:1041E0001840000000000000204000000000000017
:1041F00024400000000000002C40000000000000EF
:1042000034400000000000004040000000000000BA
:104210004C4000000000000058400000000000007A
:1042200074400000000003037C00002074000020A4
:104230007C000020CC0200201800000000000000DC
:10424000000000000000000000000000000000006E
:10425000000000000000000000000000000000005E
:10426000000000000000000000000000000000004E
:10427000000000000000000000000000000000003E
:10428000000000000020004000000000002000406E
:10429000000000000000000000000000000000001E
:1042A0000000000000000000FF000000FF00000010
:1042B00000000000000000000000000000000000FE
:1042C000000000000000000000000000EC3F0000C3
:1042D0008C3F0000E43F0000943F0000A43F00003A
:1042E0009C3F0000AC3F0000B43F0000BC3F00001A
:1042F000C43F0000CC3F0000D43F0000DC3F000082
:10430000000000000000000000300040000000003D
:104310000100000000000000000000000090D00339
:0400000500000201F4
:00000001FF
