:020000040000FA
:10000000882B0020D5030000DD030000DF03000083
:10001000E1030000E3030000E5030000000000002E
:10002000000000000000000000000000E7030000E6
:10003000E903000000000000EB030000ED030000F6
:10004000EF030000EF0300003D0D0000B1090000C8
:10005000C1090000EF030000B507000069080000B7
:10006000EF030000ED0C0000010D0000EF030000A5
:10007000EF030000EF030000EF030000EF030000B8
:10008000EF03000059080000EF030000EF03000039
:10009000EF030000EF030000EF030000EF03000098
:1000A000EF030000EF030000150D0000290D000014
:1000B000EF030000EF03000000000000000000005C
:1000C000EF030000EF030000EF030000EF03000068
:1000D000EF030000EF030000EF030000000000004A
:1000E0000000000000000000000000000000000010
:1000F0000000000000000000000000000000000000
:1001000000000000000000000000000000000000EF
:1001100000000000000000000000000000000000DF
:1001200000000000000000000000000000000000CF
:1001300000000000000000000000000000000000BF
:1001400000000000000000000000000000000000AF
:10015000000000000000000000000000000000009F
:10016000000000000000000000000000000000008F
:10017000000000000000000000000000000000007F
:10018000000000000000000000000000000000006F
:10019000000000000000000000000000000000005F
:1001A000000000000000000000000000000000004F
:1001B000000000000000000000000000000000003F
:1001C000000000000000000000000000000000002F
:1001D000000000000000000000000000000000001F
:1001E000000000000000000000000000000000000F
:1001F00000000000000000000000000000000000FF
:1002000000F002F800F065F80AA090E8000C8244C3
:100210008344AAF10107DA4501D100F05AF8AFF2A0
:10022000090EBAE80F0013F0010F18BFFB1A43F0D4
:1002300001031847E4420000044300000A444FF061
:10024000000C10F8013B13F0070408BF10F8014B35
:100250001D1108BF10F8015B641E05D010F8016B7A
:10026000641E01F8016BF9D113F0080F1EBF10F8DE
:10027000014BAD1C0C1B09D16D1E58BF01F801CB01
:10028000FAD505E014F8016B01F8016B6D1EF9D584
:100290009142D6D370470000002300240025002699
:1002A000103A28BF78C1FBD8520728BF30C148BFD9
:1002B0000B6070471FB503F097FF00F095F904003D
:1002C0000020002103F07AFF401C60601FBD10B5C4
:1002D00010BD00F0FFF91146FFF7ECFF01F0D8FB6D
:1002E00000F031FA03B4FFF7F2FF03BC00F034FA78
:1002F00030B4044654E8000F0D4644E80053002B88
:10030000F8D1156030BC704730B4044654E8000F93
:1003100040EA010544E80053002BF7D1156030BCDA
:10032000704730B4044654E8000F00EA010544E881
:100330000053002BF7D1156030BC704730B4044631
:1003400054E8000F80EA010544E80053002BF7D180
:10035000156030BC704730B4044654E8000F00EB21
:10036000010544E80053002BF7D1156030BC7047FD
:1003700030B4044654E8000FA0EB010544E80053F4
:10038000002BF7D1156030BC704770B404464FF0B5
:10039000000054E8006F0D68AE4207BF44E8002338
:1003A000012044E800630E60002B1CBF0020F0E732
:1003B00070BC704730B4044654E8000F88422CBF2C
:1003C000451A054644E80053002BF5D1156030BCB2
:1003D000704700000948804709480047FEE7FEE7EC
:1003E000FEE7FEE7FEE7FEE7FEE7FEE7FEE7FEE7E5
:1003F00004480549054A064B70470000150A0000ED
:1004000001020000880B0020882B0020881B0020A0
:10041000881B002010B500F0E7F8001D10BD00BFDC
:100420009D3D0000B2F120030AD5C2F1200320FA5D
:1004300002F001FA03F321FA02F140EA03007047E7
:1004400021FA03F04FF00001704700000FB4044997
:1004500010B503AA029800F0CBF810BC5DF814FBAD
:100460003C00002000F0E5BE10B5431C02E010F88F
:10047000011B71B18107FAD14FF0013202C88C1A09
:100480008C4314EAC211F9D0C01A0A0603D0C01E68
:1004900010BDC01A10BD0A0401D0801E10BD090293
:1004A000FCD0401E10BD032A40F2308010F0030C37
:1004B00000F0158011F8013BBCF1020F624498BFB7
:1004C00011F801CB00F8013B38BF11F8013BA2F154
:1004D000040298BF00F801CB38BF00F8013B11F0CF
:1004E000030300F02580083AC0F0088051F8043B6F
:1004F000083A51F804CBA0E80810F5E7121D5CBFDC
:1005000051F8043B40F8043BAFF30080D20724BF0E
:1005100011F8013B11F801CB48BF11F8012B24BFA2
:1005200000F8013B00F801CB48BF00F8012B7047F1
:1005300010B5203AC0F00B80B1E81850203AA0E87E
:100540001850B1E81850A0E81850BFF4F5AF5FEAB2
:10055000027C24BFB1E81850A0E8185044BF18C965
:1005600018C0BDE810405FEA827C24BF51F8043B0C
:1005700040F8043B08BF7047D20728BF31F8023B60
:1005800048BF11F8012B28BF20F8023B48BF00F8F4
:10059000012B70474FF0000200B513469446964673
:1005A000203922BFA0E80C50A0E80C50B1F1200186
:1005B000BFF4F7AF090728BFA0E80C5048BF0CC034
:1005C0005DF804EB890028BF40F8042B08BF704792
:1005D00048BF20F8022B11F0804F18BF00F8012B04
:1005E000704770477047704700487047480B0020BD
:1005F000074B70B50D467B4400F015F804462846BD
:1006000000F024F810B14FF0FF3070BD204670BDEF
:10061000390C000000487047280B002001694A1C73
:1006200002610878704700B58FB0CDE90131002133
:10063000059105497944CDE903101146684600F05B
:100640006EF80FB000BD0000E5FFFFFF007B00F07B
:10065000800070474FF0013C50F8042B51F8043BE8
:100660009A4221D1A2EB0C03934313EACC1317D186
:1006700050F8042B51F8043B9A4215D1A2EB0C031D
:10068000934313EACC130BD150F8042B51F8043BDD
:100690009A4209D1A2EB0C03934313EACC13DBD0AB
:1006A0004FF00000704700BFD01A01BAB1FA81F1D3
:1006B00001F0180122FA01F0CB40C1F12001DBB2B8
:1006C000C0B2C01A2CFA01F3D11A914311EAC31136
:1006D000E6D170477546FFF79DFFAE4605006946B7
:1006E000534620F00700854618B020B5FFF780FE7E
:1006F000BDE820404FF000064FF000074FF0000823
:100700004FF0000B21F00701AC46ACE8C009ACE8A3
:10071000C009ACE8C009ACE8C0098D4670472DE9B6
:10072000F04106460024D6E90170F568804630465F
:1007300003E04146B847641C3046A8470028F8D17A
:100740002046BDE8F08110B50446AFF30080204696
:10075000BDE81040FFF7C6BD01491820ABBEFEE75B
:10076000260002007047000010B503F023F800F0E7
:100770002DFD00F03BFE00F0D1FE00F087FE00F002
:1007800073FD0B4C208803F071F8A08980B203F050
:1007900081F8208980B203F08DF8608980B203F07F
:1007A00099F8E089BDE8104080B203F0A3B80000DA
:1007B000C00000202DE9F8430025DFF894804FF4B5
:1007C000807601242F460095304601F0DFFC38B1D9
:1007D000D8F80403204203D0304601F0CDFC254375
:1007E000361D64007F1CB6B2082FEDD34FF4BE74E3
:1007F000204601F0CBFC48B1204601F0BDFC45F09D
:1008000000456A460121002001F072FC15F0FF0F3F
:1008100016D0012600242E420ED008EB8401D1F818
:100820001005D1F81015C0F304200A4AC1F30141A4
:1008300052F8242002B190477600641C082CEAD3B9
:10084000002D02DA684602F081FEBDE8F883000060
:10085000006000408401002002490248091F096825
:1008600000680847440000202DE9FE434FF48278D9
:10087000404601F0CDFF4C4F00254C4C012600B303
:10088000404601F0CDFF94F82E0010B194F82F10DF
:10089000D1B18DF80050616801912189ADF808103F
:1008A000E26832B1218B618362602181E56010B121
:1008B00002E0257400E03E6021686846884784F8BD
:1008C0002F5094F82E0060B34FF48077384601F033
:1008D0009FFF30B3384601F0A3FF628B94F82D10D0
:1008E0008A420AD9A2EB010080B260832289A2EB7E
:1008F0000000626802EB400005E007D1E06828B123
:1009000084F82F60658301F07BFF04E08A4202D106
:1009100084F82F606583404601F082FF2248001D65
:1009200006604FF48877384601F072FF48B13846C8
:1009300001F076FF257402208DF8000021686846DA
:1009400088474FF48A77384601F062FF28B138466D
:1009500001F066FF2574BDE8FE834FF000484FF4B8
:100960008C7967691DE000BFB7FA87F028FA00F1BB
:1009700009EB80058F43284601F04AFF88B12846DD
:1009800001F04EFFA5F58C75E8088DF8040045F3DD
:100990008000401C8DF800608DF8050021686846D5
:1009A0008847002FE0D1D6E7007000409402002075
:1009B0000149024803F0A8B81002002000300040AE
:1009C000F8B54FF040200446114E4FF48C7101F001
:1009D00048FF00281AD00025C4F81851D4F818018F
:1009E0000090F07F3446FF2806D0A17F11B101F0BE
:1009F00095FB01E001F0B9FB65772572D4E9002190
:100A000001B004F10800BDE8F0401047F8BD000057
:100A1000C4020020F0B5A449A4484FF080540B68EC
:100A2000D4F830210078D4F83411551CC0F30310E9
:100A300006D0944601270026BCF1060F03D00AE039
:100A400003F0FF0CF6E7B4F82453DFF864C2C5F3F3
:100A50000425CCF80050DDB2062D06D1032804D1C0
:100A6000DFF854C2934DCCF87450551C04D0944612
:100A7000BCF1060F03D00AE003F0FF0CF8E7D4F84E
:100A80004452DFF838C2C5F34235CCF80050DDB22D
:100A9000062D08D1032806D1894DD5F800C02CF0C9
:100AA000807CC5F800C0551C04D09446BCF1060FEC
:100AB00003D00BE003F0FF0CF8E74FF08045C5F8DA
:100AC0000C61C5F810617D4D2D1F2E60DDB2062D25
:100AD00008D1032806D1DFF8E4C103250CF1640C2A
:100AE000CCF80050DDB2062D10D103280ED1DFF86E
:100AF000D4C10525CCF80050724D78352F60714D6A
:100B000008352E600CF104063F253560551C04D0D5
:100B100016460D46062E03D05BE0DEB20546F9E729
:100B2000ED1E012D55D9684D2D68684E3560664D16
:100B30002D1D2D68361D3560634D08352D68361D19
:100B40003560614D0C352D68361D35605E4D1035B4
:100B50002D68361D35605C4D14352D68361D3560A9
:100B6000594D18352D68594E20363560564D1C3577
:100B70002D68361D3560544D20352D68361D356085
:100B8000514D24352D68361D35604F4D28352D6863
:100B9000361D35604C4D2C352D68361D35604A4D5F
:100BA00030352D68494E40363560474D34352D6817
:100BB000361D3560444D38352D68361D3560424D43
:100BC0003C352D68361D35603F4D40352D68361D4E
:100BD0003560551C03D01646062E02D007E0DEB263
:100BE000FAE7D4F858523A4E05F04F053560551CD7
:100BF00003D01346062B02D008E0DBB2FAE73548F3
:100C00000368DB0702D06FF001030360062A07D1F7
:100C1000C91E022904D93048016841F4806101608D
:100C200027487438016841F470010160BFF34F8FA9
:100C3000BFF36F8FD4E94C104FF01022062907D173
:100C4000C01E032804D9D2F808021C491C310860D0
:100C5000D2F80002002803DBD2F8040200281FDAD1
:100C6000012002F041FC1521C2F800121B48036864
:100C7000002BFCD0C2F8041201680029FCD000202F
:100C800002F032FCBFF34F8F0D48F0380168144A70
:100C900001F4E06111430160BFF34F8F00BFFDE736
:100CA000114910480860F0BDE00F00F0E80F00F0B7
:100CB000403501400DF0ADBA00C007403C05004092
:100CC000FCED00E0105600400404001020C5004078
:100CD000E40E0040000400403C17004000E40140E6
:100CE0000400FA050090D00380010020042202498C
:100CF000024800F04FBE0000E001002000900040DC
:100D000004220249024800F045BE0000EC01002028
:100D100000A0004006220249024800F03BBE00004D
:100D2000F801002000A0014006220249024800F01C
:100D300031BE00000402002000B0014001480068FC
:100D4000004700000C000020002809DB00F01F0213
:100D5000012191404009800000F1E020C0F880129C
:100D60007047000010B572B601F040FC01F0B2FA15
:100D70000028FBD111481249401AC408012000EB99
:100D8000044010A101F0BEFB11480068C00700D06C
:100D900000BE022000EB04400EA101F0B3FBBFF344
:100DA0004F8F0B48E43801680E4A01F4E0611143AB
:100DB0000160BFF34F8F00BFFDE70000C046000099
:100DC00058460000466174616C206572726F720053
:100DD000F0ED00E053797374656D2072657365748E
:100DE000000000000400FA050EB500210091CDE9D5
:100DF00001106A4644F20100FFF7B4FF0EBD10B5C2
:100E00008268C368934203D000F000FA002010BD4E
:100E1000052010BD29B112B1531E134203D0092081
:100E200070470E2070470160838000218160C1609F
:100E30000846704710B58268C3689A1A83889A4238
:100E400003D800F0EDF9002010BD042010BD000013
:100E5000F0B5244E89B01F460D00044672603FD0A5
:100E6000A888296882B22048FFF7D4FF002835D12E
:100E7000A889A96882B21C481030FFF7CBFF002870
:100E80002CD1202219496846FFF752FB6069069071
:100E9000207C00B101208DF814008DF81C70607C5E
:100EA00000B10E208DF81500E0680290A068039054
:100EB00020680190606800900A480D4A6946083031
:100EC00000F006FF002809D1B0702068401C05D052
:100ED00004490122491CC81D00F02EFF09B0F0BDD5
:100EE0000720FBE7200000200C0300205C420000EC
:100EF000053D000010B501461048FFF79BFF0400B8
:100F000019D10F480F4A0178515C19B1001D02F048
:100F100059FA02E00C3002F0CFF860B908490748EE
:100F20000839FFF76CFF30B9054901220839044838
:100F300000F012FF0446204610BD00001C030020F4
:100F4000280000200000002000F002B800F008B8DF
:100F500072B602480168491C016070471400002005
:100F600003490868401E086000D162B6704700005F
:100F7000140000202DE9F041064608680C46411C8B
:100F80004FF0A0474FF0010506D005FA00F1C7F871
:100F90000815206801F07DF86068411C02D000212E
:100FA00001F05CF83168A069C1F82405607D217DFD
:100FB00032680843C2F86C05D4E900123068C0F802
:100FC0000C15C0F81425207D012815D1A068411CFE
:100FD00002D0002101F042F8E068411C05D08540B4
:100FE000C7F80855E06801F054F8D4E902123068F7
:100FF000C0F80825C0F81015BDE8F0812DE9F041D2
:10100000064608680C46411C4FF0A0474FF001050A
:1010100006D005FA00F1C7F80815206801F043F87A
:101020006068411C02D0002101F021F83168A069FC
:10103000C1F82405607D227D31681043C1F86C053C
:10104000D4E900123068C0F81425C0F80C15207DD2
:10105000012815D1A068411C02D0002101F007F839
:10106000E068411C05D08540C7F80855E06801F0EC
:101070001AF8D4E902123068C0F80825C0F8101533
:10108000BDE8F0812DE9F0470546861C91460F46E4
:101090004FF0010A0020FFF757FF1B4C04F21C48D9
:1010A00060683860D4E90101184F401A3968081A9D
:1010B0000EE00121404600F06FFD00F097FC014674
:1010C000404600F069FDD4E90101401A3968081A68
:1010D000401C8642EDD8B9F1000F03D0052065F31E
:1010E000891002E0062065F39F5061683A6811405C
:1010F00004EB8101C8606068304460600020FFF745
:1011000025FF5046BDE8F0872C0400206C0000202D
:1011100070B50D4604460A2902D10D21FFF7F8FFEC
:10112000A0682268411CA1601554D4E901018142E4
:1011300004D32046BDE8704000F02BBE70BD000017
:10114000044881684068814201D101207047002035
:10115000704700002C04002005494FF0FF3208289A
:1011600041F8202002D3084480F84820704700004E
:1011700084010020F0B54FF0FF3512B1002308269E
:1011800001E008230C260C4C05E000BF54F8237046
:101190007F1C04D05B1CB342F8D32846F0BD261850
:1011A0005DB286F8305044F82310002AF5D1E118DA
:1011B00081F84800F1E7000084010020024908445A
:1011C00090F9300070470000840100200348034973
:1011D0000088103940BA088070470000D000002015
:1011E00001490020087070475901002010B5002106
:1011F000024800F0DCFC80F3100010BD480800201D
:1012000001490120087070475C01002082688388D2
:101210001A4003689A5C0A708168491C81607047B3
:10122000C26883881A4003689954C168491CC16028
:10123000704710B50446C0B2FFF75CFE204610BDF3
:1012400010B501F0AFFA01F0C1FA024901200860BF
:1012500010BD00007805004001490120087070476A
:1012600059010020FFF7CCBF70B59FED5D0A5D4AC4
:101270000220B0EE401A02F10C0100BF02EB800325
:1012800053ED010AC3ED000A01EB8003401E53ED4C
:10129000010A0028C3ED000AF0DC534B03F180057E
:1012A000188803F18C0400EE900A0020F8EE600A22
:1012B000C2ED000A05EB80060028D6ED000A02EB1D
:1012C0008006D6ED001A00EEA11A09DD04EB8006B7
:1012D000D6ED000A01EB8006D6ED001A00EEE11A09
:1012E000401C0228E6DDD4ED000AC1EE201AF0EE23
:1012F000400AC1ED001A3C49C3ED051A603191ED79
:10130000001A81ED011A083191ED001A81ED011AE0
:1013100008390020C1ED001AA1F1200501F10802F1
:10132000A1F1180405EB8006002896ED001A01EBE8
:101330008006D6ED001A41EE210A09DD04EB800695
:1013400096ED001A02EB8006D6ED001A41EE610A16
:10135000401C0128E6DDD4ED001A234980EEA11AD5
:10136000703182ED001A83ED061AD1ED000AC1ED4D
:10137000010A0831D1ED000AC1ED010A0839002047
:1013800081ED001AA1F1500501F10802A1F1480414
:1013900005EB80060028D6ED000A01EB800696EDED
:1013A000001A00EE810A09DD04EB8006D6ED000A82
:1013B00002EB800696ED001A00EEC10A401C0128DF
:1013C000E6DD94ED001AC0EE010AC2ED000ABDEEA2
:1013D000E00AC3ED070A10EE100AD88170BD0000C4
:1013E00000000000EC080020C000002070B5254A75
:1013F0009FED230A022002F10C0100BF02EB8003E3
:1014000053ED010AC3ED000A01EB8003401E53EDCA
:10141000010A0028C3ED000AF0DC1B4B03F1800534
:10142000188803F18C0400EE900A0020F8EE600AA0
:10143000C2ED000A05EB80060028D6ED000A02EB9B
:10144000800696ED001A00EE810A09DD04EB8006A5
:10145000D6ED000A01EB800696ED001A00EEC10AF7
:10146000401C0228E6DD94ED001AC0EE010AC1ED31
:10147000000ABDEEE00A10EE100A988170BD00006F
:1014800000000000D4080020C000002070B52249F0
:101490009FED200AD1ED000AC1ED010A0831A1F14A
:1014A0005803D1ED000AC1ED010A1888083900EE91
:1014B000900A0020A1F11005F8EE600A01F108027F
:1014C000A1F10804C1ED000A05EB80060028D6ED65
:1014D000000A01EB800696ED001A00EE810A09DD94
:1014E00004EB8006D6ED000A02EB800696ED001AAA
:1014F00000EEC10A401C0128E6DD94ED001AC0EEA2
:10150000010AC2ED000ABDEEE00A10EE100A588191
:1015100070BD0000000000001001002070B52249DD
:101520009FED200AD1ED000AC1ED010A0831A1F1B9
:101530003803D1ED000AC1ED010A1888083900EE20
:10154000900A0020A1F11005F8EE600A01F10802EE
:10155000A1F10804C1ED000A05EB80060028D6EDD4
:10156000000A01EB800696ED001A00EE810A09DD03
:1015700004EB8006D6ED000A02EB800696ED001A19
:1015800000EEC10A401C0128E6DD94ED001AC0EE11
:10159000010AC2ED000ABDEEE00A10EE100A188141
:1015A00070BD000000000000F000002002F0D2B981
:1015B00010B51D2000F068F8C82001F085F91E2044
:1015C00000F062F8C82001F07FF91F2000F05CF8FD
:1015D000BDE81040C82001F077B910B5112000F027
:1015E00053F8102000F050F80021122000F048FDC0
:1015F0000021142000F044FD00210F2000F040FDE8
:101600000021BDE810400E2000F03ABD2DE9F04168
:1016100000F0EAF8FFF7E1FF00F084F800F01EF8B0
:10162000064E14254FF47A47741C3846A0476D1EA9
:10163000FAD1BDE8F04102A0FEF708BF0042000069
:10164000696E69745065726970686572616C732047
:10165000436F6D706C657465640A000010B501F02D
:10166000F9F908B1FFF7C0FBBDE8104000F042B83F
:1016700010B50446012100F058FD4FF0A0410120B3
:10168000A040C1F80C0510BD10B50446012100F0C2
:101690004CFD4FF0A0410120A040C1F8080510BD4D
:1016A00010B50446012100F040FD4FF0A040D0F8F5
:1016B00004250121A14021EA0203C0F808351140A8
:1016C000C0F80C1510BD00002DE9F041084E0A25A8
:1016D0004FF47A47741C3846A0476D1EFAD1172084
:1016E000FFF7D2FFBDE8F0411820FFF7CDBF0000A3
:1016F0000044000008B50948094A6946806800901E
:1017000003208DF801000D2001F03EF908B1FFF72C
:101710006BFB01210D2001F0E7F808BD1844000023
:10172000591200001FB5104A0023D2E90401D26902
:10173000CDE900010D208DF802000C208DF800008D
:101740004FF080500392029000208DF80C00022090
:101750008DF804001A466946034800F075FA00281F
:1017600001D0FFF741FB1FBDC043000010B5FFF7DC
:101770001FFFFFF71BFFBDE8104001A0FEF766BE8C
:10178000696E697453656E736F727320436F6D7009
:101790006C657465640A00000EB51149114AD1E9FF
:1017A0000201CDE9010101A90D4801F0E9FA08B1F2
:1017B000FFF71AFB0A480068D0F810050021C2B2F2
:1017C0004FF4FA30FEF72EFE02460120014600904B
:1017D0000223034801F0BEFA014801F0ADFA0EBD44
:1017E000084400006512000000B58BB018220C49B7
:1017F0006846FEF79DFE0B4806900B494FF480703B
:10180000CDE9070109900723084A06A96846FFF7B2
:101810001FFB002801D0FFF7E7FA0BB000BD000066
:10182000E043000004090020040A0020F13C00000D
:101830002DE9FC5F0E008346DDE90C47C6F1000090
:1018400098469246814600D40846012503E000BF31
:1018500090FBFAF06D1C5045FADAA84500D94546D0
:1018600024B1002E01DB780700D5641EB80702D52D
:10187000B8F1000F0AD0F80708D13CB1A54205D253
:1018800020215846641EFFF743FCF6E7002E02DADB
:101890004E462D2102E0780703D52B215846FFF74D
:1018A00037FC07F0030002280BD1B8F1000F08D174
:1018B0003CB1A54205D230215846641EFFF728FCF2
:1018C000F6E7CDE90047434652463146584602F016
:1018D000E9FBBDE8FC9F000070B50D4604460068BA
:1018E0004FF4887100F0E9FF4FF49071206800F028
:1018F000E4FF4FF49271206800F0DFFF4FF4A27113
:10190000206800F0DAFF4FF4AC71206800F0D5FFDA
:1019100020681249C0F804132068690740F30730B3
:10192000090E002804DB00F1E02080F8001405E037
:1019300000F00F0000F1E02080F8141D206840F353
:101940000730002809DB00F01F0201219140400907
:10195000800000F1E020C0F8001170BD10034200CB
:10196000024600201268530713D502F00300012835
:1019700002D002280CD105E0C2F383100B68801C52
:10198000184404E00223086803EB925210440860F4
:10199000012070472DE9F04117468846064600248D
:1019A00017E000BF4FF4A07000EB84054FF48030C7
:1019B0007159A04059B1D6F80413014207D0294605
:1019C000304600F053FFD8E9002128469047641CB8
:1019D000E4B2BC42E6D3BDE8F081000001480078E3
:1019E0007047000059010020704700002DE9FF41B9
:1019F0000026244800F0CDF82248001F074600F0DA
:101A0000C8F8214C2149A06800900D6800E00098BA
:101A10006946284004EB80000C30FFF7A1FF002846
:101A2000F5D101AA009901EA050304EB8303491CDF
:101A3000DB6842F82030401C00910228F2D3019864
:101A400000F0030001280BD0022810D101980321D7
:101A500001EB90500099BDF80A6001EB900005E0A1
:101A60000198BDF80A60C0F383100844009038461E
:101A700000F08CF808B10098A06004B03046BDE8D2
:101A8000F0810000440800202C0400206C0000209D
:101A9000FFF71AFEFFF7BAFDFFF768FEFFF7D0FB6E
:101AA000FFF77AFE08A0FEF7D1FC00BF01F01AFE96
:101AB000FFF794FF0028F9D0FEF756FE1C20FFF731
:101AC000EFFDFFF78DFBF1E7696E697420414C4C27
:101AD00020436F6D706C657465640A002DE9F047F2
:101AE000C5881E1DB6FBF5F78946B6FBF5F1044621
:101AF00005FB176C407916686843DDF820A0F718DD
:101B0000001F874200D9C61A166001E02468491EEA
:101B10000029FBD1A5EB0C078846B74216D818E080
:101B200004EB0C00001D09EB0803BAF1000F3A4664
:101B300002D00146184600E01946FEF7B4FC2468BE
:101B4000F61B4FF0000CB844B54201D9374600E00F
:101B50002F46002EE4D1BDE8F087000030B50246E4
:101B600051B100F02BFD0021074C08E034F8213082
:101B70001568AB4202D11160002030BD491C814282
:101B8000F4D3052030BD000000000000002100F06B
:101B900009B8012100F010B808B56A46FEF7DBFB72
:101BA000009808BD08B56A46FEF7BBFB08BD08B53E
:101BB0006A46FEF79DFB08BD08B56A46FEF7A4FB22
:101BC000009808BD08B56A46FEF7D2FB009808BD2C
:101BD00070B5044600252846FFF7B6F9216862680B
:101BE000086890420ED9401E08600178238AE26896
:101BF00001FB0325227A2168101AC0B20A798242B9
:101C000000D208710020FFF7A1F9284670BD70B519
:101C100005460C460020FFF797F9E868298A201A44
:101C2000B0FBF1F12A681068431C13600170BDE835
:101C300070400020FFF78AB9C20800F007030120B6
:101C4000895C9840084070472DE9FF411C460378A5
:101C5000164D174E45F823200C3545F82340F0CE9D
:101C60008DE8F0000C788DF800404C788DF801403C
:101C70008C788DF80240CC788DF803400C798DF883
:101C800005404C798DF806408C6802940C7B8DF8E9
:101C90000C40497B8DF80D1002B1064A6946001DC3
:101CA00000F044FF04B0BDE8F0810000E80200202D
:101CB000184200007D3900001FB5001D069C8DE80C
:101CC0001E000022694600F0E7FF04B010BD0000CE
:101CD000F0B505460478154889B0164640F824202A
:101CE000124A0869121DA2F1080742F82400487F31
:101CF000385520226846FEF71BFC04942878385C8F
:101D000048B10EB10A4A00E000226946281D01F0E0
:101D10004BFA09B0F0BD0EB1064A00E00022694658
:101D200005F10C0001F094F8F3E700000400002036
:101D3000613F0000A93D000030B40378054CE35C2E
:101D40001BB130BC001D01F065BA30BC0C3001F095
:101D5000E9B800000000002030B40378054CE35CD3
:101D60001BB130BC001D01F0D7BA30BC0C3001F003
:101D70004FB90000000000200FB408B503990029F6
:101D800004D004AA00926A4600F00FF801B05DF892
:101D900014FB10B582680446002A05D0D4E9040378
:101DA000216898470020A06010BD2DE9FC479146AE
:101DB0000C00804676D014F8011B39B125290ED0CD
:101DC0004046FFF7A5F920780028F4D198F80C00D8
:101DD000002867D04046BDE8FC47FFF7DABF002087
:101DE000012221782B291BD02D2902D0302908D19E
:101DF00002E040F0010001E040F00200641C002A13
:101E0000EFD100252A290ED02178A1F130020A2A2B
:101E100011D205EB850201EB4205641C303DF1E770
:101E200040F00400EAE7D9F800100B1DC9F80030B3
:101E30000968641C0D44217800232E290BD114F865
:101E4000011FA1F130020A2A05D203EB830201EB44
:101E50004203303BF3E76C290DD068290BD0692988
:101E600021D00BDC252918D0582931D063290ED078
:101E7000642915D117E014F8011FECE7702969D027
:101E8000732932D075291BD0782909D120E0D9F8DF
:101E90000000011DC9F8001001784046FFF738F92D
:101EA000641C90E76CE0D9F800100A1DC9F8002006
:101EB0000968CDE900500A224046FFF7B9FCEFE778
:101EC000D9F800100A1DC9F8002009680A2206E0A6
:101ED000D9F800100A1DC9F8002009681022CDE9C0
:101EE0000050404602F0DEF8DAE7D9F8001000278B
:101EF0000A1DC9F800200E68C00705D112E040464F
:101F0000761C7F1CFFF704F931780029F7D104E033
:101F1000202140466D1EFFF7FBF8BD42C0D9002DC1
:101F2000F6D1BDE74EB13046FEF79EFA074604E013
:101F3000202140466D1EFFF7EBF8BD4206D9002D6B
:101F4000F6D103E04046761CFFF7E2F8317800292D
:101F5000F8D1A5E7D9F80000011DC9F800100568FF
:101F600030214046FFF7D4F878214046FFF7D0F8FB
:101F700008200021CDE90001034610222946B0E7E0
:101F8000BDE8FC8770B541EA4201DDE904564FF037
:101F9000A04441EA830141EA052104EB800041EAC3
:101FA0000641C0F8001770BD70B541EA4201DDE995
:101FB00004564FF0A04441EA830141EA052104EBB5
:101FC000800041EA0641C0F8001770BD70B541EAD3
:101FD0004201DDE904564FF0A04441EA830141EAA1
:101FE000052104EB800041EA0641C0F8001770BDEE
:101FF00070B541EA4201DDE904564FF0A04441EAE0
:10200000830141EA052104EB800041EA0641C0F862
:10201000001770BD70B541EA4201DDE904564FF08A
:10202000A04441EA830141EA052104EB800041EA32
:102030000641C0F8001770BD1CB5002100910B4689
:1020400001220191FFF7B0FF1CBD1CB500210091DA
:102050000B4601220191FFF7B9FF1CBD1CB5002200
:102060000B46009211460192FFF79EFF1CBD1CB566
:1020700000220B46009211460192FFF7A7FF1CBDFC
:102080001CB500220B46009211460192FFF7C2FFD9
:102090001CBD1CB5002100910B4601220191114687
:1020A000FFF782FF1CBD1CB5002100910B460122E9
:1020B00001911146FFF78AFF1CBD1CB5002100915C
:1020C0000B46012201911146FFF792FF1CBD4FF014
:1020D000A04202EB8000D0F8002722F44032C0F882
:1020E0000027D0F8002742EA0141C0F800177047E6
:1020F00038B5094B44181B6800936B4608E000BFD5
:1021000053F82010D1F8205520C2C1F82055401CAA
:102110008442F5D838BD0000084200004FF0A042CC
:1021200001218140C2F80C1570471CB531B14FF048
:10213000A04101228240C1F818251CBD0021009158
:102140000B460A460191FFF765FF1CBD42094FF09F
:10215000000100D1491E00F01F00012282400A4206
:1021600001D001207047002070474FF0A0420121AC
:102170008140C2F808157047034908B5084400219A
:1021800001600068009008BD0060004002494058AE
:10219000012800D00020704700600040F0B595B0E5
:1021A0001C4615460E4608461A9F00F0D7FA18211D
:1021B00009A8FEF7EFF90E97CDE90954002308228C
:1021C00003A9304600F0DDFA05980690BDF810002E
:1021D000ADF81C00BDF81200ADF81E0000208DF80F
:1021E00021000399082501F00300012802D00228EC
:1021F00016D02FE0C1F3C200C1F383178C0A8DF80B
:102200002000BA002B460FA9304600F0BAFA09A800
:10221000009006AB3A460FA9204600F0FBF919E002
:10222000C1F3C2008C0D8DF82000082C01D2274686
:1022300000E008272B463A460FA9304600F0A1FAE5
:102240003D44E41B09AB06AA39460FA800F05EF92D
:10225000002CEAD1304600F085FA15B0F0BD704789
:10226000084810B50178084A515C19B1001D01F009
:10227000B7F802E00C3000F02FFFBDE8104000205E
:1022800001F0B0BD500000200000002008B5034A56
:1022900000924023024AFFF781FF08BD1539000074
:1022A0002C0300200A4A012902EBC00007D00229B2
:1022B00007D0032907D0042907D000207047022047
:1022C00070470420704700797047407970470000DC
:1022D000584600002DE9FF47FEF732FF18B10020F5
:1022E00004B0BDE8F0877D4C0020C4F81804BFF3AB
:1022F0004F8F7B49A06800900D684FF00008284080
:1023000004EB80000CE000BFD4F8180470B96168D9
:102310000098814201D8A160E1E7284004EB8000E9
:102320000C306946FFF71CFB0028EDD1002001AA04
:10233000009901EA050304EB8303491CDB6842F8BA
:102340002030401C00910228F2D3019800F00301D4
:10235000022902D001294DD0A5E0810D50228946E5
:10236000B2EB905F00D850210E4666F39F5001906B
:1023700008315C4800F0A9F9070077D000F0EEF9C9
:102380004346082201A9384600F003FA009908F1F3
:10239000080A2940681A8000001D864223D94F4D43
:1023A0000C3530B1C2B204EB8101301A90460C31C9
:1023B00004E02946F2B2002590462846C6B25346AC
:1023C000384600F0E6F90AEB08032DB132462946FB
:1023D0004FEA070000F0DDF9009909F1030001EB75
:1023E0009000009039E004EB8101534632463846B4
:1023F0000C31EFE7C0F38311062900D3062161F306
:1024000089100190C0F38310801C8100354800F0D2
:102410005CF9070047D000F0A1F94346082201A962
:10242000384600F0B6F908F1080800260FE00098D9
:10243000434600EA0501401C04EB810100900422A0
:1024400038460C3100F0A5F908F10408761C019813
:10245000C0F38310B042EAD847B1D4F81054D4F88E
:10246000180478B1384600F07DF931E01BE0E868E7
:102470004079012804D12A682846394612689047D5
:10248000E8680568002DF2D1384600F06BF90020AD
:10249000FEF75AFDD4F8180408B90098A06000208F
:1024A000FEF754FD14E0D4F8104405E021682046FE
:1024B00089688847E0680468002CF7D10A480B490E
:1024C000401AC008022101EB004009A100F01AF8EF
:1024D000FEF736FE80F0010002E700002C04002029
:1024E0006C000020C8460000C046000058460000AE
:1024F0004261636B656E647320666C7573686564B6
:102500000000000000231A4601F0B2BA2DE9F0479E
:102510000E4680461C469246082940D894F80C90F6
:10252000002020731946104601F090F80025B542AE
:1025300006D218F805201BA12046FFF71DFC03E07A
:102540001AA12046FFF718FC6D1C082DEFD318A127
:102550002046FFF711FC0025B54212D218F805708D
:102560007E2F08D8FDF756FF0068C05D10F03E0FC3
:1025700001D03A4600E02E220EA12046FFF7FCFBD8
:1025800003E00DA12046FFF7F7FB6D1C082DE3D3F8
:1025900001222146504601F03BF884F80C90BDE83A
:1025A000F087000020253032780000002020200035
:1025B0007C00000025630000200000000248034961
:1025C000401AC00870470000C84600005846000086
:1025D00013B56846FFF7C2FA08B100201CBD0248D7
:1025E000009950F831001CBD5846000070B50848ED
:1025F0000125D0F81044057007E0E06845712168B6
:10260000204649688847E0680468002CF5D170BD11
:102610002C0400202DE9FF4781460C9D00200C462C
:102620002F7B2873984616462946184601F00EF867
:10263000072E42D2DFE806F004090F161F2A3600E3
:1026400049462846FFF798FB37E049462846226866
:10265000FFF792FB31E0D4E9002349462846FFF713
:102660008BFB2AE0A0680090D4E900234946284665
:10267000FFF782FB21E0D4E90201CDE90001D4E9B2
:10268000002349462846FFF777FB16E004F10800CF
:1026900007C88DE80700D4E9002349462846FFF71C
:1026A0006BFB0AE004F108000FC88DE80F00D4E9C5
:1026B000002349462846FFF75FFB00222946404693
:1026C00000F0A6FF2F73BDE8FF872DE9F041058AD2
:1026D00080462D1F4819C01CB0FBF5F0C6B240461D
:1026E000FFF776FA041E19D00020207101206071D6
:1026F000E58000272546761EC4F800800BE04046A2
:10270000FFF766FA60B16179491C6171286005467E
:102710007F1CC0F80080B742F1D32046BDE8F081AD
:10272000204600F002F80020F8E72DE9F041457955
:1027300001466B1E002201E00968521C9A42FBD33D
:102740000F680146002605E038460C68FFF75FFA7F
:102750002146761CAE42F7D3BDE8F0810121001D71
:10276000FFF71ABA10B504460121001DFFF72AFA37
:1027700010F0FF0F04D12046BDE81040FFF7D5BF91
:1027800010BD1CB501920122009201AAFFF7A6F923
:102790001CBD1CB501920022009201AAFFF79EF910
:1027A0001CBD0000064910B500204870091D0860D6
:1027B000BFF35F8F0349044800F03CF8002010BDD0
:1027C00018000020504200000003002010B5002037
:1027D000FEF7BAFBF1EE100A20F09F00E1EE100ABE
:1027E000BFF35F8F05494020C1F880020020FEF74B
:1027F000ADFB20BF40BF20BF10BD000004E000E0E3
:10280000024A1060101D0160704700002C760040E5
:1028100002494058002800D0012070470070004055
:10282000034908B50844002202600068009008BD12
:1028300000700040016009684160AFF3008010B58E
:10284000D0E900215368994201D1002104E0D1E987
:102850000034A34202D01946816010BD08314160A6
:10286000F0E74058002800D00120704708B500224A
:1028700042504058009008BD4058002800D0012028
:10288000704708B5002242504058009008BD40589B
:10289000002800D00120704708B50022425040585F
:1028A000009008BDD0F80403084000D00120704714
:1028B0004058002800D00120704708B5002242503F
:1028C0004058009008BD0000002802D00149800156
:1028D00008477047B1420000002802D0014980013A
:1028E00008477047C14200002DE9F0410E460546F9
:1028F00000F014FE0028284619D0FEF75FFC0838C7
:1029000000F07EFE032802D001280ED007E04FF031
:10291000A040D0F81005E84010F0010F05D00321C9
:102920002846BDE8F041FFF7D2BB0221F8E700F0EE
:1029300001FE002822D02846FEF740FC04464FF452
:10294000807000EB84000E4F81B207EB8400D0F85A
:10295000102542F00102C0F810250846FFF70CFCD4
:10296000002E0BD02846FEF729FC064951F820001E
:10297000002803D00120A040C7F80403BDE8F0817F
:1029800000600040840100202DE9FC41DFF8B880A0
:10299000044608EB0400002790F930001346C017E6
:1029A0000E46401C01D008274AE0B0781946C0F313
:1029B00040022046FEF7DEFB0546401C3FD0B078C3
:1029C000410717D4C0070AD04FF0A04000EB8400A5
:1029D000D0F8001721F00201C0F8001707E000212D
:1029E0007378204600910A460191FFF7CBFA204602
:1029F00000F086FDB078800718D51448317800EBD8
:102A00008500D0F81025124B1A40C0F810254FF45D
:102A1000F8524FF4403302EA042203EA01410A4328
:102A2000D0F810150A43C0F8102509E008EB05009E
:102A3000327810F8481F41EA8211017000E0042743
:102A40003846BDE8FC8100008401002000600040A1
:102A5000FFE0FCFF70B5194D95F8580008B108204B
:102A600070BD0024661E2046FFF770FB10B12819C8
:102A700080F83060641CE4B2202CF4D3002420469B
:102A8000FEF76AFB641CE4B20C2CF8D300200D495D
:102A900068650B4CC02081F8000401264020891F86
:102AA000C1F800014FF4BE70FFF766FBA004C4F844
:102AB000040385F85860002070BD000084010020E8
:102AC0000060004006E000E00121B1EB507F01D141
:102AD00001207047002070470121B1EB507F01D1E8
:102AE000012070470020704770B50D4600F054FE7D
:102AF00004000FD00020FEF727FA207920B1002033
:102B0000FEF724FA112070BD0120256020710020FD
:102B1000FEF71CFA002070BD10B500F03DFE002845
:102B200002D000210160017110BD00002DE9FC47B9
:102B30000C46154601798046554A01EBC10002EB6F
:102B400080069946307F10B10820BDE8FC87514AC5
:102B5000D8F80000074652F82110FFF7C5FF08B16A
:102B60001120F2E7C6E90059207B0128207802D81D
:102B7000FFF7D4FA01E0FFF7F8FA4FF0000ACDF8BA
:102B800000A0CDF804A02078534652460121FFF75B
:102B90002FFA60784FF0FF35FF2806D08146FFF707
:102BA000BDFA4846FFF789FA00E0A946A078FF2859
:102BB00009D0002205460123CDF800A01146CDF82A
:102BC00004A0FFF715FAA07886F82000E078F077E7
:102BD000E078FF280BD0217911B1FFF79FFA01E0CF
:102BE000FFF7C3FAE078FFF768FA2079B077217829
:102BF000C7F80815C7F80C95C7F81055A068C7F8AE
:102C00002405217B607B00B10120012904D0022929
:102C100005D0032908D105E040F0020004E040F0AF
:102C2000040001E040F00600C7F85405A079C7F899
:102C3000C0050720C7F800053068012218B3D8F88E
:102C40000000617940F3073000284FEA411104DBAE
:102C500000F1E02080F8001405E000F00F0000F122
:102C6000E02080F8141DD8F8000040F30730002859
:102C700009DB00F01F0102FA01F14009800000F1B8
:102C8000E020C0F80011504686F81DA032775CE7BE
:102C9000C4020020144200002DE9F04105460F4611
:102CA0000079154900EBC00001EB80041646607FF7
:102CB00010B11120BDE8F081206820B116F0140F8A
:102CC00001D10120607797E80F0004F10C0888E833
:102CD0000F00E07FFF2806D0A17F11B1FFF745FA72
:102CE00001E0FFF71BFA33463A4621462868BDE863
:102CF000F04100F05FBE0000C40200202DE9F04169
:102D000006460D464FF4803400681746AC404BB180
:102D10004FF4A07101EB8501FFF7A8FD3068C0F802
:102D2000044301E0C0F80843306800EB8500C0F8B8
:102D30004075BDE8F0810000016801220A60007959
:102D4000034A00EB400002EB800002210172704751
:102D5000E0010020F0B40468049E40F20115D4F8AC
:102D600000728D40AF43C4F800720468D4F800527A
:102D70001D43C4F800523346F0BCFFF7BFBF00004C
:102D80002DE9F04104460E4600792C4900EB400045
:102D900001EB8007387A10B10820BDE8F0813A6075
:102DA000706800254FF4A078786006E008EB850194
:102DB0002068FFF75BFD6D1CEDB26079A842F5D885
:102DC0002068F17840F3073000284FEA411104DB16
:102DD00000F1E02080F8001405E000F00F0000F1A1
:102DE000E02080F8141D2068012140F307300028FE
:102DF00009DB00F01F0201FA02F24009800000F135
:102E0000E020C0F8002120687278D0F8043562F321
:102E10000103C0F804352068B278D0F8083562F3B1
:102E20000103C0F8083520683278D0F8103562F315
:102E30000303C0F8103539720020AEE7E00100202E
:102E40000149024800F0F6BF68020020002000405F
:102E50002DE9F0410546007916460F4600EB40018A
:102E60002D4A01EBC00102EB810494F82A1011B144
:102E70000820BDE8F081294951F820102868FFF7A3
:102E800033FE08B11120F4E739462846FEF7B6F8BC
:102E900066603869206030004FF001062FD03F7F18
:102EA0004FF48E712868FFF7F7FC4FF4A271286881
:102EB000FFF7F2FC28681A49C0F8041328684FEAA3
:102EC000471140F30730002804DB00F1E02080F8D0
:102ED000001405E000F00F0000F1E02080F8141D60
:102EE000286840F30730002809DB00F01F0106FACC
:102EF00001F14009800000F1E020C0F800112868CD
:102F00000421C0F800150020A061E06184F82900C8
:102F100044F8140FA675ACE76802002010420000C8
:102F2000800002002DE9F05F054600794FF401763C
:102F300000EB400303EBC000344B03EB80040020A4
:102F4000636813B12B68C3F80863A3694FF00009E5
:102F50006BB1E06938B1606810B12868C0F80463EB
:102F60001120BDE8F09FE2610120216105E0C4F875
:102F70002490A261E160C4F81C9094F829100143E8
:102F800002D1284600F061FC60680028286803D060
:102F9000C0F804630020E4E74FF4A2763146FFF75F
:102FA0007BFCB2464FF4927B59462868FFF76FFCD2
:102FB00006464FF484712868FFF769FC8046514645
:102FC0002868FFF764FC074648EA07003043EBD067
:102FD00056EA070007D12146286800F007FCA169DE
:102FE000606A8142E0D8C4F818900EB10320B8E7B7
:102FF0000FB10F20B5E794F82910012000292968A6
:1030000001D00860C6E74860C4E7000068020020FD
:103010002DE9F05F054600790B4600EB400101EB1E
:10302000C000244901EB8004284600F045F810B1A7
:103030001120BDE8F09F62614FF00009C4F82090B4
:10304000A36084F828904FF48E784E464146286855
:10305000FFF722FC28684FF0010AC0F808A02146BB
:10306000286800F01BFE606808BBD5F800B06769EF
:103070000FE000BF94F8280008B10F2615E0414684
:103080005846FFF704FC0028F4D02146584600F0CB
:1030900005FE206AB842F2D3574641462868FFF73A
:1030A000F6FB0028F9D02868C760C4F814903046B1
:1030B000BFE7000068020020007900EB400101EB4F
:1030C000C000044901EB80004069002800D00120C5
:1030D00070470000680200202DE9F047044600799F
:1030E0004FF0000900EB400101EBC000284901EB63
:1030F00080072068C0F800957868B0B1206825493D
:10310000C0F80813206840F3073000280DDB00F0FA
:103110001F02012191404009800000F1E020C0F829
:103120008011BFF34F8FBFF36F8F2068D0F80C254D
:10313000D0F81485D0F80865D0F810554FF0FF315D
:10314000C0F81415C0F80C152068C0F80815C0F8B0
:103150001015501C02D01046FEF777FFB8F1FF3F64
:1031600002D04046FEF771FF681C02D02846FEF7E9
:103170006CFF701C02D03046FEF767FF2068FFF737
:10318000CBFC87F82A90C7F80490BDE8F0870000D0
:1031900068020020840202000149024800F0F8BEE3
:1031A00044020020002000402DE9F041054616466B
:1031B00000790F46154A00EBC00102EB810494F838
:1031C000201011B10820BDE8F081114951F82010FC
:1031D0002868FFF789FC08B11120F4E73946284632
:1031E000FDF7C8FE6660386920601EB1397F284649
:1031F000FEF772FB28680821C0F800150020A061C6
:10320000E0616061012184F82010DCE744020020C5
:103210000C4200002DE9F05F044600790E4600EBF9
:10322000C001DFF8F0A017460AEB81053046FFF732
:103230004BFCB0B168684FF000084FF4047910B14E
:103240002168C1F80893A8694FF0000B80B1E869C4
:1032500048B1686810B12068C0F804931120BDE837
:10326000F09F1020FBE7EF614FF001082E6102E0B4
:10327000EE60C5E9067B00254FF488712068FFF7F2
:103280001CFB4FF4A2712068FFF717FB2068C0F801
:103290003465C0F838752068B8F1000F12D0D0F846
:1032A000001241F02001C0F800122079D04600EB56
:1032B000C0010AEB8100406838B12068C0F804936F
:1032C0002846CCE701210160EFE74FF4887A4FF4FC
:1032D000A27951462068FFF7EBFA07464946206875
:1032E000FFF7E6FA06464FF492712068FFF7E0FA1E
:1032F000014647EA06000843EBD0227902EBC203FD
:1033000008EB8302C2F818B001B10325002ED7D014
:103310000F25D5E7440200202DE9F04704460E466C
:103320000079274900EBC00001EB800517463046C5
:10333000FFF7CAFB30B1204600F044F820B111205D
:10334000BDE8F0871020FBE76F61AE604FF4907727
:103350004FF0000839462068FFF7AFFA4FF4AC761B
:1033600031462068FFF7A9FA2068AA686969C0F8A1
:103370004425C0F8481520684FF00109C0F80890AE
:103380006868D0B9BA4651462068FFF791FA0746F7
:1033900031462068FFF78CFA0743F4D010B14FF0A4
:1033A0000F0808E02068C0F80C9031462068FFF74D
:1033B0007FFA0028F9D0002068614046C0E700008D
:1033C000440200200079054900EBC00001EB8000B9
:1033D0004069002800D0012070470000440200200E
:1033E0002DE9F047064600793D4900EBC00001EBAE
:1033F0008005346868680127A8B13A49C4F8081301
:10340000306840F3073000280DDB00F01F0107FA99
:1034100001F14009800000F1E020C0F88011BFF305
:103420004F8FBFF36F8FD4F8000220F02000C4F854
:103430000002A8694FF4A27820B141462046FFF768
:103440003CFA67604FF4AC7949462046FFF735FAFD
:10345000E760474649462046FFF72AFA0028F9D098
:10346000A86928B139462046FFF722FA0028F1D092
:103470004FF0000AC4F800A53068D0F80C25D0F849
:103480001495D0F80885D0F810754FF0FF31C0F8CA
:103490000C15C0F814153068C0F80815C0F81015E0
:1034A000501C02D01046FEF7C7FDB9F1FF3F02D015
:1034B0004846FEF7C1FD781C02D03846FEF7BCFD39
:1034C000B8F1FF3F02D04046FEF7B6FD2046FFF7B9
:1034D00023FB85F820A0C5F804A0BDE8F087000014
:1034E00044020020100342000349086003480168B9
:1034F0000029FCD07047000004E5014000E40140D1
:1035000010B50549C20800F00703885C01249C40FF
:103510002043885410BD0000D8010020044908440D
:1035200090F93000082801DB012070470020704727
:10353000840100200449084490F93000082801D291
:103540000120704700207047840100202DE9F05FC2
:103550002A4F06464FF0A04A4FF0010B00243819BD
:1035600090F95010491C3CD090F85000314620F0A2
:10357000C0052846FEF760FB20B3204600F040F867
:1035800081460AEB8500D0F80007C0F30148B8F186
:10359000020F18D002212846FEF799FD0BFA05F11B
:1035A000CAF820152846FDF709FE57F820204AB131
:1035B0004846B9F1030F11D0B8F1020F05D0B8F1A8
:1035C000030F07D00DE00321E5E74846B9F1010FED
:1035D00004D006E04846B9F1020F02D10146284660
:1035E0009047641C042CBAD3324601210020FEF718
:1035F0007FFD30680028B1D1BDE8F09F8401002034
:103600000249084490F85000800970478401002066
:1036100010B50C46017A052908D0407A38B108481F
:1036200008A102682046FEF7A7FB00E01AB106A138
:103630002046FEF7A1FB2046BDE81040FEF7A9BBDF
:103640009C000020257300000D0A000038B5C388D7
:103650000D46044633B114A0009015A216A12846C9
:10366000FEF78AFB217A05291CD0607A48B1A08830
:10367000FEF718FE164951F8202016A12846FEF73D
:103680007BFBA0880021FEF7A3FF03461049207AA8
:10369000143951F8202001B02846BDE830400EA171
:1036A000FEF76ABB38BD00001B5B306D00000000F8
:1036B0001B5B313B33316D0025734C6F67732064A6
:1036C000726F70706564202825642925730D0A00C7
:1036D0009C000020257300003C25733E2025733A92
:1036E0002000000070B52A4C207800284FD04FF001
:1036F000A041D1F804054FF400328243C1F80825F7
:1037000000F40030C1F80C052249FE20FCF7AAFEA7
:1037100020493220FCF7A6FE04F10C051D4928883B
:10372000000AFCF79FFE28781A49FCF79BFE00254B
:1037300004F11006657030881649000AFCF792FE05
:1037400030781449FCF78EFE361DA570308811497B
:10375000000AFCF787FE30780E49FCF783FE361D21
:10376000E57030880B49000AFCF77CFE3078094987
:10377000FCF778FE361D257130880649000AFCF7F3
:1037800071FE30780349FCF76DFE6571257070BDE0
:103790005C0100203C0000200349884201D103481D
:1037A0007047002070470000002000400C000020FF
:1037B00000F006B803210148FFF7FABFD00000204F
:1037C00008B5084B00221A70C9B203460091114691
:1037D0000548FEF771FA002803D0BDE80840FDF760
:1037E00003BB08BD58010020C043000070B505466A
:1037F00088690C4600284FF4847128460AD0FFF7E8
:103800004BF8D5F81805626AE1688854606A401C74
:10381000606270BDFFF740F8D5F8180570BD1FB5A0
:1038200001238DF80030CDE90121D0E9001268466E
:1038300090471FBD1FB501238DF80030CDE9012150
:10384000D0E90012684690471FBD10B504460068D5
:103850004FF49271FFF720F84FF484712068FFF75E
:103860001BF820680121016010BD0000074A517853
:1038700029B15089064B401C5081588002E0034B0F
:103880000C331880491C5170704700005C01002007
:10389000040B0020064A917819B1D089401CD081D0
:1038A00002E0034B10331880491C917070470000F0
:1038B0005C010020064AD17819B1508A401C508220
:1038C00002E0034B14331880491CD170704700008C
:1038D0005C010020064A117919B1D08A401CD082BF
:1038E00002E0034B18331880491C11717047000027
:1038F0005C010020064A517919B1508B401C50835D
:1039000002E0034B1C331880491C517170470000C2
:103910005C01002070B50D4C0020D2B22070201D3B
:103920000B4D0378EB5C1BB1001DFFF7F5FC02E0CB
:103930000C30FFF76DFB08B1FDF756FA60780028F0
:1039400002D021780029FAD070BD00004C00002080
:103950000000002010B51320FDF796FE1320FDF7A0
:1039600087FE0120FEF7B8FF1320FDF78DFEBDE8AE
:1039700010404FF47A70FEF7AFBF000000B585B07D
:103980000A4601788DF8001041680191017A8DF89E
:103990000810C1680391007C8DF81000044850F8AD
:1039A00022100C3850F822206846904705B000BD20
:1039B000F40200202DE9F843044610681E4615461F
:1039C0000F464FF0000810B1FFF786F8F8B1A8686D
:1039D00010B1FFF781F8D0B1D5E90001C4F8440572
:1039E000C4F84815D5E90201C4F83405C4F83815FF
:1039F0004FF48C754046C4F81881D4F81811009122
:103A0000F2074FF0010107D0C4F8501506E087F81F
:103A10001D801020BDE8F883C4F85005B20702D518
:103A2000C4F8401501E0C4F84005300700D4216116
:103A3000386848B146F38000401C4FF0400014D075
:103A4000C4F804030020E5E729462046FEF709FFF5
:103A50000028F9D0F87FFF28F4D0B97F11B1FEF724
:103A60005DFBEFE7FEF781FBECE7C4F80803E9E74D
:103A70002DE9F84F074622489146884605681E46BC
:103A8000012269461846FDF7FDFADFF878A060B319
:103A9000009800210446801C0AE000BF00EA0502ED
:103AA00059F821C00AEB8202401C491CC2F80CC024
:103AB000B142F3D34FEA1749FDF798FB611C294047
:103AC0000AEB810149EA00422C40CA600AEB8401FA
:103AD000C86867F3C50066F3891068F39F2020F07B
:103AE0000300401C20F00400C8609AF8000001E0C8
:103AF000FEF7F0FB0028FBD1FDF776FFBDE8F88F5D
:103B00006C0000202C0400202DE9F04F0C464FF4EF
:103B1000927887B005464146FEF7AEFE4FF0020BA5
:103B200001274FF4827640B141462846FEF7A9FEB0
:103B300031462846FEF7A0FEE8B14FF482712846D0
:103B4000FEF79AFE010004F10C00DFF84C91EA4602
:103B500045F307364FF00008069048D04FF48271C5
:103B60002846FEF78EFE94F82000400624D494F8F0
:103B70002E00C8B120E0A068C5F80803C4F808B05A
:103B8000A068C5F804034FF4B0712846FEF774FE30
:103B900018B1D5F80002800501D42F626F6184F856
:103BA0002E7007B0BDE8F08F2146284600F0D4FA09
:103BB00080F0010084F82E0094F8200040073ED4E5
:103BC00014220AF104000699FCF7B2FC4FF4B0711C
:103BD0002846FEF756FE4FF4AE712846FEF751FE1A
:103BE00094F8300008B394F82E00F0B927E04FF4B1
:103BF000A4712846FEF745FE207B68B14FF40070A3
:103C0000C5F80002801CA060C5F80893A068C5F83C
:103C10000403AF602F62C4E714220AF1040006997E
:103C2000FCF786FC94F8300048B90020C5F8000283
:103C3000C4F80880C5F808933046FDF785F8D5F834
:103C4000C404C5F8C404810702D58DF8007011E0E2
:103C5000410702D58DF800B00CE0C00701D0032069
:103C600003E094F82E0018B104208DF8000001E064
:103C70008DF8008094F8300008B984F82F8094F80B
:103C80002000400703D594F82E00002889D0D4E9FD
:103C900000216846904784E702029C0170B50C46FB
:103CA00005464FF48E71FEF7F7FD216AA068415C6E
:103CB000206A401C2062C5F81C1570BD1FB500228B
:103CC0008DF800200291816801914261D0E90012D3
:103CD000684690471FBD1FB500228DF80020029155
:103CE000816801914261D0E90012684690471FBD8A
:103CF0000178022901D0012902D14068FDF774B88A
:103D0000704700007CB50178254DA1B301290BD087
:103D100002291DD18DF80010C068691C0190012294
:103D2000C81DFEF709F830E0017A59B14068017802
:103D30001C48FDF77FF81B4C012650B18DF8006040
:103D400001900DE016490122491CC81DFDF7F4FF42
:103D50007CBDA068E168814205D000208DF800009C
:103D6000696868468847A068E168081AA18888429F
:103D7000E8D9AE707CBDFFE70A4809491030FDF76D
:103D80003EF830B103208DF8000069686846884726
:103D9000F0E70349012201F10800FDF7DDFFE9E743
:103DA000200000200C0300201FB50A4601788DF882
:103DB000001041680191017A8DF80810C0680390E5
:103DC000044850F82210001F50F8222068469047FF
:103DD0001FBD000008000020014901200870704745
:103DE0004C00002010B588B0044620220E496846D9
:103DF000FCF79EFB06200090C01F019002900390EC
:103E00004FF0EB7006900CB1084A00E000226946C2
:103E10000748FDF75DFF08B1FCF7E6FF0448001F07
:103E2000447008B010BD000088420000D93D000079
:103E3000500000202DE9FF470C4605464FF4007165
:103E4000FEF730FD01274FF40178002618B34FF438
:103E5000927949462846FEF71AFDE0B149462846C0
:103E6000FEF71AFDC5F8088394F8290000B96F60C1
:103E700002208DF80000D5F88004C5F88004039076
:103E8000A0690290E0680190A661E661D4E90012A1
:103E90006846904728E004212846FEF703FD18B342
:103EA0004FF484712846FEF7F2FCE8B1214628461B
:103EB000FFF79CFC616AA069884215D1E06938B1BE
:103EC000E268616AA0612069E6616662E06008E01C
:103ED00094F8290000B96F60C5F80883A661E2680C
:103EE000616A2046FFF7A6FC4FF48E7841462846CB
:103EF000FEF7CDFC80B16069216A814202D294F85C
:103F0000280028B341462846FEF7C6FC606918B170
:103F100061692046FFF7DFFE4FF4A278414628464C
:103F2000FEF7B5FC002818D041462846FEF7B4FC41
:103F300094F8290000B12F60A06900280DD0A66177
:103F4000E268616A04B02046BDE8F047FFF772BC42
:103F500021462846FFF7A2FEDEE7BDE8FF87000006
:103F60001FB50A4601788DF8001041680191017A69
:103F70008DF80810C0680390044850F82210001F04
:103F800050F82220684690471FBD0000080000201E
:103F90002DE9FF410C464FF4927705463946FEF76E
:103FA00087FC0026B8B139462846FEF786FC022079
:103FB0008DF80000D5F88004C5F880040390D5F88A
:103FC0003C050290E0680190A661E661D4E9001228
:103FD0006846904723E04FF4887739462846FEF735
:103FE00067FCE0B139462846FEF767FCD5F83C157A
:103FF000A069884213D1E06960B1E268D5F8000297
:1040000020F02000C5F80002E069A0612069E661A7
:10401000E06001E0A661E2682046FFF700FC4FF493
:10402000A27739462846FEF743FC68B13946284650
:10403000FEF743FCA06938B1A661E661D5F83C15EE
:104040002046E268FFF7EBFB4FF4907631462846B6
:10405000FEF72EFC60B131462846FEF72EFC01200B
:10406000E860606920B1D5F84C152046FFF726FEC0
:104070004FF4AC7631462846FEF71AFC00280ED0E5
:1040800031462846FEF719FC6069002807D0D5F8AC
:104090004C1504B02046BDE8F041FFF70FBEBDE867
:1040A000FF8100002DE9F05F8346DDE90A4A994669
:1040B00090460D460846012703E000BFB0FBF8F02C
:1040C0007F1C4045FAD2B94500D94F465FEACA7015
:1040D00012D18CB15FEA8A7002D5B9F1000F01D01C
:1040E000202607E0302605E031465846641EFDF7DD
:1040F0000FF80CB1A742F7D35FF00106B9F1010F39
:1041000002D9A9F1010903E0B5FBF6F0404502D35D
:1041100006FB08F6F2E7DFF83C9000BFB5FBF6F0CF
:1041200000FB165519F800105846FCF7F1FFB6FBD6
:10413000F8F6002EF2D15FEACA7009D0002C07D041
:10414000A74205D220215846641EFCF7E1FFF5E79F
:10415000BDE8F09F2842000010B50B7B0122E3B1BF
:10416000012B1DD0022B0FD0032B24D18B685B03B6
:1041700004D5D0F84C350C69A34216D18B685B038B
:1041800019D4D0F84C3506E0D0F84C350C69A34270
:104190000BD1D0F83C35496905E0D0F84C3501E049
:1041A000D0F83C3509698B4205D00022C0F80025C3
:1041B0000621C0F80015104610BD000010B50029FA
:1041C0000AD00878002807D005487844FCF742FA5E
:1041D000002801D0002010BD0248784410BD000026
:1041E0006E030000660300004FF04070E1EE100A1D
:1041F0007047000000000000000000000000000008
:104200000338FDD8704700000000005099310000CD
:10421000412E0000C1090000FFFFFFFF0006FF0064
:1042200000000040000000003031323334353637B2
:104230003839414243444546000000000000000078
:10424000000000000000000000000000000000006E
:10425000384200005042000004000000FFFFFFFF52
:10426000FFFFFFFFFFFFFFFFFFFFFFFF000000005A
:10427000000000000000D601060100008D220000B1
:10428000612200005F220000FFFFFFFFFFFFFFFF32
:10429000FFFFFFFFFFFFFFFF000000000000000026
:1042A0000000D60106010000000000000000000030
:1042B0000338FDD870470000000000000000000037
:1042C0000338FDD8704700002FFCD5BA29AAB339AE
:1042D00053A21D3B73547BBBB74921BAB7CA173CE5
:1042E000860422BCBFE3DCBBD5CCD93C704093BC78
:1042F0003485E6BC4FBC873DA1CACBBC676BEFBD24
:1043000075E1913E133E233F75E1913E676BEFBD32
:10431000A1CACBBC4FBC873D3485E6BC704093BC82
:10432000D5CCD93CBFE3DCBB860422BCB7CA173C62
:10433000B74921BA73547BBB53A21D3B29AAB33999
:104340002FFCD5BA268F10BA2D1C23BA6C6A59BA25
:1043500071A998BA5895D3BAEB7A0DBB3EDB35BB41
:104360002F2A61BB8BC186BBDC799CBB53C9B0BB18
:1043700098CAC2BB04B2D1BBCFD6DCBBA8BAE3BBE0
:10438000071C7E3FA8BAE3BBCFD6DCBB04B2D1BBCF
:1043900098CAC2BB53C9B0BBDC799CBB8BC186BB7E
:1043A0002F2A61BB3EDB35BBEB7A0DBB5895D3BAE8
:1043B00071A998BA6C6A59BA2D1C23BA268F10BA03
:1043C000010000000040004000000000010000006B
:1043D000FFFFFFFF06FF000000000040000000009C
:1043E00008000000060000000000000000000000BF
:1043F0000000000000E0D701000000000000000005
:104400000338FDD870470000009000400004000011
:104410000400030600000000020002000200020087
:1044200002000200020002007761726E696E67008E
:1044300064656275670000001B5B313B33306D00C3
:104440001B5B306D000000001B5B313B33316D00A6
:104450001B5B313B33326D001B5B313B33336D00F3
:104460001B5B313B33346D001B5B313B33356D00DF
:104470001B5B313B33366D001B5B313B33376D00CB
:10448000696E666F000000006572726F7200000056
:104490004750494F544500005050490054494D453C
:1044A000520000005457494D00000000554152543D
:1044B0004500000055415254000000005052530086
:1044C00053414144430000005350494D0000000057
:1044D0007077725F6D676D74000000006170705FCF
:1044E000627574746F6E0000736F72746C697374AC
:1044F000000000006170705F74696D6572000000FB
:10450000756172745F6C6F675F6261636B656E6427
:104510000000000061707000DC4600000000002018
:10452000840100003C020000544700008401002088
:10453000042A00009802000010010000430000005F
:10454000F8FFFFFF004040404040404040404141B4
:104550004141414040404040404040404040404058
:1045600040404040400502020202020202020202F2
:1045700002020202022020202020202020202002EF
:10458000020202020202909090909090101010107F
:10459000101010101010101010101010101010101B
:1045A00002020202020288888888888808080808AF
:1045B000080808080808080808080808080808087B
:1045C00002020202400000000000000000000000A3
:1045D00000000000000000000000000000000000DB
:1045E00000000000000000000000000000000000CB
:1045F00000000000000000000000000000000000BB
:1046000000000000000000000000000000000000AA
:10461000000000000000000000000000000000009A
:10462000000000000000000000000000000000008A
:10463000000000000000000000000000000000007A
:1046400000000000000000007C42000000000000AC
:1046500000450000640000209044000000000000BD
:1046600098440000000000009C440000000000008E
:10467000A444000000000000AC4400000000000062
:10468000B444000000000000BC4400000000000032
:10469000C044000000000000C8440000000000000A
:1046A000D044000000000000DC44000000000000D6
:1046B000E844000000000000F44400000000000096
:1046C0001445000000000303780000207000002063
:1046D000780000206C03002018000000012D12203B
:1046E000BA40080929285AFF04011C2388441A28C3
:1046F000041A80041A30041A40041A38041A4804B0
:104700001A50041A58041A60041A68041A70041A19
:10471000780401202D8E65583E04195606103F3B43
:10472000CD13BF1D3C2A7F3F041918FE803F7654ED
:104730007E2001202809FCB54A3DFBB5CA3D082969
:10474000441808FFCAA3BFFA86F4702102240104AA
:044750000090D00302
:0400000500000201F4
:00000001FF
