:020000040000FA
:10000000C0280020C5030000CD030000CF0300007E
:10001000D1030000D3030000D5030000000000005E
:10002000000000000000000000000000D7030000F6
:10003000D903000000000000DB030000DD03000026
:10004000DF030000DF030000F1080000DF03000011
:10005000DF030000DF03000065050000DF03000090
:10006000DF030000DF030000DF030000DF03000008
:10007000DF030000DF030000DF030000DF030000F8
:10008000DF03000009060000DF030000DF030000BB
:10009000DF030000DF030000DF030000DF030000D8
:1000A000DF030000DF030000DF030000DF030000C8
:1000B000DF030000DF03000000000000000000007C
:1000C000DF030000DF030000DF030000DF030000A8
:1000D000DF030000DF030000DF030000000000007A
:1000E0000000000000000000000000000000000010
:1000F0000000000000000000000000000000000000
:1001000000000000000000000000000000000000EF
:1001100000000000000000000000000000000000DF
:1001200000000000000000000000000000000000CF
:1001300000000000000000000000000000000000BF
:1001400000000000000000000000000000000000AF
:10015000000000000000000000000000000000009F
:10016000000000000000000000000000000000008F
:10017000000000000000000000000000000000007F
:10018000000000000000000000000000000000006F
:10019000000000000000000000000000000000005F
:1001A000000000000000000000000000000000004F
:1001B000000000000000000000000000000000003F
:1001C000000000000000000000000000000000002F
:1001D000000000000000000000000000000000001F
:1001E000000000000000000000000000000000000F
:1001F00000000000000000000000000000000000FF
:10020000DFF810D000F070F900480047B91900007D
:10021000AFF30080C028002030B450E8012F93B223
:10022000C48923448489A34228BF1B1B0489A34299
:1002300002BFBFF32F8F002007E0C3EA020340E8AC
:100240000134002CE9D14FF001000A6030BC704746
:1002500050E8012FC2EA024240E801210029F7D10B
:10026000704730B450E8022F1FFAA2F3C488A342AB
:1002700002BFBFF32F8F00200DE0C489234484897F
:10028000A34228BF1B1BC2EA034340E80234002CF0
:10029000E8D14FF001000A6030BC704750E8022FEF
:1002A000C2EA224240E802210029F7D17047034602
:1002B00053E8022FD988B2EB324F4FF0000017BF3E
:1002C00092B241EA014142EA014104E05A68B2EBCC
:1002D000324F08BF012043E80212002AE8D17047DC
:1002E00030B4044654E8000F0D4644E80053002B98
:1002F000F8D1156030BC704730B4044654E8000FA4
:1003000040EA010544E80053002BF7D1156030BCEA
:10031000704730B4044654E8000F00EA010544E891
:100320000053002BF7D1156030BC704730B4044641
:1003300054E8000F80EA010544E80053002BF7D190
:10034000156030BC704730B4044654E8000F00EB31
:10035000010544E80053002BF7D1156030BC70470D
:1003600030B4044654E8000FA0EB010544E8005304
:10037000002BF7D1156030BC704770B404464FF0C5
:10038000000054E8006F0D68AE4207BF44E8002348
:10039000012044E800630E60002B1CBF0020F0E742
:1003A00070BC704730B4044654E8000F88422CBF3C
:1003B000451A054644E80053002BF5D1156030BCC2
:1003C000704700000648804706480047FEE7FEE702
:1003D000FEE7FEE7FEE7FEE7FEE7FEE7FEE7FEE7F5
:1003E00019060000010200002DE9F05F054600201B
:1003F00092469B4688460646814640241BE0284696
:1004000041464746224600F05EF853465A46C01A17
:10041000914110D311461846224600F016F82D1AC5
:1004200067EB01084F4622460120002100F00DF83D
:1004300017EB00094E41201EA4F10104DFDC484601
:1004400031462A464346BDE8F09F202A04DB203A85
:1004500000FA02F1002070479140C2F1200320FA17
:1004600003F319439040704700487047843A0000F6
:1004700040EA01039B0703D009E008C9121F08C026
:10048000042AFAD203E011F8013B00F8013B521EA6
:10049000F9D27047D2B201E000F8012B491EFBD21D
:1004A00070470022F6E710B513460A46044619467F
:1004B000FFF7F0FF204610BD421C10F8011B002979
:1004C000FBD1801A7047202A04DB203A21FA02F07F
:1004D0000021704721FA02F3D040C2F1200291407E
:1004E0000843194670470000064C074D06E0E068D7
:1004F00040F0010394E8070098471034AC42F6D36B
:10050000FFF782FEC03D0000E03D000070B58C1892
:1005100010F8015B15F0070301D110F8013B2A1117
:1005200006D110F8012B03E010F8016B01F8016B04
:100530005B1EF9D12B0705D40023521E0DD401F800
:10054000013BFAE710F8013BCB1A921C03E013F8C9
:10055000015B01F8015B521EF9D5A142D8D30020FE
:1005600070BD00002DE9F8430025DFF894804FF4BA
:10057000807601242F460095304601F067FD38B1A2
:10058000D8F80403204203D0304601F055FD25433E
:10059000361D64007F1CB6B2082FEDD34FF4BE7435
:1005A000204601F053FD48B1204601F045FD45F0DD
:1005B00000456A460121002001F00EFD15F0FF0FF5
:1005C00016D0012600242E420ED008EB8401D1F86B
:1005D0001005D1F81015C0F304200A4AC1F30141F7
:1005E00052F8242002B190477600641C082CEAD30C
:1005F000002D02DA684602F0B1FCBDE8F883000085
:1006000000600040E001002002490248091F09681B
:100610000068084754010020F0B5A449A4484FF0F1
:1006200080540B68D4F830210078D4F83411551C6C
:10063000C0F3031006D0944601270026BCF1060F34
:1006400003D00AE003F0FF0CF6E7B4F82453DFF818
:1006500064C2C5F30425CCF80050DDB2062D06D1E6
:10066000032804D1DFF854C2934DCCF87450551CC4
:1006700004D09446BCF1060F03D00AE003F0FF0C4F
:10068000F8E7D4F84452DFF838C2C5F34235CCF865
:100690000050DDB2062D08D1032806D1894DD5F8CA
:1006A00000C02CF0807CC5F800C0551C04D09446D6
:1006B000BCF1060F03D00BE003F0FF0CF8E74FF09E
:1006C0008045C5F80C61C5F810617D4D2D1F2E6069
:1006D000DDB2062D08D1032806D1DFF8E4C10325D9
:1006E0000CF1640CCCF80050DDB2062D10D10328BB
:1006F0000ED1DFF8D4C10525CCF80050724D783505
:100700002F60714D08352E600CF104063F253560D1
:10071000551C04D016460D46062E03D05BE0DEB213
:100720000546F9E7ED1E012D55D9684D2D68684E37
:100730003560664D2D1D2D68361D3560634D0835BD
:100740002D68361D3560614D0C352D68361D3560C0
:100750005E4D10352D68361D35605C4D14352D68A5
:10076000361D3560594D18352D68594E2036356087
:10077000564D1C352D68361D3560544D20352D687D
:10078000361D3560514D24352D68361D35604F4D71
:1007900028352D68361D35604C4D2C352D68361D9D
:1007A00035604A4D30352D68494E40363560474DED
:1007B00034352D68361D3560444D38352D68361D6D
:1007C0003560424D3C352D68361D35603F4D403516
:1007D0002D68361D3560551C03D01646062E02D0F6
:1007E00007E0DEB2FAE7D4F858523A4E05F04F056A
:1007F0003560551C03D01346062B02D008E0DBB24F
:10080000FAE735480368DB0702D06FF001030360A5
:10081000062A07D1C91E022904D93048016841F4CB
:100820008061016027487438016841F470010160FB
:10083000BFF34F8FBFF36F8FD4E94C104FF01022EE
:10084000062907D1C01E032804D9D2F808021C4982
:100850001C310860D2F80002002803DBD2F8040241
:1008600000281FDA012002F047FB1521C2F8001210
:100870001B480368002BFCD0C2F804120168002951
:10088000FCD0002002F038FBBFF34F8F0D48F0384A
:100890000168144A01F4E06111430160BFF34F8F16
:1008A00000BFFDE7114910480860F0BDE00F00F0FF
:1008B000E80F00F0403501400DF0ADBA00C0074030
:1008C0003C050040FCED00E0105600400404001020
:1008D00020C50040E40E0040000400403C170040EA
:1008E00000E401400400FA050090D003D00100208C
:1008F0000148006800470000E400002002E008C84A
:10090000121F08C1002AFAD170477047002001E089
:1009100001C1121F002AFBD17047022000F0F0B97C
:1009200070B50024064D06E06868012110F8340017
:1009300001F058FF641C28788442F5D3002070BD74
:10094000F0000020F8B516460C4605460A2A01D2EA
:100950000720F8BD02F040F818B902F003F80028AB
:10096000F7D1134F102113487D603C70BE60FFF734
:1009700098FD0020C7E904000F4E0DE005EBC40010
:100980003168009181788DF8011000780B4A694632
:1009900001F078FF0028DCD1641EE4B2EED2BDE89D
:1009A000F84005480021064A001D00F05FB800002D
:1009B000F00000208C020020903900002D1700006C
:1009C0002D13000010B572B601F0CCFD01F022FC31
:1009D0000028FBD111481249401AC408012000EB3D
:1009E000044010A101F02EFD11480068C00700D09E
:1009F00000BE022000EB04400EA101F023FDBFF376
:100A00004F8F0B48E43801680E4A01F4E06111434E
:100A10000160BFF34F8F00BFFDE70000283E0000DC
:100A2000F03D0000466174616C206572726F720067
:100A3000F0ED00E053797374656D20726573657431
:100A4000000000000400FA050EB500210091CDE978
:100A500001106A4644F20100FFF7B4FF0EBD00002A
:100A6000014800F0CABC00003001002010B55AB1A6
:100A700000684FF0FF3401294261C0E9024400D010
:100A800000210161002010BD072010BD38B51148BC
:100A900008235822416800910F49006801F01AF8B4
:100AA000002815D10D4A69460D4800F0ABFC040042
:100AB0000ED101210A4800F020FD0123094A194600
:100AC000074800F072FC06490120083908702046EA
:100AD00038BD000098390000AC0200200D31000044
:100AE00030010020FFFF7F0070B5044616460D461A
:100AF000002000F03CF8D4E90201C04370EA010094
:100B000004D0002000F035F8002070BD00F0F4FDA6
:100B1000401941F10001C4E90201002000F029F868
:100B2000A661206900B125612146BDE87040002022
:100B300002F0D4BC10B50446002000F018F8D4E947
:100B40000201C04370EA01000CD04FF0FF30C4E94D
:100B50000200002000F00DF82146BDE81040012001
:100B600002F0BCBC002000F004F8002010BD00F032
:100B700003B800F009B8000072B602480168491CC9
:100B8000016070474C01002003490868401E08605E
:100B900000D162B6704700004C0100202DE9F04101
:100BA000064608680C46411C4FF0A0474FF001056F
:100BB00006D005FA00F1C7F80815206801F0E6F93B
:100BC0006068411C02D0002101F0CEF93168A069B3
:100BD000C1F82405607D227D31681043C1F86C05A1
:100BE000D4E900123068C0F81425C0F80C15207D37
:100BF000012815D1A068411C02D0002101F0B4F9F0
:100C0000E068411C05D08540C7F80855E06801F050
:100C1000BDF9D4E902123068C0F80825C0F81015F3
:100C2000BDE8F0812DE9F041064608680C46411CFC
:100C30004FF0A0474FF0010506D005FA00F1C7F8C4
:100C40000815206801F0ACF96068411C02D0002151
:100C500001F093F93168A069C1F82405607D217D18
:100C600032680843C2F86C05D4E900123068C0F855
:100C70000C15C0F81425207D012815D1A068411C51
:100C800002D0002101F079F9E068411C05D08540CF
:100C9000C7F80855E06801F083F9D4E9021230681A
:100CA000C0F80825C0F81015BDE8F0812DE9FC4119
:100CB0000646C0074FF000050ED0104F0024012259
:100CC000385D009500231146019501F0F3F8641C8E
:100CD000042CF4D300F046F8B0070DD5074E0024DD
:100CE000361D0022305D032300951146019501F069
:100CF000E1F8641C042CF4D3BDE8FC8150390000F9
:100D000007490B5C4FF0A041D1F804250120984021
:100D100020EA0203C1F808351040C1F80C057047FD
:100D2000503900000249085C012101F07AB9000045
:100D3000503900000249085C002101F072B900003E
:100D4000503900000649095C4FF0A040D0F8040576
:100D5000C84010F0010000D0012080F00100704771
:100D60005039000010B500242046FFF7DBFF641C5B
:100D7000042CF9D310BD10B500242046FFF7DAFF8C
:100D8000641C042CF9D310BD10B50246064B4FF07D
:100D9000FF3000215C5C944201D1084610BD491C23
:100DA0000429F7D310BD0000543900002DE9F047A5
:100DB0000D468146FFF7E8FF0446042836D2DFF8E7
:100DC00074801B481C4EA8F10C0725B3012D0ED0D2
:100DD000022D2BD104EB440030444578002D25D062
:100DE000B968002922D02846BDE8F047084704EB3F
:100DF0004401755C0E44717849B10E4A4FF480414C
:100E0000093A8068FFF770FE08B987F80390B17857
:100E100008F80410E2E78068FFF78CFE04EB440159
:100E2000314418F804008D78A842D7D0BDE8F08787
:100E30005839000070000020D401002010B5054989
:100E4000032000F06DF8002803D0BDE81040FFF744
:100E5000FBBD10BD9D0E000070B50023042810D20C
:100E60000D4D00EB4004012A02D101290CD00022D3
:100E7000094E00EB4000304461B1012906D002293F
:100E800006D00723184670BD0E30C2B22A55F9E7C6
:100E90004270F7E78270F5E7D401002070B5164C78
:100EA0000E28217806D00F2824D1172907D0491CF5
:100EB000217006E009B1491EFAE7172000E0002082
:100EC0002070207800F020F805460B482178001D9E
:100ED00050F8212009480A49401AC008032101EBB3
:100EE000004008A101F0B2FA280003D0BDE870402C
:100EF000FFF7AABD70BD000000000020283E0000E2
:100F0000F03D000025730000044A014600201279DC
:100F1000D20702D0084600F04DB8704764000020A8
:100F200070B506461E480024C0E90161B00720D50F
:100F30000025012211462846FFF78EFF6D1C04464E
:100F4000042D02D2002CF4D013E094B940F23332D5
:100F500004211448FFF7F6FC04000AD1FFF7E0FC77
:100F6000040006D10F48104A0021001FFFF77EFD44
:100F70000446F00712D00120FFF798FE74B9094823
:100F80000A4A00210C38FFF771FD040006D105481C
:100F9000074A01210838FFF769FD0446204670BD65
:100FA000640000206439000079120000FD18000080
:100FB0001B0900002DE9F05F6E4C054600266078A5
:100FC000B34618B184F801B000F080FC6A4F4FF4CA
:100FD0007A694FF4C87A4FF00108182D69D2DFE81A
:100FE00005F00C1313384754696E727B727BC5840D
:100FF00084848484B3B6B9BCC5C500F067FC386886
:10100000FFF798FD06465CE00020FFF79BFE0028F6
:101010004FF0000008D0FFF785FE022D02D14FF4FB
:10102000E16008E0484606E0FFF784FE022D01D1AA
:10103000C82000E05046410CC0034FF47A7280187B
:1010400041F10001257052000023FFF7CDF9014660
:101050002AE00020FFF776FE00284FF0000004D0C1
:10106000FFF760FE4FF44870E5E7FFF763FEDFE748
:101070000020FFF767FE00284FF0000002D0FFF7C6
:1010800051FECFE7FFF756FED4E70020FFF75AFEE8
:1010900000284FF0000002D0FFF744FE01E0FFF708
:1010A00049FE257040F6CD4100223868FFF71CFD4F
:1010B000064646E00020FFF723FE257008E00020EA
:1010C00051E025703DE084F801800120FFF718FE13
:1010D000002240F26661E8E784F801800120FFF712
:1010E0000FFE00224FF40051DFE77868FFF722FD82
:1010F0000646D5F1110000D02EB10220FFF712FEF6
:1011000084F802B01DE0012816D980B2C8214843F6
:10111000C117C90341EA5041C0034FF47A728018E5
:1011200041F1000152000023FFF75EF90146002261
:101130007868FFF7D9FC06460220FFF7FBFD84F82C
:1011400002803046BDE8F09F00F0C0FBB9E700F038
:10115000BDFBB4E700F0BAFB04E000F0B7FB0020F1
:10116000FFF7E8FD0120FFF7E5FDAAE7FFF703FE23
:10117000A7E7000064000020583900002DE9F0477F
:101180000546861C91460F464FF0010A0020FFF7E6
:10119000EEFC1B4C04F21C4860683860D4E9010185
:1011A000184F401A3968081A0EE00121404600F035
:1011B000D6FC00F0AFFB0146404600F0D0FCD4E97D
:1011C0000101401A3968081A401C8642EDD8B9F16D
:1011D000000F03D0052065F3891002E0062065F3B7
:1011E0009F5061683A68114004EB8101C8606068F3
:1011F000304460600020FFF7BCFC5046BDE8F0873B
:101200009C0400207C01002070B50D4604460A298C
:1012100002D10D21FFF7F8FFA0682268411CA160F0
:101220001554D4E90101814204D32046BDE8704041
:1012300000F047BD70BD00000448816840688142ED
:1012400001D1012070470020704700009C0400205D
:10125000034630B5074800210478426806E000BF25
:1012600002EBC10005789D4203D0491CA142F7DB87
:10127000002030BDF000002000780221FFF796BD6D
:1012800005494FF0FF32082841F8202002D30844D6
:1012900080F8482070470000E0010020F0B54FF0D2
:1012A000FF3512B10023082601E008230C260C4C60
:1012B00005E000BF54F823707F1C04D05B1CB342D0
:1012C000F8D32846F0BD26185DB286F8305044F8B1
:1012D0002310002AF5D1E11881F84800F1E7000059
:1012E000E00100200249084490F9300070470000F6
:1012F000E001002006480121016000228807C0F8B3
:1013000004218160D0F804110029FBD0704700004F
:101310001805004010B5D0E90234D1E90220D11AF5
:10132000A04101D3012010BD002010BD70B50024E4
:101330000F4D10E0686800EBC406307801F008FB40
:101340007178012901D0012100E00021414030786D
:1013500000F05CF9641C28788442EBDBD5E90401D9
:10136000084303D0BDE8704002F0D4B870BD00005F
:10137000F000002010B50021024800F0FBFB80F3D4
:10138000100010BDB80800204FF480328A40016878
:10139000C1F848230068C0F8082370474FF4A072D2
:1013A00002EB810189B200F09DB92DE9F0410546BB
:1013B0000E464FF4A07000EB860081B228684FF40F
:1013C0008034B440984622F07F47C0F8084328682C
:1013D000C0F84843286801F0B0F9286800EB86009F
:1013E000C0F840752868C0F84443B8F1000F02D037
:1013F0002868C0F80443BDE8F0810068D0F804050F
:101400007047000070B54379234C44F8232042799B
:10141000231D03EBC202224C1579204A121BD4086B
:101420002DB10825022000EB04401EA130E0056824
:101430000A88C5F8082590F904208978002A4FEA1F
:10144000411104DB02F1E02282F8001405E002F011
:101450000F0202F1E02282F8141D90F9041001221B
:10146000002909DB01F01F0502FA05F54909890089
:1014700001F1E021C1F800514179002503EBC101E0
:101480000A71417943F83100032000EB04400EA1BA
:1014900000F0D8FF284670BD50010020183E000023
:1014A000F03D000052544320696E7374616E6365B1
:1014B00020616C726561647920696E697469616C20
:1014C000697A65642E0000005254433A20696E69BF
:1014D0007469616C697A65642E00000090F90400FB
:1014E000002809DB00F01F02012191404009800023
:1014F00000F1E020C0F8001270470A46022100F017
:101500007BB84FF4827100F0EDB8006801210160F2
:10151000704700680121416070472DE9F05F074680
:101520000C464FF4A07000EB84001FFA80FA386874
:101530004FF48036A6409B4622F07F45C0F84863B2
:101540003868C0F808633868D0F8048500EB840276
:10155000D2F84095C2F840855146386801F0EDF860
:10156000A9EB080020F07F40012806D1102001F0EF
:1015700031F95146386801F0E0F83868D0F8048550
:10158000C0F84463A5EB080121F07F4138680129C8
:1015900000EB840010D0C0F840553868D0F804152E
:1015A0006FF07F4C6A1A521E22F07F42ACEB0B03A5
:1015B000934217D362B118E06D1CC0F8405510205B
:1015C00001F008F93868D0F8040540450AD10CE06C
:1015D00000EB84006D1CC0F840553868D0F8040555
:1015E000884202D00D20BDE8F09F012231463846E6
:1015F00000F002F80020F6E70368C3F84413002A5D
:1016000002D00068C0F80413704700002DE9F047CD
:101610000E463249804601EB5001C007097801D0DF
:101620000F0901E001F00F07424601200021FEF7FB
:101630000CFFDFF8AC9004460D46052F4BD2DFE8D7
:1016400007F0031419262A00002E44D00121404639
:1016500001F05CFE0020FFF78AFA4846D0E9041248
:101660000C431543C9E9044530E00EB1022114E0F2
:10167000002112E04EB10321404601F047FE4046F2
:10168000BDE8F047012102F053B9012105E0002E29
:1016900021D1042101E02EB103214046BDE8F047ED
:1016A00001F034BE0021404601F030FE00214046EA
:1016B00002F03EF90020FFF75AFA4A46E043D2E929
:1016C0000434184024EA0501C9E90401BDE8F047E3
:1016D0000020FFF74EBABDE8F08700008C02002022
:1016E000F000002010B5006842581AB101F025F84A
:1016F000012010BD002010BD10B50B48FFF77DFE86
:10170000094A083AD2E90434C018D2E9063244F151
:101710000001C31A71EB020204D24FF080728018EC
:1017200041F1000110BD00003001002010B5C0B231
:10173000FFF78EFD0446007801F00AF90146607853
:10174000012801D0012000E0002090EA010F08D01C
:101750000449D1E90401084303D1BDE8104001F078
:10176000D9BE10BDF00000202DE9FC5F0E008346BD
:10177000DDE90C47C6F1000098469246814600D448
:101780000846012503E000BF90FBFAF06D1C5045B0
:10179000FADAA84500D9454624B1002E01DB7807C6
:1017A00000D5641EB80702D5B8F1000F0AD0F807BB
:1017B00008D13CB1A54205D220215846641EFFF74E
:1017C00023FDF6E7002E02DA4E462D2102E07807CF
:1017D00003D52B215846FFF717FD07F00300022819
:1017E0000BD1B8F1000F08D13CB1A54205D2302190
:1017F0005846641EFFF708FDF6E7CDE9004743466B
:1018000052463146584602F039F8BDE8FC9F0000C8
:1018100070B50D46044600684FF4887100F0D3FFA0
:101820004FF49071206800F0CEFF4FF49271206861
:1018300000F0C9FF4FF4A271206800F0C4FF4FF41C
:10184000AC71206800F0BFFF20681249C0F8041393
:101850002068690740F30730090E002804DB00F117
:10186000E02080F8001405E000F00F0000F1E02017
:1018700080F8141D206840F30730002809DB00F0D1
:101880001F02012191404009800000F1E020C0F8D2
:10189000001170BD10034200024600201268530779
:1018A00013D502F00300012802D002280CD105E074
:1018B000C2F383100B68801C184404E002230868FC
:1018C00003EB925210440860012070470A4810B59B
:1018D000807860B1002401E0022C06D02046FFF79A
:1018E00021FA641C042CF7D310BD0324F6E7BDE8ED
:1018F0001040FFF737BA0000640000200348017968
:10190000C90702D00078FFF755BB7047640000207C
:10191000704700002DE9FF410026244800F01CF923
:101920002248001F074600F017F9214C2149A06802
:1019300000900D6800E000986946284004EB8000A4
:101940000C30FFF7A9FF0028F5D101AA009901EAA0
:10195000050304EB8303491CDB6842F82030401C7C
:1019600000910228F2D3019800F0030001280BD067
:10197000022810D10198032101EB90500099BDF885
:101980000A6001EB900005E00198BDF80A60C0F321
:10199000831008440090384600F0DBF808B1009846
:1019A000A06004B03046BDE8F0810000B40800201B
:1019B0009C0400207C010020FFF79CFCFFF766F8E8
:1019C00008B1FFF741F84FF48041002000F09EFD80
:1019D00008B1FFF739F800F00FFC0A480A49401A2D
:1019E000C008032101EB004008A100F02BFDFFF728
:1019F00025FA00BF00F00EFC0028FBD140BF20BF3D
:101A000020BFF7E7283E0000F03D00004253502081
:101A10006578616D706C6520737461727465642E95
:101A2000000000002DE9F047C5881E1DB6FBF5F744
:101A30008946B6FBF5F1044605FB176C407916683C
:101A40006843DDF820A0F718001F874200D9C61AA6
:101A5000166001E02468491E0029FBD1A5EB0C07A4
:101A60008846B74216D818E004EB0C00001D09EBBD
:101A70000803BAF1000F3A4602D00146184600E0CA
:101A80001946FEF7F5FC2468F61B4FF0000CB8442D
:101A9000B54201D9374600E02F46002EE4D1BDE81B
:101AA000F087000030B5024651B100F043FD00213F
:101AB000074C08E034F821301568AB4202D11160C0
:101AC000002030BD491C8142F4D3052030BD000008
:101AD0000000000010B531B1B2FBF3F403FB142495
:101AE0001CB1092010BD0E2010BD01600021416015
:101AF00081608281C381084610BD70B50C460546E1
:101B0000FEF78AFB002802D021882868084470BDAF
:101B100010B50A8849888A4203D1FEF7BFFB01202D
:101B200010BD002010BD70B50C460546FEF799FBB0
:101B3000002802D061882868084470BD10B50A8862
:101B400049888A4203D1FEF783FB012010BD0020A3
:101B500010BD002100F009B8012100F010B808B54F
:101B60006A46FEF7F0FB009808BD08B56A46FEF726
:101B7000D0FB08BD08B56A46FEF7B2FB08BD08B544
:101B80006A46FEF7B9FB009808BD08B56A46FEF73D
:101B9000E7FB009808BD70B5044600252846FEF70F
:101BA000E6FF21686268086890420ED9401E08600E
:101BB0000178238AE26801FB0325227A2168101A42
:101BC000C0B20A79824200D208710020FEF7D1FF2C
:101BD000284670BD70B505460C460020FEF7C7FFCD
:101BE000E868298A201AB0FBF1F12A681068431CC2
:101BF00013600170BDE870400020FEF7BABF10B559
:101C000030B1017A42680368891AC9B21A6006E0E5
:101C10000E2010BD03681A68541C1C601170491E08
:101C2000C9B2F7D2006800210171084610BDC20890
:101C300000F007030120895C9840084070470000CD
:101C4000F0B505460478154889B0164640F82420BA
:101C5000124A0869121DA2F1080742F82400487FC1
:101C6000385520226846FEF703FC04942878385C37
:101C700048B10EB10A4A00E000226946281D01F071
:101C80001DF809B0F0BD0EB1064A00E00022694619
:101C900005F10C0000F0DCFEF3E70000DC000020A2
:101CA00039370000813500000FB408B503990029C9
:101CB00004D004AA00926A4600F00FF801B05DF863
:101CC00014FB10B582680446002A05D0D4E9040349
:101CD000216898470020A06010BD2DE9FC4791467F
:101CE0000C00804676D014F8011B39B125290ED09E
:101CF0004046FFF789FA20780028F4D198F80C00C4
:101D0000002867D04046BDE8FC47FFF7DABF002057
:101D1000012221782B291BD02D2902D0302908D16E
:101D200002E040F0010001E040F00200641C002AE3
:101D3000EFD100252A290ED02178A1F130020A2AFC
:101D400011D205EB850201EB4205641C303DF1E741
:101D500040F00400EAE7D9F800100B1DC9F8003084
:101D60000968641C0D44217800232E290BD114F836
:101D7000011FA1F130020A2A05D203EB830201EB15
:101D80004203303BF3E76C290DD068290BD0692959
:101D900021D00BDC252918D0582931D063290ED049
:101DA000642915D117E014F8011FECE7702969D0F8
:101DB000732932D075291BD0782909D120E0D9F8B0
:101DC0000000011DC9F8001001784046FFF71CFA19
:101DD000641C90E76CE0D9F800100A1DC9F80020D7
:101DE0000968CDE900500A224046FFF7BDFCEFE745
:101DF000D9F800100A1DC9F8002009680A2206E077
:101E0000D9F800100A1DC9F8002009681022CDE990
:101E10000050404601F032FDDAE7D9F80010002703
:101E20000A1DC9F800200E68C00705D112E040461F
:101E3000761C7F1CFFF7E8F931780029F7D104E020
:101E4000202140466D1EFFF7DFF9BD42C0D9002DAD
:101E5000F6D1BDE74EB13046FEF72EFB074604E053
:101E6000202140466D1EFFF7CFF9BD4206D9002D57
:101E7000F6D103E04046761CFFF7C6F93178002919
:101E8000F8D1A5E7D9F80000011DC9F800100568D0
:101E900030214046FFF7B8F978214046FFF7B4F902
:101EA00008200021CDE90001034610222946B0E7B1
:101EB000BDE8FC8770B541EA4201DDE904564FF008
:101EC000A04441EA830141EA052104EB800041EA94
:101ED0000641C0F8001770BD70B541EA4201DDE966
:101EE00004564FF0A04441EA830141EA052104EB86
:101EF000800041EA0641C0F8001770BD70B541EAA4
:101F00004201DDE904564FF0A04441EA830141EA71
:101F1000052104EB800041EA0641C0F8001770BDBE
:101F200070B541EA4201DDE904564FF0A04441EAB0
:101F3000830141EA052104EB800041EA0641C0F833
:101F4000001770BD1CB5002100910B4601220191C4
:101F5000FFF7D4FF1CBD1CB5002100910B460122E8
:101F60000191FFF7DDFF1CBD1CB500220B4600925E
:101F700011460192FFF7C2FF1CBD1CB500220B46A3
:101F8000009211460192FFF7CBFF1CBD1CB500214A
:101F900000910B46012201911146FFF7AFFF1CBDD6
:101FA0001CB5002100910B46012201911146FFF75B
:101FB000B7FF1CBD4FF0A04202EB8000D0F8002715
:101FC00022F44032C0F80027D0F8002742EA01414D
:101FD000C0F800177047000038B5094B44181B685B
:101FE00000936B4608E000BF53F82010D1F820554D
:101FF00020C2C1F82055401C8442F5D838BD0000ED
:102000008439000042094FF0000100D1491E00F060
:102010001F00012282400A4201D0012070470020A7
:10202000704701224FF0A043824011B1C3F8082548
:102030007047C3F80C257047034908B508440021D0
:1020400001600068009008BD0060004002494058EF
:10205000012800D0002070470060004030B5154ACC
:1020600001460020D2F8104423460AE0DB681D79BF
:10207000854205D1401C0A28F6DB4FF0FF3030BD09
:102080001B68002BF2D1431CF9D0CB681871D2F831
:10209000103443B1DB68CC681B682360D2F810248D
:1020A000D268116030BDC2F81014C96800220A60FD
:1020B00030BD00009C040020F0B595B01C461546CC
:1020C0000E4608461A9F00F005FB182109A8FEF7E6
:1020D000E8F90E97CDE909540023082203A93046F8
:1020E00000F00DFB05980690BDF81000ADF81C003F
:1020F000BDF81200ADF81E0000208DF821000399F4
:10210000082501F00300012802D0022816D02FE094
:10211000C1F3C200C1F383178C0A8DF82000BA0006
:102120002B460FA9304600F0EAFA09A8009006AB4A
:102130003A460FA9204600F029FA19E0C1F3C2007F
:102140008C0D8DF82000082C01D2274600E00827CE
:102150002B463A460FA9304600F0D1FA3D44E41B25
:1021600009AB06AA39460FA800F078F9002CEAD18D
:10217000304600F0B5FA15B0F0BD7047012001F00F
:102180001DBA0000084810B50178084A515C19B121
:10219000001D00F02DFE02E00C3000F027FDBDE830
:1021A0001040002001F00ABA60010020D800002091
:1021B00008B5034A00924023024AFFF77DFF08BD9D
:1021C000C1320000040300200A4A012902EBC000CA
:1021D00007D0022907D0032907D0042907D00020FF
:1021E000704702207047042070470079704740799B
:1021F00070470000F03D000010B5FFF7BFFF04215D
:102200000348FFF72BFF02490120C968487110BD40
:10221000E03D00002DE9FF47FFF70EF818B1002060
:1022200004B0BDE8F0877D4C0020C4F81804BFF36B
:102230004F8F7B49A06800900D684FF00008284040
:1022400004EB80000CE000BFD4F8180470B961689A
:102250000098814201D8A160E1E7284004EB8000AA
:102260000C306946FFF718FB0028EDD1002001AAC9
:10227000009901EA050304EB8303491CDB6842F87B
:102280002030401C00910228F2D3019800F0030195
:10229000022902D001294DD0A5E0810D50228946A6
:1022A000B2EB905F00D850210E4666F39F5001902C
:1022B00008315C4800F0C5F9070077D000F00AFA51
:1022C0004346082201A9384600F021FA009908F196
:1022D000080A2940681A8000001D864223D94F4D04
:1022E0000C3530B1C2B204EB8101301A90460C318A
:1022F00004E02946F2B2002590462846C6B253466D
:10230000384600F004FA0AEB08032DB1324629469C
:102310004FEA070000F0FBF9009909F1030001EB17
:102320009000009039E004EB810153463246384674
:102330000C31EFE7C0F38311062900D3062161F3C6
:1023400089100190C0F38310801C8100354800F093
:1023500078F9070047D000F0BDF94346082201A9EB
:10236000384600F0D4F908F1080800260FE000987C
:10237000434600EA0501401C04EB81010090042261
:1023800038460C3100F0C3F908F10408761C0198B6
:10239000C0F38310B042EAD847B1D4F81054D4F84F
:1023A000180478B1384600F09BF931E01BE0E8688A
:1023B0004079012804D12A68284639461268904796
:1023C000E8680568002DF2D1384600F089F9002050
:1023D000FEF7CDFBD4F8180408B90098A0600020DF
:1023E000FEF7C7FB14E0D4F8104405E0216820464E
:1023F00089688847E0680468002CF7D10A480B49CF
:10240000401AC008022101EB004009A100F01AF8AF
:10241000FEF712FF80F0010002E700009C0400209C
:102420007C010020303E0000283E0000F03D00000E
:102430004261636B656E647320666C757368656476
:102440000000000000231A4600F078BF08B5012301
:1024500000926A4600F072FF08BD00002DE9F047C7
:102460000E4680461C469246082940D894F80C90A7
:10247000002020731946104600F0F0FD0025B542FB
:1024800006D218F805201BA12046FFF70DFC03E03B
:102490001AA12046FFF708FC6D1C082DEFD318A1E8
:1024A0002046FFF701FC0025B54212D218F805704E
:1024B0007E2F08D8FDF7D8FF0068C05D10F03E0FF2
:1024C00001D03A4600E02E220EA12046FFF7ECFB99
:1024D00003E00DA12046FFF7E7FB6D1C082DE3D3B9
:1024E00001222146504600F09BFD84F80C90BDE887
:1024F000F0870000202530327800000020202000E6
:102500007C0000002563000020000000064910B593
:1025100000200870054800F0E1F8002803D10448C5
:1025200000F0FDF8002010BD9C040020303E0000AB
:10253000F439000002480349401AC00870470000FF
:10254000303E0000F03D000013B56846FFF7AAFAE0
:1025500008B100201CBD0248009950F831001CBD94
:10256000F03D000070B508480125D0F81044057012
:1025700007E0E06845712168204649688847E068BF
:102580000468002CF5D170BD9C0400202DE9FF47A4
:1025900081460C9D00200C462F7B287398461646DA
:1025A0002946184600F05AFD072E42D2DFE806F011
:1025B00004090F161F2A360049462846FFF774FB08
:1025C00037E0494628462268FFF76EFB31E0D4E940
:1025D000002349462846FFF767FB2AE0A0680090E1
:1025E000D4E9002349462846FFF75EFB21E0D4E901
:1025F0000201CDE90001D4E9002349462846FFF74E
:1026000053FB16E004F1080007C88DE80700D4E981
:10261000002349462846FFF747FB0AE004F108007B
:102620000FC88DE80F00D4E9002349462846FFF77C
:102630003BFB00222946404600F0F2FC2F73BDE828
:10264000FF872DE9F041058A80462D1F4819C01CDF
:10265000B0FBF5F0C6B24046FFF79DFA041E19D054
:102660000020207101206071E58000272546761E3C
:10267000C4F800800BE04046FFF78DFA60B1617945
:10268000491C6171286005467F1CC0F80080B74274
:10269000F1D32046BDE8F081204600F002F800208A
:1026A000F8E72DE9F041457901466B1E002201E073
:1026B0000968521C9A42FBD30F680146002605E0C8
:1026C00038460C68FFF786FA2146761CAE42F7D3EF
:1026D000BDE8F0810121001DFFF741BAFFF78FBA75
:1026E00010B504460121001DFFF74FFA10F0FF0F4F
:1026F00004D12046BDE81040FFF7D3BF10BD1CB584
:1027000001920122009201AAFFF78CF91CBD1CB5B1
:1027100001920022009201AAFFF784F91CBD826891
:102720000021916082681161826851618268D16084
:102730008268516080680160704708B5002242508D
:102740004058009008BD70B50D460646446804E048
:10275000B2682946904718B1246820680028F7D14C
:1027600020682860256070BD406800687047416837
:102770000868002801D002680A60704702460020FD
:10278000526806E08B4203D1086810600120704750
:102790001A461368002BF5D170474058002800D026
:1027A0000120704708B5002242504058009008BDF3
:1027B000D0F80403084000D001207047405800289A
:1027C00000D00120704708B50022425040580090C8
:1027D00008BD0000002802D0014980010847704769
:1027E000B13900002DE9F0410E46054600F09EFB90
:1027F0000028284619D0FEF775FD083800F008FCBF
:10280000032802D001280ED007E04FF0A040D0F8F6
:102810001005E84010F0010F05D003212846BDE85F
:10282000F041FFF7C7BB0221F8E700F08BFB00285F
:1028300022D02846FEF756FD04464FF4807000EB88
:1028400084000E4F81B207EB8400D0F8102542F0CF
:102850000102C0F810250846FFF7EEFB002E0BD052
:102860002846FEF73FFD064951F82000002803D016
:102870000120A040C7F80403BDE8F08100600040DB
:10288000E00100202DE9FC41DFF8B880044608EBA8
:102890000400002790F930001346C0170E46401C74
:1028A00001D008274AE0B0781946C0F3400220461C
:1028B000FEF7F4FC0546401C3FD0B078410717D422
:1028C000C0070AD04FF0A04000EB8400D0F80017FA
:1028D00021F00201C0F8001707E0002173782046BC
:1028E00000910A460191FFF7F7FA204600F010FB2D
:1028F000B078800718D51448317800EB8500D0F8FF
:102900001025124B1A40C0F810254FF4F8524FF41E
:10291000403302EA042203EA01410A43D0F81015C9
:102920000A43C0F8102509E008EB0500327810F8DA
:10293000481F41EA8211017000E004273846BDE8D3
:10294000FC810000E001002000600040FFE0FCFF8F
:102950004FF0A041D1F81015C14011F0010000D096
:102960000120704770B5194D95F8580008B108203E
:1029700070BD0024661E2046FFF744FB10B12819E5
:1029800080F83060641CE4B2202CF4D3002420468C
:10299000FEF776FC641CE4B20C2CF8D300200D4941
:1029A00068650B4CC02081F8000401264020891F77
:1029B000C1F800014FF4BE70FFF73EFBA004C4F85D
:1029C000040385F85860002070BD0000E00100207D
:1029D0000060004006E000E0034890F8580000283E
:1029E00000D0012070470000E00100200121B1EB80
:1029F000507F01D1012070470020704770B50D460F
:102A000000F078FB04000FD00020FEF7B0F820792A
:102A100020B10020FEF7ADF8112070BD0120256027
:102A200020710020FEF7A5F8002070BD10B500F061
:102A300061FB002802D000210160017110BD00007F
:102A40000149024800F0E2BD3C02002000200040A5
:102A50002DE9F0410546007916460F4600EB40018E
:102A60002D4A01EBC00102EB810494F82A1011B148
:102A70000820BDE8F081294951F820102868FFF7A7
:102A8000BDFF08B11120F4E739462846FEF786F865
:102A900066603869206030004FF001062FD03F7F1C
:102AA0004FF48E712868FFF77DFE4FF4A2712868FD
:102AB000FFF778FE28681A49C0F8041328684FEA1F
:102AC000471140F30730002804DB00F1E02080F8D4
:102AD000001405E000F00F0000F1E02080F8141D64
:102AE000286840F30730002809DB00F01F0106FAD0
:102AF00001F14009800000F1E020C0F800112868D1
:102B00000421C0F800150020A061E06184F82900CC
:102B100044F8140FA675ACE73C0200208839000089
:102B2000800002002DE9F05F054600790B4600EBBE
:102B3000400101EBC000244901EB8004284600F06D
:102B400045F810B11120BDE8F09F62614FF0000917
:102B5000C4F82090A36084F828904FF48E784E46F5
:102B600041462868FFF71EFE28684FF0010AC0F8AA
:102B700008A02146286800F0D9FC606808BBD5F899
:102B800000B067690FE000BF94F8280008B10F2675
:102B900015E041465846FFF700FE0028F4D02146D4
:102BA000584600F0C3FC206AB842F2D3574641466B
:102BB0002868FFF7F2FD0028F9D02868C760C4F83C
:102BC00014903046BFE700003C020020007900EB83
:102BD000400101EBC000044901EB8000406900287E
:102BE00000D00120704700003C0200202DE9F04792
:102BF000044600794FF0000900EB400101EBC000F2
:102C0000284901EB80072068C0F800957868B0B1CA
:102C100020682549C0F80813206840F307300028D1
:102C20000DDB00F01F02012191404009800000F1FE
:102C3000E020C0F88011BFF34F8FBFF36F8F206883
:102C4000D0F80C25D0F81485D0F80865D0F81055C8
:102C50004FF0FF31C0F81415C0F80C152068C0F80B
:102C60000815C0F81015501C02D01046FFF76AF97D
:102C7000B8F1FF3F02D04046FFF764F9681C02D06C
:102C80002846FFF75FF9701C02D03046FFF75AF96B
:102C90002068FFF7CBFE87F82A90C7F80490BDE8BC
:102CA000F08700003C020020840202000149024833
:102CB00000F05ABD68020020002000402DE9F041DC
:102CC0000546164600790F46154A00EBC00102EB97
:102CD000810494F8201011B10820BDE8F081114959
:102CE00051F820102868FFF789FE08B11120F4E799
:102CF00039462846FDF796FF6660386920601EB1A8
:102D0000397F2846FEF784FD28680821C0F80015A1
:102D10000020A061E0616061012184F82010DCE7FF
:102D2000680200208C3900002DE9F04704460E4669
:102D30000079274900EBC00001EB800517463046BB
:102D4000FFF754FE30B1204600F044F820B11120C6
:102D5000BDE8F0871020FBE76F61AE604FF490771D
:102D60004FF0000839462068FFF72DFD4FF4AC7690
:102D700031462068FFF727FD2068AA686969C0F816
:102D80004425C0F8481520684FF00109C0F80890A4
:102D90006868D0B9BA4651462068FFF70FFD07466C
:102DA00031462068FFF70AFD0743F4D010B14FF019
:102DB0000F0808E02068C0F80C9031462068FFF743
:102DC000FDFC0028F9D0002068614046C0E7000003
:102DD000680200200079054900EBC00001EB80008B
:102DE0004069002800D001207047000068020020E0
:102DF0002DE9F047064600793D4900EBC00001EBA4
:102E00008005346868680127A8B13A49C4F80813F6
:102E1000306840F3073000280DDB00F01F0107FA8F
:102E200001F14009800000F1E020C0F88011BFF3FB
:102E30004F8FBFF36F8FD4F8000220F02000C4F84A
:102E40000002A8694FF4A27820B141462046FFF75E
:102E5000BAFC67604FF4AC7949462046FFF7B3FCF3
:102E6000E760474649462046FFF7A8FC0028F9D00E
:102E7000A86928B139462046FFF7A0FC0028F1D008
:102E80004FF0000AC4F800A53068D0F80C25D0F83F
:102E90001495D0F80885D0F810754FF0FF31C0F8C0
:102EA0000C15C0F814153068C0F80815C0F81015D6
:102EB000501C02D01046FFF74EF8B9F1FF3F02D088
:102EC0004846FFF748F8781C02D03846FFF743F829
:102ED000B8F1FF3F02D04046FFF73DF82046FFF72C
:102EE000A5FD85F820A0C5F804A0BDE8F087000086
:102EF000680200201003420003490860034801688B
:102F00000029FCD07047000004E5014000E40140C6
:102F100010B50549C20800F00703885C01249C40F5
:102F20002043885410BD00003402002004490844A6
:102F300090F93000082801DB01207047002070471D
:102F4000E00100200449084490F93000082801D22B
:102F50000120704700207047E00100202DE9F05F5C
:102F60002A4F06464FF0A04A4FF0010B00243819B3
:102F700090F95010491C3CD090F85000314620F098
:102F8000C0052846FEF753FE20B3204600F040F867
:102F900081460AEB8500D0F80007C0F30148B8F17C
:102FA000020F18D002212846FFF704F80BFA05F1AA
:102FB000CAF820152846FEF795F957F820204AB19F
:102FC0004846B9F1030F11D0B8F1020F05D0B8F19E
:102FD000030F07D00DE00321E5E74846B9F1010FE3
:102FE00004D006E04846B9F1020F02D10146284656
:102FF0009047641C042CBAD3324601210020FEF70E
:10300000EBFF30680028B1D1BDE8F09FE00100205F
:103010000249084490F8500080097047E001002000
:1030200010B50C46017A052908D0407A38B1084815
:1030300008A102682046FEF737FE00E01AB106A19B
:103040002046FEF731FE2046BDE81040FEF739BEAF
:10305000AC010020257300000D0A000038B5C388BC
:103060000D46044633B114A0009015A216A12846BF
:10307000FEF71AFE217A05291CD0607A48B1A08893
:10308000FFF7A2F8164951F8202016A12846FEF7AE
:103090000BFEA0880021FFF757FA03461049207A5B
:1030A000143951F8202001B02846BDE830400EA167
:1030B000FEF7FABD38BD00001B5B306D000000005C
:1030C0001B5B313B33316D0025734C6F677320649C
:1030D000726F70706564202825642925730D0A00BD
:1030E000AC010020257300003C25733E2025733A77
:1030F000200000000349884201D1034870470020A6
:103100007047000000200040E400002070B5054634
:10311000FEF7F7F9134C40B1D4E904024FF0807187
:10312000411842F10000C4E9041000212846FEF7CE
:1031300035F930B1606820B1606800F04BF90020CB
:10314000606001212846FEF729F918B1FEF7D4FA8C
:10315000C4E90601284600F081F92846BDE8704020
:1031600000F038B8280100202DE9F04100260E704B
:10317000D0E902740D468046FEF7BEFA381A0023E5
:1031800064EB01011A461B1A8A4115DAB0F5350FB6
:1031900004D3FDF765FC0D49421800E03A464FF4B0
:1031A000960300210A48FEF7B8F910B10D2807D0A0
:1031B0000AE00120BDE8F08100210548FEF7E4F8AF
:1031C000404600F007F928700020F3E7FFFFB40045
:1031D00030010020F8B5204C064600251F48FFF7B7
:1031E000C3FA10B3D0E90210CA4372EA000224D035
:1031F000626882B16368D3E90223891A984127D2B1
:103200006068D0E90210C94371EA000103D0616827
:103210001248FFF798FA00F073F807466946FFF77F
:10322000A3FFB0B1606858B10DE0606800280FD10D
:103230003046BDE8F840FEF76CB900F061F8CDE724
:103240003046FEF762F967609DF800000028C5D19E
:10325000F8BD6560C2E7000028010020A039000029
:1032600070B5054688690C4600284FF484712846DD
:103270000AD0FFF797FAD5F81805626AE168885412
:10328000606A401C606270BDFFF78CFAD5F81805C3
:1032900070BD1FB501238DF80030CDE90121D0E9C3
:1032A0000012684690471FBD1FB501238DF80030FE
:1032B000CDE90121D0E90012684690471FBD00000A
:1032C00070B50D4C0020D2B22070201D0B4D03783C
:1032D000EB5C1BB1001DFFF727FD02E00C30FFF790
:1032E00021FC08B1FDF7B0FB6078002802D02178FE
:1032F0000029FAD070BD00005C010020D800002039
:103300000148FFF734BA0000A0390000C207002AC4
:1033100003D000BF4FF00F0201E04FF0F00201D0E8
:103320004FEA0111044B03EB5003187800EA020046
:1033300040EA0100187070478C0200202DE9F84F18
:10334000074622489146884605681E46012269467E
:103350001846FDF713FFDFF878A060B3009800214E
:103360000446801C0AE000BF00EA050259F821C0AB
:103370000AEB8202401C491CC2F80CC0B142F3D3D4
:103380004FEA1749FDF7F6FF611C29400AEB81015E
:1033900049EA00422C40CA600AEB8401C86867F31E
:1033A000C50066F3891068F39F2020F00300401CDD
:1033B00020F00400C8609AF8000001E0FEF72AFF40
:1033C0000028FBD1FEF7A4FABDE8F88F7C010020AD
:1033D0009C04002070B504461E480025007860B3A8
:1033E0005CB3FEF789F9D4E90223801A994125D309
:1033F0000020FDF7BCFB206910B9681EC4E902007B
:103400000020FDF7B6FBD4E9051088470020FDF742
:10341000AEFB226972B1D4E90210CB4373EA000318
:1034200008D0891840F10000C4E902100020FDF71F
:10343000A0FB07E00020FDF79CFB08E0D04370EA0A
:10344000030004D021460448FFF77DF901252846F2
:1034500070BD000028010020A039000038B51D4DC6
:1034600069462868FEF75FFB1B4C30E0017821B10C
:1034700001290ED0022922D117E04168D1E90220AA
:10348000D24372EA00021AD012480830FFF75BF903
:1034900015E041686068814202D1002060600EE062
:1034A0000C480830FFF76AF909E0FFF729FF20B15F
:1034B0004FF0FF31C0E90211F7E7012020706946A3
:1034C0002868FEF725FB69462868FEF72CFB0028D4
:1034D000CCD138BD9839000028010020F8B50B4C3C
:1034E0000D46064669462068FEF707FB58B1067090
:1034F000456069462068FEF721FB10B10448FDF7DE
:10350000EDFF0020F8BD0420F8BD00009839000050
:1035100030010020034880684108034800224068C9
:10352000FDF7E2BAF00000209039000070B50C46BB
:1035300005464FF48E71FFF735F9216AA068415CAA
:10354000206A401C2062C5F81C1570BD1FB5002202
:103550008DF800200291816801914261D0E900124A
:10356000684690471FBD1FB500228DF800200291CC
:10357000816801914261D0E90012684690471FBD01
:103580001FB50A4601788DF8001041680191017A53
:103590008DF80810C0680390044850F82210001FEE
:1035A00050F82220684690471FBD0000E000002030
:1035B00001490120087070475C01002010B588B0F7
:1035C000044620220E496846FCF752FF0620009070
:1035D000C01F0190029003904FF0EB7006900CB169
:1035E000084A00E0002269460748FEF729FB08B1B7
:1035F000FDF72AFA0448001F447008B010BD00000F
:10360000D4390000B1350000600100202DE9FF47EA
:103610000C4605464FF40071FFF7CAF801274FF436
:103620000178002618B34FF4927949462846FFF7EF
:10363000B4F8E0B149462846FFF7B4F8C5F8088366
:1036400094F8290000B96F6002208DF80000D5F8C9
:103650008004C5F880040390A0690290E06801909E
:10366000A661E661D4E900126846904728E004218B
:103670002846FFF79DF818B34FF484712846FFF7EA
:103680008CF8E8B121462846FFF7EAFD616AA06997
:10369000884215D1E06938B1E268616AA0612069A9
:1036A000E6616662E06008E094F8290000B96F60A6
:1036B000C5F80883A661E268616A2046FFF7E9FD64
:1036C0004FF48E7841462846FFF767F880B160696D
:1036D000216A814202D294F8280028B34146284644
:1036E000FFF760F8606918B161692046FFF72EFFA7
:1036F0004FF4A27841462846FFF74FF8002818D02B
:1037000041462846FFF74EF894F8290000B12F6093
:10371000A06900280DD0A661E268616A04B0204665
:10372000BDE8F047FFF7B5BD21462846FFF7FEFE8E
:10373000DEE7BDE8FF8700001FB50A4601788DF877
:10374000001041680191017A8DF80810C06803905B
:10375000044850F82210001F50F822206846904775
:103760001FBD0000E00000202DE9FF410C464FF492
:10377000927705463946FFF721F80026B8B1394659
:103780002846FFF720F802208DF80000D5F88004C5
:10379000C5F880040390D5F83C050290E0680190DC
:1037A000A661E661D4E900126846904723E04FF431
:1037B000887739462846FFF701F8E0B139462846B0
:1037C000FFF701F8D5F83C15A069884213D1E069EC
:1037D00060B1E268D5F8000220F02000C5F80002D0
:1037E000E069A0612069E661E06001E0A661E2684D
:1037F0002046FFF759FD4FF4A27739462846FEF7D9
:10380000DDFF68B139462846FEF7DDFFA06938B113
:10381000A661E661D5F83C152046E268FFF744FD55
:103820004FF4907631462846FEF7C8FF60B1314626
:103830002846FEF7C8FF0120E860606920B1D5F88E
:103840004C152046FFF78FFE4FF4AC7631462846E4
:10385000FEF7B4FF00280ED031462846FEF7B3FF2E
:103860006069002807D0D5F84C1504B02046BDE8A3
:10387000F041FFF778BEBDE8FF8100002DE9F05F61
:103880008346DDE90A4A994690460D4608460127D7
:1038900003E000BFB0FBF8F07F1C4045FAD2B94509
:1038A00000D94F465FEACA7012D18CB15FEA8A70C4
:1038B00002D5B9F1000F01D0202607E0302605E03F
:1038C00031465846641EFDF79FFC0CB1A742F7D362
:1038D0005FF00106B9F1010F02D9A9F1010903E076
:1038E000B5FBF6F0404502D306FB08F6F2E7DFF839
:1038F0003C9000BFB5FBF6F000FB165519F8001020
:103900005846FDF781FCB6FBF8F6002EF2D15FEACF
:10391000CA7009D0002C07D0A74205D220215846F2
:10392000641EFDF771FCF5E7BDE8F09FB6390000B5
:1039300070B50C460546FDF78BFC002807D04268A1
:10394000002A04D021462846BDE87040104770BDCB
:10395000111213140D0E0F10780000209800002093
:10396000B80000200D000300AD0D00000E000300A4
:10397000AD0D00000F000300AD0D000010000300AE
:10398000AD0D000000000050412A0000AD2C0000E9
:1039900003000000080100209C0200200100060036
:1039A0000000000048010020151300000000000086
:1039B0000338FDD870473031323334353637383933
:1039C0004142434445460000B121000085210000EA
:1039D0007B210000FFFFFFFFFFFFFFFFFFFFFFFF57
:1039E000FFFFFFFF00000000000000000000D60104
:1039F00006010000040400207F0000008404002071
:103A000000404040404040404040414141414140F1
:103A100040404040404040404040404040404040A6
:103A20004005020202020202020202020202020235
:103A3000022020202020202020202002020202023A
:103A40000202909090909090101010101010101092
:103A5000101010101010101010101010020202029E
:103A600002028888888888880808080808080808E2
:103A700008080808080808080808080802020202DE
:103A800040000000013A00004253505F494E444953
:103A9000434154455F555345525F53544154455F2C
:103AA000300000004253505F494E44494341544561
:103AB0005F414C4552545F30000000004253505F5C
:103AC000494E4449434154455F555345525F535411
:103AD0004154455F310000004253505F494E444914
:103AE000434154455F414C4552545F310000000052
:103AF0004253505F494E4449434154455F555345F5
:103B0000525F53544154455F320000004253505FAE
:103B1000494E4449434154455F414C4552545F32FC
:103B2000000000004253505F494E44494341544510
:103B30005F555345525F53544154455F3300000075
:103B40004253505F494E4449434154455F414C45BF
:103B500052545F33000000004253505F494E4449C5
:103B6000434154455F434F4E4E4543544544000046
:103B70004253505F494E4449434154455F41445686
:103B80004552544953494E475F4449524543544571
:103B9000440000004253505F494E4449434154455C
:103BA0005F49444C450000004253505F494E444930
:103BB000434154455F555345525F53544154455F0B
:103BC0004F4646004253505F494E44494341544595
:103BD0005F414C4552545F4F464600004253505F90
:103BE000494E4449434154455F424F4E44494E4734
:103BF000000000004253505F494E44494341544540
:103C00005F5343414E4E494E470000004253505FC0
:103C1000494E4449434154455F41445645525449F5
:103C200053494E47000000004253505F494E4449FB
:103C3000434154455F53454E545F4F4B00000000D5
:103C40004253505F494E4449434154455F524356A5
:103C50005F4F4B004253505F494E444943415445E6
:103C60005F555345525F53544154455F4F4E0000DA
:103C70004253505F494E4449434154455F53454E7A
:103C8000445F4552524F52004253505F494E44499F
:103C9000434154455F464154414C5F4552524F5257
:103CA000000000004253505F494E4449434154458F
:103CB0005F5243565F4552524F5200004253505F8D
:103CC000494E4449434154455F4144564552544945
:103CD00053494E475F57484954454C495354000097
:103CE0004253505F494E4449434154455F41445615
:103CF0004552544953494E475F534C4F57000000BB
:103D00007761726E696E67006465627567000000B6
:103D10001B5B313B33306D001B5B306D00000000DE
:103D20001B5B313B33316D001B5B313B33326D002C
:103D30001B5B313B33336D001B5B313B33346D0018
:103D40001B5B313B33356D001B5B313B33366D0004
:103D50001B5B313B33376D00696E666F00000000FE
:103D60006572726F720000004750494F5445000061
:103D700050525300554152540000000055415254D6
:103D8000450000006170705F627574746F6E0000B2
:103D90006170705F74696D6572000000736F72749A
:103DA0006C69737400000000756172745F6C6F67FA
:103DB0005F6261636B656E6400000000617070009B
:103DC000443E000000000020D40100000C0500006B
:103DD000D83E0000D4010020EC2600000C090000B1
:103DE000C839000000000000A83D00007401002058
:103DF000683D000000000000703D00000000000071
:103E0000743D0000000000007C3D00000000000048
:103E1000843D000000000000903D00000000000014
:103E20009C3D000000000000BC3D000000000303BA
:103E30008801002080010020880100204403002028
:103E4000180000004123943B1AF404230C3C1ABCD4
:103E5000041AE0041A70101ADC041A58042A2810F4
:103E600019041A40041AA4042A8808223A1AD80409
:103E70001A0C201A40041AC4041AA8041A88141A26
:103E8000BC041AF0041A24101A542C011C5AFF0105
:103E90000956200130091F501510014011022E044F
:103EA0001220BA400829685904011C33603D1904E6
:103EB0001A58041A08041A18041A10041A20041AAA
:103EC00028041A30041A38041A40041A48042A50E4
:083ED00030040090D003000053
:0400000500000201F4
:00000001FF
